{
	"contracts/sis.sol": {
		"PicWe_StateIdentification": {
			"abi": [
				{
					"inputs": [],
					"stateMutability": "nonpayable",
					"type": "constructor"
				},
				{
					"inputs": [
						{
							"internalType": "address",
							"name": "target",
							"type": "address"
						}
					],
					"name": "AddressEmptyCode",
					"type": "error"
				},
				{
					"inputs": [],
					"name": "ECDSAInvalidSignature",
					"type": "error"
				},
				{
					"inputs": [
						{
							"internalType": "uint256",
							"name": "length",
							"type": "uint256"
						}
					],
					"name": "ECDSAInvalidSignatureLength",
					"type": "error"
				},
				{
					"inputs": [
						{
							"internalType": "bytes32",
							"name": "s",
							"type": "bytes32"
						}
					],
					"name": "ECDSAInvalidSignatureS",
					"type": "error"
				},
				{
					"inputs": [
						{
							"internalType": "address",
							"name": "implementation",
							"type": "address"
						}
					],
					"name": "ERC1967InvalidImplementation",
					"type": "error"
				},
				{
					"inputs": [],
					"name": "ERC1967NonPayable",
					"type": "error"
				},
				{
					"inputs": [],
					"name": "EnforcedPause",
					"type": "error"
				},
				{
					"inputs": [],
					"name": "ExpectedPause",
					"type": "error"
				},
				{
					"inputs": [],
					"name": "FailedInnerCall",
					"type": "error"
				},
				{
					"inputs": [],
					"name": "InvalidInitialization",
					"type": "error"
				},
				{
					"inputs": [],
					"name": "NotInitializing",
					"type": "error"
				},
				{
					"inputs": [
						{
							"internalType": "address",
							"name": "owner",
							"type": "address"
						}
					],
					"name": "OwnableInvalidOwner",
					"type": "error"
				},
				{
					"inputs": [
						{
							"internalType": "address",
							"name": "account",
							"type": "address"
						}
					],
					"name": "OwnableUnauthorizedAccount",
					"type": "error"
				},
				{
					"inputs": [],
					"name": "UUPSUnauthorizedCallContext",
					"type": "error"
				},
				{
					"inputs": [
						{
							"internalType": "bytes32",
							"name": "slot",
							"type": "bytes32"
						}
					],
					"name": "UUPSUnsupportedProxiableUUID",
					"type": "error"
				},
				{
					"anonymous": false,
					"inputs": [
						{
							"indexed": true,
							"internalType": "address",
							"name": "newAdmin",
							"type": "address"
						}
					],
					"name": "AdminChanged",
					"type": "event"
				},
				{
					"anonymous": false,
					"inputs": [
						{
							"indexed": false,
							"internalType": "address[]",
							"name": "participants",
							"type": "address[]"
						},
						{
							"indexed": false,
							"internalType": "uint256[]",
							"name": "newBalances",
							"type": "uint256[]"
						}
					],
					"name": "BalancesBatchUpdatedbyadmin",
					"type": "event"
				},
				{
					"anonymous": false,
					"inputs": [
						{
							"indexed": false,
							"internalType": "address[]",
							"name": "participants",
							"type": "address[]"
						},
						{
							"indexed": false,
							"internalType": "uint256[]",
							"name": "newBalances",
							"type": "uint256[]"
						}
					],
					"name": "BalancesBatchUpdatedbyuser",
					"type": "event"
				},
				{
					"anonymous": false,
					"inputs": [
						{
							"indexed": true,
							"internalType": "address",
							"name": "participant",
							"type": "address"
						},
						{
							"indexed": false,
							"internalType": "uint256",
							"name": "amount",
							"type": "uint256"
						}
					],
					"name": "ChannelClosed",
					"type": "event"
				},
				{
					"anonymous": false,
					"inputs": [
						{
							"indexed": true,
							"internalType": "address",
							"name": "participant",
							"type": "address"
						},
						{
							"indexed": false,
							"internalType": "uint256",
							"name": "amount",
							"type": "uint256"
						},
						{
							"indexed": false,
							"internalType": "uint256",
							"name": "voteId",
							"type": "uint256"
						}
					],
					"name": "ChannelClosedByDAO",
					"type": "event"
				},
				{
					"anonymous": false,
					"inputs": [
						{
							"indexed": true,
							"internalType": "address",
							"name": "participant",
							"type": "address"
						},
						{
							"indexed": false,
							"internalType": "uint256",
							"name": "amount",
							"type": "uint256"
						}
					],
					"name": "ChannelOpened",
					"type": "event"
				},
				{
					"anonymous": false,
					"inputs": [
						{
							"indexed": true,
							"internalType": "address",
							"name": "participant",
							"type": "address"
						},
						{
							"indexed": false,
							"internalType": "uint256",
							"name": "newBalance",
							"type": "uint256"
						}
					],
					"name": "ChannelStateUpdated",
					"type": "event"
				},
				{
					"anonymous": false,
					"inputs": [
						{
							"indexed": false,
							"internalType": "uint256",
							"name": "amount",
							"type": "uint256"
						}
					],
					"name": "DepositedToReserve",
					"type": "event"
				},
				{
					"anonymous": false,
					"inputs": [
						{
							"indexed": false,
							"internalType": "uint64",
							"name": "version",
							"type": "uint64"
						}
					],
					"name": "Initialized",
					"type": "event"
				},
				{
					"anonymous": false,
					"inputs": [
						{
							"indexed": true,
							"internalType": "address",
							"name": "previousOwner",
							"type": "address"
						},
						{
							"indexed": true,
							"internalType": "address",
							"name": "newOwner",
							"type": "address"
						}
					],
					"name": "OwnershipTransferred",
					"type": "event"
				},
				{
					"anonymous": false,
					"inputs": [
						{
							"indexed": false,
							"internalType": "address",
							"name": "account",
							"type": "address"
						}
					],
					"name": "Paused",
					"type": "event"
				},
				{
					"anonymous": false,
					"inputs": [
						{
							"indexed": false,
							"internalType": "address",
							"name": "account",
							"type": "address"
						}
					],
					"name": "Unpaused",
					"type": "event"
				},
				{
					"anonymous": false,
					"inputs": [
						{
							"indexed": true,
							"internalType": "address",
							"name": "implementation",
							"type": "address"
						}
					],
					"name": "Upgraded",
					"type": "event"
				},
				{
					"anonymous": false,
					"inputs": [
						{
							"indexed": false,
							"internalType": "uint256",
							"name": "voteId",
							"type": "uint256"
						},
						{
							"indexed": true,
							"internalType": "address",
							"name": "participant",
							"type": "address"
						}
					],
					"name": "VoteStarted",
					"type": "event"
				},
				{
					"anonymous": false,
					"inputs": [
						{
							"indexed": false,
							"internalType": "uint256",
							"name": "voteId",
							"type": "uint256"
						},
						{
							"indexed": true,
							"internalType": "address",
							"name": "voter",
							"type": "address"
						},
						{
							"indexed": false,
							"internalType": "uint256",
							"name": "weight",
							"type": "uint256"
						}
					],
					"name": "Voted",
					"type": "event"
				},
				{
					"anonymous": false,
					"inputs": [
						{
							"indexed": false,
							"internalType": "uint256",
							"name": "amount",
							"type": "uint256"
						}
					],
					"name": "WithdrawnFromReserve",
					"type": "event"
				},
				{
					"inputs": [],
					"name": "UPGRADE_INTERFACE_VERSION",
					"outputs": [
						{
							"internalType": "string",
							"name": "",
							"type": "string"
						}
					],
					"stateMutability": "view",
					"type": "function"
				},
				{
					"inputs": [],
					"name": "admin",
					"outputs": [
						{
							"internalType": "address",
							"name": "",
							"type": "address"
						}
					],
					"stateMutability": "view",
					"type": "function"
				},
				{
					"inputs": [
						{
							"internalType": "address",
							"name": "",
							"type": "address"
						}
					],
					"name": "balances",
					"outputs": [
						{
							"internalType": "uint256",
							"name": "",
							"type": "uint256"
						}
					],
					"stateMutability": "view",
					"type": "function"
				},
				{
					"inputs": [
						{
							"internalType": "address[]",
							"name": "participants",
							"type": "address[]"
						},
						{
							"internalType": "uint256[]",
							"name": "newBalances",
							"type": "uint256[]"
						},
						{
							"internalType": "uint256",
							"name": "close_nonce",
							"type": "uint256"
						},
						{
							"internalType": "bytes",
							"name": "adminSignature",
							"type": "bytes"
						}
					],
					"name": "batchUpdateBalances",
					"outputs": [],
					"stateMutability": "nonpayable",
					"type": "function"
				},
				{
					"inputs": [
						{
							"internalType": "address[]",
							"name": "participants",
							"type": "address[]"
						},
						{
							"internalType": "uint256[]",
							"name": "newBalances",
							"type": "uint256[]"
						}
					],
					"name": "batchUpdateChannelbyadmin",
					"outputs": [],
					"stateMutability": "nonpayable",
					"type": "function"
				},
				{
					"inputs": [
						{
							"internalType": "address",
							"name": "newAdmin",
							"type": "address"
						}
					],
					"name": "changeAdmin",
					"outputs": [],
					"stateMutability": "nonpayable",
					"type": "function"
				},
				{
					"inputs": [
						{
							"internalType": "uint256",
							"name": "newBalance",
							"type": "uint256"
						},
						{
							"internalType": "uint256",
							"name": "close_nonce",
							"type": "uint256"
						},
						{
							"internalType": "bytes",
							"name": "adminSignature",
							"type": "bytes"
						}
					],
					"name": "closeChannel",
					"outputs": [],
					"stateMutability": "nonpayable",
					"type": "function"
				},
				{
					"inputs": [
						{
							"internalType": "address",
							"name": "participant",
							"type": "address"
						},
						{
							"internalType": "uint256",
							"name": "newBalance",
							"type": "uint256"
						},
						{
							"internalType": "uint256",
							"name": "voteId",
							"type": "uint256"
						}
					],
					"name": "closeChannelByDAO",
					"outputs": [],
					"stateMutability": "nonpayable",
					"type": "function"
				},
				{
					"inputs": [
						{
							"internalType": "uint256",
							"name": "amount",
							"type": "uint256"
						}
					],
					"name": "depositToReserve",
					"outputs": [],
					"stateMutability": "nonpayable",
					"type": "function"
				},
				{
					"inputs": [
						{
							"internalType": "address",
							"name": "admin_",
							"type": "address"
						},
						{
							"internalType": "contract IERC20",
							"name": "pointToken_",
							"type": "address"
						},
						{
							"internalType": "uint256",
							"name": "initialReserveBalance",
							"type": "uint256"
						}
					],
					"name": "initialize",
					"outputs": [],
					"stateMutability": "nonpayable",
					"type": "function"
				},
				{
					"inputs": [],
					"name": "nextVoteId",
					"outputs": [
						{
							"internalType": "uint256",
							"name": "",
							"type": "uint256"
						}
					],
					"stateMutability": "view",
					"type": "function"
				},
				{
					"inputs": [
						{
							"internalType": "uint256",
							"name": "amount",
							"type": "uint256"
						}
					],
					"name": "openChannel",
					"outputs": [],
					"stateMutability": "nonpayable",
					"type": "function"
				},
				{
					"inputs": [],
					"name": "owner",
					"outputs": [
						{
							"internalType": "address",
							"name": "",
							"type": "address"
						}
					],
					"stateMutability": "view",
					"type": "function"
				},
				{
					"inputs": [],
					"name": "pause",
					"outputs": [],
					"stateMutability": "nonpayable",
					"type": "function"
				},
				{
					"inputs": [],
					"name": "paused",
					"outputs": [
						{
							"internalType": "bool",
							"name": "",
							"type": "bool"
						}
					],
					"stateMutability": "view",
					"type": "function"
				},
				{
					"inputs": [],
					"name": "pointToken",
					"outputs": [
						{
							"internalType": "contract IERC20",
							"name": "",
							"type": "address"
						}
					],
					"stateMutability": "view",
					"type": "function"
				},
				{
					"inputs": [],
					"name": "proxiableUUID",
					"outputs": [
						{
							"internalType": "bytes32",
							"name": "",
							"type": "bytes32"
						}
					],
					"stateMutability": "view",
					"type": "function"
				},
				{
					"inputs": [],
					"name": "renounceOwnership",
					"outputs": [],
					"stateMutability": "nonpayable",
					"type": "function"
				},
				{
					"inputs": [],
					"name": "reserveBalance",
					"outputs": [
						{
							"internalType": "uint256",
							"name": "",
							"type": "uint256"
						}
					],
					"stateMutability": "view",
					"type": "function"
				},
				{
					"inputs": [
						{
							"internalType": "address",
							"name": "participant",
							"type": "address"
						}
					],
					"name": "startVoteToCloseChannel",
					"outputs": [],
					"stateMutability": "nonpayable",
					"type": "function"
				},
				{
					"inputs": [
						{
							"internalType": "uint256",
							"name": "",
							"type": "uint256"
						}
					],
					"name": "totalWeights",
					"outputs": [
						{
							"internalType": "uint256",
							"name": "",
							"type": "uint256"
						}
					],
					"stateMutability": "view",
					"type": "function"
				},
				{
					"inputs": [
						{
							"internalType": "address",
							"name": "newOwner",
							"type": "address"
						}
					],
					"name": "transferOwnership",
					"outputs": [],
					"stateMutability": "nonpayable",
					"type": "function"
				},
				{
					"inputs": [],
					"name": "unpause",
					"outputs": [],
					"stateMutability": "nonpayable",
					"type": "function"
				},
				{
					"inputs": [
						{
							"internalType": "uint256",
							"name": "newBalance",
							"type": "uint256"
						},
						{
							"internalType": "uint256",
							"name": "channel_nonce",
							"type": "uint256"
						},
						{
							"internalType": "bytes",
							"name": "adminSignature",
							"type": "bytes"
						}
					],
					"name": "updateChannelState",
					"outputs": [],
					"stateMutability": "nonpayable",
					"type": "function"
				},
				{
					"inputs": [
						{
							"internalType": "address",
							"name": "newImplementation",
							"type": "address"
						},
						{
							"internalType": "bytes",
							"name": "data",
							"type": "bytes"
						}
					],
					"name": "upgradeToAndCall",
					"outputs": [],
					"stateMutability": "payable",
					"type": "function"
				},
				{
					"inputs": [
						{
							"internalType": "bytes32",
							"name": "",
							"type": "bytes32"
						}
					],
					"name": "usedNonces",
					"outputs": [
						{
							"internalType": "bool",
							"name": "",
							"type": "bool"
						}
					],
					"stateMutability": "view",
					"type": "function"
				},
				{
					"inputs": [
						{
							"internalType": "uint256",
							"name": "voteId",
							"type": "uint256"
						},
						{
							"internalType": "bool",
							"name": "approve",
							"type": "bool"
						}
					],
					"name": "vote",
					"outputs": [],
					"stateMutability": "nonpayable",
					"type": "function"
				},
				{
					"inputs": [
						{
							"internalType": "uint256",
							"name": "",
							"type": "uint256"
						}
					],
					"name": "voteWeights",
					"outputs": [
						{
							"internalType": "uint256",
							"name": "",
							"type": "uint256"
						}
					],
					"stateMutability": "view",
					"type": "function"
				},
				{
					"inputs": [
						{
							"internalType": "uint256",
							"name": "",
							"type": "uint256"
						},
						{
							"internalType": "address",
							"name": "",
							"type": "address"
						}
					],
					"name": "votes",
					"outputs": [
						{
							"internalType": "bool",
							"name": "",
							"type": "bool"
						}
					],
					"stateMutability": "view",
					"type": "function"
				},
				{
					"inputs": [
						{
							"internalType": "uint256",
							"name": "amount",
							"type": "uint256"
						}
					],
					"name": "withdrawFromReserve",
					"outputs": [],
					"stateMutability": "nonpayable",
					"type": "function"
				}
			],
			"devdoc": {
				"details": "PicWe_StateIdentification contract.      This contract is used for state identification in PicWe.",
				"errors": {
					"AddressEmptyCode(address)": [
						{
							"details": "There's no code at `target` (it is not a contract)."
						}
					],
					"ECDSAInvalidSignature()": [
						{
							"details": "The signature derives the `address(0)`."
						}
					],
					"ECDSAInvalidSignatureLength(uint256)": [
						{
							"details": "The signature has an invalid length."
						}
					],
					"ECDSAInvalidSignatureS(bytes32)": [
						{
							"details": "The signature has an S value that is in the upper half order."
						}
					],
					"ERC1967InvalidImplementation(address)": [
						{
							"details": "The `implementation` of the proxy is invalid."
						}
					],
					"ERC1967NonPayable()": [
						{
							"details": "An upgrade function sees `msg.value > 0` that may be lost."
						}
					],
					"EnforcedPause()": [
						{
							"details": "The operation failed because the contract is paused."
						}
					],
					"ExpectedPause()": [
						{
							"details": "The operation failed because the contract is not paused."
						}
					],
					"FailedInnerCall()": [
						{
							"details": "A call to an address target failed. The target may have reverted."
						}
					],
					"InvalidInitialization()": [
						{
							"details": "The contract is already initialized."
						}
					],
					"NotInitializing()": [
						{
							"details": "The contract is not initializing."
						}
					],
					"OwnableInvalidOwner(address)": [
						{
							"details": "The owner is not a valid owner account. (eg. `address(0)`)"
						}
					],
					"OwnableUnauthorizedAccount(address)": [
						{
							"details": "The caller account is not authorized to perform an operation."
						}
					],
					"UUPSUnauthorizedCallContext()": [
						{
							"details": "The call is from an unauthorized context."
						}
					],
					"UUPSUnsupportedProxiableUUID(bytes32)": [
						{
							"details": "The storage `slot` is unsupported as a UUID."
						}
					]
				},
				"events": {
					"Initialized(uint64)": {
						"details": "Triggered when the contract has been initialized or reinitialized."
					},
					"Paused(address)": {
						"details": "Emitted when the pause is triggered by `account`."
					},
					"Unpaused(address)": {
						"details": "Emitted when the pause is lifted by `account`."
					},
					"Upgraded(address)": {
						"details": "Emitted when the implementation is upgraded."
					}
				},
				"kind": "dev",
				"methods": {
					"batchUpdateBalances(address[],uint256[],uint256,bytes)": {
						"details": "Batch update balances.",
						"params": {
							"adminSignature": "- The signature of the admin",
							"close_nonce": "- The nonce",
							"newBalances": "- The new balances of the participants",
							"participants": "- The addresses of the participants"
						}
					},
					"batchUpdateChannelbyadmin(address[],uint256[])": {
						"details": "Batch update channel by admin.",
						"params": {
							"newBalances": "- The new balances of the participants",
							"participants": "- The addresses of the participants"
						}
					},
					"changeAdmin(address)": {
						"details": "Change the admin.      Only the owner can call this function.",
						"params": {
							"newAdmin": "- The address of the new admin"
						}
					},
					"closeChannel(uint256,uint256,bytes)": {
						"details": "Close a channel.",
						"params": {
							"adminSignature": "- The signature of the admin",
							"close_nonce": "- The nonce",
							"newBalance": "- The new balance of the channel"
						}
					},
					"closeChannelByDAO(address,uint256,uint256)": {
						"details": "Close a channel by DAO.",
						"params": {
							"newBalance": "- The new balance of the participant",
							"participant": "- The address of the participant",
							"voteId": "- The ID of the vote"
						}
					},
					"constructor": {
						"details": "Constructor for PicWe_StateIdentification contract.      This is necessary for contract initialization."
					},
					"depositToReserve(uint256)": {
						"details": "Deposit to reserveBalance.      Only the admin can call this function.",
						"params": {
							"amount": "- The amount to deposit"
						}
					},
					"initialize(address,address,uint256)": {
						"details": "Initialize the contract.",
						"params": {
							"admin_": "- The address of the admin",
							"initialReserveBalance": "- The initial reserve balance",
							"pointToken_": "- The address of the point token"
						}
					},
					"openChannel(uint256)": {
						"details": "Open a channel.",
						"params": {
							"amount": "- The amount to open the channel with"
						}
					},
					"owner()": {
						"details": "Returns the address of the current owner."
					},
					"pause()": {
						"details": "Pause the contract.      Only the owner can call this function."
					},
					"paused()": {
						"details": "Returns true if the contract is paused, and false otherwise."
					},
					"proxiableUUID()": {
						"details": "Implementation of the ERC1822 {proxiableUUID} function. This returns the storage slot used by the implementation. It is used to validate the implementation's compatibility when performing an upgrade. IMPORTANT: A proxy pointing at a proxiable contract should not be considered proxiable itself, because this risks bricking a proxy that upgrades to it, by delegating to itself until out of gas. Thus it is critical that this function revert if invoked through a proxy. This is guaranteed by the `notDelegated` modifier."
					},
					"renounceOwnership()": {
						"details": "Leaves the contract without owner. It will not be possible to call `onlyOwner` functions. Can only be called by the current owner. NOTE: Renouncing ownership will leave the contract without an owner, thereby disabling any functionality that is only available to the owner."
					},
					"startVoteToCloseChannel(address)": {
						"details": "Start a vote to close a channel.",
						"params": {
							"participant": "- The address of the participant"
						}
					},
					"transferOwnership(address)": {
						"details": "Transfers ownership of the contract to a new account (`newOwner`). Can only be called by the current owner."
					},
					"unpause()": {
						"details": "Unpause the contract.      Only the owner can call this function."
					},
					"updateChannelState(uint256,uint256,bytes)": {
						"details": "Update the channel state.",
						"params": {
							"adminSignature": "- The signature of the admin",
							"channel_nonce": "- The nonce of the channel",
							"newBalance": "- The new balance of the channel"
						}
					},
					"upgradeToAndCall(address,bytes)": {
						"custom:oz-upgrades-unsafe-allow-reachable": "delegatecall",
						"details": "Upgrade the implementation of the proxy to `newImplementation`, and subsequently execute the function call encoded in `data`. Calls {_authorizeUpgrade}. Emits an {Upgraded} event."
					},
					"vote(uint256,bool)": {
						"details": "Vote.",
						"params": {
							"approve": "- Whether to approve the vote",
							"voteId": "- The ID of the vote"
						}
					},
					"withdrawFromReserve(uint256)": {
						"details": "Withdraw from reserveBalance.      Only the admin can call this function.",
						"params": {
							"amount": "- The amount to withdraw"
						}
					}
				},
				"version": 1
			},
			"evm": {
				"assembly": "    /* \"contracts/sis.sol\":734:12369  contract PicWe_StateIdentification is Initializable, ContextUpgradeable, PausableUpgradeable, OwnableUpgradeable, UUPSUpgradeable{... */\n  mstore(0x40, 0xa0)\n    /* \"@openzeppelin/contracts-upgradeable@5.0.1/proxy/utils/UUPSUpgradeable.sol\":1171:1175  this */\n  address\n    /* \"@openzeppelin/contracts-upgradeable@5.0.1/proxy/utils/UUPSUpgradeable.sol\":1128:1176  address private immutable __self = address(this) */\n  0x80\n  mstore\n    /* \"contracts/sis.sol\":2287:2342  constructor() {... */\n  callvalue\n  dup1\n  iszero\n  tag_1\n  jumpi\n  0x00\n  dup1\n  revert\ntag_1:\n  pop\n    /* \"contracts/sis.sol\":2312:2334  _disableInitializers() */\n  tag_4\n    /* \"contracts/sis.sol\":2312:2332  _disableInitializers */\n  tag_5\n    /* \"contracts/sis.sol\":2312:2334  _disableInitializers() */\n  jump\t// in\ntag_4:\n    /* \"contracts/sis.sol\":734:12369  contract PicWe_StateIdentification is Initializable, ContextUpgradeable, PausableUpgradeable, OwnableUpgradeable, UUPSUpgradeable{... */\n  jump(tag_15)\n    /* \"@openzeppelin/contracts-upgradeable@5.0.1/proxy/utils/Initializable.sol\":7711:8133  function _disableInitializers() internal virtual {... */\ntag_5:\n    /* \"@openzeppelin/contracts-upgradeable@5.0.1/proxy/utils/Initializable.sol\":8870:8891  INITIALIZABLE_STORAGE */\n  0xf0c57e16840df040f15088dc2f81fe391c3923bec73e23a9662efc9c229c6a00\n    /* \"@openzeppelin/contracts-upgradeable@5.0.1/proxy/utils/Initializable.sol\":7900:7915  $._initializing */\n  dup1\n  sload\n  0x010000000000000000\n  swap1\n  div\n  0xff\n  and\n    /* \"@openzeppelin/contracts-upgradeable@5.0.1/proxy/utils/Initializable.sol\":7896:7972  if ($._initializing) {... */\n  iszero\n  tag_10\n  jumpi\n    /* \"@openzeppelin/contracts-upgradeable@5.0.1/proxy/utils/Initializable.sol\":7938:7961  InvalidInitialization() */\n  mload(0x40)\n  shl(0xe0, 0xf92ee8a9)\n  dup2\n  mstore\n  0x04\n  add\n  mload(0x40)\n  dup1\n  swap2\n  sub\n  swap1\n  revert\n    /* \"@openzeppelin/contracts-upgradeable@5.0.1/proxy/utils/Initializable.sol\":7896:7972  if ($._initializing) {... */\ntag_10:\n    /* \"@openzeppelin/contracts-upgradeable@5.0.1/proxy/utils/Initializable.sol\":7985:7999  $._initialized */\n  dup1\n  sload\n  sub(shl(0x40, 0x01), 0x01)\n  swap1\n  dup2\n  and\n    /* \"@openzeppelin/contracts-upgradeable@5.0.1/proxy/utils/Initializable.sol\":7985:8019  $._initialized != type(uint64).max */\n  eq\n    /* \"@openzeppelin/contracts-upgradeable@5.0.1/proxy/utils/Initializable.sol\":7981:8127  if ($._initialized != type(uint64).max) {... */\n  tag_11\n  jumpi\n    /* \"@openzeppelin/contracts-upgradeable@5.0.1/proxy/utils/Initializable.sol\":8035:8068  $._initialized = type(uint64).max */\n  dup1\n  sload\n  not(sub(shl(0x40, 0x01), 0x01))\n  and\n  sub(shl(0x40, 0x01), 0x01)\n  swap1\n  dup2\n  or\n  dup3\n  sstore\n    /* \"@openzeppelin/contracts-upgradeable@5.0.1/proxy/utils/Initializable.sol\":8087:8116  Initialized(type(uint64).max) */\n  mload(0x40)\n    /* \"#utility.yul\":158:208   */\n  swap1\n  dup2\n  mstore\n    /* \"@openzeppelin/contracts-upgradeable@5.0.1/proxy/utils/Initializable.sol\":8087:8116  Initialized(type(uint64).max) */\n  0xc7f505b2f371ae2175ee4913f4499e1f2633a7b5936321eed1cdaeb6115181d2\n  swap1\n    /* \"#utility.yul\":146:148   */\n  0x20\n    /* \"#utility.yul\":131:149   */\n  add\n    /* \"@openzeppelin/contracts-upgradeable@5.0.1/proxy/utils/Initializable.sol\":8087:8116  Initialized(type(uint64).max) */\n  mload(0x40)\n  dup1\n  swap2\n  sub\n  swap1\n  log1\n    /* \"@openzeppelin/contracts-upgradeable@5.0.1/proxy/utils/Initializable.sol\":7981:8127  if ($._initialized != type(uint64).max) {... */\ntag_11:\n    /* \"@openzeppelin/contracts-upgradeable@5.0.1/proxy/utils/Initializable.sol\":7760:8133  {... */\n  pop\n    /* \"@openzeppelin/contracts-upgradeable@5.0.1/proxy/utils/Initializable.sol\":7711:8133  function _disableInitializers() internal virtual {... */\n  jump\t// out\n    /* \"#utility.yul\":14:214   */\ntag_15:\n    /* \"contracts/sis.sol\":734:12369  contract PicWe_StateIdentification is Initializable, ContextUpgradeable, PausableUpgradeable, OwnableUpgradeable, UUPSUpgradeable{... */\n  mload(0x80)\n  codecopy(0x00, dataOffset(sub_0), dataSize(sub_0))\n  0x00\n  assignImmutable(\"0x0b83f23a4eeb8c3f5f7d5934a2289bcf0186d09a12e1b7f20adf54e4b179db15\")\n  return(0x00, dataSize(sub_0))\nstop\n\nsub_0: assembly {\n        /* \"contracts/sis.sol\":734:12369  contract PicWe_StateIdentification is Initializable, ContextUpgradeable, PausableUpgradeable, OwnableUpgradeable, UUPSUpgradeable{... */\n      mstore(0x40, 0x80)\n      jumpi(tag_1, lt(calldatasize, 0x04))\n      shr(0xe0, calldataload(0x00))\n      dup1\n      0x8da5cb5b\n      gt\n      tag_32\n      jumpi\n      dup1\n      0xc9d27afe\n      gt\n      tag_33\n      jumpi\n      dup1\n      0xf2fde38b\n      gt\n      tag_34\n      jumpi\n      dup1\n      0xf2fde38b\n      eq\n      tag_28\n      jumpi\n      dup1\n      0xf851a440\n      eq\n      tag_29\n      jumpi\n      dup1\n      0xfd85b1a7\n      eq\n      tag_30\n      jumpi\n      dup1\n      0xfeb61724\n      eq\n      tag_31\n      jumpi\n      0x00\n      dup1\n      revert\n    tag_34:\n      dup1\n      0xc9d27afe\n      eq\n      tag_24\n      jumpi\n      dup1\n      0xd23254b4\n      eq\n      tag_25\n      jumpi\n      dup1\n      0xe207d04d\n      eq\n      tag_26\n      jumpi\n      dup1\n      0xeecbbb72\n      eq\n      tag_27\n      jumpi\n      0x00\n      dup1\n      revert\n    tag_33:\n      dup1\n      0xad3cb1cc\n      gt\n      tag_35\n      jumpi\n      dup1\n      0xad3cb1cc\n      eq\n      tag_20\n      jumpi\n      dup1\n      0xb17d718e\n      eq\n      tag_21\n      jumpi\n      dup1\n      0xb62e1efc\n      eq\n      tag_22\n      jumpi\n      dup1\n      0xc6b0da1b\n      eq\n      tag_23\n      jumpi\n      0x00\n      dup1\n      revert\n    tag_35:\n      dup1\n      0x8da5cb5b\n      eq\n      tag_17\n      jumpi\n      dup1\n      0x8f283970\n      eq\n      tag_18\n      jumpi\n      dup1\n      0xa10954fe\n      eq\n      tag_19\n      jumpi\n      0x00\n      dup1\n      revert\n    tag_32:\n      dup1\n      0x4f1ef286\n      gt\n      tag_36\n      jumpi\n      dup1\n      0x68f25734\n      gt\n      tag_37\n      jumpi\n      dup1\n      0x68f25734\n      eq\n      tag_13\n      jumpi\n      dup1\n      0x6e631a4d\n      eq\n      tag_14\n      jumpi\n      dup1\n      0x715018a6\n      eq\n      tag_15\n      jumpi\n      dup1\n      0x8456cb59\n      eq\n      tag_16\n      jumpi\n      0x00\n      dup1\n      revert\n    tag_37:\n      dup1\n      0x4f1ef286\n      eq\n      tag_9\n      jumpi\n      dup1\n      0x52d1902d\n      eq\n      tag_10\n      jumpi\n      dup1\n      0x56f40aa2\n      eq\n      tag_11\n      jumpi\n      dup1\n      0x5c975abb\n      eq\n      tag_12\n      jumpi\n      0x00\n      dup1\n      revert\n    tag_36:\n      dup1\n      0x1794bb3c\n      gt\n      tag_38\n      jumpi\n      dup1\n      0x1794bb3c\n      eq\n      tag_5\n      jumpi\n      dup1\n      0x2251d3f0\n      eq\n      tag_6\n      jumpi\n      dup1\n      0x27e235e3\n      eq\n      tag_7\n      jumpi\n      dup1\n      0x3f4ba83a\n      eq\n      tag_8\n      jumpi\n      0x00\n      dup1\n      revert\n    tag_38:\n      dup1\n      0x0a8bcdb9\n      eq\n      tag_2\n      jumpi\n      dup1\n      0x1145a4ff\n      eq\n      tag_3\n      jumpi\n      dup1\n      0x14068e94\n      eq\n      tag_4\n      jumpi\n    tag_1:\n      0x00\n      dup1\n      revert\n        /* \"contracts/sis.sol\":4203:4524  function withdrawFromReserve(uint256 amount) external onlyAdmin whenNotPaused {... */\n    tag_2:\n      callvalue\n      dup1\n      iszero\n      tag_39\n      jumpi\n      0x00\n      dup1\n      revert\n    tag_39:\n      pop\n      tag_40\n      tag_41\n      calldatasize\n      0x04\n      tag_42\n      jump\t// in\n    tag_41:\n      tag_43\n      jump\t// in\n    tag_40:\n      stop\n        /* \"contracts/sis.sol\":8538:9116  function batchUpdateBalances(address[] calldata participants, uint256[] calldata newBalances, uint256 close_nonce, bytes calldata adminSignature) external whenNotPaused {... */\n    tag_3:\n      callvalue\n      dup1\n      iszero\n      tag_44\n      jumpi\n      0x00\n      dup1\n      revert\n    tag_44:\n      pop\n      tag_40\n      tag_46\n      calldatasize\n      0x04\n      tag_47\n      jump\t// in\n    tag_46:\n      tag_48\n      jump\t// in\n        /* \"contracts/sis.sol\":10485:10893  function startVoteToCloseChannel(address participant) external onlyAdmin whenNotPaused {... */\n    tag_4:\n      callvalue\n      dup1\n      iszero\n      tag_49\n      jumpi\n      0x00\n      dup1\n      revert\n    tag_49:\n      pop\n      tag_40\n      tag_51\n      calldatasize\n      0x04\n      tag_52\n      jump\t// in\n    tag_51:\n      tag_53\n      jump\t// in\n        /* \"contracts/sis.sol\":2582:2955  function initialize(address admin_, IERC20 pointToken_, uint256 initialReserveBalance) public initializer {... */\n    tag_5:\n      callvalue\n      dup1\n      iszero\n      tag_54\n      jumpi\n      0x00\n      dup1\n      revert\n    tag_54:\n      pop\n      tag_40\n      tag_56\n      calldatasize\n      0x04\n      tag_57\n      jump\t// in\n    tag_56:\n      tag_58\n      jump\t// in\n        /* \"contracts/sis.sol\":929:953  IERC20 public pointToken */\n    tag_6:\n      callvalue\n      dup1\n      iszero\n      tag_59\n      jumpi\n      0x00\n      dup1\n      revert\n    tag_59:\n      pop\n      sload(0x01)\n      tag_60\n      swap1\n      sub(shl(0xa0, 0x01), 0x01)\n      and\n      dup2\n      jump\n    tag_60:\n      mload(0x40)\n      sub(shl(0xa0, 0x01), 0x01)\n        /* \"#utility.yul\":3100:3132   */\n      swap1\n      swap2\n      and\n        /* \"#utility.yul\":3082:3133   */\n      dup2\n      mstore\n        /* \"#utility.yul\":3070:3072   */\n      0x20\n        /* \"#utility.yul\":3055:3073   */\n      add\n        /* \"contracts/sis.sol\":929:953  IERC20 public pointToken */\n    tag_62:\n      mload(0x40)\n      dup1\n      swap2\n      sub\n      swap1\n      return\n        /* \"contracts/sis.sol\":960:1003  mapping(address => uint256) public balances */\n    tag_7:\n      callvalue\n      dup1\n      iszero\n      tag_64\n      jumpi\n      0x00\n      dup1\n      revert\n    tag_64:\n      pop\n      tag_65\n      tag_66\n      calldatasize\n      0x04\n      tag_52\n      jump\t// in\n    tag_66:\n      mstore(0x20, 0x02)\n      0x00\n      swap1\n      dup2\n      mstore\n      0x40\n      swap1\n      keccak256\n      sload\n      dup2\n      jump\n    tag_65:\n      mload(0x40)\n        /* \"#utility.yul\":3290:3315   */\n      swap1\n      dup2\n      mstore\n        /* \"#utility.yul\":3278:3280   */\n      0x20\n        /* \"#utility.yul\":3263:3281   */\n      add\n        /* \"contracts/sis.sol\":960:1003  mapping(address => uint256) public balances */\n      tag_62\n        /* \"#utility.yul\":3144:3321   */\n      jump\n        /* \"contracts/sis.sol\":3240:3305  function unpause() public onlyOwner {... */\n    tag_8:\n      callvalue\n      dup1\n      iszero\n      tag_70\n      jumpi\n      0x00\n      dup1\n      revert\n    tag_70:\n      pop\n      tag_40\n      tag_72\n      jump\t// in\n        /* \"@openzeppelin/contracts-upgradeable@5.0.1/proxy/utils/UUPSUpgradeable.sol\":4158:4372  function upgradeToAndCall(address newImplementation, bytes memory data) public payable virtual onlyProxy {... */\n    tag_9:\n      tag_40\n      tag_74\n      calldatasize\n      0x04\n      tag_75\n      jump\t// in\n    tag_74:\n      tag_76\n      jump\t// in\n        /* \"@openzeppelin/contracts-upgradeable@5.0.1/proxy/utils/UUPSUpgradeable.sol\":3705:3839  function proxiableUUID() external view virtual notDelegated returns (bytes32) {... */\n    tag_10:\n      callvalue\n      dup1\n      iszero\n      tag_77\n      jumpi\n      0x00\n      dup1\n      revert\n    tag_77:\n      pop\n      tag_65\n      tag_79\n      jump\t// in\n        /* \"contracts/sis.sol\":1124:1170  mapping(uint256 => uint256) public voteWeights */\n    tag_11:\n      callvalue\n      dup1\n      iszero\n      tag_82\n      jumpi\n      0x00\n      dup1\n      revert\n    tag_82:\n      pop\n      tag_65\n      tag_84\n      calldatasize\n      0x04\n      tag_42\n      jump\t// in\n    tag_84:\n      mstore(0x20, 0x05)\n      0x00\n      swap1\n      dup2\n      mstore\n      0x40\n      swap1\n      keccak256\n      sload\n      dup2\n      jump\n        /* \"@openzeppelin/contracts-upgradeable@5.0.1/utils/PausableUpgradeable.sol\":2692:2837  function paused() public view virtual returns (bool) {... */\n    tag_12:\n      callvalue\n      dup1\n      iszero\n      tag_87\n      jumpi\n      0x00\n      dup1\n      revert\n    tag_87:\n      pop\n      0x00\n      dup1\n      mload\n      0x20\n      data_c0c65a3718f3702d917c44106b91645b509d2e2d0979b70495c3babce192339f\n      dup4\n      codecopy\n      dup2\n      mload\n      swap2\n      mstore\n        /* \"@openzeppelin/contracts-upgradeable@5.0.1/utils/PausableUpgradeable.sol\":2821:2830  $._paused */\n      sload\n      0xff\n      and\n        /* \"@openzeppelin/contracts-upgradeable@5.0.1/utils/PausableUpgradeable.sol\":2692:2837  function paused() public view virtual returns (bool) {... */\n    tag_88:\n      mload(0x40)\n        /* \"#utility.yul\":4866:4880   */\n      swap1\n      iszero\n        /* \"#utility.yul\":4859:4881   */\n      iszero\n        /* \"#utility.yul\":4841:4882   */\n      dup2\n      mstore\n        /* \"#utility.yul\":4829:4831   */\n      0x20\n        /* \"#utility.yul\":4814:4832   */\n      add\n        /* \"@openzeppelin/contracts-upgradeable@5.0.1/utils/PausableUpgradeable.sol\":2692:2837  function paused() public view virtual returns (bool) {... */\n      tag_62\n        /* \"#utility.yul\":4701:4888   */\n      jump\n        /* \"contracts/sis.sol\":7911:8244  function updateChannelState(uint256 newBalance, uint256 channel_nonce, bytes calldata adminSignature) external whenNotPaused {... */\n    tag_13:\n      callvalue\n      dup1\n      iszero\n      tag_92\n      jumpi\n      0x00\n      dup1\n      revert\n    tag_92:\n      pop\n      tag_40\n      tag_94\n      calldatasize\n      0x04\n      tag_95\n      jump\t// in\n    tag_94:\n      tag_96\n      jump\t// in\n        /* \"contracts/sis.sol\":11124:11733  function closeChannelByDAO(address participant, uint256 newBalance, uint256 voteId) external onlyAdmin whenNotPaused {... */\n    tag_14:\n      callvalue\n      dup1\n      iszero\n      tag_97\n      jumpi\n      0x00\n      dup1\n      revert\n    tag_97:\n      pop\n      tag_40\n      tag_99\n      calldatasize\n      0x04\n      tag_100\n      jump\t// in\n    tag_99:\n      tag_101\n      jump\t// in\n        /* \"@openzeppelin/contracts-upgradeable@5.0.1/access/OwnableUpgradeable.sol\":3155:3256  function renounceOwnership() public virtual onlyOwner {... */\n    tag_15:\n      callvalue\n      dup1\n      iszero\n      tag_102\n      jumpi\n      0x00\n      dup1\n      revert\n    tag_102:\n      pop\n      tag_40\n      tag_104\n      jump\t// in\n        /* \"contracts/sis.sol\":3066:3127  function pause() public onlyOwner {... */\n    tag_16:\n      callvalue\n      dup1\n      iszero\n      tag_105\n      jumpi\n      0x00\n      dup1\n      revert\n    tag_105:\n      pop\n      tag_40\n      tag_107\n      jump\t// in\n        /* \"@openzeppelin/contracts-upgradeable@5.0.1/access/OwnableUpgradeable.sol\":2441:2585  function owner() public view virtual returns (address) {... */\n    tag_17:\n      callvalue\n      dup1\n      iszero\n      tag_108\n      jumpi\n      0x00\n      dup1\n      revert\n    tag_108:\n      pop\n        /* \"@openzeppelin/contracts-upgradeable@5.0.1/access/OwnableUpgradeable.sol\":1313:1335  OwnableStorageLocation */\n      0x9016d09d72d40fdae2fd8ceac6b6234c7706214fd39c1cd1e609a0528c199300\n        /* \"@openzeppelin/contracts-upgradeable@5.0.1/access/OwnableUpgradeable.sol\":2570:2578  $._owner */\n      sload\n      sub(shl(0xa0, 0x01), 0x01)\n      and\n        /* \"@openzeppelin/contracts-upgradeable@5.0.1/access/OwnableUpgradeable.sol\":2441:2585  function owner() public view virtual returns (address) {... */\n      jump(tag_60)\n        /* \"contracts/sis.sol\":4904:5135  function changeAdmin(address newAdmin) external onlyOwner whenNotPaused {... */\n    tag_18:\n      callvalue\n      dup1\n      iszero\n      tag_113\n      jumpi\n      0x00\n      dup1\n      revert\n    tag_113:\n      pop\n      tag_40\n      tag_115\n      calldatasize\n      0x04\n      tag_52\n      jump\t// in\n    tag_115:\n      tag_116\n      jump\t// in\n        /* \"contracts/sis.sol\":1327:1356  uint256 public reserveBalance */\n    tag_19:\n      callvalue\n      dup1\n      iszero\n      tag_117\n      jumpi\n      0x00\n      dup1\n      revert\n    tag_117:\n      pop\n      tag_65\n      sload(0x09)\n      dup2\n      jump\n        /* \"@openzeppelin/contracts-upgradeable@5.0.1/proxy/utils/UUPSUpgradeable.sol\":1819:1877  string public constant UPGRADE_INTERFACE_VERSION = \"5.0.0\" */\n    tag_20:\n      callvalue\n      dup1\n      iszero\n      tag_121\n      jumpi\n      0x00\n      dup1\n      revert\n    tag_121:\n      pop\n      tag_122\n      mload(0x40)\n      dup1\n      0x40\n      add\n      0x40\n      mstore\n      dup1\n      0x05\n      dup2\n      mstore\n      0x20\n      add\n      shl(0xdc, 0x0352e302e3)\n      dup2\n      mstore\n      pop\n      dup2\n      jump\n    tag_122:\n      mload(0x40)\n      tag_62\n      swap2\n      swap1\n      tag_125\n      jump\t// in\n        /* \"contracts/sis.sol\":3776:4035  function depositToReserve(uint256 amount) external onlyAdmin whenNotPaused {... */\n    tag_21:\n      callvalue\n      dup1\n      iszero\n      tag_126\n      jumpi\n      0x00\n      dup1\n      revert\n    tag_126:\n      pop\n      tag_40\n      tag_128\n      calldatasize\n      0x04\n      tag_42\n      jump\t// in\n    tag_128:\n      tag_129\n      jump\t// in\n        /* \"contracts/sis.sol\":1179:1226  mapping(uint256 => uint256) public totalWeights */\n    tag_22:\n      callvalue\n      dup1\n      iszero\n      tag_130\n      jumpi\n      0x00\n      dup1\n      revert\n    tag_130:\n      pop\n      tag_65\n      tag_132\n      calldatasize\n      0x04\n      tag_42\n      jump\t// in\n    tag_132:\n      mstore(0x20, 0x06)\n      0x00\n      swap1\n      dup2\n      mstore\n      0x40\n      swap1\n      keccak256\n      sload\n      dup2\n      jump\n        /* \"contracts/sis.sol\":11933:12366  function batchUpdateChannelbyadmin(address[] calldata participants, uint256[] calldata newBalances) external onlyAdmin whenNotPaused {... */\n    tag_23:\n      callvalue\n      dup1\n      iszero\n      tag_135\n      jumpi\n      0x00\n      dup1\n      revert\n    tag_135:\n      pop\n      tag_40\n      tag_137\n      calldatasize\n      0x04\n      tag_138\n      jump\t// in\n    tag_137:\n      tag_139\n      jump\t// in\n        /* \"contracts/sis.sol\":9916:10353  function vote(uint256 voteId, bool approve) external whenNotPaused {... */\n    tag_24:\n      callvalue\n      dup1\n      iszero\n      tag_140\n      jumpi\n      0x00\n      dup1\n      revert\n    tag_140:\n      pop\n      tag_40\n      tag_142\n      calldatasize\n      0x04\n      tag_143\n      jump\t// in\n    tag_142:\n      tag_144\n      jump\t// in\n        /* \"contracts/sis.sol\":1059:1116  mapping(uint256 => mapping(address => bool)) public votes */\n    tag_25:\n      callvalue\n      dup1\n      iszero\n      tag_145\n      jumpi\n      0x00\n      dup1\n      revert\n    tag_145:\n      pop\n      tag_88\n      tag_147\n      calldatasize\n      0x04\n      tag_148\n      jump\t// in\n    tag_147:\n      0x04\n      0x20\n      swap1\n      dup2\n      mstore\n      0x00\n      swap3\n      dup4\n      mstore\n      0x40\n      dup1\n      dup5\n      keccak256\n      swap1\n      swap2\n      mstore\n      swap1\n      dup3\n      mstore\n      swap1\n      keccak256\n      sload\n      0xff\n      and\n      dup2\n      jump\n        /* \"contracts/sis.sol\":1295:1320  uint256 public nextVoteId */\n    tag_26:\n      callvalue\n      dup1\n      iszero\n      tag_151\n      jumpi\n      0x00\n      dup1\n      revert\n    tag_151:\n      pop\n      tag_65\n      sload(0x08)\n      dup2\n      jump\n        /* \"contracts/sis.sol\":9333:9775  function closeChannel(uint256 newBalance, uint256 close_nonce, bytes calldata adminSignature) external whenNotPaused {... */\n    tag_27:\n      callvalue\n      dup1\n      iszero\n      tag_155\n      jumpi\n      0x00\n      dup1\n      revert\n    tag_155:\n      pop\n      tag_40\n      tag_157\n      calldatasize\n      0x04\n      tag_95\n      jump\t// in\n    tag_157:\n      tag_158\n      jump\t// in\n        /* \"@openzeppelin/contracts-upgradeable@5.0.1/access/OwnableUpgradeable.sol\":3405:3620  function transferOwnership(address newOwner) public virtual onlyOwner {... */\n    tag_28:\n      callvalue\n      dup1\n      iszero\n      tag_159\n      jumpi\n      0x00\n      dup1\n      revert\n    tag_159:\n      pop\n      tag_40\n      tag_161\n      calldatasize\n      0x04\n      tag_52\n      jump\t// in\n    tag_161:\n      tag_162\n      jump\t// in\n        /* \"contracts/sis.sol\":902:922  address public admin */\n    tag_29:\n      callvalue\n      dup1\n      iszero\n      tag_163\n      jumpi\n      0x00\n      dup1\n      revert\n    tag_163:\n      pop\n      sload(0x00)\n      tag_60\n      swap1\n      sub(shl(0xa0, 0x01), 0x01)\n      and\n      dup2\n      jump\n        /* \"contracts/sis.sol\":5250:5511  function openChannel(uint256 amount) external whenNotPaused {... */\n    tag_30:\n      callvalue\n      dup1\n      iszero\n      tag_167\n      jumpi\n      0x00\n      dup1\n      revert\n    tag_167:\n      pop\n      tag_40\n      tag_169\n      calldatasize\n      0x04\n      tag_42\n      jump\t// in\n    tag_169:\n      tag_170\n      jump\t// in\n        /* \"contracts/sis.sol\":1010:1052  mapping(bytes32 => bool) public usedNonces */\n    tag_31:\n      callvalue\n      dup1\n      iszero\n      tag_171\n      jumpi\n      0x00\n      dup1\n      revert\n    tag_171:\n      pop\n      tag_88\n      tag_173\n      calldatasize\n      0x04\n      tag_42\n      jump\t// in\n    tag_173:\n      mstore(0x20, 0x03)\n      0x00\n      swap1\n      dup2\n      mstore\n      0x40\n      swap1\n      keccak256\n      sload\n      0xff\n      and\n      dup2\n      jump\n        /* \"contracts/sis.sol\":4203:4524  function withdrawFromReserve(uint256 amount) external onlyAdmin whenNotPaused {... */\n    tag_43:\n        /* \"contracts/sis.sol\":4676:4681  admin */\n      and(sub(shl(0xa0, 0x01), 0x01), sload(0x00))\n        /* \"@openzeppelin/contracts-upgradeable@5.0.1/utils/ContextUpgradeable.sol\":966:976  msg.sender */\n      caller\n      sub(shl(0xa0, 0x01), 0x01)\n        /* \"contracts/sis.sol\":4660:4681  _msgSender() == admin */\n      and\n      eq\n        /* \"contracts/sis.sol\":4652:4720  require(_msgSender() == admin, \"Only admin can perform this action\") */\n      tag_180\n      jumpi\n      mload(0x40)\n      shl(0xe5, 0x461bcd)\n      dup2\n      mstore\n      0x04\n      add\n      tag_181\n      swap1\n      tag_182\n      jump\t// in\n    tag_181:\n      mload(0x40)\n      dup1\n      swap2\n      sub\n      swap1\n      revert\n    tag_180:\n        /* \"@openzeppelin/contracts-upgradeable@5.0.1/utils/PausableUpgradeable.sol\":2316:2335  _requireNotPaused() */\n      tag_184\n        /* \"@openzeppelin/contracts-upgradeable@5.0.1/utils/PausableUpgradeable.sol\":2316:2333  _requireNotPaused */\n      tag_185\n        /* \"@openzeppelin/contracts-upgradeable@5.0.1/utils/PausableUpgradeable.sol\":2316:2335  _requireNotPaused() */\n      jump\t// in\n    tag_184:\n        /* \"contracts/sis.sol\":4318:4324  amount */\n      dup1\n        /* \"contracts/sis.sol\":4300:4314  reserveBalance */\n      sload(0x09)\n        /* \"contracts/sis.sol\":4300:4324  reserveBalance >= amount */\n      lt\n      iszero\n        /* \"contracts/sis.sol\":4292:4357  require(reserveBalance >= amount, \"Insufficient reserve balance\") */\n      tag_187\n      jumpi\n      mload(0x40)\n      shl(0xe5, 0x461bcd)\n      dup2\n      mstore\n        /* \"#utility.yul\":8787:8789   */\n      0x20\n        /* \"contracts/sis.sol\":4292:4357  require(reserveBalance >= amount, \"Insufficient reserve balance\") */\n      0x04\n      dup3\n      add\n        /* \"#utility.yul\":8769:8790   */\n      mstore\n        /* \"#utility.yul\":8826:8828   */\n      0x1c\n        /* \"#utility.yul\":8806:8824   */\n      0x24\n      dup3\n      add\n        /* \"#utility.yul\":8799:8829   */\n      mstore\n        /* \"#utility.yul\":8865:8895   */\n      0x496e73756666696369656e7420726573657276652062616c616e636500000000\n        /* \"#utility.yul\":8845:8863   */\n      0x44\n      dup3\n      add\n        /* \"#utility.yul\":8838:8896   */\n      mstore\n        /* \"#utility.yul\":8913:8931   */\n      0x64\n      add\n        /* \"contracts/sis.sol\":4292:4357  require(reserveBalance >= amount, \"Insufficient reserve balance\") */\n      tag_181\n        /* \"#utility.yul\":8585:8937   */\n      jump\n        /* \"contracts/sis.sol\":4292:4357  require(reserveBalance >= amount, \"Insufficient reserve balance\") */\n    tag_187:\n        /* \"contracts/sis.sol\":4376:4386  pointToken */\n      and(sub(shl(0xa0, 0x01), 0x01), sload(0x01))\n        /* \"contracts/sis.sol\":4376:4395  pointToken.transfer */\n      0xa9059cbb\n        /* \"@openzeppelin/contracts-upgradeable@5.0.1/utils/ContextUpgradeable.sol\":966:976  msg.sender */\n      caller\n        /* \"contracts/sis.sol\":4376:4417  pointToken.transfer(_msgSender(), amount) */\n      mload(0x40)\n      not(sub(shl(0xe0, 0x01), 0x01))\n      0xe0\n      dup5\n      swap1\n      shl\n      and\n      dup2\n      mstore\n      sub(shl(0xa0, 0x01), 0x01)\n        /* \"#utility.yul\":9134:9166   */\n      swap1\n      swap2\n      and\n        /* \"contracts/sis.sol\":4376:4417  pointToken.transfer(_msgSender(), amount) */\n      0x04\n      dup3\n      add\n        /* \"#utility.yul\":9116:9167   */\n      mstore\n        /* \"#utility.yul\":9183:9201   */\n      0x24\n      dup2\n      add\n        /* \"#utility.yul\":9176:9210   */\n      dup5\n      swap1\n      mstore\n        /* \"#utility.yul\":9089:9107   */\n      0x44\n      add\n        /* \"contracts/sis.sol\":4376:4417  pointToken.transfer(_msgSender(), amount) */\n      0x20\n      mload(0x40)\n      dup1\n      dup4\n      sub\n      dup2\n      0x00\n      dup8\n      gas\n      call\n      iszero\n      dup1\n      iszero\n      tag_194\n      jumpi\n      returndatasize\n      0x00\n      dup1\n      returndatacopy\n      revert(0x00, returndatasize)\n    tag_194:\n      pop\n      pop\n      pop\n      pop\n      mload(0x40)\n      returndatasize\n      not(0x1f)\n      0x1f\n      dup3\n      add\n      and\n      dup3\n      add\n      dup1\n      0x40\n      mstore\n      pop\n      dup2\n      add\n      swap1\n      tag_195\n      swap2\n      swap1\n      tag_196\n      jump\t// in\n    tag_195:\n        /* \"contracts/sis.sol\":4368:4437  require(pointToken.transfer(_msgSender(), amount), \"Transfer failed\") */\n      tag_197\n      jumpi\n      mload(0x40)\n      shl(0xe5, 0x461bcd)\n      dup2\n      mstore\n      0x04\n      add\n      tag_181\n      swap1\n      tag_199\n      jump\t// in\n    tag_197:\n        /* \"contracts/sis.sol\":4466:4472  amount */\n      dup1\n        /* \"contracts/sis.sol\":4448:4462  reserveBalance */\n      0x09\n      0x00\n        /* \"contracts/sis.sol\":4448:4472  reserveBalance -= amount */\n      dup3\n      dup3\n      sload\n      tag_200\n      swap2\n      swap1\n      tag_201\n      jump\t// in\n    tag_200:\n      swap1\n      swap2\n      sstore\n      pop\n      pop\n        /* \"contracts/sis.sol\":4488:4516  WithdrawnFromReserve(amount) */\n      mload(0x40)\n        /* \"#utility.yul\":3290:3315   */\n      dup2\n      dup2\n      mstore\n        /* \"contracts/sis.sol\":4488:4516  WithdrawnFromReserve(amount) */\n      0x252f4762677e3c294cdba42d776da4a2c5a1259438ea5224c3bea5b27c8f04dc\n      swap1\n        /* \"#utility.yul\":3278:3280   */\n      0x20\n        /* \"#utility.yul\":3263:3281   */\n      add\n        /* \"contracts/sis.sol\":4488:4516  WithdrawnFromReserve(amount) */\n    tag_202:\n      mload(0x40)\n      dup1\n      swap2\n      sub\n      swap1\n      log1\n        /* \"contracts/sis.sol\":4203:4524  function withdrawFromReserve(uint256 amount) external onlyAdmin whenNotPaused {... */\n      pop\n      jump\t// out\n        /* \"contracts/sis.sol\":8538:9116  function batchUpdateBalances(address[] calldata participants, uint256[] calldata newBalances, uint256 close_nonce, bytes calldata adminSignature) external whenNotPaused {... */\n    tag_48:\n        /* \"@openzeppelin/contracts-upgradeable@5.0.1/utils/PausableUpgradeable.sol\":2316:2335  _requireNotPaused() */\n      tag_204\n        /* \"@openzeppelin/contracts-upgradeable@5.0.1/utils/PausableUpgradeable.sol\":2316:2333  _requireNotPaused */\n      tag_185\n        /* \"@openzeppelin/contracts-upgradeable@5.0.1/utils/PausableUpgradeable.sol\":2316:2335  _requireNotPaused() */\n      jump\t// in\n    tag_204:\n        /* \"contracts/sis.sol\":8726:8767  participants.length == newBalances.length */\n      dup6\n      dup5\n      eq\n        /* \"contracts/sis.sol\":8718:8818  require(participants.length == newBalances.length, \"Participants and newBalances length must match\") */\n      tag_206\n      jumpi\n      mload(0x40)\n      shl(0xe5, 0x461bcd)\n      dup2\n      mstore\n        /* \"#utility.yul\":10282:10284   */\n      0x20\n        /* \"contracts/sis.sol\":8718:8818  require(participants.length == newBalances.length, \"Participants and newBalances length must match\") */\n      0x04\n      dup3\n      add\n        /* \"#utility.yul\":10264:10285   */\n      mstore\n        /* \"#utility.yul\":10321:10323   */\n      0x2e\n        /* \"#utility.yul\":10301:10319   */\n      0x24\n      dup3\n      add\n        /* \"#utility.yul\":10294:10324   */\n      mstore\n        /* \"#utility.yul\":10360:10394   */\n      0x5061727469636970616e747320616e64206e657742616c616e636573206c656e\n        /* \"#utility.yul\":10340:10358   */\n      0x44\n      dup3\n      add\n        /* \"#utility.yul\":10333:10395   */\n      mstore\n      shl(0x93, 0x0cee8d040daeae6e840dac2e8c6d)\n        /* \"#utility.yul\":10411:10429   */\n      0x64\n      dup3\n      add\n        /* \"#utility.yul\":10404:10448   */\n      mstore\n        /* \"#utility.yul\":10465:10484   */\n      0x84\n      add\n        /* \"contracts/sis.sol\":8718:8818  require(participants.length == newBalances.length, \"Participants and newBalances length must match\") */\n      tag_181\n        /* \"#utility.yul\":10080:10490   */\n      jump\n        /* \"contracts/sis.sol\":8718:8818  require(participants.length == newBalances.length, \"Participants and newBalances length must match\") */\n    tag_206:\n        /* \"contracts/sis.sol\":8829:8906  _verifyBatchSignature(participants, newBalances, close_nonce, adminSignature) */\n      tag_209\n        /* \"contracts/sis.sol\":8851:8863  participants */\n      dup8\n      dup8\n        /* \"contracts/sis.sol\":8865:8876  newBalances */\n      dup8\n      dup8\n        /* \"contracts/sis.sol\":8878:8889  close_nonce */\n      dup8\n        /* \"contracts/sis.sol\":8891:8905  adminSignature */\n      dup8\n      dup8\n        /* \"contracts/sis.sol\":8829:8850  _verifyBatchSignature */\n      tag_210\n        /* \"contracts/sis.sol\":8829:8906  _verifyBatchSignature(participants, newBalances, close_nonce, adminSignature) */\n      jump\t// in\n    tag_209:\n        /* \"contracts/sis.sol\":8924:8930  uint i */\n      0x00\n        /* \"contracts/sis.sol\":8919:9040  for (uint i = 0; i < participants.length; i++) {... */\n    tag_211:\n        /* \"contracts/sis.sol\":8936:8959  i < participants.length */\n      dup7\n      dup2\n      lt\n        /* \"contracts/sis.sol\":8919:9040  for (uint i = 0; i < participants.length; i++) {... */\n      iszero\n      tag_212\n      jumpi\n        /* \"contracts/sis.sol\":8981:9028  _updateBalance(participants[i], newBalances[i]) */\n      tag_214\n        /* \"contracts/sis.sol\":8996:9008  participants */\n      dup9\n      dup9\n        /* \"contracts/sis.sol\":9009:9010  i */\n      dup4\n        /* \"contracts/sis.sol\":8996:9011  participants[i] */\n      dup2\n      dup2\n      lt\n      tag_216\n      jumpi\n      tag_216\n      tag_217\n      jump\t// in\n    tag_216:\n      swap1\n      pop\n      0x20\n      mul\n      add\n      0x20\n      dup2\n      add\n      swap1\n      tag_218\n      swap2\n      swap1\n      tag_52\n      jump\t// in\n    tag_218:\n        /* \"contracts/sis.sol\":9013:9024  newBalances */\n      dup8\n      dup8\n        /* \"contracts/sis.sol\":9025:9026  i */\n      dup5\n        /* \"contracts/sis.sol\":9013:9027  newBalances[i] */\n      dup2\n      dup2\n      lt\n      tag_220\n      jumpi\n      tag_220\n      tag_217\n      jump\t// in\n    tag_220:\n      swap1\n      pop\n      0x20\n      mul\n      add\n      calldataload\n        /* \"contracts/sis.sol\":8981:8995  _updateBalance */\n      tag_221\n        /* \"contracts/sis.sol\":8981:9028  _updateBalance(participants[i], newBalances[i]) */\n      jump\t// in\n    tag_214:\n        /* \"contracts/sis.sol\":8961:8964  i++ */\n      0x01\n      add\n        /* \"contracts/sis.sol\":8919:9040  for (uint i = 0; i < participants.length; i++) {... */\n      jump(tag_211)\n    tag_212:\n      pop\n        /* \"contracts/sis.sol\":9055:9108  BalancesBatchUpdatedbyuser(participants, newBalances) */\n      0x1989b1fe93256bb3b4c6348f76f6f506f926f635cfa802ca3af4826159c5874b\n        /* \"contracts/sis.sol\":9082:9094  participants */\n      dup8\n      dup8\n        /* \"contracts/sis.sol\":9096:9107  newBalances */\n      dup8\n      dup8\n        /* \"contracts/sis.sol\":9055:9108  BalancesBatchUpdatedbyuser(participants, newBalances) */\n      mload(0x40)\n      tag_222\n      swap5\n      swap4\n      swap3\n      swap2\n      swap1\n      tag_223\n      jump\t// in\n    tag_222:\n      mload(0x40)\n      dup1\n      swap2\n      sub\n      swap1\n      log1\n        /* \"contracts/sis.sol\":8538:9116  function batchUpdateBalances(address[] calldata participants, uint256[] calldata newBalances, uint256 close_nonce, bytes calldata adminSignature) external whenNotPaused {... */\n      pop\n      pop\n      pop\n      pop\n      pop\n      pop\n      pop\n      jump\t// out\n        /* \"contracts/sis.sol\":10485:10893  function startVoteToCloseChannel(address participant) external onlyAdmin whenNotPaused {... */\n    tag_53:\n        /* \"contracts/sis.sol\":4676:4681  admin */\n      and(sub(shl(0xa0, 0x01), 0x01), sload(0x00))\n        /* \"@openzeppelin/contracts-upgradeable@5.0.1/utils/ContextUpgradeable.sol\":966:976  msg.sender */\n      caller\n      sub(shl(0xa0, 0x01), 0x01)\n        /* \"contracts/sis.sol\":4660:4681  _msgSender() == admin */\n      and\n      eq\n        /* \"contracts/sis.sol\":4652:4720  require(_msgSender() == admin, \"Only admin can perform this action\") */\n      tag_226\n      jumpi\n      mload(0x40)\n      shl(0xe5, 0x461bcd)\n      dup2\n      mstore\n      0x04\n      add\n      tag_181\n      swap1\n      tag_182\n      jump\t// in\n    tag_226:\n        /* \"@openzeppelin/contracts-upgradeable@5.0.1/utils/PausableUpgradeable.sol\":2316:2335  _requireNotPaused() */\n      tag_229\n        /* \"@openzeppelin/contracts-upgradeable@5.0.1/utils/PausableUpgradeable.sol\":2316:2333  _requireNotPaused */\n      tag_185\n        /* \"@openzeppelin/contracts-upgradeable@5.0.1/utils/PausableUpgradeable.sol\":2316:2335  _requireNotPaused() */\n      jump\t// in\n    tag_229:\n      sub(shl(0xa0, 0x01), 0x01)\n        /* \"contracts/sis.sol\":10591:10612  balances[participant] */\n      dup2\n      and\n        /* \"contracts/sis.sol\":10615:10616  0 */\n      0x00\n        /* \"contracts/sis.sol\":10591:10612  balances[participant] */\n      swap1\n      dup2\n      mstore\n        /* \"contracts/sis.sol\":10591:10599  balances */\n      0x02\n        /* \"contracts/sis.sol\":10591:10612  balances[participant] */\n      0x20\n      mstore\n      0x40\n      swap1\n      keccak256\n      sload\n        /* \"contracts/sis.sol\":10583:10642  require(balances[participant] > 0, \"No balance to dispute\") */\n      tag_231\n      jumpi\n      mload(0x40)\n      shl(0xe5, 0x461bcd)\n      dup2\n      mstore\n        /* \"#utility.yul\":11893:11895   */\n      0x20\n        /* \"contracts/sis.sol\":10583:10642  require(balances[participant] > 0, \"No balance to dispute\") */\n      0x04\n      dup3\n      add\n        /* \"#utility.yul\":11875:11896   */\n      mstore\n        /* \"#utility.yul\":11932:11934   */\n      0x15\n        /* \"#utility.yul\":11912:11930   */\n      0x24\n      dup3\n      add\n        /* \"#utility.yul\":11905:11935   */\n      mstore\n      shl(0x58, 0x4e6f2062616c616e636520746f2064697370757465)\n        /* \"#utility.yul\":11951:11969   */\n      0x44\n      dup3\n      add\n        /* \"#utility.yul\":11944:11995   */\n      mstore\n        /* \"#utility.yul\":12012:12030   */\n      0x64\n      add\n        /* \"contracts/sis.sol\":10583:10642  require(balances[participant] > 0, \"No balance to dispute\") */\n      tag_181\n        /* \"#utility.yul\":11691:12036   */\n      jump\n        /* \"contracts/sis.sol\":10583:10642  require(balances[participant] > 0, \"No balance to dispute\") */\n    tag_231:\n        /* \"contracts/sis.sol\":10672:10682  nextVoteId */\n      0x08\n        /* \"contracts/sis.sol\":10672:10684  nextVoteId++ */\n      dup1\n      sload\n        /* \"contracts/sis.sol\":10655:10669  uint256 voteId */\n      0x00\n      swap2\n      dup3\n        /* \"contracts/sis.sol\":10672:10684  nextVoteId++ */\n      tag_234\n      dup4\n      tag_235\n      jump\t// in\n    tag_234:\n      swap1\n      swap2\n      sstore\n      pop\n        /* \"contracts/sis.sol\":10718:10728  pointToken */\n      sload(0x01)\n        /* \"contracts/sis.sol\":10718:10753  pointToken.balanceOf(address(this)) */\n      mload(0x40)\n      shl(0xe0, 0x70a08231)\n      dup2\n      mstore\n        /* \"contracts/sis.sol\":10747:10751  this */\n      address\n        /* \"contracts/sis.sol\":10718:10753  pointToken.balanceOf(address(this)) */\n      0x04\n      dup3\n      add\n        /* \"#utility.yul\":3082:3133   */\n      mstore\n        /* \"contracts/sis.sol\":10655:10684  uint256 voteId = nextVoteId++ */\n      swap2\n      swap3\n      pop\n      sub(shl(0xa0, 0x01), 0x01)\n        /* \"contracts/sis.sol\":10718:10728  pointToken */\n      and\n      swap1\n        /* \"contracts/sis.sol\":10718:10738  pointToken.balanceOf */\n      0x70a08231\n      swap1\n        /* \"#utility.yul\":3055:3073   */\n      0x24\n      add\n        /* \"contracts/sis.sol\":10718:10753  pointToken.balanceOf(address(this)) */\n      0x20\n      mload(0x40)\n      dup1\n      dup4\n      sub\n      dup2\n      dup7\n      gas\n      staticcall\n      iszero\n      dup1\n      iszero\n      tag_238\n      jumpi\n      returndatasize\n      0x00\n      dup1\n      returndatacopy\n      revert(0x00, returndatasize)\n    tag_238:\n      pop\n      pop\n      pop\n      pop\n      mload(0x40)\n      returndatasize\n      not(0x1f)\n      0x1f\n      dup3\n      add\n      and\n      dup3\n      add\n      dup1\n      0x40\n      mstore\n      pop\n      dup2\n      add\n      swap1\n      tag_239\n      swap2\n      swap1\n      tag_240\n      jump\t// in\n    tag_239:\n        /* \"contracts/sis.sol\":10695:10715  totalWeights[voteId] */\n      0x00\n      dup3\n      dup2\n      mstore\n        /* \"contracts/sis.sol\":10695:10707  totalWeights */\n      0x06\n        /* \"contracts/sis.sol\":10695:10715  totalWeights[voteId] */\n      0x20\n      swap1\n      dup2\n      mstore\n      0x40\n      dup1\n      dup4\n      keccak256\n        /* \"contracts/sis.sol\":10695:10753  totalWeights[voteId] = pointToken.balanceOf(address(this)) */\n      swap4\n      swap1\n      swap4\n      sstore\n        /* \"contracts/sis.sol\":10764:10781  voteToParticipant */\n      0x07\n        /* \"contracts/sis.sol\":10764:10789  voteToParticipant[voteId] */\n      dup2\n      mstore\n      swap1\n      dup3\n      swap1\n      keccak256\n        /* \"contracts/sis.sol\":10764:10803  voteToParticipant[voteId] = participant */\n      dup1\n      sload\n      not(sub(shl(0xa0, 0x01), 0x01))\n      and\n      sub(shl(0xa0, 0x01), 0x01)\n      dup7\n      and\n      swap1\n      dup2\n      or\n      swap1\n      swap2\n      sstore\n        /* \"contracts/sis.sol\":10853:10885  VoteStarted(voteId, participant) */\n      swap2\n      mload\n        /* \"#utility.yul\":3290:3315   */\n      dup4\n      dup2\n      mstore\n        /* \"contracts/sis.sol\":10853:10885  VoteStarted(voteId, participant) */\n      0x8610d91e9f8a63773d7a3c13aa8bb8407203532a61bb703c06fce895f9622d0d\n      swap2\n        /* \"#utility.yul\":3263:3281   */\n      add\n        /* \"contracts/sis.sol\":10853:10885  VoteStarted(voteId, participant) */\n      mload(0x40)\n      dup1\n      swap2\n      sub\n      swap1\n      log2\n        /* \"contracts/sis.sol\":10572:10893  {... */\n      pop\n        /* \"contracts/sis.sol\":10485:10893  function startVoteToCloseChannel(address participant) external onlyAdmin whenNotPaused {... */\n      pop\n      jump\t// out\n        /* \"contracts/sis.sol\":2582:2955  function initialize(address admin_, IERC20 pointToken_, uint256 initialReserveBalance) public initializer {... */\n    tag_58:\n        /* \"@openzeppelin/contracts-upgradeable@5.0.1/proxy/utils/Initializable.sol\":8870:8891  INITIALIZABLE_STORAGE */\n      0xf0c57e16840df040f15088dc2f81fe391c3923bec73e23a9662efc9c229c6a00\n        /* \"@openzeppelin/contracts-upgradeable@5.0.1/proxy/utils/Initializable.sol\":4302:4317  $._initializing */\n      dup1\n      sload\n      shl(0x40, 0x01)\n      dup2\n      div\n      0xff\n      and\n        /* \"@openzeppelin/contracts-upgradeable@5.0.1/proxy/utils/Initializable.sol\":4301:4317  !$._initializing */\n      iszero\n      swap1\n        /* \"@openzeppelin/contracts-upgradeable@5.0.1/proxy/utils/Initializable.sol\":4348:4362  $._initialized */\n      0xffffffffffffffff\n      and\n        /* \"@openzeppelin/contracts-upgradeable@5.0.1/proxy/utils/Initializable.sol\":4158:4188  InitializableStorage storage $ */\n      0x00\n        /* \"@openzeppelin/contracts-upgradeable@5.0.1/proxy/utils/Initializable.sol\":4726:4742  initialized == 0 */\n      dup2\n      iszero\n        /* \"@openzeppelin/contracts-upgradeable@5.0.1/proxy/utils/Initializable.sol\":4726:4760  initialized == 0 && isTopLevelCall */\n      dup1\n      iszero\n      tag_245\n      jumpi\n      pop\n        /* \"@openzeppelin/contracts-upgradeable@5.0.1/proxy/utils/Initializable.sol\":4746:4760  isTopLevelCall */\n      dup3\n        /* \"@openzeppelin/contracts-upgradeable@5.0.1/proxy/utils/Initializable.sol\":4726:4760  initialized == 0 && isTopLevelCall */\n    tag_245:\n        /* \"@openzeppelin/contracts-upgradeable@5.0.1/proxy/utils/Initializable.sol\":4706:4760  bool initialSetup = initialized == 0 && isTopLevelCall */\n      swap1\n      pop\n        /* \"@openzeppelin/contracts-upgradeable@5.0.1/proxy/utils/Initializable.sol\":4770:4787  bool construction */\n      0x00\n        /* \"@openzeppelin/contracts-upgradeable@5.0.1/proxy/utils/Initializable.sol\":4790:4801  initialized */\n      dup3\n        /* \"@openzeppelin/contracts-upgradeable@5.0.1/proxy/utils/Initializable.sol\":4790:4806  initialized == 1 */\n      0xffffffffffffffff\n      and\n        /* \"@openzeppelin/contracts-upgradeable@5.0.1/proxy/utils/Initializable.sol\":4805:4806  1 */\n      0x01\n        /* \"@openzeppelin/contracts-upgradeable@5.0.1/proxy/utils/Initializable.sol\":4790:4806  initialized == 1 */\n      eq\n        /* \"@openzeppelin/contracts-upgradeable@5.0.1/proxy/utils/Initializable.sol\":4790:4840  initialized == 1 && address(this).code.length == 0 */\n      dup1\n      iszero\n      tag_246\n      jumpi\n      pop\n        /* \"@openzeppelin/contracts-upgradeable@5.0.1/proxy/utils/Initializable.sol\":4818:4822  this */\n      address\n        /* \"@openzeppelin/contracts-upgradeable@5.0.1/proxy/utils/Initializable.sol\":4810:4835  address(this).code.length */\n      extcodesize\n        /* \"@openzeppelin/contracts-upgradeable@5.0.1/proxy/utils/Initializable.sol\":4810:4840  address(this).code.length == 0 */\n      iszero\n        /* \"@openzeppelin/contracts-upgradeable@5.0.1/proxy/utils/Initializable.sol\":4790:4840  initialized == 1 && address(this).code.length == 0 */\n    tag_246:\n        /* \"@openzeppelin/contracts-upgradeable@5.0.1/proxy/utils/Initializable.sol\":4770:4840  bool construction = initialized == 1 && address(this).code.length == 0 */\n      swap1\n      pop\n        /* \"@openzeppelin/contracts-upgradeable@5.0.1/proxy/utils/Initializable.sol\":4856:4868  initialSetup */\n      dup2\n        /* \"@openzeppelin/contracts-upgradeable@5.0.1/proxy/utils/Initializable.sol\":4855:4868  !initialSetup */\n      iszero\n        /* \"@openzeppelin/contracts-upgradeable@5.0.1/proxy/utils/Initializable.sol\":4855:4885  !initialSetup && !construction */\n      dup1\n      iszero\n      tag_247\n      jumpi\n      pop\n        /* \"@openzeppelin/contracts-upgradeable@5.0.1/proxy/utils/Initializable.sol\":4873:4885  construction */\n      dup1\n        /* \"@openzeppelin/contracts-upgradeable@5.0.1/proxy/utils/Initializable.sol\":4872:4885  !construction */\n      iszero\n        /* \"@openzeppelin/contracts-upgradeable@5.0.1/proxy/utils/Initializable.sol\":4855:4885  !initialSetup && !construction */\n    tag_247:\n        /* \"@openzeppelin/contracts-upgradeable@5.0.1/proxy/utils/Initializable.sol\":4851:4942  if (!initialSetup && !construction) {... */\n      iszero\n      tag_248\n      jumpi\n        /* \"@openzeppelin/contracts-upgradeable@5.0.1/proxy/utils/Initializable.sol\":4908:4931  InvalidInitialization() */\n      mload(0x40)\n      shl(0xe0, 0xf92ee8a9)\n      dup2\n      mstore\n      0x04\n      add\n      mload(0x40)\n      dup1\n      swap2\n      sub\n      swap1\n      revert\n        /* \"@openzeppelin/contracts-upgradeable@5.0.1/proxy/utils/Initializable.sol\":4851:4942  if (!initialSetup && !construction) {... */\n    tag_248:\n        /* \"@openzeppelin/contracts-upgradeable@5.0.1/proxy/utils/Initializable.sol\":4951:4969  $._initialized = 1 */\n      dup5\n      sload\n      not(0xffffffffffffffff)\n      and\n        /* \"@openzeppelin/contracts-upgradeable@5.0.1/proxy/utils/Initializable.sol\":4968:4969  1 */\n      0x01\n        /* \"@openzeppelin/contracts-upgradeable@5.0.1/proxy/utils/Initializable.sol\":4951:4969  $._initialized = 1 */\n      or\n      dup6\n      sstore\n        /* \"@openzeppelin/contracts-upgradeable@5.0.1/proxy/utils/Initializable.sol\":4979:5046  if (isTopLevelCall) {... */\n      dup4\n      iszero\n      tag_249\n      jumpi\n        /* \"@openzeppelin/contracts-upgradeable@5.0.1/proxy/utils/Initializable.sol\":5013:5035  $._initializing = true */\n      dup5\n      sload\n      not(shl(0x40, 0xff))\n      and\n      shl(0x40, 0x01)\n      or\n      dup6\n      sstore\n        /* \"@openzeppelin/contracts-upgradeable@5.0.1/proxy/utils/Initializable.sol\":4979:5046  if (isTopLevelCall) {... */\n    tag_249:\n        /* \"contracts/sis.sol\":2699:2715  __Context_init() */\n      tag_251\n        /* \"contracts/sis.sol\":2699:2713  __Context_init */\n      tag_252\n        /* \"contracts/sis.sol\":2699:2715  __Context_init() */\n      jump\t// in\n    tag_251:\n        /* \"contracts/sis.sol\":2726:2743  __Pausable_init() */\n      tag_253\n        /* \"contracts/sis.sol\":2726:2741  __Pausable_init */\n      tag_254\n        /* \"contracts/sis.sol\":2726:2743  __Pausable_init() */\n      jump\t// in\n    tag_253:\n        /* \"contracts/sis.sol\":2754:2776  __Ownable_init(admin_) */\n      tag_255\n        /* \"contracts/sis.sol\":2769:2775  admin_ */\n      dup9\n        /* \"contracts/sis.sol\":2754:2768  __Ownable_init */\n      tag_256\n        /* \"contracts/sis.sol\":2754:2776  __Ownable_init(admin_) */\n      jump\t// in\n    tag_255:\n        /* \"contracts/sis.sol\":2787:2811  __UUPSUpgradeable_init() */\n      tag_257\n        /* \"contracts/sis.sol\":2787:2809  __UUPSUpgradeable_init */\n      tag_252\n        /* \"contracts/sis.sol\":2787:2811  __UUPSUpgradeable_init() */\n      jump\t// in\n    tag_257:\n        /* \"contracts/sis.sol\":2824:2829  admin */\n      0x00\n        /* \"contracts/sis.sol\":2824:2838  admin = admin_ */\n      dup1\n      sload\n      sub(shl(0xa0, 0x01), 0x01)\n      dup1\n      dup12\n      and\n      not(sub(shl(0xa0, 0x01), 0x01))\n      swap3\n      dup4\n      and\n      or\n      swap1\n      swap3\n      sstore\n      0x01\n        /* \"contracts/sis.sol\":2849:2873  pointToken = pointToken_ */\n      dup1\n      sload\n      swap3\n      dup11\n      and\n      swap3\n      swap1\n      swap2\n      and\n      swap2\n      swap1\n      swap2\n      or\n      dup2\n      sstore\n        /* \"contracts/sis.sol\":2884:2894  nextVoteId */\n      0x08\n        /* \"contracts/sis.sol\":2884:2898  nextVoteId = 1 */\n      sstore\n        /* \"contracts/sis.sol\":2909:2923  reserveBalance */\n      0x09\n        /* \"contracts/sis.sol\":2909:2947  reserveBalance = initialReserveBalance */\n      dup7\n      swap1\n      sstore\n        /* \"@openzeppelin/contracts-upgradeable@5.0.1/proxy/utils/Initializable.sol\":5066:5167  if (isTopLevelCall) {... */\n      dup4\n      iszero\n      tag_259\n      jumpi\n        /* \"@openzeppelin/contracts-upgradeable@5.0.1/proxy/utils/Initializable.sol\":5100:5123  $._initializing = false */\n      dup5\n      sload\n      not(shl(0x40, 0xff))\n      and\n      dup6\n      sstore\n        /* \"@openzeppelin/contracts-upgradeable@5.0.1/proxy/utils/Initializable.sol\":5142:5156  Initialized(1) */\n      mload(0x40)\n      0x01\n        /* \"#utility.yul\":12523:12573   */\n      dup2\n      mstore\n        /* \"@openzeppelin/contracts-upgradeable@5.0.1/proxy/utils/Initializable.sol\":5142:5156  Initialized(1) */\n      0xc7f505b2f371ae2175ee4913f4499e1f2633a7b5936321eed1cdaeb6115181d2\n      swap1\n        /* \"#utility.yul\":12511:12513   */\n      0x20\n        /* \"#utility.yul\":12496:12514   */\n      add\n        /* \"@openzeppelin/contracts-upgradeable@5.0.1/proxy/utils/Initializable.sol\":5142:5156  Initialized(1) */\n      mload(0x40)\n      dup1\n      swap2\n      sub\n      swap1\n      log1\n        /* \"@openzeppelin/contracts-upgradeable@5.0.1/proxy/utils/Initializable.sol\":5066:5167  if (isTopLevelCall) {... */\n    tag_259:\n        /* \"@openzeppelin/contracts-upgradeable@5.0.1/proxy/utils/Initializable.sol\":4092:5173  {... */\n      pop\n      pop\n      pop\n      pop\n      pop\n        /* \"contracts/sis.sol\":2582:2955  function initialize(address admin_, IERC20 pointToken_, uint256 initialReserveBalance) public initializer {... */\n      pop\n      pop\n      pop\n      jump\t// out\n        /* \"contracts/sis.sol\":3240:3305  function unpause() public onlyOwner {... */\n    tag_72:\n        /* \"@openzeppelin/contracts-upgradeable@5.0.1/access/OwnableUpgradeable.sol\":2334:2347  _checkOwner() */\n      tag_263\n        /* \"@openzeppelin/contracts-upgradeable@5.0.1/access/OwnableUpgradeable.sol\":2334:2345  _checkOwner */\n      tag_264\n        /* \"@openzeppelin/contracts-upgradeable@5.0.1/access/OwnableUpgradeable.sol\":2334:2347  _checkOwner() */\n      jump\t// in\n    tag_263:\n        /* \"contracts/sis.sol\":3287:3297  _unpause() */\n      tag_266\n        /* \"contracts/sis.sol\":3287:3295  _unpause */\n      tag_267\n        /* \"contracts/sis.sol\":3287:3297  _unpause() */\n      jump\t// in\n    tag_266:\n        /* \"contracts/sis.sol\":3240:3305  function unpause() public onlyOwner {... */\n      jump\t// out\n        /* \"@openzeppelin/contracts-upgradeable@5.0.1/proxy/utils/UUPSUpgradeable.sol\":4158:4372  function upgradeToAndCall(address newImplementation, bytes memory data) public payable virtual onlyProxy {... */\n    tag_76:\n        /* \"@openzeppelin/contracts-upgradeable@5.0.1/proxy/utils/UUPSUpgradeable.sol\":2653:2666  _checkProxy() */\n      tag_269\n        /* \"@openzeppelin/contracts-upgradeable@5.0.1/proxy/utils/UUPSUpgradeable.sol\":2653:2664  _checkProxy */\n      tag_270\n        /* \"@openzeppelin/contracts-upgradeable@5.0.1/proxy/utils/UUPSUpgradeable.sol\":2653:2666  _checkProxy() */\n      jump\t// in\n    tag_269:\n        /* \"@openzeppelin/contracts-upgradeable@5.0.1/proxy/utils/UUPSUpgradeable.sol\":4273:4309  _authorizeUpgrade(newImplementation) */\n      tag_272\n        /* \"@openzeppelin/contracts-upgradeable@5.0.1/proxy/utils/UUPSUpgradeable.sol\":4291:4308  newImplementation */\n      dup3\n        /* \"@openzeppelin/contracts-upgradeable@5.0.1/proxy/utils/UUPSUpgradeable.sol\":4273:4290  _authorizeUpgrade */\n      tag_273\n        /* \"@openzeppelin/contracts-upgradeable@5.0.1/proxy/utils/UUPSUpgradeable.sol\":4273:4309  _authorizeUpgrade(newImplementation) */\n      jump\t// in\n    tag_272:\n        /* \"@openzeppelin/contracts-upgradeable@5.0.1/proxy/utils/UUPSUpgradeable.sol\":4319:4365  _upgradeToAndCallUUPS(newImplementation, data) */\n      tag_274\n        /* \"@openzeppelin/contracts-upgradeable@5.0.1/proxy/utils/UUPSUpgradeable.sol\":4341:4358  newImplementation */\n      dup3\n        /* \"@openzeppelin/contracts-upgradeable@5.0.1/proxy/utils/UUPSUpgradeable.sol\":4360:4364  data */\n      dup3\n        /* \"@openzeppelin/contracts-upgradeable@5.0.1/proxy/utils/UUPSUpgradeable.sol\":4319:4340  _upgradeToAndCallUUPS */\n      tag_275\n        /* \"@openzeppelin/contracts-upgradeable@5.0.1/proxy/utils/UUPSUpgradeable.sol\":4319:4365  _upgradeToAndCallUUPS(newImplementation, data) */\n      jump\t// in\n    tag_274:\n        /* \"@openzeppelin/contracts-upgradeable@5.0.1/proxy/utils/UUPSUpgradeable.sol\":4158:4372  function upgradeToAndCall(address newImplementation, bytes memory data) public payable virtual onlyProxy {... */\n      pop\n      pop\n      jump\t// out\n        /* \"@openzeppelin/contracts-upgradeable@5.0.1/proxy/utils/UUPSUpgradeable.sol\":3705:3839  function proxiableUUID() external view virtual notDelegated returns (bytes32) {... */\n    tag_79:\n        /* \"@openzeppelin/contracts-upgradeable@5.0.1/proxy/utils/UUPSUpgradeable.sol\":3774:3781  bytes32 */\n      0x00\n        /* \"@openzeppelin/contracts-upgradeable@5.0.1/proxy/utils/UUPSUpgradeable.sol\":2924:2944  _checkNotDelegated() */\n      tag_277\n        /* \"@openzeppelin/contracts-upgradeable@5.0.1/proxy/utils/UUPSUpgradeable.sol\":2924:2942  _checkNotDelegated */\n      tag_278\n        /* \"@openzeppelin/contracts-upgradeable@5.0.1/proxy/utils/UUPSUpgradeable.sol\":2924:2944  _checkNotDelegated() */\n      jump\t// in\n    tag_277:\n      pop\n      0x00\n      dup1\n      mload\n      0x20\n      data_75b20eef8615de99c108b05f0dbda081c91897128caa336d75dffb97c4132b4d\n      dup4\n      codecopy\n      dup2\n      mload\n      swap2\n      mstore\n        /* \"@openzeppelin/contracts-upgradeable@5.0.1/proxy/utils/UUPSUpgradeable.sol\":3705:3839  function proxiableUUID() external view virtual notDelegated returns (bytes32) {... */\n      swap1\n      jump\t// out\n        /* \"contracts/sis.sol\":7911:8244  function updateChannelState(uint256 newBalance, uint256 channel_nonce, bytes calldata adminSignature) external whenNotPaused {... */\n    tag_96:\n        /* \"@openzeppelin/contracts-upgradeable@5.0.1/utils/PausableUpgradeable.sol\":2316:2335  _requireNotPaused() */\n      tag_284\n        /* \"@openzeppelin/contracts-upgradeable@5.0.1/utils/PausableUpgradeable.sol\":2316:2333  _requireNotPaused */\n      tag_185\n        /* \"@openzeppelin/contracts-upgradeable@5.0.1/utils/PausableUpgradeable.sol\":2316:2335  _requireNotPaused() */\n      jump\t// in\n    tag_284:\n        /* \"contracts/sis.sol\":8047:8120  _verifySignature(_msgSender(), newBalance, channel_nonce, adminSignature) */\n      tag_286\n        /* \"@openzeppelin/contracts-upgradeable@5.0.1/utils/ContextUpgradeable.sol\":966:976  msg.sender */\n      caller\n        /* \"contracts/sis.sol\":8064:8076  _msgSender() */\n    tag_287:\n        /* \"contracts/sis.sol\":8078:8088  newBalance */\n      dup6\n        /* \"contracts/sis.sol\":8090:8103  channel_nonce */\n      dup6\n        /* \"contracts/sis.sol\":8105:8119  adminSignature */\n      dup6\n      dup6\n        /* \"contracts/sis.sol\":8047:8063  _verifySignature */\n      tag_288\n        /* \"contracts/sis.sol\":8047:8120  _verifySignature(_msgSender(), newBalance, channel_nonce, adminSignature) */\n      jump\t// in\n    tag_286:\n        /* \"contracts/sis.sol\":8133:8173  _updateBalance(_msgSender(), newBalance) */\n      tag_289\n        /* \"@openzeppelin/contracts-upgradeable@5.0.1/utils/ContextUpgradeable.sol\":966:976  msg.sender */\n      caller\n        /* \"contracts/sis.sol\":8148:8160  _msgSender() */\n    tag_290:\n        /* \"contracts/sis.sol\":8162:8172  newBalance */\n      dup6\n        /* \"contracts/sis.sol\":8133:8147  _updateBalance */\n      tag_221\n        /* \"contracts/sis.sol\":8133:8173  _updateBalance(_msgSender(), newBalance) */\n      jump\t// in\n    tag_289:\n        /* \"contracts/sis.sol\":8191:8236  ChannelStateUpdated(_msgSender(), newBalance) */\n      mload(0x40)\n        /* \"#utility.yul\":3290:3315   */\n      dup5\n      dup2\n      mstore\n        /* \"@openzeppelin/contracts-upgradeable@5.0.1/utils/ContextUpgradeable.sol\":966:976  msg.sender */\n      caller\n      swap1\n        /* \"contracts/sis.sol\":8191:8236  ChannelStateUpdated(_msgSender(), newBalance) */\n      0x7200cd3d0176b58ea53053a648b9a9cfb0d0d13a52488e14a16e0037b2241d21\n      swap1\n        /* \"#utility.yul\":3278:3280   */\n      0x20\n        /* \"#utility.yul\":3263:3281   */\n      add\n        /* \"contracts/sis.sol\":8191:8236  ChannelStateUpdated(_msgSender(), newBalance) */\n    tag_292:\n      mload(0x40)\n      dup1\n      swap2\n      sub\n      swap1\n      log2\n        /* \"contracts/sis.sol\":7911:8244  function updateChannelState(uint256 newBalance, uint256 channel_nonce, bytes calldata adminSignature) external whenNotPaused {... */\n      pop\n      pop\n      pop\n      pop\n      jump\t// out\n        /* \"contracts/sis.sol\":11124:11733  function closeChannelByDAO(address participant, uint256 newBalance, uint256 voteId) external onlyAdmin whenNotPaused {... */\n    tag_101:\n        /* \"contracts/sis.sol\":4676:4681  admin */\n      and(sub(shl(0xa0, 0x01), 0x01), sload(0x00))\n        /* \"@openzeppelin/contracts-upgradeable@5.0.1/utils/ContextUpgradeable.sol\":966:976  msg.sender */\n      caller\n      sub(shl(0xa0, 0x01), 0x01)\n        /* \"contracts/sis.sol\":4660:4681  _msgSender() == admin */\n      and\n      eq\n        /* \"contracts/sis.sol\":4652:4720  require(_msgSender() == admin, \"Only admin can perform this action\") */\n      tag_295\n      jumpi\n      mload(0x40)\n      shl(0xe5, 0x461bcd)\n      dup2\n      mstore\n      0x04\n      add\n      tag_181\n      swap1\n      tag_182\n      jump\t// in\n    tag_295:\n        /* \"@openzeppelin/contracts-upgradeable@5.0.1/utils/PausableUpgradeable.sol\":2316:2335  _requireNotPaused() */\n      tag_298\n        /* \"@openzeppelin/contracts-upgradeable@5.0.1/utils/PausableUpgradeable.sol\":2316:2333  _requireNotPaused */\n      tag_185\n        /* \"@openzeppelin/contracts-upgradeable@5.0.1/utils/PausableUpgradeable.sol\":2316:2335  _requireNotPaused() */\n      jump\t// in\n    tag_298:\n        /* \"contracts/sis.sol\":11287:11307  totalWeights[voteId] */\n      0x00\n      dup2\n      dup2\n      mstore\n        /* \"contracts/sis.sol\":11287:11299  totalWeights */\n      0x06\n        /* \"contracts/sis.sol\":11287:11307  totalWeights[voteId] */\n      0x20\n      swap1\n      dup2\n      mstore\n      0x40\n      dup1\n      dup4\n      keccak256\n      sload\n        /* \"contracts/sis.sol\":11260:11271  voteWeights */\n      0x05\n        /* \"contracts/sis.sol\":11260:11279  voteWeights[voteId] */\n      swap1\n      swap3\n      mstore\n      swap1\n      swap2\n      keccak256\n      sload\n        /* \"contracts/sis.sol\":11260:11283  voteWeights[voteId] * 2 */\n      tag_300\n      swap1\n        /* \"contracts/sis.sol\":11282:11283  2 */\n      0x02\n        /* \"contracts/sis.sol\":11260:11283  voteWeights[voteId] * 2 */\n      tag_301\n      jump\t// in\n    tag_300:\n        /* \"contracts/sis.sol\":11260:11307  voteWeights[voteId] * 2 >= totalWeights[voteId] */\n      lt\n      iszero\n        /* \"contracts/sis.sol\":11252:11345  require(voteWeights[voteId] * 2 >= totalWeights[voteId], \"Not enough votes to close channel\") */\n      tag_302\n      jumpi\n      mload(0x40)\n      shl(0xe5, 0x461bcd)\n      dup2\n      mstore\n        /* \"#utility.yul\":12959:12961   */\n      0x20\n        /* \"contracts/sis.sol\":11252:11345  require(voteWeights[voteId] * 2 >= totalWeights[voteId], \"Not enough votes to close channel\") */\n      0x04\n      dup3\n      add\n        /* \"#utility.yul\":12941:12962   */\n      mstore\n        /* \"#utility.yul\":12998:13000   */\n      0x21\n        /* \"#utility.yul\":12978:12996   */\n      0x24\n      dup3\n      add\n        /* \"#utility.yul\":12971:13001   */\n      mstore\n        /* \"#utility.yul\":13037:13071   */\n      0x4e6f7420656e6f75676820766f74657320746f20636c6f7365206368616e6e65\n        /* \"#utility.yul\":13017:13035   */\n      0x44\n      dup3\n      add\n        /* \"#utility.yul\":13010:13072   */\n      mstore\n      shl(0xfa, 0x1b)\n        /* \"#utility.yul\":13088:13106   */\n      0x64\n      dup3\n      add\n        /* \"#utility.yul\":13081:13112   */\n      mstore\n        /* \"#utility.yul\":13129:13148   */\n      0x84\n      add\n        /* \"contracts/sis.sol\":11252:11345  require(voteWeights[voteId] * 2 >= totalWeights[voteId], \"Not enough votes to close channel\") */\n      tag_181\n        /* \"#utility.yul\":12757:13154   */\n      jump\n        /* \"contracts/sis.sol\":11252:11345  require(voteWeights[voteId] * 2 >= totalWeights[voteId], \"Not enough votes to close channel\") */\n    tag_302:\n        /* \"contracts/sis.sol\":11364:11389  voteToParticipant[voteId] */\n      0x00\n      dup2\n      dup2\n      mstore\n        /* \"contracts/sis.sol\":11364:11381  voteToParticipant */\n      0x07\n        /* \"contracts/sis.sol\":11364:11389  voteToParticipant[voteId] */\n      0x20\n      mstore\n      0x40\n      swap1\n      keccak256\n      sload\n      sub(shl(0xa0, 0x01), 0x01)\n        /* \"contracts/sis.sol\":11364:11404  voteToParticipant[voteId] == participant */\n      dup5\n      dup2\n      and\n        /* \"contracts/sis.sol\":11364:11389  voteToParticipant[voteId] */\n      swap2\n      and\n        /* \"contracts/sis.sol\":11364:11404  voteToParticipant[voteId] == participant */\n      eq\n        /* \"contracts/sis.sol\":11356:11443  require(voteToParticipant[voteId] == participant, \"Vote ID does not match participant\") */\n      tag_305\n      jumpi\n      mload(0x40)\n      shl(0xe5, 0x461bcd)\n      dup2\n      mstore\n        /* \"#utility.yul\":13361:13363   */\n      0x20\n        /* \"contracts/sis.sol\":11356:11443  require(voteToParticipant[voteId] == participant, \"Vote ID does not match participant\") */\n      0x04\n      dup3\n      add\n        /* \"#utility.yul\":13343:13364   */\n      mstore\n        /* \"#utility.yul\":13400:13402   */\n      0x22\n        /* \"#utility.yul\":13380:13398   */\n      0x24\n      dup3\n      add\n        /* \"#utility.yul\":13373:13403   */\n      mstore\n        /* \"#utility.yul\":13439:13473   */\n      0x566f746520494420646f6573206e6f74206d6174636820706172746963697061\n        /* \"#utility.yul\":13419:13437   */\n      0x44\n      dup3\n      add\n        /* \"#utility.yul\":13412:13474   */\n      mstore\n      shl(0xf2, 0x1b9d)\n        /* \"#utility.yul\":13490:13508   */\n      0x64\n      dup3\n      add\n        /* \"#utility.yul\":13483:13515   */\n      mstore\n        /* \"#utility.yul\":13532:13551   */\n      0x84\n      add\n        /* \"contracts/sis.sol\":11356:11443  require(voteToParticipant[voteId] == participant, \"Vote ID does not match participant\") */\n      tag_181\n        /* \"#utility.yul\":13159:13557   */\n      jump\n        /* \"contracts/sis.sol\":11356:11443  require(voteToParticipant[voteId] == participant, \"Vote ID does not match participant\") */\n    tag_305:\n        /* \"contracts/sis.sol\":11498:11537  _updateBalance(participant, newBalance) */\n      tag_308\n        /* \"contracts/sis.sol\":11513:11524  participant */\n      dup4\n        /* \"contracts/sis.sol\":11526:11536  newBalance */\n      dup4\n        /* \"contracts/sis.sol\":11498:11512  _updateBalance */\n      tag_221\n        /* \"contracts/sis.sol\":11498:11537  _updateBalance(participant, newBalance) */\n      jump\t// in\n    tag_308:\n        /* \"contracts/sis.sol\":11556:11566  pointToken */\n      sload(0x01)\n        /* \"contracts/sis.sol\":11556:11600  pointToken.transfer(participant, newBalance) */\n      mload(0x40)\n      shl(0xe0, 0xa9059cbb)\n      dup2\n      mstore\n      sub(shl(0xa0, 0x01), 0x01)\n        /* \"#utility.yul\":9134:9166   */\n      dup6\n      dup2\n      and\n        /* \"contracts/sis.sol\":11556:11600  pointToken.transfer(participant, newBalance) */\n      0x04\n      dup4\n      add\n        /* \"#utility.yul\":9116:9167   */\n      mstore\n        /* \"#utility.yul\":9183:9201   */\n      0x24\n      dup3\n      add\n        /* \"#utility.yul\":9176:9210   */\n      dup6\n      swap1\n      mstore\n        /* \"contracts/sis.sol\":11556:11566  pointToken */\n      swap1\n      swap2\n      and\n      swap1\n        /* \"contracts/sis.sol\":11556:11575  pointToken.transfer */\n      0xa9059cbb\n      swap1\n        /* \"#utility.yul\":9089:9107   */\n      0x44\n      add\n        /* \"contracts/sis.sol\":11556:11600  pointToken.transfer(participant, newBalance) */\n      0x20\n      mload(0x40)\n      dup1\n      dup4\n      sub\n      dup2\n      0x00\n      dup8\n      gas\n      call\n      iszero\n      dup1\n      iszero\n      tag_311\n      jumpi\n      returndatasize\n      0x00\n      dup1\n      returndatacopy\n      revert(0x00, returndatasize)\n    tag_311:\n      pop\n      pop\n      pop\n      pop\n      mload(0x40)\n      returndatasize\n      not(0x1f)\n      0x1f\n      dup3\n      add\n      and\n      dup3\n      add\n      dup1\n      0x40\n      mstore\n      pop\n      dup2\n      add\n      swap1\n      tag_312\n      swap2\n      swap1\n      tag_196\n      jump\t// in\n    tag_312:\n        /* \"contracts/sis.sol\":11548:11620  require(pointToken.transfer(participant, newBalance), \"Transfer failed\") */\n      tag_313\n      jumpi\n      mload(0x40)\n      shl(0xe5, 0x461bcd)\n      dup2\n      mstore\n      0x04\n      add\n      tag_181\n      swap1\n      tag_199\n      jump\t// in\n    tag_313:\n      sub(shl(0xa0, 0x01), 0x01)\n        /* \"contracts/sis.sol\":11631:11652  balances[participant] */\n      dup4\n      and\n        /* \"contracts/sis.sol\":11655:11656  0 */\n      0x00\n        /* \"contracts/sis.sol\":11631:11652  balances[participant] */\n      dup2\n      dup2\n      mstore\n        /* \"contracts/sis.sol\":11631:11639  balances */\n      0x02\n        /* \"contracts/sis.sol\":11631:11652  balances[participant] */\n      0x20\n      swap1\n      dup2\n      mstore\n      0x40\n      dup1\n      dup4\n      keccak256\n        /* \"contracts/sis.sol\":11631:11656  balances[participant] = 0 */\n      swap3\n      swap1\n      swap3\n      sstore\n        /* \"contracts/sis.sol\":11674:11725  ChannelClosedByDAO(participant, newBalance, voteId) */\n      dup2\n      mload\n        /* \"#utility.yul\":13736:13761   */\n      dup6\n      dup2\n      mstore\n        /* \"#utility.yul\":13777:13795   */\n      swap1\n      dup2\n      add\n        /* \"#utility.yul\":13770:13804   */\n      dup5\n      swap1\n      mstore\n        /* \"contracts/sis.sol\":11674:11725  ChannelClosedByDAO(participant, newBalance, voteId) */\n      0x93af0759c861f9140be6d1c461033b560dba0e077676ce380708438f5ee23f62\n      swap2\n        /* \"#utility.yul\":13709:13727   */\n      add\n        /* \"contracts/sis.sol\":11674:11725  ChannelClosedByDAO(participant, newBalance, voteId) */\n    tag_315:\n      mload(0x40)\n      dup1\n      swap2\n      sub\n      swap1\n      log2\n        /* \"contracts/sis.sol\":11124:11733  function closeChannelByDAO(address participant, uint256 newBalance, uint256 voteId) external onlyAdmin whenNotPaused {... */\n      pop\n      pop\n      pop\n      jump\t// out\n        /* \"@openzeppelin/contracts-upgradeable@5.0.1/access/OwnableUpgradeable.sol\":3155:3256  function renounceOwnership() public virtual onlyOwner {... */\n    tag_104:\n        /* \"@openzeppelin/contracts-upgradeable@5.0.1/access/OwnableUpgradeable.sol\":2334:2347  _checkOwner() */\n      tag_318\n        /* \"@openzeppelin/contracts-upgradeable@5.0.1/access/OwnableUpgradeable.sol\":2334:2345  _checkOwner */\n      tag_264\n        /* \"@openzeppelin/contracts-upgradeable@5.0.1/access/OwnableUpgradeable.sol\":2334:2347  _checkOwner() */\n      jump\t// in\n    tag_318:\n        /* \"@openzeppelin/contracts-upgradeable@5.0.1/access/OwnableUpgradeable.sol\":3219:3249  _transferOwnership(address(0)) */\n      tag_266\n        /* \"@openzeppelin/contracts-upgradeable@5.0.1/access/OwnableUpgradeable.sol\":3246:3247  0 */\n      0x00\n        /* \"@openzeppelin/contracts-upgradeable@5.0.1/access/OwnableUpgradeable.sol\":3219:3237  _transferOwnership */\n      tag_321\n        /* \"@openzeppelin/contracts-upgradeable@5.0.1/access/OwnableUpgradeable.sol\":3219:3249  _transferOwnership(address(0)) */\n      jump\t// in\n        /* \"contracts/sis.sol\":3066:3127  function pause() public onlyOwner {... */\n    tag_107:\n        /* \"@openzeppelin/contracts-upgradeable@5.0.1/access/OwnableUpgradeable.sol\":2334:2347  _checkOwner() */\n      tag_323\n        /* \"@openzeppelin/contracts-upgradeable@5.0.1/access/OwnableUpgradeable.sol\":2334:2345  _checkOwner */\n      tag_264\n        /* \"@openzeppelin/contracts-upgradeable@5.0.1/access/OwnableUpgradeable.sol\":2334:2347  _checkOwner() */\n      jump\t// in\n    tag_323:\n        /* \"contracts/sis.sol\":3111:3119  _pause() */\n      tag_266\n        /* \"contracts/sis.sol\":3111:3117  _pause */\n      tag_326\n        /* \"contracts/sis.sol\":3111:3119  _pause() */\n      jump\t// in\n        /* \"contracts/sis.sol\":4904:5135  function changeAdmin(address newAdmin) external onlyOwner whenNotPaused {... */\n    tag_116:\n        /* \"@openzeppelin/contracts-upgradeable@5.0.1/access/OwnableUpgradeable.sol\":2334:2347  _checkOwner() */\n      tag_331\n        /* \"@openzeppelin/contracts-upgradeable@5.0.1/access/OwnableUpgradeable.sol\":2334:2345  _checkOwner */\n      tag_264\n        /* \"@openzeppelin/contracts-upgradeable@5.0.1/access/OwnableUpgradeable.sol\":2334:2347  _checkOwner() */\n      jump\t// in\n    tag_331:\n        /* \"@openzeppelin/contracts-upgradeable@5.0.1/utils/PausableUpgradeable.sol\":2316:2335  _requireNotPaused() */\n      tag_333\n        /* \"@openzeppelin/contracts-upgradeable@5.0.1/utils/PausableUpgradeable.sol\":2316:2333  _requireNotPaused */\n      tag_185\n        /* \"@openzeppelin/contracts-upgradeable@5.0.1/utils/PausableUpgradeable.sol\":2316:2335  _requireNotPaused() */\n      jump\t// in\n    tag_333:\n      sub(shl(0xa0, 0x01), 0x01)\n        /* \"contracts/sis.sol\":4995:5017  newAdmin != address(0) */\n      dup2\n      and\n        /* \"contracts/sis.sol\":4987:5062  require(newAdmin != address(0), \"New admin address cannot be zero address\") */\n      tag_335\n      jumpi\n      mload(0x40)\n      shl(0xe5, 0x461bcd)\n      dup2\n      mstore\n        /* \"#utility.yul\":14017:14019   */\n      0x20\n        /* \"contracts/sis.sol\":4987:5062  require(newAdmin != address(0), \"New admin address cannot be zero address\") */\n      0x04\n      dup3\n      add\n        /* \"#utility.yul\":13999:14020   */\n      mstore\n        /* \"#utility.yul\":14056:14058   */\n      0x28\n        /* \"#utility.yul\":14036:14054   */\n      0x24\n      dup3\n      add\n        /* \"#utility.yul\":14029:14059   */\n      mstore\n        /* \"#utility.yul\":14095:14129   */\n      0x4e65772061646d696e20616464726573732063616e6e6f74206265207a65726f\n        /* \"#utility.yul\":14075:14093   */\n      0x44\n      dup3\n      add\n        /* \"#utility.yul\":14068:14130   */\n      mstore\n      shl(0xc0, 0x2061646472657373)\n        /* \"#utility.yul\":14146:14164   */\n      0x64\n      dup3\n      add\n        /* \"#utility.yul\":14139:14177   */\n      mstore\n        /* \"#utility.yul\":14194:14213   */\n      0x84\n      add\n        /* \"contracts/sis.sol\":4987:5062  require(newAdmin != address(0), \"New admin address cannot be zero address\") */\n      tag_181\n        /* \"#utility.yul\":13815:14219   */\n      jump\n        /* \"contracts/sis.sol\":4987:5062  require(newAdmin != address(0), \"New admin address cannot be zero address\") */\n    tag_335:\n        /* \"contracts/sis.sol\":5073:5078  admin */\n      0x00\n        /* \"contracts/sis.sol\":5073:5089  admin = newAdmin */\n      dup1\n      sload\n      not(sub(shl(0xa0, 0x01), 0x01))\n      and\n      sub(shl(0xa0, 0x01), 0x01)\n      dup4\n      and\n      swap1\n      dup2\n      or\n      dup3\n      sstore\n        /* \"contracts/sis.sol\":5105:5127  AdminChanged(newAdmin) */\n      mload(0x40)\n        /* \"contracts/sis.sol\":5073:5089  admin = newAdmin */\n      swap1\n      swap2\n        /* \"contracts/sis.sol\":5105:5127  AdminChanged(newAdmin) */\n      0x7ce7ec0b50378fb6c0186ffb5f48325f6593fcb4ca4386f21861af3129188f5c\n      swap2\n      log2\n        /* \"contracts/sis.sol\":4904:5135  function changeAdmin(address newAdmin) external onlyOwner whenNotPaused {... */\n      pop\n      jump\t// out\n        /* \"contracts/sis.sol\":3776:4035  function depositToReserve(uint256 amount) external onlyAdmin whenNotPaused {... */\n    tag_129:\n        /* \"contracts/sis.sol\":4676:4681  admin */\n      and(sub(shl(0xa0, 0x01), 0x01), sload(0x00))\n        /* \"@openzeppelin/contracts-upgradeable@5.0.1/utils/ContextUpgradeable.sol\":966:976  msg.sender */\n      caller\n      sub(shl(0xa0, 0x01), 0x01)\n        /* \"contracts/sis.sol\":4660:4681  _msgSender() == admin */\n      and\n      eq\n        /* \"contracts/sis.sol\":4652:4720  require(_msgSender() == admin, \"Only admin can perform this action\") */\n      tag_340\n      jumpi\n      mload(0x40)\n      shl(0xe5, 0x461bcd)\n      dup2\n      mstore\n      0x04\n      add\n      tag_181\n      swap1\n      tag_182\n      jump\t// in\n    tag_340:\n        /* \"@openzeppelin/contracts-upgradeable@5.0.1/utils/PausableUpgradeable.sol\":2316:2335  _requireNotPaused() */\n      tag_343\n        /* \"@openzeppelin/contracts-upgradeable@5.0.1/utils/PausableUpgradeable.sol\":2316:2333  _requireNotPaused */\n      tag_185\n        /* \"@openzeppelin/contracts-upgradeable@5.0.1/utils/PausableUpgradeable.sol\":2316:2335  _requireNotPaused() */\n      jump\t// in\n    tag_343:\n        /* \"contracts/sis.sol\":3870:3880  pointToken */\n      and(sub(shl(0xa0, 0x01), 0x01), sload(0x01))\n        /* \"contracts/sis.sol\":3870:3893  pointToken.transferFrom */\n      0x23b872dd\n        /* \"@openzeppelin/contracts-upgradeable@5.0.1/utils/ContextUpgradeable.sol\":966:976  msg.sender */\n      caller\n        /* \"contracts/sis.sol\":3870:3930  pointToken.transferFrom(_msgSender(), address(this), amount) */\n      mload(0x40)\n      not(sub(shl(0xe0, 0x01), 0x01))\n      0xe0\n      dup5\n      swap1\n      shl\n      and\n      dup2\n      mstore\n      sub(shl(0xa0, 0x01), 0x01)\n        /* \"#utility.yul\":14482:14497   */\n      swap1\n      swap2\n      and\n        /* \"contracts/sis.sol\":3870:3930  pointToken.transferFrom(_msgSender(), address(this), amount) */\n      0x04\n      dup3\n      add\n        /* \"#utility.yul\":14464:14498   */\n      mstore\n        /* \"contracts/sis.sol\":3916:3920  this */\n      address\n        /* \"#utility.yul\":14514:14532   */\n      0x24\n      dup3\n      add\n        /* \"#utility.yul\":14507:14550   */\n      mstore\n        /* \"#utility.yul\":14566:14584   */\n      0x44\n      dup2\n      add\n        /* \"#utility.yul\":14559:14593   */\n      dup5\n      swap1\n      mstore\n        /* \"#utility.yul\":14399:14417   */\n      0x64\n      add\n        /* \"contracts/sis.sol\":3870:3930  pointToken.transferFrom(_msgSender(), address(this), amount) */\n      0x20\n      mload(0x40)\n      dup1\n      dup4\n      sub\n      dup2\n      0x00\n      dup8\n      gas\n      call\n      iszero\n      dup1\n      iszero\n      tag_349\n      jumpi\n      returndatasize\n      0x00\n      dup1\n      returndatacopy\n      revert(0x00, returndatasize)\n    tag_349:\n      pop\n      pop\n      pop\n      pop\n      mload(0x40)\n      returndatasize\n      not(0x1f)\n      0x1f\n      dup3\n      add\n      and\n      dup3\n      add\n      dup1\n      0x40\n      mstore\n      pop\n      dup2\n      add\n      swap1\n      tag_350\n      swap2\n      swap1\n      tag_196\n      jump\t// in\n    tag_350:\n        /* \"contracts/sis.sol\":3862:3950  require(pointToken.transferFrom(_msgSender(), address(this), amount), \"Transfer failed\") */\n      tag_351\n      jumpi\n      mload(0x40)\n      shl(0xe5, 0x461bcd)\n      dup2\n      mstore\n      0x04\n      add\n      tag_181\n      swap1\n      tag_199\n      jump\t// in\n    tag_351:\n        /* \"contracts/sis.sol\":3979:3985  amount */\n      dup1\n        /* \"contracts/sis.sol\":3961:3975  reserveBalance */\n      0x09\n      0x00\n        /* \"contracts/sis.sol\":3961:3985  reserveBalance += amount */\n      dup3\n      dup3\n      sload\n      tag_353\n      swap2\n      swap1\n      tag_354\n      jump\t// in\n    tag_353:\n      swap1\n      swap2\n      sstore\n      pop\n      pop\n        /* \"contracts/sis.sol\":4001:4027  DepositedToReserve(amount) */\n      mload(0x40)\n        /* \"#utility.yul\":3290:3315   */\n      dup2\n      dup2\n      mstore\n        /* \"contracts/sis.sol\":4001:4027  DepositedToReserve(amount) */\n      0x372b1a73ea80de8b8f35b0cf88147a1fbc354f7fb9d1409431199a619acd0c98\n      swap1\n        /* \"#utility.yul\":3278:3280   */\n      0x20\n        /* \"#utility.yul\":3263:3281   */\n      add\n        /* \"contracts/sis.sol\":4001:4027  DepositedToReserve(amount) */\n      tag_202\n        /* \"#utility.yul\":3144:3321   */\n      jump\n        /* \"contracts/sis.sol\":11933:12366  function batchUpdateChannelbyadmin(address[] calldata participants, uint256[] calldata newBalances) external onlyAdmin whenNotPaused {... */\n    tag_139:\n        /* \"contracts/sis.sol\":4676:4681  admin */\n      and(sub(shl(0xa0, 0x01), 0x01), sload(0x00))\n        /* \"@openzeppelin/contracts-upgradeable@5.0.1/utils/ContextUpgradeable.sol\":966:976  msg.sender */\n      caller\n      sub(shl(0xa0, 0x01), 0x01)\n        /* \"contracts/sis.sol\":4660:4681  _msgSender() == admin */\n      and\n      eq\n        /* \"contracts/sis.sol\":4652:4720  require(_msgSender() == admin, \"Only admin can perform this action\") */\n      tag_358\n      jumpi\n      mload(0x40)\n      shl(0xe5, 0x461bcd)\n      dup2\n      mstore\n      0x04\n      add\n      tag_181\n      swap1\n      tag_182\n      jump\t// in\n    tag_358:\n        /* \"@openzeppelin/contracts-upgradeable@5.0.1/utils/PausableUpgradeable.sol\":2316:2335  _requireNotPaused() */\n      tag_361\n        /* \"@openzeppelin/contracts-upgradeable@5.0.1/utils/PausableUpgradeable.sol\":2316:2333  _requireNotPaused */\n      tag_185\n        /* \"@openzeppelin/contracts-upgradeable@5.0.1/utils/PausableUpgradeable.sol\":2316:2335  _requireNotPaused() */\n      jump\t// in\n    tag_361:\n        /* \"contracts/sis.sol\":12085:12126  participants.length == newBalances.length */\n      dup3\n      dup2\n      eq\n        /* \"contracts/sis.sol\":12077:12155  require(participants.length == newBalances.length, \"Array lengths must match\") */\n      tag_363\n      jumpi\n      mload(0x40)\n      shl(0xe5, 0x461bcd)\n      dup2\n      mstore\n        /* \"#utility.yul\":14936:14938   */\n      0x20\n        /* \"contracts/sis.sol\":12077:12155  require(participants.length == newBalances.length, \"Array lengths must match\") */\n      0x04\n      dup3\n      add\n        /* \"#utility.yul\":14918:14939   */\n      mstore\n        /* \"#utility.yul\":14975:14977   */\n      0x18\n        /* \"#utility.yul\":14955:14973   */\n      0x24\n      dup3\n      add\n        /* \"#utility.yul\":14948:14978   */\n      mstore\n        /* \"#utility.yul\":15014:15040   */\n      0x4172726179206c656e67746873206d757374206d617463680000000000000000\n        /* \"#utility.yul\":14994:15012   */\n      0x44\n      dup3\n      add\n        /* \"#utility.yul\":14987:15041   */\n      mstore\n        /* \"#utility.yul\":15058:15076   */\n      0x64\n      add\n        /* \"contracts/sis.sol\":12077:12155  require(participants.length == newBalances.length, \"Array lengths must match\") */\n      tag_181\n        /* \"#utility.yul\":14734:15082   */\n      jump\n        /* \"contracts/sis.sol\":12077:12155  require(participants.length == newBalances.length, \"Array lengths must match\") */\n    tag_363:\n        /* \"contracts/sis.sol\":12173:12179  uint i */\n      0x00\n        /* \"contracts/sis.sol\":12168:12289  for (uint i = 0; i < participants.length; i++) {... */\n    tag_366:\n        /* \"contracts/sis.sol\":12185:12208  i < participants.length */\n      dup4\n      dup2\n      lt\n        /* \"contracts/sis.sol\":12168:12289  for (uint i = 0; i < participants.length; i++) {... */\n      iszero\n      tag_367\n      jumpi\n        /* \"contracts/sis.sol\":12230:12277  _updateBalance(participants[i], newBalances[i]) */\n      tag_369\n        /* \"contracts/sis.sol\":12245:12257  participants */\n      dup6\n      dup6\n        /* \"contracts/sis.sol\":12258:12259  i */\n      dup4\n        /* \"contracts/sis.sol\":12245:12260  participants[i] */\n      dup2\n      dup2\n      lt\n      tag_371\n      jumpi\n      tag_371\n      tag_217\n      jump\t// in\n    tag_371:\n      swap1\n      pop\n      0x20\n      mul\n      add\n      0x20\n      dup2\n      add\n      swap1\n      tag_372\n      swap2\n      swap1\n      tag_52\n      jump\t// in\n    tag_372:\n        /* \"contracts/sis.sol\":12262:12273  newBalances */\n      dup5\n      dup5\n        /* \"contracts/sis.sol\":12274:12275  i */\n      dup5\n        /* \"contracts/sis.sol\":12262:12276  newBalances[i] */\n      dup2\n      dup2\n      lt\n      tag_220\n      jumpi\n      tag_220\n      tag_217\n      jump\t// in\n        /* \"contracts/sis.sol\":12230:12277  _updateBalance(participants[i], newBalances[i]) */\n    tag_369:\n        /* \"contracts/sis.sol\":12210:12213  i++ */\n      0x01\n      add\n        /* \"contracts/sis.sol\":12168:12289  for (uint i = 0; i < participants.length; i++) {... */\n      jump(tag_366)\n    tag_367:\n      pop\n        /* \"contracts/sis.sol\":12304:12358  BalancesBatchUpdatedbyadmin(participants, newBalances) */\n      0x9071b044465a4e855aabae9828b35d03eff50e0110996249e9bd9add0d117ed7\n        /* \"contracts/sis.sol\":12332:12344  participants */\n      dup5\n      dup5\n        /* \"contracts/sis.sol\":12346:12357  newBalances */\n      dup5\n      dup5\n        /* \"contracts/sis.sol\":12304:12358  BalancesBatchUpdatedbyadmin(participants, newBalances) */\n      mload(0x40)\n      tag_375\n      swap5\n      swap4\n      swap3\n      swap2\n      swap1\n      tag_223\n      jump\t// in\n    tag_375:\n      mload(0x40)\n      dup1\n      swap2\n      sub\n      swap1\n      log1\n        /* \"contracts/sis.sol\":11933:12366  function batchUpdateChannelbyadmin(address[] calldata participants, uint256[] calldata newBalances) external onlyAdmin whenNotPaused {... */\n      pop\n      pop\n      pop\n      pop\n      jump\t// out\n        /* \"contracts/sis.sol\":9916:10353  function vote(uint256 voteId, bool approve) external whenNotPaused {... */\n    tag_144:\n        /* \"@openzeppelin/contracts-upgradeable@5.0.1/utils/PausableUpgradeable.sol\":2316:2335  _requireNotPaused() */\n      tag_377\n        /* \"@openzeppelin/contracts-upgradeable@5.0.1/utils/PausableUpgradeable.sol\":2316:2333  _requireNotPaused */\n      tag_185\n        /* \"@openzeppelin/contracts-upgradeable@5.0.1/utils/PausableUpgradeable.sol\":2316:2335  _requireNotPaused() */\n      jump\t// in\n    tag_377:\n        /* \"@openzeppelin/contracts-upgradeable@5.0.1/utils/ContextUpgradeable.sol\":966:976  msg.sender */\n      caller\n        /* \"contracts/sis.sol\":10027:10028  0 */\n      0x00\n        /* \"contracts/sis.sol\":10002:10024  balances[_msgSender()] */\n      swap1\n      dup2\n      mstore\n        /* \"contracts/sis.sol\":10002:10010  balances */\n      0x02\n        /* \"contracts/sis.sol\":10002:10024  balances[_msgSender()] */\n      0x20\n      mstore\n      0x40\n      swap1\n      keccak256\n      sload\n        /* \"contracts/sis.sol\":9994:10051  require(balances[_msgSender()] > 0, \"No balance to vote\") */\n      tag_380\n      jumpi\n      mload(0x40)\n      shl(0xe5, 0x461bcd)\n      dup2\n      mstore\n        /* \"#utility.yul\":15289:15291   */\n      0x20\n        /* \"contracts/sis.sol\":9994:10051  require(balances[_msgSender()] > 0, \"No balance to vote\") */\n      0x04\n      dup3\n      add\n        /* \"#utility.yul\":15271:15292   */\n      mstore\n        /* \"#utility.yul\":15328:15330   */\n      0x12\n        /* \"#utility.yul\":15308:15326   */\n      0x24\n      dup3\n      add\n        /* \"#utility.yul\":15301:15331   */\n      mstore\n      shl(0x70, 0x4e6f2062616c616e636520746f20766f7465)\n        /* \"#utility.yul\":15347:15365   */\n      0x44\n      dup3\n      add\n        /* \"#utility.yul\":15340:15388   */\n      mstore\n        /* \"#utility.yul\":15405:15423   */\n      0x64\n      add\n        /* \"contracts/sis.sol\":9994:10051  require(balances[_msgSender()] > 0, \"No balance to vote\") */\n      tag_181\n        /* \"#utility.yul\":15087:15429   */\n      jump\n        /* \"contracts/sis.sol\":9994:10051  require(balances[_msgSender()] > 0, \"No balance to vote\") */\n    tag_380:\n        /* \"contracts/sis.sol\":10071:10084  votes[voteId] */\n      0x00\n      dup3\n      dup2\n      mstore\n        /* \"contracts/sis.sol\":10071:10076  votes */\n      0x04\n        /* \"contracts/sis.sol\":10071:10084  votes[voteId] */\n      0x20\n      swap1\n      dup2\n      mstore\n      0x40\n      dup1\n      dup4\n      keccak256\n        /* \"@openzeppelin/contracts-upgradeable@5.0.1/utils/ContextUpgradeable.sol\":966:976  msg.sender */\n      caller\n        /* \"contracts/sis.sol\":10071:10098  votes[voteId][_msgSender()] */\n      dup5\n      mstore\n      swap1\n      swap2\n      mstore\n      swap1\n      keccak256\n      sload\n      0xff\n      and\n        /* \"contracts/sis.sol\":10070:10098  !votes[voteId][_msgSender()] */\n      iszero\n        /* \"contracts/sis.sol\":10062:10116  require(!votes[voteId][_msgSender()], \"Already voted\") */\n      tag_384\n      jumpi\n      mload(0x40)\n      shl(0xe5, 0x461bcd)\n      dup2\n      mstore\n        /* \"#utility.yul\":15636:15638   */\n      0x20\n        /* \"contracts/sis.sol\":10062:10116  require(!votes[voteId][_msgSender()], \"Already voted\") */\n      0x04\n      dup3\n      add\n        /* \"#utility.yul\":15618:15639   */\n      mstore\n        /* \"#utility.yul\":15675:15677   */\n      0x0d\n        /* \"#utility.yul\":15655:15673   */\n      0x24\n      dup3\n      add\n        /* \"#utility.yul\":15648:15678   */\n      mstore\n      shl(0x9a, 0x105b1c9958591e481d9bdd1959)\n        /* \"#utility.yul\":15694:15712   */\n      0x44\n      dup3\n      add\n        /* \"#utility.yul\":15687:15730   */\n      mstore\n        /* \"#utility.yul\":15747:15765   */\n      0x64\n      add\n        /* \"contracts/sis.sol\":10062:10116  require(!votes[voteId][_msgSender()], \"Already voted\") */\n      tag_181\n        /* \"#utility.yul\":15434:15771   */\n      jump\n        /* \"contracts/sis.sol\":10062:10116  require(!votes[voteId][_msgSender()], \"Already voted\") */\n    tag_384:\n        /* \"contracts/sis.sol\":10129:10142  votes[voteId] */\n      0x00\n      dup3\n      dup2\n      mstore\n        /* \"contracts/sis.sol\":10129:10134  votes */\n      0x04\n        /* \"contracts/sis.sol\":10129:10142  votes[voteId] */\n      0x20\n      swap1\n      dup2\n      mstore\n      0x40\n      dup1\n      dup4\n      keccak256\n        /* \"@openzeppelin/contracts-upgradeable@5.0.1/utils/ContextUpgradeable.sol\":966:976  msg.sender */\n      caller\n        /* \"contracts/sis.sol\":10129:10156  votes[voteId][_msgSender()] */\n      dup5\n      mstore\n      dup3\n      mstore\n      dup1\n      dup4\n      keccak256\n        /* \"contracts/sis.sol\":10129:10163  votes[voteId][_msgSender()] = true */\n      dup1\n      sload\n      not(0xff)\n      and\n        /* \"contracts/sis.sol\":10159:10163  true */\n      0x01\n        /* \"contracts/sis.sol\":10129:10163  votes[voteId][_msgSender()] = true */\n      or\n      swap1\n      sstore\n        /* \"contracts/sis.sol\":10191:10199  balances */\n      0x02\n        /* \"contracts/sis.sol\":10191:10213  balances[_msgSender()] */\n      swap1\n      swap2\n      mstore\n      swap1\n      keccak256\n      sload\n        /* \"contracts/sis.sol\":10224:10293  if (approve) {... */\n      dup2\n      iszero\n      tag_389\n      jumpi\n        /* \"contracts/sis.sol\":10252:10271  voteWeights[voteId] */\n      0x00\n      dup4\n      dup2\n      mstore\n        /* \"contracts/sis.sol\":10252:10263  voteWeights */\n      0x05\n        /* \"contracts/sis.sol\":10252:10271  voteWeights[voteId] */\n      0x20\n      mstore\n      0x40\n      dup2\n      keccak256\n        /* \"contracts/sis.sol\":10252:10281  voteWeights[voteId] += weight */\n      dup1\n      sload\n        /* \"contracts/sis.sol\":10275:10281  weight */\n      dup4\n      swap3\n        /* \"contracts/sis.sol\":10252:10271  voteWeights[voteId] */\n      swap1\n        /* \"contracts/sis.sol\":10252:10281  voteWeights[voteId] += weight */\n      tag_390\n      swap1\n        /* \"contracts/sis.sol\":10275:10281  weight */\n      dup5\n      swap1\n        /* \"contracts/sis.sol\":10252:10281  voteWeights[voteId] += weight */\n      tag_354\n      jump\t// in\n    tag_390:\n      swap1\n      swap2\n      sstore\n      pop\n      pop\n        /* \"contracts/sis.sol\":10224:10293  if (approve) {... */\n    tag_389:\n        /* \"contracts/sis.sol\":10310:10345  Voted(voteId, _msgSender(), weight) */\n      0x40\n      dup1\n      mload\n        /* \"#utility.yul\":13736:13761   */\n      dup5\n      dup2\n      mstore\n        /* \"#utility.yul\":13792:13794   */\n      0x20\n        /* \"#utility.yul\":13777:13795   */\n      dup2\n      add\n        /* \"#utility.yul\":13770:13804   */\n      dup4\n      swap1\n      mstore\n        /* \"@openzeppelin/contracts-upgradeable@5.0.1/utils/ContextUpgradeable.sol\":966:976  msg.sender */\n      caller\n      swap2\n        /* \"contracts/sis.sol\":10310:10345  Voted(voteId, _msgSender(), weight) */\n      0x1abe610cf2bf87e57dcc1181fcf5ac0934e843d8344ab9eed6e86c799f62585e\n      swap2\n        /* \"#utility.yul\":13709:13727   */\n      add\n        /* \"contracts/sis.sol\":10310:10345  Voted(voteId, _msgSender(), weight) */\n      tag_315\n        /* \"#utility.yul\":13562:13810   */\n      jump\n        /* \"contracts/sis.sol\":9333:9775  function closeChannel(uint256 newBalance, uint256 close_nonce, bytes calldata adminSignature) external whenNotPaused {... */\n    tag_158:\n        /* \"@openzeppelin/contracts-upgradeable@5.0.1/utils/PausableUpgradeable.sol\":2316:2335  _requireNotPaused() */\n      tag_394\n        /* \"@openzeppelin/contracts-upgradeable@5.0.1/utils/PausableUpgradeable.sol\":2316:2333  _requireNotPaused */\n      tag_185\n        /* \"@openzeppelin/contracts-upgradeable@5.0.1/utils/PausableUpgradeable.sol\":2316:2335  _requireNotPaused() */\n      jump\t// in\n    tag_394:\n        /* \"contracts/sis.sol\":9461:9532  _verifySignature(_msgSender(), newBalance, close_nonce, adminSignature) */\n      tag_396\n        /* \"@openzeppelin/contracts-upgradeable@5.0.1/utils/ContextUpgradeable.sol\":966:976  msg.sender */\n      caller\n        /* \"contracts/sis.sol\":9478:9490  _msgSender() */\n      tag_287\n        /* \"@openzeppelin/contracts-upgradeable@5.0.1/utils/ContextUpgradeable.sol\":887:983  function _msgSender() internal view virtual returns (address) {... */\n      jump\n        /* \"contracts/sis.sol\":9461:9532  _verifySignature(_msgSender(), newBalance, close_nonce, adminSignature) */\n    tag_396:\n        /* \"contracts/sis.sol\":9545:9585  _updateBalance(_msgSender(), newBalance) */\n      tag_398\n        /* \"@openzeppelin/contracts-upgradeable@5.0.1/utils/ContextUpgradeable.sol\":966:976  msg.sender */\n      caller\n        /* \"contracts/sis.sol\":9560:9572  _msgSender() */\n      tag_290\n        /* \"@openzeppelin/contracts-upgradeable@5.0.1/utils/ContextUpgradeable.sol\":887:983  function _msgSender() internal view virtual returns (address) {... */\n      jump\n        /* \"contracts/sis.sol\":9545:9585  _updateBalance(_msgSender(), newBalance) */\n    tag_398:\n        /* \"contracts/sis.sol\":9606:9616  pointToken */\n      and(sub(shl(0xa0, 0x01), 0x01), sload(0x01))\n        /* \"contracts/sis.sol\":9606:9625  pointToken.transfer */\n      0xa9059cbb\n        /* \"@openzeppelin/contracts-upgradeable@5.0.1/utils/ContextUpgradeable.sol\":966:976  msg.sender */\n      caller\n        /* \"contracts/sis.sol\":9606:9651  pointToken.transfer(_msgSender(), newBalance) */\n      mload(0x40)\n      not(sub(shl(0xe0, 0x01), 0x01))\n      0xe0\n      dup5\n      swap1\n      shl\n      and\n      dup2\n      mstore\n      sub(shl(0xa0, 0x01), 0x01)\n        /* \"#utility.yul\":9134:9166   */\n      swap1\n      swap2\n      and\n        /* \"contracts/sis.sol\":9606:9651  pointToken.transfer(_msgSender(), newBalance) */\n      0x04\n      dup3\n      add\n        /* \"#utility.yul\":9116:9167   */\n      mstore\n        /* \"#utility.yul\":9183:9201   */\n      0x24\n      dup2\n      add\n        /* \"#utility.yul\":9176:9210   */\n      dup8\n      swap1\n      mstore\n        /* \"#utility.yul\":9089:9107   */\n      0x44\n      add\n        /* \"contracts/sis.sol\":9606:9651  pointToken.transfer(_msgSender(), newBalance) */\n      0x20\n      mload(0x40)\n      dup1\n      dup4\n      sub\n      dup2\n      0x00\n      dup8\n      gas\n      call\n      iszero\n      dup1\n      iszero\n      tag_403\n      jumpi\n      returndatasize\n      0x00\n      dup1\n      returndatacopy\n      revert(0x00, returndatasize)\n    tag_403:\n      pop\n      pop\n      pop\n      pop\n      mload(0x40)\n      returndatasize\n      not(0x1f)\n      0x1f\n      dup3\n      add\n      and\n      dup3\n      add\n      dup1\n      0x40\n      mstore\n      pop\n      dup2\n      add\n      swap1\n      tag_404\n      swap2\n      swap1\n      tag_196\n      jump\t// in\n    tag_404:\n        /* \"contracts/sis.sol\":9598:9671  require(pointToken.transfer(_msgSender(), newBalance), \"Transfer failed\") */\n      tag_405\n      jumpi\n      mload(0x40)\n      shl(0xe5, 0x461bcd)\n      dup2\n      mstore\n      0x04\n      add\n      tag_181\n      swap1\n      tag_199\n      jump\t// in\n    tag_405:\n        /* \"@openzeppelin/contracts-upgradeable@5.0.1/utils/ContextUpgradeable.sol\":966:976  msg.sender */\n      caller\n        /* \"contracts/sis.sol\":9709:9710  0 */\n      0x00\n        /* \"contracts/sis.sol\":9684:9706  balances[_msgSender()] */\n      dup2\n      dup2\n      mstore\n        /* \"contracts/sis.sol\":9684:9692  balances */\n      0x02\n        /* \"contracts/sis.sol\":9684:9706  balances[_msgSender()] */\n      0x20\n      swap1\n      dup2\n      mstore\n      0x40\n      dup1\n      dup4\n      keccak256\n        /* \"contracts/sis.sol\":9684:9710  balances[_msgSender()] = 0 */\n      swap3\n      swap1\n      swap3\n      sstore\n        /* \"contracts/sis.sol\":9728:9767  ChannelClosed(_msgSender(), newBalance) */\n      swap1\n      mload\n        /* \"#utility.yul\":3290:3315   */\n      dup7\n      dup2\n      mstore\n        /* \"contracts/sis.sol\":9728:9767  ChannelClosed(_msgSender(), newBalance) */\n      0x770342ee36990141b5b1f4b3b41a184d7968647ac7f0dbfd2d86d566c468027d\n      swap2\n        /* \"#utility.yul\":3263:3281   */\n      add\n        /* \"contracts/sis.sol\":9728:9767  ChannelClosed(_msgSender(), newBalance) */\n      tag_292\n        /* \"#utility.yul\":3144:3321   */\n      jump\n        /* \"@openzeppelin/contracts-upgradeable@5.0.1/access/OwnableUpgradeable.sol\":3405:3620  function transferOwnership(address newOwner) public virtual onlyOwner {... */\n    tag_162:\n        /* \"@openzeppelin/contracts-upgradeable@5.0.1/access/OwnableUpgradeable.sol\":2334:2347  _checkOwner() */\n      tag_411\n        /* \"@openzeppelin/contracts-upgradeable@5.0.1/access/OwnableUpgradeable.sol\":2334:2345  _checkOwner */\n      tag_264\n        /* \"@openzeppelin/contracts-upgradeable@5.0.1/access/OwnableUpgradeable.sol\":2334:2347  _checkOwner() */\n      jump\t// in\n    tag_411:\n      sub(shl(0xa0, 0x01), 0x01)\n        /* \"@openzeppelin/contracts-upgradeable@5.0.1/access/OwnableUpgradeable.sol\":3489:3511  newOwner == address(0) */\n      dup2\n      and\n        /* \"@openzeppelin/contracts-upgradeable@5.0.1/access/OwnableUpgradeable.sol\":3485:3576  if (newOwner == address(0)) {... */\n      tag_413\n      jumpi\n        /* \"@openzeppelin/contracts-upgradeable@5.0.1/access/OwnableUpgradeable.sol\":3534:3565  OwnableInvalidOwner(address(0)) */\n      mload(0x40)\n      shl(0xe0, 0x1e4fbdf7)\n      dup2\n      mstore\n        /* \"@openzeppelin/contracts-upgradeable@5.0.1/access/OwnableUpgradeable.sol\":3562:3563  0 */\n      0x00\n        /* \"@openzeppelin/contracts-upgradeable@5.0.1/access/OwnableUpgradeable.sol\":3534:3565  OwnableInvalidOwner(address(0)) */\n      0x04\n      dup3\n      add\n        /* \"#utility.yul\":3082:3133   */\n      mstore\n        /* \"#utility.yul\":3055:3073   */\n      0x24\n      add\n        /* \"@openzeppelin/contracts-upgradeable@5.0.1/access/OwnableUpgradeable.sol\":3534:3565  OwnableInvalidOwner(address(0)) */\n      tag_181\n        /* \"#utility.yul\":2921:3139   */\n      jump\n        /* \"@openzeppelin/contracts-upgradeable@5.0.1/access/OwnableUpgradeable.sol\":3485:3576  if (newOwner == address(0)) {... */\n    tag_413:\n        /* \"@openzeppelin/contracts-upgradeable@5.0.1/access/OwnableUpgradeable.sol\":3585:3613  _transferOwnership(newOwner) */\n      tag_415\n        /* \"@openzeppelin/contracts-upgradeable@5.0.1/access/OwnableUpgradeable.sol\":3604:3612  newOwner */\n      dup2\n        /* \"@openzeppelin/contracts-upgradeable@5.0.1/access/OwnableUpgradeable.sol\":3585:3603  _transferOwnership */\n      tag_321\n        /* \"@openzeppelin/contracts-upgradeable@5.0.1/access/OwnableUpgradeable.sol\":3585:3613  _transferOwnership(newOwner) */\n      jump\t// in\n    tag_415:\n        /* \"@openzeppelin/contracts-upgradeable@5.0.1/access/OwnableUpgradeable.sol\":3405:3620  function transferOwnership(address newOwner) public virtual onlyOwner {... */\n      pop\n      jump\t// out\n        /* \"contracts/sis.sol\":5250:5511  function openChannel(uint256 amount) external whenNotPaused {... */\n    tag_170:\n        /* \"@openzeppelin/contracts-upgradeable@5.0.1/utils/PausableUpgradeable.sol\":2316:2335  _requireNotPaused() */\n      tag_417\n        /* \"@openzeppelin/contracts-upgradeable@5.0.1/utils/PausableUpgradeable.sol\":2316:2333  _requireNotPaused */\n      tag_185\n        /* \"@openzeppelin/contracts-upgradeable@5.0.1/utils/PausableUpgradeable.sol\":2316:2335  _requireNotPaused() */\n      jump\t// in\n    tag_417:\n        /* \"contracts/sis.sol\":5329:5339  pointToken */\n      and(sub(shl(0xa0, 0x01), 0x01), sload(0x01))\n        /* \"contracts/sis.sol\":5329:5352  pointToken.transferFrom */\n      0x23b872dd\n        /* \"@openzeppelin/contracts-upgradeable@5.0.1/utils/ContextUpgradeable.sol\":966:976  msg.sender */\n      caller\n        /* \"contracts/sis.sol\":5329:5389  pointToken.transferFrom(_msgSender(), address(this), amount) */\n      mload(0x40)\n      not(sub(shl(0xe0, 0x01), 0x01))\n      0xe0\n      dup5\n      swap1\n      shl\n      and\n      dup2\n      mstore\n      sub(shl(0xa0, 0x01), 0x01)\n        /* \"#utility.yul\":14482:14497   */\n      swap1\n      swap2\n      and\n        /* \"contracts/sis.sol\":5329:5389  pointToken.transferFrom(_msgSender(), address(this), amount) */\n      0x04\n      dup3\n      add\n        /* \"#utility.yul\":14464:14498   */\n      mstore\n        /* \"contracts/sis.sol\":5375:5379  this */\n      address\n        /* \"#utility.yul\":14514:14532   */\n      0x24\n      dup3\n      add\n        /* \"#utility.yul\":14507:14550   */\n      mstore\n        /* \"#utility.yul\":14566:14584   */\n      0x44\n      dup2\n      add\n        /* \"#utility.yul\":14559:14593   */\n      dup5\n      swap1\n      mstore\n        /* \"#utility.yul\":14399:14417   */\n      0x64\n      add\n        /* \"contracts/sis.sol\":5329:5389  pointToken.transferFrom(_msgSender(), address(this), amount) */\n      0x20\n      mload(0x40)\n      dup1\n      dup4\n      sub\n      dup2\n      0x00\n      dup8\n      gas\n      call\n      iszero\n      dup1\n      iszero\n      tag_422\n      jumpi\n      returndatasize\n      0x00\n      dup1\n      returndatacopy\n      revert(0x00, returndatasize)\n    tag_422:\n      pop\n      pop\n      pop\n      pop\n      mload(0x40)\n      returndatasize\n      not(0x1f)\n      0x1f\n      dup3\n      add\n      and\n      dup3\n      add\n      dup1\n      0x40\n      mstore\n      pop\n      dup2\n      add\n      swap1\n      tag_423\n      swap2\n      swap1\n      tag_196\n      jump\t// in\n    tag_423:\n        /* \"contracts/sis.sol\":5321:5409  require(pointToken.transferFrom(_msgSender(), address(this), amount), \"Transfer failed\") */\n      tag_424\n      jumpi\n      mload(0x40)\n      shl(0xe5, 0x461bcd)\n      dup2\n      mstore\n      0x04\n      add\n      tag_181\n      swap1\n      tag_199\n      jump\t// in\n    tag_424:\n        /* \"@openzeppelin/contracts-upgradeable@5.0.1/utils/ContextUpgradeable.sol\":966:976  msg.sender */\n      caller\n        /* \"contracts/sis.sol\":5420:5442  balances[_msgSender()] */\n      0x00\n      swap1\n      dup2\n      mstore\n        /* \"contracts/sis.sol\":5420:5428  balances */\n      0x02\n        /* \"contracts/sis.sol\":5420:5442  balances[_msgSender()] */\n      0x20\n      mstore\n      0x40\n      dup2\n      keccak256\n        /* \"contracts/sis.sol\":5420:5452  balances[_msgSender()] += amount */\n      dup1\n      sload\n        /* \"contracts/sis.sol\":5446:5452  amount */\n      dup4\n      swap3\n        /* \"contracts/sis.sol\":5420:5442  balances[_msgSender()] */\n      swap1\n        /* \"contracts/sis.sol\":5420:5452  balances[_msgSender()] += amount */\n      tag_427\n      swap1\n        /* \"contracts/sis.sol\":5446:5452  amount */\n      dup5\n      swap1\n        /* \"contracts/sis.sol\":5420:5452  balances[_msgSender()] += amount */\n      tag_354\n      jump\t// in\n    tag_427:\n      swap1\n      swap2\n      sstore\n      pop\n      pop\n        /* \"contracts/sis.sol\":5468:5503  ChannelOpened(_msgSender(), amount) */\n      mload(0x40)\n        /* \"#utility.yul\":3290:3315   */\n      dup2\n      dup2\n      mstore\n        /* \"@openzeppelin/contracts-upgradeable@5.0.1/utils/ContextUpgradeable.sol\":966:976  msg.sender */\n      caller\n      swap1\n        /* \"contracts/sis.sol\":5468:5503  ChannelOpened(_msgSender(), amount) */\n      0xaf952b0a28349f5ffff2d98aa9050ea845adbe423ff73ac5da5f268834ae3ac0\n      swap1\n        /* \"#utility.yul\":3278:3280   */\n      0x20\n        /* \"#utility.yul\":3263:3281   */\n      add\n        /* \"contracts/sis.sol\":5468:5503  ChannelOpened(_msgSender(), amount) */\n      mload(0x40)\n      dup1\n      swap2\n      sub\n      swap1\n      log2\n        /* \"contracts/sis.sol\":5250:5511  function openChannel(uint256 amount) external whenNotPaused {... */\n      pop\n      jump\t// out\n        /* \"@openzeppelin/contracts-upgradeable@5.0.1/utils/PausableUpgradeable.sol\":2905:3033  function _requireNotPaused() internal view virtual {... */\n    tag_185:\n      0x00\n      dup1\n      mload\n      0x20\n      data_c0c65a3718f3702d917c44106b91645b509d2e2d0979b70495c3babce192339f\n      dup4\n      codecopy\n      dup2\n      mload\n      swap2\n      mstore\n        /* \"@openzeppelin/contracts-upgradeable@5.0.1/utils/PausableUpgradeable.sol\":2821:2830  $._paused */\n      sload\n      0xff\n      and\n        /* \"@openzeppelin/contracts-upgradeable@5.0.1/utils/PausableUpgradeable.sol\":2966:3027  if (paused()) {... */\n      iszero\n      tag_266\n      jumpi\n        /* \"@openzeppelin/contracts-upgradeable@5.0.1/utils/PausableUpgradeable.sol\":3001:3016  EnforcedPause() */\n      mload(0x40)\n      shl(0xe0, 0xd93c0665)\n      dup2\n      mstore\n      0x04\n      add\n      mload(0x40)\n      dup1\n      swap2\n      sub\n      swap1\n      revert\n        /* \"contracts/sis.sol\":6593:7010  function _verifyBatchSignature(address[] calldata participants, uint256[] calldata newBalances, uint256 nonce, bytes calldata adminSignature) internal {... */\n    tag_210:\n        /* \"contracts/sis.sol\":6755:6767  bytes32 hash */\n      0x00\n        /* \"contracts/sis.sol\":6797:6809  participants */\n      dup8\n      dup8\n        /* \"contracts/sis.sol\":6811:6822  newBalances */\n      dup8\n      dup8\n        /* \"contracts/sis.sol\":6824:6829  nonce */\n      dup8\n        /* \"contracts/sis.sol\":6780:6830  abi.encodePacked(participants, newBalances, nonce) */\n      add(0x20, mload(0x40))\n      tag_435\n      swap6\n      swap5\n      swap4\n      swap3\n      swap2\n      swap1\n      tag_436\n      jump\t// in\n    tag_435:\n      mload(0x40)\n      0x20\n      dup2\n      dup4\n      sub\n      sub\n      dup2\n      mstore\n      swap1\n      0x40\n      mstore\n        /* \"contracts/sis.sol\":6770:6831  keccak256(abi.encodePacked(participants, newBalances, nonce)) */\n      dup1\n      mload\n      swap1\n      0x20\n      add\n      keccak256\n        /* \"contracts/sis.sol\":6755:6831  bytes32 hash = keccak256(abi.encodePacked(participants, newBalances, nonce)) */\n      swap1\n      pop\n        /* \"contracts/sis.sol\":6859:6887  hash.recover(adminSignature) */\n      tag_437\n        /* \"contracts/sis.sol\":6872:6886  adminSignature */\n      dup4\n      dup4\n        /* \"contracts/sis.sol\":6859:6887  hash.recover(adminSignature) */\n      dup1\n      dup1\n      0x1f\n      add\n      0x20\n      dup1\n      swap2\n      div\n      mul\n      0x20\n      add\n      mload(0x40)\n      swap1\n      dup2\n      add\n      0x40\n      mstore\n      dup1\n      swap4\n      swap3\n      swap2\n      swap1\n      dup2\n      dup2\n      mstore\n      0x20\n      add\n      dup4\n      dup4\n      dup1\n      dup3\n      dup5\n      calldatacopy\n      0x00\n      swap3\n      add\n      swap2\n      swap1\n      swap2\n      mstore\n      pop\n        /* \"contracts/sis.sol\":6859:6863  hash */\n      dup6\n      swap4\n        /* \"contracts/sis.sol\":6859:6887  hash.recover(adminSignature) */\n      swap3\n      pop\n      pop\n        /* \"contracts/sis.sol\":6859:6871  hash.recover */\n      tag_438\n        /* \"contracts/sis.sol\":6859:6887  hash.recover(adminSignature) */\n      swap1\n      pop\n      jump\t// in\n    tag_437:\n        /* \"contracts/sis.sol\":6850:6855  admin */\n      sload(0x00)\n      sub(shl(0xa0, 0x01), 0x01)\n      swap1\n      dup2\n      and\n        /* \"contracts/sis.sol\":6850:6887  admin == hash.recover(adminSignature) */\n      swap2\n      and\n      eq\n        /* \"contracts/sis.sol\":6842:6909  require(admin == hash.recover(adminSignature), \"Invalid signature\") */\n      tag_439\n      jumpi\n      mload(0x40)\n      shl(0xe5, 0x461bcd)\n      dup2\n      mstore\n        /* \"#utility.yul\":16941:16943   */\n      0x20\n        /* \"contracts/sis.sol\":6842:6909  require(admin == hash.recover(adminSignature), \"Invalid signature\") */\n      0x04\n      dup3\n      add\n        /* \"#utility.yul\":16923:16944   */\n      mstore\n        /* \"#utility.yul\":16980:16982   */\n      0x11\n        /* \"#utility.yul\":16960:16978   */\n      0x24\n      dup3\n      add\n        /* \"#utility.yul\":16953:16983   */\n      mstore\n      shl(0x78, 0x496e76616c6964207369676e6174757265)\n        /* \"#utility.yul\":16999:17017   */\n      0x44\n      dup3\n      add\n        /* \"#utility.yul\":16992:17039   */\n      mstore\n        /* \"#utility.yul\":17056:17074   */\n      0x64\n      add\n        /* \"contracts/sis.sol\":6842:6909  require(admin == hash.recover(adminSignature), \"Invalid signature\") */\n      tag_181\n        /* \"#utility.yul\":16739:17080   */\n      jump\n        /* \"contracts/sis.sol\":6842:6909  require(admin == hash.recover(adminSignature), \"Invalid signature\") */\n    tag_439:\n        /* \"contracts/sis.sol\":6929:6945  usedNonces[hash] */\n      0x00\n      dup2\n      dup2\n      mstore\n        /* \"contracts/sis.sol\":6929:6939  usedNonces */\n      0x03\n        /* \"contracts/sis.sol\":6929:6945  usedNonces[hash] */\n      0x20\n      mstore\n      0x40\n      swap1\n      keccak256\n      sload\n      0xff\n      and\n        /* \"contracts/sis.sol\":6928:6945  !usedNonces[hash] */\n      iszero\n        /* \"contracts/sis.sol\":6920:6968  require(!usedNonces[hash], \"Nonce already used\") */\n      tag_442\n      jumpi\n      mload(0x40)\n      shl(0xe5, 0x461bcd)\n      dup2\n      mstore\n        /* \"#utility.yul\":17287:17289   */\n      0x20\n        /* \"contracts/sis.sol\":6920:6968  require(!usedNonces[hash], \"Nonce already used\") */\n      0x04\n      dup3\n      add\n        /* \"#utility.yul\":17269:17290   */\n      mstore\n        /* \"#utility.yul\":17326:17328   */\n      0x12\n        /* \"#utility.yul\":17306:17324   */\n      0x24\n      dup3\n      add\n        /* \"#utility.yul\":17299:17329   */\n      mstore\n      shl(0x72, 0x139bdb98d948185b1c9958591e481d5cd959)\n        /* \"#utility.yul\":17345:17363   */\n      0x44\n      dup3\n      add\n        /* \"#utility.yul\":17338:17386   */\n      mstore\n        /* \"#utility.yul\":17403:17421   */\n      0x64\n      add\n        /* \"contracts/sis.sol\":6920:6968  require(!usedNonces[hash], \"Nonce already used\") */\n      tag_181\n        /* \"#utility.yul\":17085:17427   */\n      jump\n        /* \"contracts/sis.sol\":6920:6968  require(!usedNonces[hash], \"Nonce already used\") */\n    tag_442:\n        /* \"contracts/sis.sol\":6979:6995  usedNonces[hash] */\n      0x00\n      swap1\n      dup2\n      mstore\n        /* \"contracts/sis.sol\":6979:6989  usedNonces */\n      0x03\n        /* \"contracts/sis.sol\":6979:6995  usedNonces[hash] */\n      0x20\n      mstore\n      0x40\n      swap1\n      keccak256\n        /* \"contracts/sis.sol\":6979:7002  usedNonces[hash] = true */\n      dup1\n      sload\n      not(0xff)\n      and\n        /* \"contracts/sis.sol\":6998:7002  true */\n      0x01\n        /* \"contracts/sis.sol\":6979:7002  usedNonces[hash] = true */\n      or\n      swap1\n      sstore\n      pop\n      pop\n      pop\n      pop\n      pop\n      pop\n      pop\n        /* \"contracts/sis.sol\":6593:7010  function _verifyBatchSignature(address[] calldata participants, uint256[] calldata newBalances, uint256 nonce, bytes calldata adminSignature) internal {... */\n      jump\t// out\n        /* \"contracts/sis.sol\":5710:6304  function _updateBalance(address participant, uint256 newBalance) internal {... */\n    tag_221:\n      sub(shl(0xa0, 0x01), 0x01)\n        /* \"contracts/sis.sol\":5799:5820  balances[participant] */\n      dup3\n      and\n      0x00\n      swap1\n      dup2\n      mstore\n        /* \"contracts/sis.sol\":5799:5807  balances */\n      0x02\n        /* \"contracts/sis.sol\":5799:5820  balances[participant] */\n      0x20\n      mstore\n      0x40\n      swap1\n      keccak256\n      sload\n        /* \"contracts/sis.sol\":5799:5833  balances[participant] < newBalance */\n      dup2\n      gt\n        /* \"contracts/sis.sol\":5795:6297  if (balances[participant] < newBalance) {... */\n      iszero\n      tag_446\n      jumpi\n      sub(shl(0xa0, 0x01), 0x01)\n        /* \"contracts/sis.sol\":5883:5904  balances[participant] */\n      dup3\n      and\n        /* \"contracts/sis.sol\":5850:5867  uint256 shortfall */\n      0x00\n        /* \"contracts/sis.sol\":5883:5904  balances[participant] */\n      swap1\n      dup2\n      mstore\n        /* \"contracts/sis.sol\":5883:5891  balances */\n      0x02\n        /* \"contracts/sis.sol\":5883:5904  balances[participant] */\n      0x20\n      mstore\n      0x40\n      dup2\n      keccak256\n      sload\n        /* \"contracts/sis.sol\":5870:5904  newBalance - balances[participant] */\n      tag_447\n      swap1\n        /* \"contracts/sis.sol\":5870:5880  newBalance */\n      dup4\n        /* \"contracts/sis.sol\":5870:5904  newBalance - balances[participant] */\n      tag_201\n      jump\t// in\n    tag_447:\n        /* \"contracts/sis.sol\":5850:5904  uint256 shortfall = newBalance - balances[participant] */\n      swap1\n      pop\n        /* \"contracts/sis.sol\":5945:5954  shortfall */\n      dup1\n        /* \"contracts/sis.sol\":5927:5941  reserveBalance */\n      sload(0x09)\n        /* \"contracts/sis.sol\":5927:5954  reserveBalance >= shortfall */\n      lt\n      iszero\n        /* \"contracts/sis.sol\":5919:5985  require(reserveBalance >= shortfall, \"Not enough reserve balance\") */\n      tag_448\n      jumpi\n      mload(0x40)\n      shl(0xe5, 0x461bcd)\n      dup2\n      mstore\n        /* \"#utility.yul\":17634:17636   */\n      0x20\n        /* \"contracts/sis.sol\":5919:5985  require(reserveBalance >= shortfall, \"Not enough reserve balance\") */\n      0x04\n      dup3\n      add\n        /* \"#utility.yul\":17616:17637   */\n      mstore\n        /* \"#utility.yul\":17673:17675   */\n      0x1a\n        /* \"#utility.yul\":17653:17671   */\n      0x24\n      dup3\n      add\n        /* \"#utility.yul\":17646:17676   */\n      mstore\n        /* \"#utility.yul\":17712:17740   */\n      0x4e6f7420656e6f75676820726573657276652062616c616e6365000000000000\n        /* \"#utility.yul\":17692:17710   */\n      0x44\n      dup3\n      add\n        /* \"#utility.yul\":17685:17741   */\n      mstore\n        /* \"#utility.yul\":17758:17776   */\n      0x64\n      add\n        /* \"contracts/sis.sol\":5919:5985  require(reserveBalance >= shortfall, \"Not enough reserve balance\") */\n      tag_181\n        /* \"#utility.yul\":17432:17782   */\n      jump\n        /* \"contracts/sis.sol\":5919:5985  require(reserveBalance >= shortfall, \"Not enough reserve balance\") */\n    tag_448:\n        /* \"contracts/sis.sol\":6018:6027  shortfall */\n      dup1\n        /* \"contracts/sis.sol\":6000:6014  reserveBalance */\n      0x09\n      0x00\n        /* \"contracts/sis.sol\":6000:6027  reserveBalance -= shortfall */\n      dup3\n      dup3\n      sload\n      tag_451\n      swap2\n      swap1\n      tag_201\n      jump\t// in\n    tag_451:\n      swap1\n      swap2\n      sstore\n      pop\n      pop\n      sub(shl(0xa0, 0x01), 0x01)\n        /* \"contracts/sis.sol\":6042:6063  balances[participant] */\n      dup4\n      and\n      0x00\n      swap1\n      dup2\n      mstore\n        /* \"contracts/sis.sol\":6042:6050  balances */\n      0x02\n        /* \"contracts/sis.sol\":6042:6063  balances[participant] */\n      0x20\n      mstore\n      0x40\n      dup2\n      keccak256\n        /* \"contracts/sis.sol\":6042:6076  balances[participant] += shortfall */\n      dup1\n      sload\n        /* \"contracts/sis.sol\":6067:6076  shortfall */\n      dup4\n      swap3\n        /* \"contracts/sis.sol\":6042:6063  balances[participant] */\n      swap1\n        /* \"contracts/sis.sol\":6042:6076  balances[participant] += shortfall */\n      tag_452\n      swap1\n        /* \"contracts/sis.sol\":6067:6076  shortfall */\n      dup5\n      swap1\n        /* \"contracts/sis.sol\":6042:6076  balances[participant] += shortfall */\n      tag_354\n      jump\t// in\n    tag_452:\n      swap1\n      swap2\n      sstore\n      pop\n        /* \"contracts/sis.sol\":5795:6297  if (balances[participant] < newBalance) {... */\n      tag_274\n      swap2\n      pop\n      pop\n      jump\n    tag_446:\n      sub(shl(0xa0, 0x01), 0x01)\n        /* \"contracts/sis.sol\":6098:6119  balances[participant] */\n      dup3\n      and\n      0x00\n      swap1\n      dup2\n      mstore\n        /* \"contracts/sis.sol\":6098:6106  balances */\n      0x02\n        /* \"contracts/sis.sol\":6098:6119  balances[participant] */\n      0x20\n      mstore\n      0x40\n      swap1\n      keccak256\n      sload\n        /* \"contracts/sis.sol\":6098:6132  balances[participant] > newBalance */\n      dup2\n      lt\n        /* \"contracts/sis.sol\":6094:6297  if (balances[participant] > newBalance) {... */\n      iszero\n      tag_274\n      jumpi\n      sub(shl(0xa0, 0x01), 0x01)\n        /* \"contracts/sis.sol\":6166:6187  balances[participant] */\n      dup3\n      and\n        /* \"contracts/sis.sol\":6149:6163  uint256 excess */\n      0x00\n        /* \"contracts/sis.sol\":6166:6187  balances[participant] */\n      swap1\n      dup2\n      mstore\n        /* \"contracts/sis.sol\":6166:6174  balances */\n      0x02\n        /* \"contracts/sis.sol\":6166:6187  balances[participant] */\n      0x20\n      mstore\n      0x40\n      dup2\n      keccak256\n      sload\n        /* \"contracts/sis.sol\":6166:6200  balances[participant] - newBalance */\n      tag_455\n      swap1\n        /* \"contracts/sis.sol\":6190:6200  newBalance */\n      dup4\n      swap1\n        /* \"contracts/sis.sol\":6166:6200  balances[participant] - newBalance */\n      tag_201\n      jump\t// in\n    tag_455:\n        /* \"contracts/sis.sol\":6149:6200  uint256 excess = balances[participant] - newBalance */\n      swap1\n      pop\n        /* \"contracts/sis.sol\":6233:6239  excess */\n      dup1\n        /* \"contracts/sis.sol\":6215:6229  reserveBalance */\n      0x09\n      0x00\n        /* \"contracts/sis.sol\":6215:6239  reserveBalance += excess */\n      dup3\n      dup3\n      sload\n      tag_456\n      swap2\n      swap1\n      tag_354\n      jump\t// in\n    tag_456:\n      swap1\n      swap2\n      sstore\n      pop\n      pop\n      sub(shl(0xa0, 0x01), 0x01)\n        /* \"contracts/sis.sol\":6254:6275  balances[participant] */\n      dup4\n      and\n      0x00\n      swap1\n      dup2\n      mstore\n        /* \"contracts/sis.sol\":6254:6262  balances */\n      0x02\n        /* \"contracts/sis.sol\":6254:6275  balances[participant] */\n      0x20\n      mstore\n      0x40\n      dup2\n      keccak256\n        /* \"contracts/sis.sol\":6254:6285  balances[participant] -= excess */\n      dup1\n      sload\n        /* \"contracts/sis.sol\":6279:6285  excess */\n      dup4\n      swap3\n        /* \"contracts/sis.sol\":6254:6275  balances[participant] */\n      swap1\n        /* \"contracts/sis.sol\":6254:6285  balances[participant] -= excess */\n      tag_457\n      swap1\n        /* \"contracts/sis.sol\":6279:6285  excess */\n      dup5\n      swap1\n        /* \"contracts/sis.sol\":6254:6285  balances[participant] -= excess */\n      tag_201\n      jump\t// in\n    tag_457:\n      swap1\n      swap2\n      sstore\n      pop\n      pop\n      pop\n        /* \"contracts/sis.sol\":5710:6304  function _updateBalance(address participant, uint256 newBalance) internal {... */\n      pop\n      pop\n      jump\t// out\n        /* \"@openzeppelin/contracts-upgradeable@5.0.1/utils/ContextUpgradeable.sol\":748:807  function __Context_init() internal onlyInitializing {... */\n    tag_252:\n        /* \"@openzeppelin/contracts-upgradeable@5.0.1/proxy/utils/Initializable.sol\":6931:6951  _checkInitializing() */\n      tag_266\n        /* \"@openzeppelin/contracts-upgradeable@5.0.1/proxy/utils/Initializable.sol\":6931:6949  _checkInitializing */\n      tag_461\n        /* \"@openzeppelin/contracts-upgradeable@5.0.1/proxy/utils/Initializable.sol\":6931:6951  _checkInitializing() */\n      jump\t// in\n        /* \"@openzeppelin/contracts-upgradeable@5.0.1/utils/PausableUpgradeable.sol\":1836:1933  function __Pausable_init() internal onlyInitializing {... */\n    tag_254:\n        /* \"@openzeppelin/contracts-upgradeable@5.0.1/proxy/utils/Initializable.sol\":6931:6951  _checkInitializing() */\n      tag_464\n        /* \"@openzeppelin/contracts-upgradeable@5.0.1/proxy/utils/Initializable.sol\":6931:6949  _checkInitializing */\n      tag_461\n        /* \"@openzeppelin/contracts-upgradeable@5.0.1/proxy/utils/Initializable.sol\":6931:6951  _checkInitializing() */\n      jump\t// in\n    tag_464:\n        /* \"@openzeppelin/contracts-upgradeable@5.0.1/utils/PausableUpgradeable.sol\":1899:1926  __Pausable_init_unchained() */\n      tag_266\n        /* \"@openzeppelin/contracts-upgradeable@5.0.1/utils/PausableUpgradeable.sol\":1899:1924  __Pausable_init_unchained */\n      tag_467\n        /* \"@openzeppelin/contracts-upgradeable@5.0.1/utils/PausableUpgradeable.sol\":1899:1926  __Pausable_init_unchained() */\n      jump\t// in\n        /* \"@openzeppelin/contracts-upgradeable@5.0.1/access/OwnableUpgradeable.sol\":1847:1974  function __Ownable_init(address initialOwner) internal onlyInitializing {... */\n    tag_256:\n        /* \"@openzeppelin/contracts-upgradeable@5.0.1/proxy/utils/Initializable.sol\":6931:6951  _checkInitializing() */\n      tag_469\n        /* \"@openzeppelin/contracts-upgradeable@5.0.1/proxy/utils/Initializable.sol\":6931:6949  _checkInitializing */\n      tag_461\n        /* \"@openzeppelin/contracts-upgradeable@5.0.1/proxy/utils/Initializable.sol\":6931:6951  _checkInitializing() */\n      jump\t// in\n    tag_469:\n        /* \"@openzeppelin/contracts-upgradeable@5.0.1/access/OwnableUpgradeable.sol\":1929:1967  __Ownable_init_unchained(initialOwner) */\n      tag_415\n        /* \"@openzeppelin/contracts-upgradeable@5.0.1/access/OwnableUpgradeable.sol\":1954:1966  initialOwner */\n      dup2\n        /* \"@openzeppelin/contracts-upgradeable@5.0.1/access/OwnableUpgradeable.sol\":1929:1953  __Ownable_init_unchained */\n      tag_472\n        /* \"@openzeppelin/contracts-upgradeable@5.0.1/access/OwnableUpgradeable.sol\":1929:1967  __Ownable_init_unchained(initialOwner) */\n      jump\t// in\n        /* \"@openzeppelin/contracts-upgradeable@5.0.1/access/OwnableUpgradeable.sol\":2658:2820  function _checkOwner() internal view virtual {... */\n    tag_264:\n        /* \"@openzeppelin/contracts-upgradeable@5.0.1/utils/ContextUpgradeable.sol\":966:976  msg.sender */\n      caller\n        /* \"@openzeppelin/contracts-upgradeable@5.0.1/access/OwnableUpgradeable.sol\":2717:2724  owner() */\n      tag_478\n        /* \"@openzeppelin/contracts-upgradeable@5.0.1/access/OwnableUpgradeable.sol\":1313:1335  OwnableStorageLocation */\n      0x9016d09d72d40fdae2fd8ceac6b6234c7706214fd39c1cd1e609a0528c199300\n        /* \"@openzeppelin/contracts-upgradeable@5.0.1/access/OwnableUpgradeable.sol\":2570:2578  $._owner */\n      sload\n      sub(shl(0xa0, 0x01), 0x01)\n      and\n      swap1\n        /* \"@openzeppelin/contracts-upgradeable@5.0.1/access/OwnableUpgradeable.sol\":2441:2585  function owner() public view virtual returns (address) {... */\n      jump\n        /* \"@openzeppelin/contracts-upgradeable@5.0.1/access/OwnableUpgradeable.sol\":2717:2724  owner() */\n    tag_478:\n      sub(shl(0xa0, 0x01), 0x01)\n        /* \"@openzeppelin/contracts-upgradeable@5.0.1/access/OwnableUpgradeable.sol\":2717:2740  owner() != _msgSender() */\n      and\n      eq\n        /* \"@openzeppelin/contracts-upgradeable@5.0.1/access/OwnableUpgradeable.sol\":2713:2814  if (owner() != _msgSender()) {... */\n      tag_266\n      jumpi\n        /* \"@openzeppelin/contracts-upgradeable@5.0.1/access/OwnableUpgradeable.sol\":2763:2803  OwnableUnauthorizedAccount(_msgSender()) */\n      mload(0x40)\n      shl(0xe0, 0x118cdaa7)\n      dup2\n      mstore\n        /* \"@openzeppelin/contracts-upgradeable@5.0.1/utils/ContextUpgradeable.sol\":966:976  msg.sender */\n      caller\n        /* \"@openzeppelin/contracts-upgradeable@5.0.1/access/OwnableUpgradeable.sol\":2763:2803  OwnableUnauthorizedAccount(_msgSender()) */\n      0x04\n      dup3\n      add\n        /* \"#utility.yul\":3082:3133   */\n      mstore\n        /* \"#utility.yul\":3055:3073   */\n      0x24\n      add\n        /* \"@openzeppelin/contracts-upgradeable@5.0.1/access/OwnableUpgradeable.sol\":2763:2803  OwnableUnauthorizedAccount(_msgSender()) */\n      tag_181\n        /* \"#utility.yul\":2921:3139   */\n      jump\n        /* \"@openzeppelin/contracts-upgradeable@5.0.1/utils/PausableUpgradeable.sol\":3674:3852  function _unpause() internal virtual whenPaused {... */\n    tag_267:\n        /* \"@openzeppelin/contracts-upgradeable@5.0.1/utils/PausableUpgradeable.sol\":2563:2579  _requirePaused() */\n      tag_483\n        /* \"@openzeppelin/contracts-upgradeable@5.0.1/utils/PausableUpgradeable.sol\":2563:2577  _requirePaused */\n      tag_484\n        /* \"@openzeppelin/contracts-upgradeable@5.0.1/utils/PausableUpgradeable.sol\":2563:2579  _requirePaused() */\n      jump\t// in\n    tag_483:\n      0x00\n      dup1\n      mload\n      0x20\n      data_c0c65a3718f3702d917c44106b91645b509d2e2d0979b70495c3babce192339f\n      dup4\n      codecopy\n      dup2\n      mload\n      swap2\n      mstore\n        /* \"@openzeppelin/contracts-upgradeable@5.0.1/utils/PausableUpgradeable.sol\":3791:3808  $._paused = false */\n      dup1\n      sload\n      not(0xff)\n      and\n      dup2\n      sstore\n        /* \"@openzeppelin/contracts-upgradeable@5.0.1/utils/PausableUpgradeable.sol\":3823:3845  Unpaused(_msgSender()) */\n      0x5db9ee0a495bf2e6ff9c91a7834c1ba4fdd244a5e8aa4e537bd38aeae4b073aa\n        /* \"@openzeppelin/contracts-upgradeable@5.0.1/utils/ContextUpgradeable.sol\":966:976  msg.sender */\n      caller\n        /* \"@openzeppelin/contracts-upgradeable@5.0.1/utils/PausableUpgradeable.sol\":3832:3844  _msgSender() */\n    tag_487:\n        /* \"@openzeppelin/contracts-upgradeable@5.0.1/utils/PausableUpgradeable.sol\":3823:3845  Unpaused(_msgSender()) */\n      mload(0x40)\n      sub(shl(0xa0, 0x01), 0x01)\n        /* \"#utility.yul\":3100:3132   */\n      swap1\n      swap2\n      and\n        /* \"#utility.yul\":3082:3133   */\n      dup2\n      mstore\n        /* \"#utility.yul\":3070:3072   */\n      0x20\n        /* \"#utility.yul\":3055:3073   */\n      add\n        /* \"@openzeppelin/contracts-upgradeable@5.0.1/utils/PausableUpgradeable.sol\":3823:3845  Unpaused(_msgSender()) */\n      tag_202\n        /* \"#utility.yul\":2921:3139   */\n      jump\n        /* \"@openzeppelin/contracts-upgradeable@5.0.1/proxy/utils/UUPSUpgradeable.sol\":4599:4911  function _checkProxy() internal view virtual {... */\n    tag_270:\n        /* \"@openzeppelin/contracts-upgradeable@5.0.1/proxy/utils/UUPSUpgradeable.sol\":4679:4683  this */\n      address\n      sub(shl(0xa0, 0x01), 0x01)\n        /* \"@openzeppelin/contracts-upgradeable@5.0.1/proxy/utils/UUPSUpgradeable.sol\":4688:4694  __self */\n      immutable(\"0x0b83f23a4eeb8c3f5f7d5934a2289bcf0186d09a12e1b7f20adf54e4b179db15\")\n        /* \"@openzeppelin/contracts-upgradeable@5.0.1/proxy/utils/UUPSUpgradeable.sol\":4671:4694  address(this) == __self */\n      and\n      eq\n      dup1\n        /* \"@openzeppelin/contracts-upgradeable@5.0.1/proxy/utils/UUPSUpgradeable.sol\":4671:4791  address(this) == __self || // Must be called through delegatecall... */\n      tag_490\n      jumpi\n      pop\n        /* \"@openzeppelin/contracts-upgradeable@5.0.1/proxy/utils/UUPSUpgradeable.sol\":4785:4791  __self */\n      immutable(\"0x0b83f23a4eeb8c3f5f7d5934a2289bcf0186d09a12e1b7f20adf54e4b179db15\")\n      sub(shl(0xa0, 0x01), 0x01)\n        /* \"@openzeppelin/contracts-upgradeable@5.0.1/proxy/utils/UUPSUpgradeable.sol\":4749:4791  ERC1967Utils.getImplementation() != __self */\n      and\n        /* \"@openzeppelin/contracts-upgradeable@5.0.1/proxy/utils/UUPSUpgradeable.sol\":4749:4781  ERC1967Utils.getImplementation() */\n      tag_491\n      0x00\n      dup1\n      mload\n      0x20\n      data_75b20eef8615de99c108b05f0dbda081c91897128caa336d75dffb97c4132b4d\n      dup4\n      codecopy\n      dup2\n      mload\n      swap2\n      mstore\n        /* \"@openzeppelin/contracts/proxy/ERC1967/ERC1967Utils.sol\":2035:2088  StorageSlot.getAddressSlot(IMPLEMENTATION_SLOT).value */\n      sload\n      sub(shl(0xa0, 0x01), 0x01)\n      and\n      swap1\n        /* \"@openzeppelin/contracts/proxy/ERC1967/ERC1967Utils.sol\":1957:2095  function getImplementation() internal view returns (address) {... */\n      jump\n        /* \"@openzeppelin/contracts-upgradeable@5.0.1/proxy/utils/UUPSUpgradeable.sol\":4749:4781  ERC1967Utils.getImplementation() */\n    tag_491:\n      sub(shl(0xa0, 0x01), 0x01)\n        /* \"@openzeppelin/contracts-upgradeable@5.0.1/proxy/utils/UUPSUpgradeable.sol\":4749:4791  ERC1967Utils.getImplementation() != __self */\n      and\n      eq\n      iszero\n        /* \"@openzeppelin/contracts-upgradeable@5.0.1/proxy/utils/UUPSUpgradeable.sol\":4671:4791  address(this) == __self || // Must be called through delegatecall... */\n    tag_490:\n        /* \"@openzeppelin/contracts-upgradeable@5.0.1/proxy/utils/UUPSUpgradeable.sol\":4654:4905  if (... */\n      iszero\n      tag_266\n      jumpi\n        /* \"@openzeppelin/contracts-upgradeable@5.0.1/proxy/utils/UUPSUpgradeable.sol\":4865:4894  UUPSUnauthorizedCallContext() */\n      mload(0x40)\n      shl(0xe1, 0x703e46dd)\n      dup2\n      mstore\n      0x04\n      add\n      mload(0x40)\n      dup1\n      swap2\n      sub\n      swap1\n      revert\n        /* \"contracts/sis.sol\":3492:3608  function _authorizeUpgrade(address newImplementation)... */\n    tag_273:\n        /* \"@openzeppelin/contracts-upgradeable@5.0.1/access/OwnableUpgradeable.sol\":2334:2347  _checkOwner() */\n      tag_415\n        /* \"@openzeppelin/contracts-upgradeable@5.0.1/access/OwnableUpgradeable.sol\":2334:2345  _checkOwner */\n      tag_264\n        /* \"@openzeppelin/contracts-upgradeable@5.0.1/access/OwnableUpgradeable.sol\":2334:2347  _checkOwner() */\n      jump\t// in\n        /* \"@openzeppelin/contracts-upgradeable@5.0.1/proxy/utils/UUPSUpgradeable.sol\":6052:6590  function _upgradeToAndCallUUPS(address newImplementation, bytes memory data) private {... */\n    tag_275:\n        /* \"@openzeppelin/contracts-upgradeable@5.0.1/proxy/utils/UUPSUpgradeable.sol\":6169:6186  newImplementation */\n      dup2\n      sub(shl(0xa0, 0x01), 0x01)\n        /* \"@openzeppelin/contracts-upgradeable@5.0.1/proxy/utils/UUPSUpgradeable.sol\":6151:6201  IERC1822Proxiable(newImplementation).proxiableUUID */\n      and\n      0x52d1902d\n        /* \"@openzeppelin/contracts-upgradeable@5.0.1/proxy/utils/UUPSUpgradeable.sol\":6151:6203  IERC1822Proxiable(newImplementation).proxiableUUID() */\n      mload(0x40)\n      dup2\n      0xffffffff\n      and\n      0xe0\n      shl\n      dup2\n      mstore\n      0x04\n      add\n      0x20\n      mload(0x40)\n      dup1\n      dup4\n      sub\n      dup2\n      dup7\n      gas\n      staticcall\n      swap3\n      pop\n      pop\n      pop\n      dup1\n      iszero\n      tag_498\n      jumpi\n      pop\n      0x40\n      dup1\n      mload\n      0x1f\n      returndatasize\n      swap1\n      dup2\n      add\n      not(0x1f)\n      and\n      dup3\n      add\n      swap1\n      swap3\n      mstore\n      tag_499\n      swap2\n      dup2\n      add\n      swap1\n      tag_240\n      jump\t// in\n    tag_499:\n      0x01\n    tag_498:\n        /* \"@openzeppelin/contracts-upgradeable@5.0.1/proxy/utils/UUPSUpgradeable.sol\":6147:6584  try IERC1822Proxiable(newImplementation).proxiableUUID() returns (bytes32 slot) {... */\n      tag_501\n      jumpi\n        /* \"@openzeppelin/contracts-upgradeable@5.0.1/proxy/utils/UUPSUpgradeable.sol\":6513:6573  ERC1967Utils.ERC1967InvalidImplementation(newImplementation) */\n      mload(0x40)\n      shl(0xe0, 0x4c9c8ce3)\n      dup2\n      mstore\n      sub(shl(0xa0, 0x01), 0x01)\n        /* \"#utility.yul\":3100:3132   */\n      dup4\n      and\n        /* \"@openzeppelin/contracts-upgradeable@5.0.1/proxy/utils/UUPSUpgradeable.sol\":6513:6573  ERC1967Utils.ERC1967InvalidImplementation(newImplementation) */\n      0x04\n      dup3\n      add\n        /* \"#utility.yul\":3082:3133   */\n      mstore\n        /* \"#utility.yul\":3055:3073   */\n      0x24\n      add\n        /* \"@openzeppelin/contracts-upgradeable@5.0.1/proxy/utils/UUPSUpgradeable.sol\":6513:6573  ERC1967Utils.ERC1967InvalidImplementation(newImplementation) */\n      tag_181\n        /* \"#utility.yul\":2921:3139   */\n      jump\n        /* \"@openzeppelin/contracts-upgradeable@5.0.1/proxy/utils/UUPSUpgradeable.sol\":6147:6584  try IERC1822Proxiable(newImplementation).proxiableUUID() returns (bytes32 slot) {... */\n    tag_501:\n      0x00\n      dup1\n      mload\n      0x20\n      data_75b20eef8615de99c108b05f0dbda081c91897128caa336d75dffb97c4132b4d\n      dup4\n      codecopy\n      dup2\n      mload\n      swap2\n      mstore\n        /* \"@openzeppelin/contracts-upgradeable@5.0.1/proxy/utils/UUPSUpgradeable.sol\":6245:6285  slot != ERC1967Utils.IMPLEMENTATION_SLOT */\n      dup2\n      eq\n        /* \"@openzeppelin/contracts-upgradeable@5.0.1/proxy/utils/UUPSUpgradeable.sol\":6241:6361  if (slot != ERC1967Utils.IMPLEMENTATION_SLOT) {... */\n      tag_507\n      jumpi\n        /* \"@openzeppelin/contracts-upgradeable@5.0.1/proxy/utils/UUPSUpgradeable.sol\":6312:6346  UUPSUnsupportedProxiableUUID(slot) */\n      mload(0x40)\n      shl(0xe2, 0x2a875269)\n      dup2\n      mstore\n      0x04\n      dup2\n      add\n        /* \"#utility.yul\":3290:3315   */\n      dup3\n      swap1\n      mstore\n        /* \"#utility.yul\":3263:3281   */\n      0x24\n      add\n        /* \"@openzeppelin/contracts-upgradeable@5.0.1/proxy/utils/UUPSUpgradeable.sol\":6312:6346  UUPSUnsupportedProxiableUUID(slot) */\n      tag_181\n        /* \"#utility.yul\":3144:3321   */\n      jump\n        /* \"@openzeppelin/contracts-upgradeable@5.0.1/proxy/utils/UUPSUpgradeable.sol\":6241:6361  if (slot != ERC1967Utils.IMPLEMENTATION_SLOT) {... */\n    tag_507:\n        /* \"@openzeppelin/contracts-upgradeable@5.0.1/proxy/utils/UUPSUpgradeable.sol\":6374:6428  ERC1967Utils.upgradeToAndCall(newImplementation, data) */\n      tag_509\n        /* \"@openzeppelin/contracts-upgradeable@5.0.1/proxy/utils/UUPSUpgradeable.sol\":6404:6421  newImplementation */\n      dup4\n        /* \"@openzeppelin/contracts-upgradeable@5.0.1/proxy/utils/UUPSUpgradeable.sol\":6423:6427  data */\n      dup4\n        /* \"@openzeppelin/contracts-upgradeable@5.0.1/proxy/utils/UUPSUpgradeable.sol\":6374:6403  ERC1967Utils.upgradeToAndCall */\n      tag_510\n        /* \"@openzeppelin/contracts-upgradeable@5.0.1/proxy/utils/UUPSUpgradeable.sol\":6374:6428  ERC1967Utils.upgradeToAndCall(newImplementation, data) */\n      jump\t// in\n    tag_509:\n        /* \"@openzeppelin/contracts-upgradeable@5.0.1/proxy/utils/UUPSUpgradeable.sol\":6204:6439  returns (bytes32 slot) {... */\n      pop\n        /* \"@openzeppelin/contracts-upgradeable@5.0.1/proxy/utils/UUPSUpgradeable.sol\":6052:6590  function _upgradeToAndCallUUPS(address newImplementation, bytes memory data) private {... */\n      pop\n      pop\n      jump\t// out\n        /* \"@openzeppelin/contracts-upgradeable@5.0.1/proxy/utils/UUPSUpgradeable.sol\":5028:5241  function _checkNotDelegated() internal view virtual {... */\n    tag_278:\n        /* \"@openzeppelin/contracts-upgradeable@5.0.1/proxy/utils/UUPSUpgradeable.sol\":5102:5106  this */\n      address\n      sub(shl(0xa0, 0x01), 0x01)\n        /* \"@openzeppelin/contracts-upgradeable@5.0.1/proxy/utils/UUPSUpgradeable.sol\":5111:5117  __self */\n      immutable(\"0x0b83f23a4eeb8c3f5f7d5934a2289bcf0186d09a12e1b7f20adf54e4b179db15\")\n        /* \"@openzeppelin/contracts-upgradeable@5.0.1/proxy/utils/UUPSUpgradeable.sol\":5094:5117  address(this) != __self */\n      and\n      eq\n        /* \"@openzeppelin/contracts-upgradeable@5.0.1/proxy/utils/UUPSUpgradeable.sol\":5090:5235  if (address(this) != __self) {... */\n      tag_266\n      jumpi\n        /* \"@openzeppelin/contracts-upgradeable@5.0.1/proxy/utils/UUPSUpgradeable.sol\":5195:5224  UUPSUnauthorizedCallContext() */\n      mload(0x40)\n      shl(0xe1, 0x703e46dd)\n      dup2\n      mstore\n      0x04\n      add\n      mload(0x40)\n      dup1\n      swap2\n      sub\n      swap1\n      revert\n        /* \"contracts/sis.sol\":7286:7672  function _verifySignature(address participant, uint256 newBalance, uint256 nonce, bytes calldata adminSignature) internal {... */\n    tag_288:\n        /* \"contracts/sis.sol\":7444:7492  abi.encodePacked(participant, newBalance, nonce) */\n      mload(0x40)\n      not(0xffffffffffffffffffffffff)\n        /* \"#utility.yul\":18181:18183   */\n      0x60\n        /* \"#utility.yul\":18177:18192   */\n      dup8\n      swap1\n      shl\n        /* \"#utility.yul\":18173:18226   */\n      and\n        /* \"contracts/sis.sol\":7444:7492  abi.encodePacked(participant, newBalance, nonce) */\n      0x20\n      dup3\n      add\n        /* \"#utility.yul\":18161:18227   */\n      mstore\n        /* \"#utility.yul\":18243:18255   */\n      0x34\n      dup2\n      add\n        /* \"#utility.yul\":18236:18264   */\n      dup6\n      swap1\n      mstore\n        /* \"#utility.yul\":18280:18292   */\n      0x54\n      dup2\n      add\n        /* \"#utility.yul\":18273:18301   */\n      dup5\n      swap1\n      mstore\n        /* \"contracts/sis.sol\":7419:7431  bytes32 hash */\n      0x00\n      swap1\n        /* \"#utility.yul\":18317:18329   */\n      0x74\n      add\n        /* \"contracts/sis.sol\":7444:7492  abi.encodePacked(participant, newBalance, nonce) */\n      mload(0x40)\n      0x20\n      dup2\n      dup4\n      sub\n      sub\n      dup2\n      mstore\n      swap1\n      0x40\n      mstore\n        /* \"contracts/sis.sol\":7434:7493  keccak256(abi.encodePacked(participant, newBalance, nonce)) */\n      dup1\n      mload\n      swap1\n      0x20\n      add\n      keccak256\n        /* \"contracts/sis.sol\":7419:7493  bytes32 hash = keccak256(abi.encodePacked(participant, newBalance, nonce)) */\n      swap1\n      pop\n        /* \"contracts/sis.sol\":7521:7549  hash.recover(adminSignature) */\n      tag_517\n        /* \"contracts/sis.sol\":7534:7548  adminSignature */\n      dup4\n      dup4\n        /* \"contracts/sis.sol\":7521:7549  hash.recover(adminSignature) */\n      dup1\n      dup1\n      0x1f\n      add\n      0x20\n      dup1\n      swap2\n      div\n      mul\n      0x20\n      add\n      mload(0x40)\n      swap1\n      dup2\n      add\n      0x40\n      mstore\n      dup1\n      swap4\n      swap3\n      swap2\n      swap1\n      dup2\n      dup2\n      mstore\n      0x20\n      add\n      dup4\n      dup4\n      dup1\n      dup3\n      dup5\n      calldatacopy\n      0x00\n      swap3\n      add\n      swap2\n      swap1\n      swap2\n      mstore\n      pop\n        /* \"contracts/sis.sol\":7521:7525  hash */\n      dup6\n      swap4\n        /* \"contracts/sis.sol\":7521:7549  hash.recover(adminSignature) */\n      swap3\n      pop\n      pop\n        /* \"contracts/sis.sol\":7521:7533  hash.recover */\n      tag_438\n        /* \"contracts/sis.sol\":7521:7549  hash.recover(adminSignature) */\n      swap1\n      pop\n      jump\t// in\n    tag_517:\n        /* \"contracts/sis.sol\":7512:7517  admin */\n      sload(0x00)\n      sub(shl(0xa0, 0x01), 0x01)\n      swap1\n      dup2\n      and\n        /* \"contracts/sis.sol\":7512:7549  admin == hash.recover(adminSignature) */\n      swap2\n      and\n      eq\n        /* \"contracts/sis.sol\":7504:7571  require(admin == hash.recover(adminSignature), \"Invalid signature\") */\n      tag_518\n      jumpi\n      mload(0x40)\n      shl(0xe5, 0x461bcd)\n      dup2\n      mstore\n        /* \"#utility.yul\":16941:16943   */\n      0x20\n        /* \"contracts/sis.sol\":7504:7571  require(admin == hash.recover(adminSignature), \"Invalid signature\") */\n      0x04\n      dup3\n      add\n        /* \"#utility.yul\":16923:16944   */\n      mstore\n        /* \"#utility.yul\":16980:16982   */\n      0x11\n        /* \"#utility.yul\":16960:16978   */\n      0x24\n      dup3\n      add\n        /* \"#utility.yul\":16953:16983   */\n      mstore\n      shl(0x78, 0x496e76616c6964207369676e6174757265)\n        /* \"#utility.yul\":16999:17017   */\n      0x44\n      dup3\n      add\n        /* \"#utility.yul\":16992:17039   */\n      mstore\n        /* \"#utility.yul\":17056:17074   */\n      0x64\n      add\n        /* \"contracts/sis.sol\":7504:7571  require(admin == hash.recover(adminSignature), \"Invalid signature\") */\n      tag_181\n        /* \"#utility.yul\":16739:17080   */\n      jump\n        /* \"contracts/sis.sol\":7504:7571  require(admin == hash.recover(adminSignature), \"Invalid signature\") */\n    tag_518:\n        /* \"contracts/sis.sol\":7591:7607  usedNonces[hash] */\n      0x00\n      dup2\n      dup2\n      mstore\n        /* \"contracts/sis.sol\":7591:7601  usedNonces */\n      0x03\n        /* \"contracts/sis.sol\":7591:7607  usedNonces[hash] */\n      0x20\n      mstore\n      0x40\n      swap1\n      keccak256\n      sload\n      0xff\n      and\n        /* \"contracts/sis.sol\":7590:7607  !usedNonces[hash] */\n      iszero\n        /* \"contracts/sis.sol\":7582:7630  require(!usedNonces[hash], \"Nonce already used\") */\n      tag_520\n      jumpi\n      mload(0x40)\n      shl(0xe5, 0x461bcd)\n      dup2\n      mstore\n        /* \"#utility.yul\":17287:17289   */\n      0x20\n        /* \"contracts/sis.sol\":7582:7630  require(!usedNonces[hash], \"Nonce already used\") */\n      0x04\n      dup3\n      add\n        /* \"#utility.yul\":17269:17290   */\n      mstore\n        /* \"#utility.yul\":17326:17328   */\n      0x12\n        /* \"#utility.yul\":17306:17324   */\n      0x24\n      dup3\n      add\n        /* \"#utility.yul\":17299:17329   */\n      mstore\n      shl(0x72, 0x139bdb98d948185b1c9958591e481d5cd959)\n        /* \"#utility.yul\":17345:17363   */\n      0x44\n      dup3\n      add\n        /* \"#utility.yul\":17338:17386   */\n      mstore\n        /* \"#utility.yul\":17403:17421   */\n      0x64\n      add\n        /* \"contracts/sis.sol\":7582:7630  require(!usedNonces[hash], \"Nonce already used\") */\n      tag_181\n        /* \"#utility.yul\":17085:17427   */\n      jump\n        /* \"contracts/sis.sol\":7582:7630  require(!usedNonces[hash], \"Nonce already used\") */\n    tag_520:\n        /* \"contracts/sis.sol\":7641:7657  usedNonces[hash] */\n      0x00\n      swap1\n      dup2\n      mstore\n        /* \"contracts/sis.sol\":7641:7651  usedNonces */\n      0x03\n        /* \"contracts/sis.sol\":7641:7657  usedNonces[hash] */\n      0x20\n      mstore\n      0x40\n      swap1\n      keccak256\n        /* \"contracts/sis.sol\":7641:7664  usedNonces[hash] = true */\n      dup1\n      sload\n      not(0xff)\n      and\n        /* \"contracts/sis.sol\":7660:7664  true */\n      0x01\n        /* \"contracts/sis.sol\":7641:7664  usedNonces[hash] = true */\n      or\n      swap1\n      sstore\n      pop\n      pop\n      pop\n      pop\n      pop\n        /* \"contracts/sis.sol\":7286:7672  function _verifySignature(address participant, uint256 newBalance, uint256 nonce, bytes calldata adminSignature) internal {... */\n      jump\t// out\n        /* \"@openzeppelin/contracts-upgradeable@5.0.1/access/OwnableUpgradeable.sol\":3774:4022  function _transferOwnership(address newOwner) internal virtual {... */\n    tag_321:\n        /* \"@openzeppelin/contracts-upgradeable@5.0.1/access/OwnableUpgradeable.sol\":1313:1335  OwnableStorageLocation */\n      0x9016d09d72d40fdae2fd8ceac6b6234c7706214fd39c1cd1e609a0528c199300\n        /* \"@openzeppelin/contracts-upgradeable@5.0.1/access/OwnableUpgradeable.sol\":3923:3931  $._owner */\n      dup1\n      sload\n      not(sub(shl(0xa0, 0x01), 0x01))\n        /* \"@openzeppelin/contracts-upgradeable@5.0.1/access/OwnableUpgradeable.sol\":3941:3960  $._owner = newOwner */\n      dup2\n      and\n      sub(shl(0xa0, 0x01), 0x01)\n      dup5\n      dup2\n      and\n      swap2\n      dup3\n      or\n      dup5\n      sstore\n        /* \"@openzeppelin/contracts-upgradeable@5.0.1/access/OwnableUpgradeable.sol\":3975:4015  OwnershipTransferred(oldOwner, newOwner) */\n      mload(0x40)\n        /* \"@openzeppelin/contracts-upgradeable@5.0.1/access/OwnableUpgradeable.sol\":3923:3931  $._owner */\n      swap3\n      and\n      swap2\n      dup3\n      swap1\n        /* \"@openzeppelin/contracts-upgradeable@5.0.1/access/OwnableUpgradeable.sol\":3975:4015  OwnershipTransferred(oldOwner, newOwner) */\n      0x8be0079c531659141344cd1fd0a4f28419497f9722a3daafe3b4186f6b6457e0\n      swap1\n        /* \"@openzeppelin/contracts-upgradeable@5.0.1/access/OwnableUpgradeable.sol\":3847:3871  OwnableStorage storage $ */\n      0x00\n      swap1\n        /* \"@openzeppelin/contracts-upgradeable@5.0.1/access/OwnableUpgradeable.sol\":3975:4015  OwnershipTransferred(oldOwner, newOwner) */\n      log3\n        /* \"@openzeppelin/contracts-upgradeable@5.0.1/access/OwnableUpgradeable.sol\":3837:4022  {... */\n      pop\n      pop\n        /* \"@openzeppelin/contracts-upgradeable@5.0.1/access/OwnableUpgradeable.sol\":3774:4022  function _transferOwnership(address newOwner) internal virtual {... */\n      pop\n      jump\t// out\n        /* \"@openzeppelin/contracts-upgradeable@5.0.1/utils/PausableUpgradeable.sol\":3366:3542  function _pause() internal virtual whenNotPaused {... */\n    tag_326:\n        /* \"@openzeppelin/contracts-upgradeable@5.0.1/utils/PausableUpgradeable.sol\":2316:2335  _requireNotPaused() */\n      tag_525\n        /* \"@openzeppelin/contracts-upgradeable@5.0.1/utils/PausableUpgradeable.sol\":2316:2333  _requireNotPaused */\n      tag_185\n        /* \"@openzeppelin/contracts-upgradeable@5.0.1/utils/PausableUpgradeable.sol\":2316:2335  _requireNotPaused() */\n      jump\t// in\n    tag_525:\n      0x00\n      dup1\n      mload\n      0x20\n      data_c0c65a3718f3702d917c44106b91645b509d2e2d0979b70495c3babce192339f\n      dup4\n      codecopy\n      dup2\n      mload\n      swap2\n      mstore\n        /* \"@openzeppelin/contracts-upgradeable@5.0.1/utils/PausableUpgradeable.sol\":3484:3500  $._paused = true */\n      dup1\n      sload\n      not(0xff)\n      and\n        /* \"@openzeppelin/contracts-upgradeable@5.0.1/utils/PausableUpgradeable.sol\":3496:3500  true */\n      0x01\n        /* \"@openzeppelin/contracts-upgradeable@5.0.1/utils/PausableUpgradeable.sol\":3484:3500  $._paused = true */\n      or\n      dup2\n      sstore\n        /* \"@openzeppelin/contracts-upgradeable@5.0.1/utils/PausableUpgradeable.sol\":3515:3535  Paused(_msgSender()) */\n      0x62e78cea01bee320cd4e420270b5ea74000d11b0c9f74754ebdbfc544b05a258\n        /* \"@openzeppelin/contracts-upgradeable@5.0.1/utils/ContextUpgradeable.sol\":966:976  msg.sender */\n      caller\n        /* \"@openzeppelin/contracts-upgradeable@5.0.1/utils/PausableUpgradeable.sol\":3522:3534  _msgSender() */\n      tag_487\n        /* \"@openzeppelin/contracts-upgradeable@5.0.1/utils/ContextUpgradeable.sol\":887:983  function _msgSender() internal view virtual returns (address) {... */\n      jump\n        /* \"@openzeppelin/contracts@5.0.1/utils/cryptography/ECDSA.sol\":3702:3957  function recover(bytes32 hash, bytes memory signature) internal pure returns (address) {... */\n    tag_438:\n        /* \"@openzeppelin/contracts@5.0.1/utils/cryptography/ECDSA.sol\":3780:3787  address */\n      0x00\n        /* \"@openzeppelin/contracts@5.0.1/utils/cryptography/ECDSA.sol\":3800:3817  address recovered */\n      dup1\n        /* \"@openzeppelin/contracts@5.0.1/utils/cryptography/ECDSA.sol\":3819:3837  RecoverError error */\n      0x00\n        /* \"@openzeppelin/contracts@5.0.1/utils/cryptography/ECDSA.sol\":3839:3855  bytes32 errorArg */\n      dup1\n        /* \"@openzeppelin/contracts@5.0.1/utils/cryptography/ECDSA.sol\":3859:3886  tryRecover(hash, signature) */\n      tag_532\n        /* \"@openzeppelin/contracts@5.0.1/utils/cryptography/ECDSA.sol\":3870:3874  hash */\n      dup7\n        /* \"@openzeppelin/contracts@5.0.1/utils/cryptography/ECDSA.sol\":3876:3885  signature */\n      dup7\n        /* \"@openzeppelin/contracts@5.0.1/utils/cryptography/ECDSA.sol\":3859:3869  tryRecover */\n      tag_533\n        /* \"@openzeppelin/contracts@5.0.1/utils/cryptography/ECDSA.sol\":3859:3886  tryRecover(hash, signature) */\n      jump\t// in\n    tag_532:\n        /* \"@openzeppelin/contracts@5.0.1/utils/cryptography/ECDSA.sol\":3799:3886  (address recovered, RecoverError error, bytes32 errorArg) = tryRecover(hash, signature) */\n      swap3\n      pop\n      swap3\n      pop\n      swap3\n      pop\n        /* \"@openzeppelin/contracts@5.0.1/utils/cryptography/ECDSA.sol\":3896:3924  _throwError(error, errorArg) */\n      tag_534\n        /* \"@openzeppelin/contracts@5.0.1/utils/cryptography/ECDSA.sol\":3908:3913  error */\n      dup3\n        /* \"@openzeppelin/contracts@5.0.1/utils/cryptography/ECDSA.sol\":3915:3923  errorArg */\n      dup3\n        /* \"@openzeppelin/contracts@5.0.1/utils/cryptography/ECDSA.sol\":3896:3907  _throwError */\n      tag_535\n        /* \"@openzeppelin/contracts@5.0.1/utils/cryptography/ECDSA.sol\":3896:3924  _throwError(error, errorArg) */\n      jump\t// in\n    tag_534:\n      pop\n        /* \"@openzeppelin/contracts@5.0.1/utils/cryptography/ECDSA.sol\":3941:3950  recovered */\n      swap1\n      swap2\n      pop\n      pop\n        /* \"@openzeppelin/contracts@5.0.1/utils/cryptography/ECDSA.sol\":3702:3957  function recover(bytes32 hash, bytes memory signature) internal pure returns (address) {... */\n    tag_531:\n      swap3\n      swap2\n      pop\n      pop\n      jump\t// out\n        /* \"@openzeppelin/contracts-upgradeable@5.0.1/proxy/utils/Initializable.sol\":7084:7225  function _checkInitializing() internal view virtual {... */\n    tag_461:\n        /* \"@openzeppelin/contracts-upgradeable@5.0.1/proxy/utils/Initializable.sol\":8870:8891  INITIALIZABLE_STORAGE */\n      0xf0c57e16840df040f15088dc2f81fe391c3923bec73e23a9662efc9c229c6a00\n        /* \"@openzeppelin/contracts-upgradeable@5.0.1/proxy/utils/Initializable.sol\":8560:8600  _getInitializableStorage()._initializing */\n      sload\n      shl(0x40, 0x01)\n      swap1\n      div\n      0xff\n      and\n        /* \"@openzeppelin/contracts-upgradeable@5.0.1/proxy/utils/Initializable.sol\":7146:7219  if (!_isInitializing()) {... */\n      tag_266\n      jumpi\n        /* \"@openzeppelin/contracts-upgradeable@5.0.1/proxy/utils/Initializable.sol\":7191:7208  NotInitializing() */\n      mload(0x40)\n      shl(0xe3, 0x1afcd79f)\n      dup2\n      mstore\n      0x04\n      add\n      mload(0x40)\n      dup1\n      swap2\n      sub\n      swap1\n      revert\n        /* \"@openzeppelin/contracts-upgradeable@5.0.1/utils/PausableUpgradeable.sol\":1939:2095  function __Pausable_init_unchained() internal onlyInitializing {... */\n    tag_467:\n        /* \"@openzeppelin/contracts-upgradeable@5.0.1/proxy/utils/Initializable.sol\":6931:6951  _checkInitializing() */\n      tag_541\n        /* \"@openzeppelin/contracts-upgradeable@5.0.1/proxy/utils/Initializable.sol\":6931:6949  _checkInitializing */\n      tag_461\n        /* \"@openzeppelin/contracts-upgradeable@5.0.1/proxy/utils/Initializable.sol\":6931:6951  _checkInitializing() */\n      jump\t// in\n    tag_541:\n      0x00\n      dup1\n      mload\n      0x20\n      data_c0c65a3718f3702d917c44106b91645b509d2e2d0979b70495c3babce192339f\n      dup4\n      codecopy\n      dup2\n      mload\n      swap2\n      mstore\n        /* \"@openzeppelin/contracts-upgradeable@5.0.1/utils/PausableUpgradeable.sol\":2071:2088  $._paused = false */\n      dup1\n      sload\n      not(0xff)\n      and\n      swap1\n      sstore\n        /* \"@openzeppelin/contracts-upgradeable@5.0.1/utils/PausableUpgradeable.sol\":1939:2095  function __Pausable_init_unchained() internal onlyInitializing {... */\n      jump\t// out\n        /* \"@openzeppelin/contracts-upgradeable@5.0.1/access/OwnableUpgradeable.sol\":1980:2215  function __Ownable_init_unchained(address initialOwner) internal onlyInitializing {... */\n    tag_472:\n        /* \"@openzeppelin/contracts-upgradeable@5.0.1/proxy/utils/Initializable.sol\":6931:6951  _checkInitializing() */\n      tag_411\n        /* \"@openzeppelin/contracts-upgradeable@5.0.1/proxy/utils/Initializable.sol\":6931:6949  _checkInitializing */\n      tag_461\n        /* \"@openzeppelin/contracts-upgradeable@5.0.1/proxy/utils/Initializable.sol\":6931:6951  _checkInitializing() */\n      jump\t// in\n        /* \"@openzeppelin/contracts-upgradeable@5.0.1/utils/PausableUpgradeable.sol\":3105:3231  function _requirePaused() internal view virtual {... */\n    tag_484:\n      0x00\n      dup1\n      mload\n      0x20\n      data_c0c65a3718f3702d917c44106b91645b509d2e2d0979b70495c3babce192339f\n      dup4\n      codecopy\n      dup2\n      mload\n      swap2\n      mstore\n        /* \"@openzeppelin/contracts-upgradeable@5.0.1/utils/PausableUpgradeable.sol\":2821:2830  $._paused */\n      sload\n      0xff\n      and\n        /* \"@openzeppelin/contracts-upgradeable@5.0.1/utils/PausableUpgradeable.sol\":3163:3225  if (!paused()) {... */\n      tag_266\n      jumpi\n        /* \"@openzeppelin/contracts-upgradeable@5.0.1/utils/PausableUpgradeable.sol\":3199:3214  ExpectedPause() */\n      mload(0x40)\n      shl(0xe0, 0x8dfc202b)\n      dup2\n      mstore\n      0x04\n      add\n      mload(0x40)\n      dup1\n      swap2\n      sub\n      swap1\n      revert\n        /* \"@openzeppelin/contracts/proxy/ERC1967/ERC1967Utils.sol\":2779:3114  function upgradeToAndCall(address newImplementation, bytes memory data) internal {... */\n    tag_510:\n        /* \"@openzeppelin/contracts/proxy/ERC1967/ERC1967Utils.sol\":2870:2907  _setImplementation(newImplementation) */\n      tag_557\n        /* \"@openzeppelin/contracts/proxy/ERC1967/ERC1967Utils.sol\":2889:2906  newImplementation */\n      dup3\n        /* \"@openzeppelin/contracts/proxy/ERC1967/ERC1967Utils.sol\":2870:2888  _setImplementation */\n      tag_558\n        /* \"@openzeppelin/contracts/proxy/ERC1967/ERC1967Utils.sol\":2870:2907  _setImplementation(newImplementation) */\n      jump\t// in\n    tag_557:\n        /* \"@openzeppelin/contracts/proxy/ERC1967/ERC1967Utils.sol\":2922:2949  Upgraded(newImplementation) */\n      mload(0x40)\n      sub(shl(0xa0, 0x01), 0x01)\n      dup4\n      and\n      swap1\n      0xbc7cd75a20ee27fd9adebab32041f755214dbc6bffa90cc0225b39da2e5c2d3b\n      swap1\n      0x00\n      swap1\n      log2\n        /* \"@openzeppelin/contracts/proxy/ERC1967/ERC1967Utils.sol\":2964:2975  data.length */\n      dup1\n      mload\n        /* \"@openzeppelin/contracts/proxy/ERC1967/ERC1967Utils.sol\":2964:2979  data.length > 0 */\n      iszero\n        /* \"@openzeppelin/contracts/proxy/ERC1967/ERC1967Utils.sol\":2960:3108  if (data.length > 0) {... */\n      tag_559\n      jumpi\n        /* \"@openzeppelin/contracts/proxy/ERC1967/ERC1967Utils.sol\":2995:3048  Address.functionDelegateCall(newImplementation, data) */\n      tag_509\n        /* \"@openzeppelin/contracts/proxy/ERC1967/ERC1967Utils.sol\":3024:3041  newImplementation */\n      dup3\n        /* \"@openzeppelin/contracts/proxy/ERC1967/ERC1967Utils.sol\":3043:3047  data */\n      dup3\n        /* \"@openzeppelin/contracts/proxy/ERC1967/ERC1967Utils.sol\":2995:3023  Address.functionDelegateCall */\n      tag_561\n        /* \"@openzeppelin/contracts/proxy/ERC1967/ERC1967Utils.sol\":2995:3048  Address.functionDelegateCall(newImplementation, data) */\n      jump\t// in\n        /* \"@openzeppelin/contracts/proxy/ERC1967/ERC1967Utils.sol\":2960:3108  if (data.length > 0) {... */\n    tag_559:\n        /* \"@openzeppelin/contracts/proxy/ERC1967/ERC1967Utils.sol\":3079:3097  _checkNonPayable() */\n      tag_274\n        /* \"@openzeppelin/contracts/proxy/ERC1967/ERC1967Utils.sol\":3079:3095  _checkNonPayable */\n      tag_564\n        /* \"@openzeppelin/contracts/proxy/ERC1967/ERC1967Utils.sol\":3079:3097  _checkNonPayable() */\n      jump\t// in\n        /* \"@openzeppelin/contracts@5.0.1/utils/cryptography/ECDSA.sol\":2129:2895  function tryRecover(bytes32 hash, bytes memory signature) internal pure returns (address, RecoverError, bytes32) {... */\n    tag_533:\n        /* \"@openzeppelin/contracts@5.0.1/utils/cryptography/ECDSA.sol\":2210:2217  address */\n      0x00\n        /* \"@openzeppelin/contracts@5.0.1/utils/cryptography/ECDSA.sol\":2219:2231  RecoverError */\n      dup1\n        /* \"@openzeppelin/contracts@5.0.1/utils/cryptography/ECDSA.sol\":2233:2240  bytes32 */\n      0x00\n        /* \"@openzeppelin/contracts@5.0.1/utils/cryptography/ECDSA.sol\":2256:2265  signature */\n      dup4\n        /* \"@openzeppelin/contracts@5.0.1/utils/cryptography/ECDSA.sol\":2256:2272  signature.length */\n      mload\n        /* \"@openzeppelin/contracts@5.0.1/utils/cryptography/ECDSA.sol\":2276:2278  65 */\n      0x41\n        /* \"@openzeppelin/contracts@5.0.1/utils/cryptography/ECDSA.sol\":2256:2278  signature.length == 65 */\n      sub\n        /* \"@openzeppelin/contracts@5.0.1/utils/cryptography/ECDSA.sol\":2252:2889  if (signature.length == 65) {... */\n      tag_566\n      jumpi\n        /* \"@openzeppelin/contracts@5.0.1/utils/cryptography/ECDSA.sol\":2592:2596  0x20 */\n      0x20\n        /* \"@openzeppelin/contracts@5.0.1/utils/cryptography/ECDSA.sol\":2577:2597  add(signature, 0x20) */\n      dup5\n      add\n        /* \"@openzeppelin/contracts@5.0.1/utils/cryptography/ECDSA.sol\":2571:2598  mload(add(signature, 0x20)) */\n      mload\n        /* \"@openzeppelin/contracts@5.0.1/utils/cryptography/ECDSA.sol\":2641:2645  0x40 */\n      0x40\n        /* \"@openzeppelin/contracts@5.0.1/utils/cryptography/ECDSA.sol\":2626:2646  add(signature, 0x40) */\n      dup6\n      add\n        /* \"@openzeppelin/contracts@5.0.1/utils/cryptography/ECDSA.sol\":2620:2647  mload(add(signature, 0x40)) */\n      mload\n        /* \"@openzeppelin/contracts@5.0.1/utils/cryptography/ECDSA.sol\":2698:2702  0x60 */\n      0x60\n        /* \"@openzeppelin/contracts@5.0.1/utils/cryptography/ECDSA.sol\":2683:2703  add(signature, 0x60) */\n      dup7\n      add\n        /* \"@openzeppelin/contracts@5.0.1/utils/cryptography/ECDSA.sol\":2677:2704  mload(add(signature, 0x60)) */\n      mload\n        /* \"@openzeppelin/contracts@5.0.1/utils/cryptography/ECDSA.sol\":2294:2303  bytes32 r */\n      0x00\n        /* \"@openzeppelin/contracts@5.0.1/utils/cryptography/ECDSA.sol\":2669:2705  byte(0, mload(add(signature, 0x60))) */\n      byte\n        /* \"@openzeppelin/contracts@5.0.1/utils/cryptography/ECDSA.sol\":2739:2764  tryRecover(hash, v, r, s) */\n      tag_567\n        /* \"@openzeppelin/contracts@5.0.1/utils/cryptography/ECDSA.sol\":2750:2754  hash */\n      dup9\n        /* \"@openzeppelin/contracts@5.0.1/utils/cryptography/ECDSA.sol\":2669:2705  byte(0, mload(add(signature, 0x60))) */\n      dup3\n        /* \"@openzeppelin/contracts@5.0.1/utils/cryptography/ECDSA.sol\":2571:2598  mload(add(signature, 0x20)) */\n      dup6\n        /* \"@openzeppelin/contracts@5.0.1/utils/cryptography/ECDSA.sol\":2620:2647  mload(add(signature, 0x40)) */\n      dup6\n        /* \"@openzeppelin/contracts@5.0.1/utils/cryptography/ECDSA.sol\":2739:2749  tryRecover */\n      tag_568\n        /* \"@openzeppelin/contracts@5.0.1/utils/cryptography/ECDSA.sol\":2739:2764  tryRecover(hash, v, r, s) */\n      jump\t// in\n    tag_567:\n        /* \"@openzeppelin/contracts@5.0.1/utils/cryptography/ECDSA.sol\":2732:2764  return tryRecover(hash, v, r, s) */\n      swap6\n      pop\n      swap6\n      pop\n      swap6\n      pop\n      pop\n      pop\n      pop\n      jump(tag_569)\n        /* \"@openzeppelin/contracts@5.0.1/utils/cryptography/ECDSA.sol\":2252:2889  if (signature.length == 65) {... */\n    tag_566:\n      pop\n      pop\n        /* \"@openzeppelin/contracts@5.0.1/utils/cryptography/ECDSA.sol\":2860:2876  signature.length */\n      dup2\n      mload\n        /* \"@openzeppelin/contracts@5.0.1/utils/cryptography/ECDSA.sol\":2811:2812  0 */\n      0x00\n      swap2\n      pop\n        /* \"@openzeppelin/contracts@5.0.1/utils/cryptography/ECDSA.sol\":2815:2850  RecoverError.InvalidSignatureLength */\n      0x02\n      swap1\n        /* \"@openzeppelin/contracts@5.0.1/utils/cryptography/ECDSA.sol\":2252:2889  if (signature.length == 65) {... */\n    tag_569:\n        /* \"@openzeppelin/contracts@5.0.1/utils/cryptography/ECDSA.sol\":2129:2895  function tryRecover(bytes32 hash, bytes memory signature) internal pure returns (address, RecoverError, bytes32) {... */\n      swap3\n      pop\n      swap3\n      pop\n      swap3\n      jump\t// out\n        /* \"@openzeppelin/contracts@5.0.1/utils/cryptography/ECDSA.sol\":7196:7728  function _throwError(RecoverError error, bytes32 errorArg) private pure {... */\n    tag_535:\n        /* \"@openzeppelin/contracts@5.0.1/utils/cryptography/ECDSA.sol\":7291:7311  RecoverError.NoError */\n      0x00\n        /* \"@openzeppelin/contracts@5.0.1/utils/cryptography/ECDSA.sol\":7282:7287  error */\n      dup3\n        /* \"@openzeppelin/contracts@5.0.1/utils/cryptography/ECDSA.sol\":7282:7311  error == RecoverError.NoError */\n      0x03\n      dup2\n      gt\n      iszero\n      tag_575\n      jumpi\n      tag_575\n      tag_573\n      jump\t// in\n    tag_575:\n      sub\n        /* \"@openzeppelin/contracts@5.0.1/utils/cryptography/ECDSA.sol\":7278:7722  if (error == RecoverError.NoError) {... */\n      tag_576\n      jumpi\n        /* \"@openzeppelin/contracts@5.0.1/utils/cryptography/ECDSA.sol\":7196:7728  function _throwError(RecoverError error, bytes32 errorArg) private pure {... */\n      pop\n      pop\n      jump\t// out\n        /* \"@openzeppelin/contracts@5.0.1/utils/cryptography/ECDSA.sol\":7278:7722  if (error == RecoverError.NoError) {... */\n    tag_576:\n        /* \"@openzeppelin/contracts@5.0.1/utils/cryptography/ECDSA.sol\":7387:7416  RecoverError.InvalidSignature */\n      0x01\n        /* \"@openzeppelin/contracts@5.0.1/utils/cryptography/ECDSA.sol\":7378:7383  error */\n      dup3\n        /* \"@openzeppelin/contracts@5.0.1/utils/cryptography/ECDSA.sol\":7378:7416  error == RecoverError.InvalidSignature */\n      0x03\n      dup2\n      gt\n      iszero\n      tag_581\n      jumpi\n      tag_581\n      tag_573\n      jump\t// in\n    tag_581:\n      sub\n        /* \"@openzeppelin/contracts@5.0.1/utils/cryptography/ECDSA.sol\":7374:7722  if (error == RecoverError.InvalidSignature) {... */\n      tag_582\n      jumpi\n        /* \"@openzeppelin/contracts@5.0.1/utils/cryptography/ECDSA.sol\":7439:7462  ECDSAInvalidSignature() */\n      mload(0x40)\n      shl(0xe0, 0xf645eedf)\n      dup2\n      mstore\n      0x04\n      add\n      mload(0x40)\n      dup1\n      swap2\n      sub\n      swap1\n      revert\n        /* \"@openzeppelin/contracts@5.0.1/utils/cryptography/ECDSA.sol\":7374:7722  if (error == RecoverError.InvalidSignature) {... */\n    tag_582:\n        /* \"@openzeppelin/contracts@5.0.1/utils/cryptography/ECDSA.sol\":7492:7527  RecoverError.InvalidSignatureLength */\n      0x02\n        /* \"@openzeppelin/contracts@5.0.1/utils/cryptography/ECDSA.sol\":7483:7488  error */\n      dup3\n        /* \"@openzeppelin/contracts@5.0.1/utils/cryptography/ECDSA.sol\":7483:7527  error == RecoverError.InvalidSignatureLength */\n      0x03\n      dup2\n      gt\n      iszero\n      tag_587\n      jumpi\n      tag_587\n      tag_573\n      jump\t// in\n    tag_587:\n      sub\n        /* \"@openzeppelin/contracts@5.0.1/utils/cryptography/ECDSA.sol\":7479:7722  if (error == RecoverError.InvalidSignatureLength) {... */\n      tag_588\n      jumpi\n        /* \"@openzeppelin/contracts@5.0.1/utils/cryptography/ECDSA.sol\":7550:7596  ECDSAInvalidSignatureLength(uint256(errorArg)) */\n      mload(0x40)\n      shl(0xe0, 0xfce698f7)\n      dup2\n      mstore\n      0x04\n      dup2\n      add\n        /* \"#utility.yul\":3290:3315   */\n      dup3\n      swap1\n      mstore\n        /* \"#utility.yul\":3263:3281   */\n      0x24\n      add\n        /* \"@openzeppelin/contracts@5.0.1/utils/cryptography/ECDSA.sol\":7550:7596  ECDSAInvalidSignatureLength(uint256(errorArg)) */\n      tag_181\n        /* \"#utility.yul\":3144:3321   */\n      jump\n        /* \"@openzeppelin/contracts@5.0.1/utils/cryptography/ECDSA.sol\":7479:7722  if (error == RecoverError.InvalidSignatureLength) {... */\n    tag_588:\n        /* \"@openzeppelin/contracts@5.0.1/utils/cryptography/ECDSA.sol\":7626:7656  RecoverError.InvalidSignatureS */\n      0x03\n        /* \"@openzeppelin/contracts@5.0.1/utils/cryptography/ECDSA.sol\":7617:7622  error */\n      dup3\n        /* \"@openzeppelin/contracts@5.0.1/utils/cryptography/ECDSA.sol\":7617:7656  error == RecoverError.InvalidSignatureS */\n      0x03\n      dup2\n      gt\n      iszero\n      tag_594\n      jumpi\n      tag_594\n      tag_573\n      jump\t// in\n    tag_594:\n      sub\n        /* \"@openzeppelin/contracts@5.0.1/utils/cryptography/ECDSA.sol\":7613:7722  if (error == RecoverError.InvalidSignatureS) {... */\n      tag_274\n      jumpi\n        /* \"@openzeppelin/contracts@5.0.1/utils/cryptography/ECDSA.sol\":7679:7711  ECDSAInvalidSignatureS(errorArg) */\n      mload(0x40)\n      shl(0xe2, 0x35e2f383)\n      dup2\n      mstore\n      0x04\n      dup2\n      add\n        /* \"#utility.yul\":3290:3315   */\n      dup3\n      swap1\n      mstore\n        /* \"#utility.yul\":3263:3281   */\n      0x24\n      add\n        /* \"@openzeppelin/contracts@5.0.1/utils/cryptography/ECDSA.sol\":7679:7711  ECDSAInvalidSignatureS(errorArg) */\n      tag_181\n        /* \"#utility.yul\":3144:3321   */\n      jump\n        /* \"@openzeppelin/contracts/proxy/ERC1967/ERC1967Utils.sol\":2186:2467  function _setImplementation(address newImplementation) private {... */\n    tag_558:\n        /* \"@openzeppelin/contracts/proxy/ERC1967/ERC1967Utils.sol\":2263:2280  newImplementation */\n      dup1\n      sub(shl(0xa0, 0x01), 0x01)\n        /* \"@openzeppelin/contracts/proxy/ERC1967/ERC1967Utils.sol\":2263:2292  newImplementation.code.length */\n      and\n      extcodesize\n        /* \"@openzeppelin/contracts/proxy/ERC1967/ERC1967Utils.sol\":2296:2297  0 */\n      0x00\n        /* \"@openzeppelin/contracts/proxy/ERC1967/ERC1967Utils.sol\":2263:2297  newImplementation.code.length == 0 */\n      sub\n        /* \"@openzeppelin/contracts/proxy/ERC1967/ERC1967Utils.sol\":2259:2378  if (newImplementation.code.length == 0) {... */\n      tag_601\n      jumpi\n        /* \"@openzeppelin/contracts/proxy/ERC1967/ERC1967Utils.sol\":2320:2367  ERC1967InvalidImplementation(newImplementation) */\n      mload(0x40)\n      shl(0xe0, 0x4c9c8ce3)\n      dup2\n      mstore\n      sub(shl(0xa0, 0x01), 0x01)\n        /* \"#utility.yul\":3100:3132   */\n      dup3\n      and\n        /* \"@openzeppelin/contracts/proxy/ERC1967/ERC1967Utils.sol\":2320:2367  ERC1967InvalidImplementation(newImplementation) */\n      0x04\n      dup3\n      add\n        /* \"#utility.yul\":3082:3133   */\n      mstore\n        /* \"#utility.yul\":3055:3073   */\n      0x24\n      add\n        /* \"@openzeppelin/contracts/proxy/ERC1967/ERC1967Utils.sol\":2320:2367  ERC1967InvalidImplementation(newImplementation) */\n      tag_181\n        /* \"#utility.yul\":2921:3139   */\n      jump\n        /* \"@openzeppelin/contracts/proxy/ERC1967/ERC1967Utils.sol\":2259:2378  if (newImplementation.code.length == 0) {... */\n    tag_601:\n      0x00\n      dup1\n      mload\n      0x20\n      data_75b20eef8615de99c108b05f0dbda081c91897128caa336d75dffb97c4132b4d\n      dup4\n      codecopy\n      dup2\n      mload\n      swap2\n      mstore\n        /* \"@openzeppelin/contracts/proxy/ERC1967/ERC1967Utils.sol\":2387:2460  StorageSlot.getAddressSlot(IMPLEMENTATION_SLOT).value = newImplementation */\n      dup1\n      sload\n      not(sub(shl(0xa0, 0x01), 0x01))\n      and\n      sub(shl(0xa0, 0x01), 0x01)\n      swap3\n      swap1\n      swap3\n      and\n      swap2\n      swap1\n      swap2\n      or\n      swap1\n      sstore\n        /* \"@openzeppelin/contracts/proxy/ERC1967/ERC1967Utils.sol\":2186:2467  function _setImplementation(address newImplementation) private {... */\n      jump\t// out\n        /* \"@openzeppelin/contracts/utils/Address.sol\":4106:4359  function functionDelegateCall(address target, bytes memory data) internal returns (bytes memory) {... */\n    tag_561:\n        /* \"@openzeppelin/contracts/utils/Address.sol\":4189:4201  bytes memory */\n      0x60\n        /* \"@openzeppelin/contracts/utils/Address.sol\":4214:4226  bool success */\n      0x00\n        /* \"@openzeppelin/contracts/utils/Address.sol\":4228:4251  bytes memory returndata */\n      dup1\n        /* \"@openzeppelin/contracts/utils/Address.sol\":4255:4261  target */\n      dup5\n      sub(shl(0xa0, 0x01), 0x01)\n        /* \"@openzeppelin/contracts/utils/Address.sol\":4255:4274  target.delegatecall */\n      and\n        /* \"@openzeppelin/contracts/utils/Address.sol\":4275:4279  data */\n      dup5\n        /* \"@openzeppelin/contracts/utils/Address.sol\":4255:4280  target.delegatecall(data) */\n      mload(0x40)\n      tag_605\n      swap2\n      swap1\n      tag_606\n      jump\t// in\n    tag_605:\n      0x00\n      mload(0x40)\n      dup1\n      dup4\n      sub\n      dup2\n      dup6\n      gas\n      delegatecall\n      swap2\n      pop\n      pop\n      returndatasize\n      dup1\n      0x00\n      dup2\n      eq\n      tag_609\n      jumpi\n      mload(0x40)\n      swap2\n      pop\n      and(add(returndatasize, 0x3f), not(0x1f))\n      dup3\n      add\n      0x40\n      mstore\n      returndatasize\n      dup3\n      mstore\n      returndatasize\n      0x00\n      0x20\n      dup5\n      add\n      returndatacopy\n      jump(tag_608)\n    tag_609:\n      0x60\n      swap2\n      pop\n    tag_608:\n      pop\n        /* \"@openzeppelin/contracts/utils/Address.sol\":4213:4280  (bool success, bytes memory returndata) = target.delegatecall(data) */\n      swap2\n      pop\n      swap2\n      pop\n        /* \"@openzeppelin/contracts/utils/Address.sol\":4297:4352  verifyCallResultFromTarget(target, success, returndata) */\n      tag_610\n        /* \"@openzeppelin/contracts/utils/Address.sol\":4324:4330  target */\n      dup6\n        /* \"@openzeppelin/contracts/utils/Address.sol\":4332:4339  success */\n      dup4\n        /* \"@openzeppelin/contracts/utils/Address.sol\":4341:4351  returndata */\n      dup4\n        /* \"@openzeppelin/contracts/utils/Address.sol\":4297:4323  verifyCallResultFromTarget */\n      tag_611\n        /* \"@openzeppelin/contracts/utils/Address.sol\":4297:4352  verifyCallResultFromTarget(target, success, returndata) */\n      jump\t// in\n    tag_610:\n        /* \"@openzeppelin/contracts/utils/Address.sol\":4290:4352  return verifyCallResultFromTarget(target, success, returndata) */\n      swap6\n        /* \"@openzeppelin/contracts/utils/Address.sol\":4106:4359  function functionDelegateCall(address target, bytes memory data) internal returns (bytes memory) {... */\n      swap5\n      pop\n      pop\n      pop\n      pop\n      pop\n      jump\t// out\n        /* \"@openzeppelin/contracts/proxy/ERC1967/ERC1967Utils.sol\":6598:6720  function _checkNonPayable() private {... */\n    tag_564:\n        /* \"@openzeppelin/contracts/proxy/ERC1967/ERC1967Utils.sol\":6648:6657  msg.value */\n      callvalue\n        /* \"@openzeppelin/contracts/proxy/ERC1967/ERC1967Utils.sol\":6648:6661  msg.value > 0 */\n      iszero\n        /* \"@openzeppelin/contracts/proxy/ERC1967/ERC1967Utils.sol\":6644:6714  if (msg.value > 0) {... */\n      tag_266\n      jumpi\n        /* \"@openzeppelin/contracts/proxy/ERC1967/ERC1967Utils.sol\":6684:6703  ERC1967NonPayable() */\n      mload(0x40)\n      shl(0xe0, 0xb398979f)\n      dup2\n      mstore\n      0x04\n      add\n      mload(0x40)\n      dup1\n      swap2\n      sub\n      swap1\n      revert\n        /* \"@openzeppelin/contracts@5.0.1/utils/cryptography/ECDSA.sol\":5140:6670  function tryRecover(... */\n    tag_568:\n        /* \"@openzeppelin/contracts@5.0.1/utils/cryptography/ECDSA.sol\":5266:5273  address */\n      0x00\n      dup1\n      dup1\n        /* \"@openzeppelin/contracts@5.0.1/utils/cryptography/ECDSA.sol\":6199:6265  0x7FFFFFFFFFFFFFFFFFFFFFFFFFFFFFFF5D576E7357A4501DDFE92F46681B20A0 */\n      0x7fffffffffffffffffffffffffffffff5d576e7357a4501ddfe92f46681b20a0\n        /* \"@openzeppelin/contracts@5.0.1/utils/cryptography/ECDSA.sol\":6186:6265  uint256(s) > 0x7FFFFFFFFFFFFFFFFFFFFFFFFFFFFFFF5D576E7357A4501DDFE92F46681B20A0 */\n      dup5\n      gt\n        /* \"@openzeppelin/contracts@5.0.1/utils/cryptography/ECDSA.sol\":6182:6346  if (uint256(s) > 0x7FFFFFFFFFFFFFFFFFFFFFFFFFFFFFFF5D576E7357A4501DDFE92F46681B20A0) {... */\n      iszero\n      tag_615\n      jumpi\n      pop\n        /* \"@openzeppelin/contracts@5.0.1/utils/cryptography/ECDSA.sol\":6297:6298  0 */\n      0x00\n      swap2\n      pop\n        /* \"@openzeppelin/contracts@5.0.1/utils/cryptography/ECDSA.sol\":6301:6331  RecoverError.InvalidSignatureS */\n      0x03\n      swap1\n      pop\n        /* \"@openzeppelin/contracts@5.0.1/utils/cryptography/ECDSA.sol\":6333:6334  s */\n      dup3\n        /* \"@openzeppelin/contracts@5.0.1/utils/cryptography/ECDSA.sol\":6281:6335  return (address(0), RecoverError.InvalidSignatureS, s) */\n      jump(tag_614)\n        /* \"@openzeppelin/contracts@5.0.1/utils/cryptography/ECDSA.sol\":6182:6346  if (uint256(s) > 0x7FFFFFFFFFFFFFFFFFFFFFFFFFFFFFFF5D576E7357A4501DDFE92F46681B20A0) {... */\n    tag_615:\n        /* \"@openzeppelin/contracts@5.0.1/utils/cryptography/ECDSA.sol\":6457:6481  ecrecover(hash, v, r, s) */\n      0x40\n      dup1\n      mload\n        /* \"@openzeppelin/contracts@5.0.1/utils/cryptography/ECDSA.sol\":6440:6454  address signer */\n      0x00\n        /* \"@openzeppelin/contracts@5.0.1/utils/cryptography/ECDSA.sol\":6457:6481  ecrecover(hash, v, r, s) */\n      dup1\n      dup3\n      mstore\n      0x20\n      dup3\n      add\n      dup1\n      dup5\n      mstore\n        /* \"#utility.yul\":19005:19030   */\n      dup11\n      swap1\n      mstore\n        /* \"#utility.yul\":19078:19082   */\n      0xff\n        /* \"#utility.yul\":19066:19083   */\n      dup10\n      and\n        /* \"#utility.yul\":19046:19064   */\n      swap3\n      dup3\n      add\n        /* \"#utility.yul\":19039:19084   */\n      swap3\n      swap1\n      swap3\n      mstore\n        /* \"#utility.yul\":19100:19118   */\n      0x60\n      dup2\n      add\n        /* \"#utility.yul\":19093:19127   */\n      dup8\n      swap1\n      mstore\n        /* \"#utility.yul\":19143:19161   */\n      0x80\n      dup2\n      add\n        /* \"#utility.yul\":19136:19170   */\n      dup7\n      swap1\n      mstore\n        /* \"@openzeppelin/contracts@5.0.1/utils/cryptography/ECDSA.sol\":6457:6481  ecrecover(hash, v, r, s) */\n      0x01\n      swap1\n        /* \"#utility.yul\":18977:18996   */\n      0xa0\n      add\n        /* \"@openzeppelin/contracts@5.0.1/utils/cryptography/ECDSA.sol\":6457:6481  ecrecover(hash, v, r, s) */\n      0x20\n      mload(0x40)\n      0x20\n      dup2\n      sub\n      swap1\n      dup1\n      dup5\n      sub\n      swap1\n      dup6\n      gas\n      staticcall\n      iszero\n      dup1\n      iszero\n      tag_619\n      jumpi\n      returndatasize\n      0x00\n      dup1\n      returndatacopy\n      revert(0x00, returndatasize)\n    tag_619:\n      pop\n      pop\n      mload(add(not(0x1f), mload(0x40)))\n      swap2\n      pop\n      pop\n      sub(shl(0xa0, 0x01), 0x01)\n        /* \"@openzeppelin/contracts@5.0.1/utils/cryptography/ECDSA.sol\":6495:6515  signer == address(0) */\n      dup2\n      and\n        /* \"@openzeppelin/contracts@5.0.1/utils/cryptography/ECDSA.sol\":6491:6604  if (signer == address(0)) {... */\n      tag_620\n      jumpi\n      pop\n        /* \"@openzeppelin/contracts@5.0.1/utils/cryptography/ECDSA.sol\":6547:6548  0 */\n      0x00\n      swap3\n      pop\n        /* \"@openzeppelin/contracts@5.0.1/utils/cryptography/ECDSA.sol\":6551:6580  RecoverError.InvalidSignature */\n      0x01\n      swap2\n      pop\n        /* \"@openzeppelin/contracts@5.0.1/utils/cryptography/ECDSA.sol\":6547:6548  0 */\n      dup3\n      swap1\n      pop\n        /* \"@openzeppelin/contracts@5.0.1/utils/cryptography/ECDSA.sol\":6531:6593  return (address(0), RecoverError.InvalidSignature, bytes32(0)) */\n      jump(tag_614)\n        /* \"@openzeppelin/contracts@5.0.1/utils/cryptography/ECDSA.sol\":6491:6604  if (signer == address(0)) {... */\n    tag_620:\n        /* \"@openzeppelin/contracts@5.0.1/utils/cryptography/ECDSA.sol\":6622:6628  signer */\n      swap3\n      pop\n        /* \"@openzeppelin/contracts@5.0.1/utils/cryptography/ECDSA.sol\":6630:6650  RecoverError.NoError */\n      0x00\n      swap2\n      pop\n      dup2\n      swap1\n      pop\n        /* \"@openzeppelin/contracts@5.0.1/utils/cryptography/ECDSA.sol\":5140:6670  function tryRecover(... */\n    tag_614:\n      swap5\n      pop\n      swap5\n      pop\n      swap5\n      swap2\n      pop\n      pop\n      jump\t// out\n        /* \"@openzeppelin/contracts/utils/Address.sol\":4625:5207  function verifyCallResultFromTarget(... */\n    tag_611:\n        /* \"@openzeppelin/contracts/utils/Address.sol\":4769:4781  bytes memory */\n      0x60\n        /* \"@openzeppelin/contracts/utils/Address.sol\":4798:4805  success */\n      dup3\n        /* \"@openzeppelin/contracts/utils/Address.sol\":4793:5201  if (!success) {... */\n      tag_622\n      jumpi\n        /* \"@openzeppelin/contracts/utils/Address.sol\":4821:4840  _revert(returndata) */\n      tag_623\n        /* \"@openzeppelin/contracts/utils/Address.sol\":4829:4839  returndata */\n      dup3\n        /* \"@openzeppelin/contracts/utils/Address.sol\":4821:4828  _revert */\n      tag_624\n        /* \"@openzeppelin/contracts/utils/Address.sol\":4821:4840  _revert(returndata) */\n      jump\t// in\n    tag_623:\n        /* \"@openzeppelin/contracts/utils/Address.sol\":4793:5201  if (!success) {... */\n      jump(tag_625)\n    tag_622:\n        /* \"@openzeppelin/contracts/utils/Address.sol\":5045:5062  returndata.length */\n      dup2\n      mload\n        /* \"@openzeppelin/contracts/utils/Address.sol\":5045:5067  returndata.length == 0 */\n      iszero\n        /* \"@openzeppelin/contracts/utils/Address.sol\":5045:5094  returndata.length == 0 && target.code.length == 0 */\n      dup1\n      iszero\n      tag_626\n      jumpi\n      pop\n      sub(shl(0xa0, 0x01), 0x01)\n        /* \"@openzeppelin/contracts/utils/Address.sol\":5071:5089  target.code.length */\n      dup5\n      and\n      extcodesize\n        /* \"@openzeppelin/contracts/utils/Address.sol\":5071:5094  target.code.length == 0 */\n      iszero\n        /* \"@openzeppelin/contracts/utils/Address.sol\":5045:5094  returndata.length == 0 && target.code.length == 0 */\n    tag_626:\n        /* \"@openzeppelin/contracts/utils/Address.sol\":5041:5160  if (returndata.length == 0 && target.code.length == 0) {... */\n      iszero\n      tag_627\n      jumpi\n        /* \"@openzeppelin/contracts/utils/Address.sol\":5121:5145  AddressEmptyCode(target) */\n      mload(0x40)\n      shl(0xe0, 0x9996b315)\n      dup2\n      mstore\n      sub(shl(0xa0, 0x01), 0x01)\n        /* \"#utility.yul\":3100:3132   */\n      dup6\n      and\n        /* \"@openzeppelin/contracts/utils/Address.sol\":5121:5145  AddressEmptyCode(target) */\n      0x04\n      dup3\n      add\n        /* \"#utility.yul\":3082:3133   */\n      mstore\n        /* \"#utility.yul\":3055:3073   */\n      0x24\n      add\n        /* \"@openzeppelin/contracts/utils/Address.sol\":5121:5145  AddressEmptyCode(target) */\n      tag_181\n        /* \"#utility.yul\":2921:3139   */\n      jump\n        /* \"@openzeppelin/contracts/utils/Address.sol\":5041:5160  if (returndata.length == 0 && target.code.length == 0) {... */\n    tag_627:\n      pop\n        /* \"@openzeppelin/contracts/utils/Address.sol\":5180:5190  returndata */\n      dup1\n        /* \"@openzeppelin/contracts/utils/Address.sol\":4793:5201  if (!success) {... */\n    tag_625:\n        /* \"@openzeppelin/contracts/utils/Address.sol\":4625:5207  function verifyCallResultFromTarget(... */\n      swap4\n      swap3\n      pop\n      pop\n      pop\n      jump\t// out\n        /* \"@openzeppelin/contracts/utils/Address.sol\":5743:6259  function _revert(bytes memory returndata) private pure {... */\n    tag_624:\n        /* \"@openzeppelin/contracts/utils/Address.sol\":5874:5891  returndata.length */\n      dup1\n      mload\n        /* \"@openzeppelin/contracts/utils/Address.sol\":5874:5895  returndata.length > 0 */\n      iszero\n        /* \"@openzeppelin/contracts/utils/Address.sol\":5870:6253  if (returndata.length > 0) {... */\n      tag_630\n      jumpi\n        /* \"@openzeppelin/contracts/utils/Address.sol\":6102:6112  returndata */\n      dup1\n        /* \"@openzeppelin/contracts/utils/Address.sol\":6096:6113  mload(returndata) */\n      mload\n        /* \"@openzeppelin/contracts/utils/Address.sol\":6158:6173  returndata_size */\n      dup1\n        /* \"@openzeppelin/contracts/utils/Address.sol\":6145:6155  returndata */\n      dup3\n        /* \"@openzeppelin/contracts/utils/Address.sol\":6141:6143  32 */\n      0x20\n        /* \"@openzeppelin/contracts/utils/Address.sol\":6137:6156  add(32, returndata) */\n      add\n        /* \"@openzeppelin/contracts/utils/Address.sol\":6130:6174  revert(add(32, returndata), returndata_size) */\n      revert\n        /* \"@openzeppelin/contracts/utils/Address.sol\":5870:6253  if (returndata.length > 0) {... */\n    tag_630:\n        /* \"@openzeppelin/contracts/utils/Address.sol\":6225:6242  FailedInnerCall() */\n      mload(0x40)\n      shl(0xe1, 0x0a12f521)\n      dup2\n      mstore\n      0x04\n      add\n      mload(0x40)\n      dup1\n      swap2\n      sub\n      swap1\n      revert\n        /* \"#utility.yul\":14:194   */\n    tag_42:\n        /* \"#utility.yul\":73:79   */\n      0x00\n        /* \"#utility.yul\":126:128   */\n      0x20\n        /* \"#utility.yul\":114:123   */\n      dup3\n        /* \"#utility.yul\":105:112   */\n      dup5\n        /* \"#utility.yul\":101:124   */\n      sub\n        /* \"#utility.yul\":97:129   */\n      slt\n        /* \"#utility.yul\":94:146   */\n      iszero\n      tag_640\n      jumpi\n        /* \"#utility.yul\":142:143   */\n      0x00\n        /* \"#utility.yul\":139:140   */\n      dup1\n        /* \"#utility.yul\":132:144   */\n      revert\n        /* \"#utility.yul\":94:146   */\n    tag_640:\n      pop\n        /* \"#utility.yul\":165:188   */\n      calldataload\n      swap2\n        /* \"#utility.yul\":14:194   */\n      swap1\n      pop\n      jump\t// out\n        /* \"#utility.yul\":199:566   */\n    tag_632:\n        /* \"#utility.yul\":262:270   */\n      0x00\n        /* \"#utility.yul\":272:278   */\n      dup1\n        /* \"#utility.yul\":326:329   */\n      dup4\n        /* \"#utility.yul\":319:323   */\n      0x1f\n        /* \"#utility.yul\":311:317   */\n      dup5\n        /* \"#utility.yul\":307:324   */\n      add\n        /* \"#utility.yul\":303:330   */\n      slt\n        /* \"#utility.yul\":293:348   */\n      tag_642\n      jumpi\n        /* \"#utility.yul\":344:345   */\n      0x00\n        /* \"#utility.yul\":341:342   */\n      dup1\n        /* \"#utility.yul\":334:346   */\n      revert\n        /* \"#utility.yul\":293:348   */\n    tag_642:\n      pop\n        /* \"#utility.yul\":367:387   */\n      dup2\n      calldataload\n        /* \"#utility.yul\":410:428   */\n      0xffffffffffffffff\n        /* \"#utility.yul\":399:429   */\n      dup2\n      gt\n        /* \"#utility.yul\":396:446   */\n      iszero\n      tag_643\n      jumpi\n        /* \"#utility.yul\":442:443   */\n      0x00\n        /* \"#utility.yul\":439:440   */\n      dup1\n        /* \"#utility.yul\":432:444   */\n      revert\n        /* \"#utility.yul\":396:446   */\n    tag_643:\n        /* \"#utility.yul\":479:483   */\n      0x20\n        /* \"#utility.yul\":471:477   */\n      dup4\n        /* \"#utility.yul\":467:484   */\n      add\n        /* \"#utility.yul\":455:484   */\n      swap2\n      pop\n        /* \"#utility.yul\":539:542   */\n      dup4\n        /* \"#utility.yul\":532:536   */\n      0x20\n        /* \"#utility.yul\":522:528   */\n      dup3\n        /* \"#utility.yul\":519:520   */\n      0x05\n        /* \"#utility.yul\":515:529   */\n      shl\n        /* \"#utility.yul\":507:513   */\n      dup6\n        /* \"#utility.yul\":503:530   */\n      add\n        /* \"#utility.yul\":499:537   */\n      add\n        /* \"#utility.yul\":496:543   */\n      gt\n        /* \"#utility.yul\":493:560   */\n      iszero\n      tag_644\n      jumpi\n        /* \"#utility.yul\":556:557   */\n      0x00\n        /* \"#utility.yul\":553:554   */\n      dup1\n        /* \"#utility.yul\":546:558   */\n      revert\n        /* \"#utility.yul\":493:560   */\n    tag_644:\n        /* \"#utility.yul\":199:566   */\n      swap3\n      pop\n      swap3\n      swap1\n      pop\n      jump\t// out\n        /* \"#utility.yul\":571:918   */\n    tag_633:\n        /* \"#utility.yul\":622:630   */\n      0x00\n        /* \"#utility.yul\":632:638   */\n      dup1\n        /* \"#utility.yul\":686:689   */\n      dup4\n        /* \"#utility.yul\":679:683   */\n      0x1f\n        /* \"#utility.yul\":671:677   */\n      dup5\n        /* \"#utility.yul\":667:684   */\n      add\n        /* \"#utility.yul\":663:690   */\n      slt\n        /* \"#utility.yul\":653:708   */\n      tag_646\n      jumpi\n        /* \"#utility.yul\":704:705   */\n      0x00\n        /* \"#utility.yul\":701:702   */\n      dup1\n        /* \"#utility.yul\":694:706   */\n      revert\n        /* \"#utility.yul\":653:708   */\n    tag_646:\n      pop\n        /* \"#utility.yul\":727:747   */\n      dup2\n      calldataload\n        /* \"#utility.yul\":770:788   */\n      0xffffffffffffffff\n        /* \"#utility.yul\":759:789   */\n      dup2\n      gt\n        /* \"#utility.yul\":756:806   */\n      iszero\n      tag_647\n      jumpi\n        /* \"#utility.yul\":802:803   */\n      0x00\n        /* \"#utility.yul\":799:800   */\n      dup1\n        /* \"#utility.yul\":792:804   */\n      revert\n        /* \"#utility.yul\":756:806   */\n    tag_647:\n        /* \"#utility.yul\":839:843   */\n      0x20\n        /* \"#utility.yul\":831:837   */\n      dup4\n        /* \"#utility.yul\":827:844   */\n      add\n        /* \"#utility.yul\":815:844   */\n      swap2\n      pop\n        /* \"#utility.yul\":891:894   */\n      dup4\n        /* \"#utility.yul\":884:888   */\n      0x20\n        /* \"#utility.yul\":875:881   */\n      dup3\n        /* \"#utility.yul\":867:873   */\n      dup6\n        /* \"#utility.yul\":863:882   */\n      add\n        /* \"#utility.yul\":859:889   */\n      add\n        /* \"#utility.yul\":856:895   */\n      gt\n        /* \"#utility.yul\":853:912   */\n      iszero\n      tag_644\n      jumpi\n        /* \"#utility.yul\":908:909   */\n      0x00\n        /* \"#utility.yul\":905:906   */\n      dup1\n        /* \"#utility.yul\":898:910   */\n      revert\n        /* \"#utility.yul\":923:2052   */\n    tag_47:\n        /* \"#utility.yul\":1074:1080   */\n      0x00\n        /* \"#utility.yul\":1082:1088   */\n      dup1\n        /* \"#utility.yul\":1090:1096   */\n      0x00\n        /* \"#utility.yul\":1098:1104   */\n      dup1\n        /* \"#utility.yul\":1106:1112   */\n      0x00\n        /* \"#utility.yul\":1114:1120   */\n      dup1\n        /* \"#utility.yul\":1122:1128   */\n      0x00\n        /* \"#utility.yul\":1175:1178   */\n      0x80\n        /* \"#utility.yul\":1163:1172   */\n      dup9\n        /* \"#utility.yul\":1154:1161   */\n      dup11\n        /* \"#utility.yul\":1150:1173   */\n      sub\n        /* \"#utility.yul\":1146:1179   */\n      slt\n        /* \"#utility.yul\":1143:1196   */\n      iszero\n      tag_650\n      jumpi\n        /* \"#utility.yul\":1192:1193   */\n      0x00\n        /* \"#utility.yul\":1189:1190   */\n      dup1\n        /* \"#utility.yul\":1182:1194   */\n      revert\n        /* \"#utility.yul\":1143:1196   */\n    tag_650:\n        /* \"#utility.yul\":1232:1241   */\n      dup8\n        /* \"#utility.yul\":1219:1242   */\n      calldataload\n        /* \"#utility.yul\":1261:1279   */\n      0xffffffffffffffff\n        /* \"#utility.yul\":1302:1304   */\n      dup1\n        /* \"#utility.yul\":1294:1300   */\n      dup3\n        /* \"#utility.yul\":1291:1305   */\n      gt\n        /* \"#utility.yul\":1288:1322   */\n      iszero\n      tag_651\n      jumpi\n        /* \"#utility.yul\":1318:1319   */\n      0x00\n        /* \"#utility.yul\":1315:1316   */\n      dup1\n        /* \"#utility.yul\":1308:1320   */\n      revert\n        /* \"#utility.yul\":1288:1322   */\n    tag_651:\n        /* \"#utility.yul\":1357:1427   */\n      tag_652\n        /* \"#utility.yul\":1419:1426   */\n      dup12\n        /* \"#utility.yul\":1410:1416   */\n      dup4\n        /* \"#utility.yul\":1399:1408   */\n      dup13\n        /* \"#utility.yul\":1395:1417   */\n      add\n        /* \"#utility.yul\":1357:1427   */\n      tag_632\n      jump\t// in\n    tag_652:\n        /* \"#utility.yul\":1446:1454   */\n      swap1\n      swap10\n      pop\n        /* \"#utility.yul\":1331:1427   */\n      swap8\n      pop\n        /* \"#utility.yul\":1534:1536   */\n      0x20\n        /* \"#utility.yul\":1519:1537   */\n      dup11\n      add\n        /* \"#utility.yul\":1506:1538   */\n      calldataload\n      swap2\n      pop\n        /* \"#utility.yul\":1550:1566   */\n      dup1\n      dup3\n      gt\n        /* \"#utility.yul\":1547:1583   */\n      iszero\n      tag_653\n      jumpi\n        /* \"#utility.yul\":1579:1580   */\n      0x00\n        /* \"#utility.yul\":1576:1577   */\n      dup1\n        /* \"#utility.yul\":1569:1581   */\n      revert\n        /* \"#utility.yul\":1547:1583   */\n    tag_653:\n        /* \"#utility.yul\":1618:1690   */\n      tag_654\n        /* \"#utility.yul\":1682:1689   */\n      dup12\n        /* \"#utility.yul\":1671:1679   */\n      dup4\n        /* \"#utility.yul\":1660:1669   */\n      dup13\n        /* \"#utility.yul\":1656:1680   */\n      add\n        /* \"#utility.yul\":1618:1690   */\n      tag_632\n      jump\t// in\n    tag_654:\n        /* \"#utility.yul\":1709:1717   */\n      swap1\n      swap8\n      pop\n        /* \"#utility.yul\":1592:1690   */\n      swap6\n      pop\n        /* \"#utility.yul\":1791:1793   */\n      0x40\n        /* \"#utility.yul\":1776:1794   */\n      dup11\n      add\n        /* \"#utility.yul\":1763:1795   */\n      calldataload\n      swap5\n      pop\n        /* \"#utility.yul\":1848:1850   */\n      0x60\n        /* \"#utility.yul\":1833:1851   */\n      dup11\n      add\n        /* \"#utility.yul\":1820:1852   */\n      calldataload\n      swap2\n      pop\n        /* \"#utility.yul\":1864:1880   */\n      dup1\n      dup3\n      gt\n        /* \"#utility.yul\":1861:1897   */\n      iszero\n      tag_655\n      jumpi\n        /* \"#utility.yul\":1893:1894   */\n      0x00\n        /* \"#utility.yul\":1890:1891   */\n      dup1\n        /* \"#utility.yul\":1883:1895   */\n      revert\n        /* \"#utility.yul\":1861:1897   */\n    tag_655:\n      pop\n        /* \"#utility.yul\":1932:1992   */\n      tag_656\n        /* \"#utility.yul\":1984:1991   */\n      dup11\n        /* \"#utility.yul\":1973:1981   */\n      dup3\n        /* \"#utility.yul\":1962:1971   */\n      dup12\n        /* \"#utility.yul\":1958:1982   */\n      add\n        /* \"#utility.yul\":1932:1992   */\n      tag_633\n      jump\t// in\n    tag_656:\n        /* \"#utility.yul\":923:2052   */\n      swap9\n      swap12\n      swap8\n      swap11\n      pop\n      swap6\n      swap9\n      pop\n      swap4\n      swap7\n      swap3\n      swap6\n        /* \"#utility.yul\":1906:1992   */\n      swap3\n      swap4\n      pop\n      pop\n      pop\n        /* \"#utility.yul\":923:2052   */\n      jump\t// out\n        /* \"#utility.yul\":2057:2188   */\n    tag_634:\n      sub(shl(0xa0, 0x01), 0x01)\n        /* \"#utility.yul\":2132:2163   */\n      dup2\n      and\n        /* \"#utility.yul\":2122:2164   */\n      dup2\n      eq\n        /* \"#utility.yul\":2112:2182   */\n      tag_415\n      jumpi\n        /* \"#utility.yul\":2178:2179   */\n      0x00\n        /* \"#utility.yul\":2175:2176   */\n      dup1\n        /* \"#utility.yul\":2168:2180   */\n      revert\n        /* \"#utility.yul\":2193:2440   */\n    tag_52:\n        /* \"#utility.yul\":2252:2258   */\n      0x00\n        /* \"#utility.yul\":2305:2307   */\n      0x20\n        /* \"#utility.yul\":2293:2302   */\n      dup3\n        /* \"#utility.yul\":2284:2291   */\n      dup5\n        /* \"#utility.yul\":2280:2303   */\n      sub\n        /* \"#utility.yul\":2276:2308   */\n      slt\n        /* \"#utility.yul\":2273:2325   */\n      iszero\n      tag_660\n      jumpi\n        /* \"#utility.yul\":2321:2322   */\n      0x00\n        /* \"#utility.yul\":2318:2319   */\n      dup1\n        /* \"#utility.yul\":2311:2323   */\n      revert\n        /* \"#utility.yul\":2273:2325   */\n    tag_660:\n        /* \"#utility.yul\":2360:2369   */\n      dup2\n        /* \"#utility.yul\":2347:2370   */\n      calldataload\n        /* \"#utility.yul\":2379:2410   */\n      tag_625\n        /* \"#utility.yul\":2404:2409   */\n      dup2\n        /* \"#utility.yul\":2379:2410   */\n      tag_634\n      jump\t// in\n        /* \"#utility.yul\":2445:2916   */\n    tag_57:\n        /* \"#utility.yul\":2537:2543   */\n      0x00\n        /* \"#utility.yul\":2545:2551   */\n      dup1\n        /* \"#utility.yul\":2553:2559   */\n      0x00\n        /* \"#utility.yul\":2606:2608   */\n      0x60\n        /* \"#utility.yul\":2594:2603   */\n      dup5\n        /* \"#utility.yul\":2585:2592   */\n      dup7\n        /* \"#utility.yul\":2581:2604   */\n      sub\n        /* \"#utility.yul\":2577:2609   */\n      slt\n        /* \"#utility.yul\":2574:2626   */\n      iszero\n      tag_663\n      jumpi\n        /* \"#utility.yul\":2622:2623   */\n      0x00\n        /* \"#utility.yul\":2619:2620   */\n      dup1\n        /* \"#utility.yul\":2612:2624   */\n      revert\n        /* \"#utility.yul\":2574:2626   */\n    tag_663:\n        /* \"#utility.yul\":2661:2670   */\n      dup4\n        /* \"#utility.yul\":2648:2671   */\n      calldataload\n        /* \"#utility.yul\":2680:2711   */\n      tag_664\n        /* \"#utility.yul\":2705:2710   */\n      dup2\n        /* \"#utility.yul\":2680:2711   */\n      tag_634\n      jump\t// in\n    tag_664:\n        /* \"#utility.yul\":2730:2735   */\n      swap3\n      pop\n        /* \"#utility.yul\":2787:2789   */\n      0x20\n        /* \"#utility.yul\":2772:2790   */\n      dup5\n      add\n        /* \"#utility.yul\":2759:2791   */\n      calldataload\n        /* \"#utility.yul\":2800:2833   */\n      tag_665\n        /* \"#utility.yul\":2759:2791   */\n      dup2\n        /* \"#utility.yul\":2800:2833   */\n      tag_634\n      jump\t// in\n    tag_665:\n        /* \"#utility.yul\":2445:2916   */\n      swap3\n      swap6\n        /* \"#utility.yul\":2852:2859   */\n      swap3\n      swap5\n      pop\n      pop\n      pop\n        /* \"#utility.yul\":2906:2908   */\n      0x40\n        /* \"#utility.yul\":2891:2909   */\n      swap2\n      swap1\n      swap2\n      add\n        /* \"#utility.yul\":2878:2910   */\n      calldataload\n      swap1\n        /* \"#utility.yul\":2445:2916   */\n      jump\t// out\n        /* \"#utility.yul\":3326:3453   */\n    tag_635:\n        /* \"#utility.yul\":3387:3397   */\n      0x4e487b71\n        /* \"#utility.yul\":3382:3385   */\n      0xe0\n        /* \"#utility.yul\":3378:3398   */\n      shl\n        /* \"#utility.yul\":3375:3376   */\n      0x00\n        /* \"#utility.yul\":3368:3399   */\n      mstore\n        /* \"#utility.yul\":3418:3422   */\n      0x41\n        /* \"#utility.yul\":3415:3416   */\n      0x04\n        /* \"#utility.yul\":3408:3423   */\n      mstore\n        /* \"#utility.yul\":3442:3446   */\n      0x24\n        /* \"#utility.yul\":3439:3440   */\n      0x00\n        /* \"#utility.yul\":3432:3447   */\n      revert\n        /* \"#utility.yul\":3458:4514   */\n    tag_75:\n        /* \"#utility.yul\":3535:3541   */\n      0x00\n        /* \"#utility.yul\":3543:3549   */\n      dup1\n        /* \"#utility.yul\":3596:3598   */\n      0x40\n        /* \"#utility.yul\":3584:3593   */\n      dup4\n        /* \"#utility.yul\":3575:3582   */\n      dup6\n        /* \"#utility.yul\":3571:3594   */\n      sub\n        /* \"#utility.yul\":3567:3599   */\n      slt\n        /* \"#utility.yul\":3564:3616   */\n      iszero\n      tag_670\n      jumpi\n        /* \"#utility.yul\":3612:3613   */\n      0x00\n        /* \"#utility.yul\":3609:3610   */\n      dup1\n        /* \"#utility.yul\":3602:3614   */\n      revert\n        /* \"#utility.yul\":3564:3616   */\n    tag_670:\n        /* \"#utility.yul\":3651:3660   */\n      dup3\n        /* \"#utility.yul\":3638:3661   */\n      calldataload\n        /* \"#utility.yul\":3670:3701   */\n      tag_671\n        /* \"#utility.yul\":3695:3700   */\n      dup2\n        /* \"#utility.yul\":3670:3701   */\n      tag_634\n      jump\t// in\n    tag_671:\n        /* \"#utility.yul\":3720:3725   */\n      swap2\n      pop\n        /* \"#utility.yul\":3776:3778   */\n      0x20\n        /* \"#utility.yul\":3761:3779   */\n      dup4\n      add\n        /* \"#utility.yul\":3748:3780   */\n      calldataload\n        /* \"#utility.yul\":3799:3817   */\n      0xffffffffffffffff\n        /* \"#utility.yul\":3829:3843   */\n      dup1\n      dup3\n      gt\n        /* \"#utility.yul\":3826:3860   */\n      iszero\n      tag_672\n      jumpi\n        /* \"#utility.yul\":3856:3857   */\n      0x00\n        /* \"#utility.yul\":3853:3854   */\n      dup1\n        /* \"#utility.yul\":3846:3858   */\n      revert\n        /* \"#utility.yul\":3826:3860   */\n    tag_672:\n        /* \"#utility.yul\":3894:3900   */\n      dup2\n        /* \"#utility.yul\":3883:3892   */\n      dup6\n        /* \"#utility.yul\":3879:3901   */\n      add\n        /* \"#utility.yul\":3869:3901   */\n      swap2\n      pop\n        /* \"#utility.yul\":3939:3946   */\n      dup6\n        /* \"#utility.yul\":3932:3936   */\n      0x1f\n        /* \"#utility.yul\":3928:3930   */\n      dup4\n        /* \"#utility.yul\":3924:3937   */\n      add\n        /* \"#utility.yul\":3920:3947   */\n      slt\n        /* \"#utility.yul\":3910:3965   */\n      tag_673\n      jumpi\n        /* \"#utility.yul\":3961:3962   */\n      0x00\n        /* \"#utility.yul\":3958:3959   */\n      dup1\n        /* \"#utility.yul\":3951:3963   */\n      revert\n        /* \"#utility.yul\":3910:3965   */\n    tag_673:\n        /* \"#utility.yul\":3997:3999   */\n      dup2\n        /* \"#utility.yul\":3984:4000   */\n      calldataload\n        /* \"#utility.yul\":4019:4021   */\n      dup2\n        /* \"#utility.yul\":4015:4017   */\n      dup2\n        /* \"#utility.yul\":4012:4022   */\n      gt\n        /* \"#utility.yul\":4009:4045   */\n      iszero\n      tag_675\n      jumpi\n        /* \"#utility.yul\":4025:4043   */\n      tag_675\n      tag_635\n      jump\t// in\n    tag_675:\n        /* \"#utility.yul\":4100:4102   */\n      0x40\n        /* \"#utility.yul\":4094:4103   */\n      mload\n        /* \"#utility.yul\":4068:4070   */\n      0x1f\n        /* \"#utility.yul\":4154:4167   */\n      dup3\n      add\n      not(0x1f)\n        /* \"#utility.yul\":4150:4172   */\n      swap1\n      dup2\n      and\n        /* \"#utility.yul\":4174:4176   */\n      0x3f\n        /* \"#utility.yul\":4146:4177   */\n      add\n        /* \"#utility.yul\":4142:4182   */\n      and\n        /* \"#utility.yul\":4130:4183   */\n      dup2\n      add\n      swap1\n        /* \"#utility.yul\":4198:4216   */\n      dup4\n      dup3\n      gt\n        /* \"#utility.yul\":4218:4240   */\n      dup2\n      dup4\n      lt\n        /* \"#utility.yul\":4195:4241   */\n      or\n        /* \"#utility.yul\":4192:4264   */\n      iszero\n      tag_677\n      jumpi\n        /* \"#utility.yul\":4244:4262   */\n      tag_677\n      tag_635\n      jump\t// in\n    tag_677:\n        /* \"#utility.yul\":4284:4294   */\n      dup2\n        /* \"#utility.yul\":4280:4282   */\n      0x40\n        /* \"#utility.yul\":4273:4295   */\n      mstore\n        /* \"#utility.yul\":4319:4321   */\n      dup3\n        /* \"#utility.yul\":4311:4317   */\n      dup2\n        /* \"#utility.yul\":4304:4322   */\n      mstore\n        /* \"#utility.yul\":4359:4366   */\n      dup9\n        /* \"#utility.yul\":4354:4356   */\n      0x20\n        /* \"#utility.yul\":4349:4351   */\n      dup5\n        /* \"#utility.yul\":4345:4347   */\n      dup8\n        /* \"#utility.yul\":4341:4352   */\n      add\n        /* \"#utility.yul\":4337:4357   */\n      add\n        /* \"#utility.yul\":4334:4367   */\n      gt\n        /* \"#utility.yul\":4331:4384   */\n      iszero\n      tag_678\n      jumpi\n        /* \"#utility.yul\":4380:4381   */\n      0x00\n        /* \"#utility.yul\":4377:4378   */\n      dup1\n        /* \"#utility.yul\":4370:4382   */\n      revert\n        /* \"#utility.yul\":4331:4384   */\n    tag_678:\n        /* \"#utility.yul\":4436:4438   */\n      dup3\n        /* \"#utility.yul\":4431:4433   */\n      0x20\n        /* \"#utility.yul\":4427:4429   */\n      dup7\n        /* \"#utility.yul\":4423:4434   */\n      add\n        /* \"#utility.yul\":4418:4420   */\n      0x20\n        /* \"#utility.yul\":4410:4416   */\n      dup4\n        /* \"#utility.yul\":4406:4421   */\n      add\n        /* \"#utility.yul\":4393:4439   */\n      calldatacopy\n        /* \"#utility.yul\":4481:4482   */\n      0x00\n        /* \"#utility.yul\":4476:4478   */\n      0x20\n        /* \"#utility.yul\":4471:4473   */\n      dup5\n        /* \"#utility.yul\":4463:4469   */\n      dup4\n        /* \"#utility.yul\":4459:4474   */\n      add\n        /* \"#utility.yul\":4455:4479   */\n      add\n        /* \"#utility.yul\":4448:4483   */\n      mstore\n        /* \"#utility.yul\":4502:4508   */\n      dup1\n        /* \"#utility.yul\":4492:4508   */\n      swap6\n      pop\n      pop\n      pop\n      pop\n      pop\n      pop\n        /* \"#utility.yul\":3458:4514   */\n      swap3\n      pop\n      swap3\n      swap1\n      pop\n      jump\t// out\n        /* \"#utility.yul\":4893:5438   */\n    tag_95:\n        /* \"#utility.yul\":4981:4987   */\n      0x00\n        /* \"#utility.yul\":4989:4995   */\n      dup1\n        /* \"#utility.yul\":4997:5003   */\n      0x00\n        /* \"#utility.yul\":5005:5011   */\n      dup1\n        /* \"#utility.yul\":5058:5060   */\n      0x60\n        /* \"#utility.yul\":5046:5055   */\n      dup6\n        /* \"#utility.yul\":5037:5044   */\n      dup8\n        /* \"#utility.yul\":5033:5056   */\n      sub\n        /* \"#utility.yul\":5029:5061   */\n      slt\n        /* \"#utility.yul\":5026:5078   */\n      iszero\n      tag_682\n      jumpi\n        /* \"#utility.yul\":5074:5075   */\n      0x00\n        /* \"#utility.yul\":5071:5072   */\n      dup1\n        /* \"#utility.yul\":5064:5076   */\n      revert\n        /* \"#utility.yul\":5026:5078   */\n    tag_682:\n        /* \"#utility.yul\":5110:5119   */\n      dup5\n        /* \"#utility.yul\":5097:5120   */\n      calldataload\n        /* \"#utility.yul\":5087:5120   */\n      swap4\n      pop\n        /* \"#utility.yul\":5167:5169   */\n      0x20\n        /* \"#utility.yul\":5156:5165   */\n      dup6\n        /* \"#utility.yul\":5152:5170   */\n      add\n        /* \"#utility.yul\":5139:5171   */\n      calldataload\n        /* \"#utility.yul\":5129:5171   */\n      swap3\n      pop\n        /* \"#utility.yul\":5222:5224   */\n      0x40\n        /* \"#utility.yul\":5211:5220   */\n      dup6\n        /* \"#utility.yul\":5207:5225   */\n      add\n        /* \"#utility.yul\":5194:5226   */\n      calldataload\n        /* \"#utility.yul\":5249:5267   */\n      0xffffffffffffffff\n        /* \"#utility.yul\":5241:5247   */\n      dup2\n        /* \"#utility.yul\":5238:5268   */\n      gt\n        /* \"#utility.yul\":5235:5285   */\n      iszero\n      tag_683\n      jumpi\n        /* \"#utility.yul\":5281:5282   */\n      0x00\n        /* \"#utility.yul\":5278:5279   */\n      dup1\n        /* \"#utility.yul\":5271:5283   */\n      revert\n        /* \"#utility.yul\":5235:5285   */\n    tag_683:\n        /* \"#utility.yul\":5320:5378   */\n      tag_684\n        /* \"#utility.yul\":5370:5377   */\n      dup8\n        /* \"#utility.yul\":5361:5367   */\n      dup3\n        /* \"#utility.yul\":5350:5359   */\n      dup9\n        /* \"#utility.yul\":5346:5368   */\n      add\n        /* \"#utility.yul\":5320:5378   */\n      tag_633\n      jump\t// in\n    tag_684:\n        /* \"#utility.yul\":4893:5438   */\n      swap6\n      swap9\n      swap5\n      swap8\n      pop\n        /* \"#utility.yul\":5397:5405   */\n      swap6\n      pop\n      pop\n      pop\n      pop\n        /* \"#utility.yul\":4893:5438   */\n      jump\t// out\n        /* \"#utility.yul\":5443:5826   */\n    tag_100:\n        /* \"#utility.yul\":5520:5526   */\n      0x00\n        /* \"#utility.yul\":5528:5534   */\n      dup1\n        /* \"#utility.yul\":5536:5542   */\n      0x00\n        /* \"#utility.yul\":5589:5591   */\n      0x60\n        /* \"#utility.yul\":5577:5586   */\n      dup5\n        /* \"#utility.yul\":5568:5575   */\n      dup7\n        /* \"#utility.yul\":5564:5587   */\n      sub\n        /* \"#utility.yul\":5560:5592   */\n      slt\n        /* \"#utility.yul\":5557:5609   */\n      iszero\n      tag_686\n      jumpi\n        /* \"#utility.yul\":5605:5606   */\n      0x00\n        /* \"#utility.yul\":5602:5603   */\n      dup1\n        /* \"#utility.yul\":5595:5607   */\n      revert\n        /* \"#utility.yul\":5557:5609   */\n    tag_686:\n        /* \"#utility.yul\":5644:5653   */\n      dup4\n        /* \"#utility.yul\":5631:5654   */\n      calldataload\n        /* \"#utility.yul\":5663:5694   */\n      tag_687\n        /* \"#utility.yul\":5688:5693   */\n      dup2\n        /* \"#utility.yul\":5663:5694   */\n      tag_634\n      jump\t// in\n    tag_687:\n        /* \"#utility.yul\":5713:5718   */\n      swap6\n        /* \"#utility.yul\":5765:5767   */\n      0x20\n        /* \"#utility.yul\":5750:5768   */\n      dup6\n      add\n        /* \"#utility.yul\":5737:5769   */\n      calldataload\n      swap6\n      pop\n        /* \"#utility.yul\":5816:5818   */\n      0x40\n        /* \"#utility.yul\":5801:5819   */\n      swap1\n      swap5\n      add\n        /* \"#utility.yul\":5788:5820   */\n      calldataload\n      swap4\n        /* \"#utility.yul\":5443:5826   */\n      swap3\n      pop\n      pop\n      pop\n      jump\t// out\n        /* \"#utility.yul\":6039:6457   */\n    tag_125:\n        /* \"#utility.yul\":6188:6190   */\n      0x20\n        /* \"#utility.yul\":6177:6186   */\n      dup2\n        /* \"#utility.yul\":6170:6191   */\n      mstore\n        /* \"#utility.yul\":6151:6155   */\n      0x00\n        /* \"#utility.yul\":6220:6226   */\n      dup3\n        /* \"#utility.yul\":6214:6227   */\n      mload\n        /* \"#utility.yul\":6263:6269   */\n      dup1\n        /* \"#utility.yul\":6258:6260   */\n      0x20\n        /* \"#utility.yul\":6247:6256   */\n      dup5\n        /* \"#utility.yul\":6243:6261   */\n      add\n        /* \"#utility.yul\":6236:6270   */\n      mstore\n        /* \"#utility.yul\":6322:6328   */\n      dup1\n        /* \"#utility.yul\":6317:6319   */\n      0x20\n        /* \"#utility.yul\":6309:6315   */\n      dup6\n        /* \"#utility.yul\":6305:6320   */\n      add\n        /* \"#utility.yul\":6300:6302   */\n      0x40\n        /* \"#utility.yul\":6289:6298   */\n      dup6\n        /* \"#utility.yul\":6285:6303   */\n      add\n        /* \"#utility.yul\":6279:6329   */\n      mcopy\n        /* \"#utility.yul\":6378:6379   */\n      0x00\n        /* \"#utility.yul\":6373:6375   */\n      0x40\n        /* \"#utility.yul\":6364:6370   */\n      dup3\n        /* \"#utility.yul\":6353:6362   */\n      dup6\n        /* \"#utility.yul\":6349:6371   */\n      add\n        /* \"#utility.yul\":6345:6376   */\n      add\n        /* \"#utility.yul\":6338:6380   */\n      mstore\n        /* \"#utility.yul\":6448:6450   */\n      0x40\n        /* \"#utility.yul\":6441:6443   */\n      0x1f\n        /* \"#utility.yul\":6437:6444   */\n      not\n        /* \"#utility.yul\":6432:6434   */\n      0x1f\n        /* \"#utility.yul\":6424:6430   */\n      dup4\n        /* \"#utility.yul\":6420:6435   */\n      add\n        /* \"#utility.yul\":6416:6445   */\n      and\n        /* \"#utility.yul\":6405:6414   */\n      dup5\n        /* \"#utility.yul\":6401:6446   */\n      add\n        /* \"#utility.yul\":6397:6451   */\n      add\n        /* \"#utility.yul\":6389:6451   */\n      swap2\n      pop\n      pop\n        /* \"#utility.yul\":6039:6457   */\n      swap3\n      swap2\n      pop\n      pop\n      jump\t// out\n        /* \"#utility.yul\":6462:7235   */\n    tag_138:\n        /* \"#utility.yul\":6584:6590   */\n      0x00\n        /* \"#utility.yul\":6592:6598   */\n      dup1\n        /* \"#utility.yul\":6600:6606   */\n      0x00\n        /* \"#utility.yul\":6608:6614   */\n      dup1\n        /* \"#utility.yul\":6661:6663   */\n      0x40\n        /* \"#utility.yul\":6649:6658   */\n      dup6\n        /* \"#utility.yul\":6640:6647   */\n      dup8\n        /* \"#utility.yul\":6636:6659   */\n      sub\n        /* \"#utility.yul\":6632:6664   */\n      slt\n        /* \"#utility.yul\":6629:6681   */\n      iszero\n      tag_691\n      jumpi\n        /* \"#utility.yul\":6677:6678   */\n      0x00\n        /* \"#utility.yul\":6674:6675   */\n      dup1\n        /* \"#utility.yul\":6667:6679   */\n      revert\n        /* \"#utility.yul\":6629:6681   */\n    tag_691:\n        /* \"#utility.yul\":6717:6726   */\n      dup5\n        /* \"#utility.yul\":6704:6727   */\n      calldataload\n        /* \"#utility.yul\":6746:6764   */\n      0xffffffffffffffff\n        /* \"#utility.yul\":6787:6789   */\n      dup1\n        /* \"#utility.yul\":6779:6785   */\n      dup3\n        /* \"#utility.yul\":6776:6790   */\n      gt\n        /* \"#utility.yul\":6773:6807   */\n      iszero\n      tag_692\n      jumpi\n        /* \"#utility.yul\":6803:6804   */\n      0x00\n        /* \"#utility.yul\":6800:6801   */\n      dup1\n        /* \"#utility.yul\":6793:6805   */\n      revert\n        /* \"#utility.yul\":6773:6807   */\n    tag_692:\n        /* \"#utility.yul\":6842:6912   */\n      tag_693\n        /* \"#utility.yul\":6904:6911   */\n      dup9\n        /* \"#utility.yul\":6895:6901   */\n      dup4\n        /* \"#utility.yul\":6884:6893   */\n      dup10\n        /* \"#utility.yul\":6880:6902   */\n      add\n        /* \"#utility.yul\":6842:6912   */\n      tag_632\n      jump\t// in\n    tag_693:\n        /* \"#utility.yul\":6931:6939   */\n      swap1\n      swap7\n      pop\n        /* \"#utility.yul\":6816:6912   */\n      swap5\n      pop\n        /* \"#utility.yul\":7019:7021   */\n      0x20\n        /* \"#utility.yul\":7004:7022   */\n      dup8\n      add\n        /* \"#utility.yul\":6991:7023   */\n      calldataload\n      swap2\n      pop\n        /* \"#utility.yul\":7035:7051   */\n      dup1\n      dup3\n      gt\n        /* \"#utility.yul\":7032:7068   */\n      iszero\n      tag_694\n      jumpi\n        /* \"#utility.yul\":7064:7065   */\n      0x00\n        /* \"#utility.yul\":7061:7062   */\n      dup1\n        /* \"#utility.yul\":7054:7066   */\n      revert\n        /* \"#utility.yul\":7032:7068   */\n    tag_694:\n      pop\n        /* \"#utility.yul\":7103:7175   */\n      tag_684\n        /* \"#utility.yul\":7167:7174   */\n      dup8\n        /* \"#utility.yul\":7156:7164   */\n      dup3\n        /* \"#utility.yul\":7145:7154   */\n      dup9\n        /* \"#utility.yul\":7141:7165   */\n      add\n        /* \"#utility.yul\":7103:7175   */\n      tag_632\n      jump\t// in\n        /* \"#utility.yul\":7240:7358   */\n    tag_636:\n        /* \"#utility.yul\":7326:7331   */\n      dup1\n        /* \"#utility.yul\":7319:7332   */\n      iszero\n        /* \"#utility.yul\":7312:7333   */\n      iszero\n        /* \"#utility.yul\":7305:7310   */\n      dup2\n        /* \"#utility.yul\":7302:7334   */\n      eq\n        /* \"#utility.yul\":7292:7352   */\n      tag_415\n      jumpi\n        /* \"#utility.yul\":7348:7349   */\n      0x00\n        /* \"#utility.yul\":7345:7346   */\n      dup1\n        /* \"#utility.yul\":7338:7350   */\n      revert\n        /* \"#utility.yul\":7363:7672   */\n    tag_143:\n        /* \"#utility.yul\":7428:7434   */\n      0x00\n        /* \"#utility.yul\":7436:7442   */\n      dup1\n        /* \"#utility.yul\":7489:7491   */\n      0x40\n        /* \"#utility.yul\":7477:7486   */\n      dup4\n        /* \"#utility.yul\":7468:7475   */\n      dup6\n        /* \"#utility.yul\":7464:7487   */\n      sub\n        /* \"#utility.yul\":7460:7492   */\n      slt\n        /* \"#utility.yul\":7457:7509   */\n      iszero\n      tag_699\n      jumpi\n        /* \"#utility.yul\":7505:7506   */\n      0x00\n        /* \"#utility.yul\":7502:7503   */\n      dup1\n        /* \"#utility.yul\":7495:7507   */\n      revert\n        /* \"#utility.yul\":7457:7509   */\n    tag_699:\n        /* \"#utility.yul\":7541:7550   */\n      dup3\n        /* \"#utility.yul\":7528:7551   */\n      calldataload\n        /* \"#utility.yul\":7518:7551   */\n      swap2\n      pop\n        /* \"#utility.yul\":7601:7603   */\n      0x20\n        /* \"#utility.yul\":7590:7599   */\n      dup4\n        /* \"#utility.yul\":7586:7604   */\n      add\n        /* \"#utility.yul\":7573:7605   */\n      calldataload\n        /* \"#utility.yul\":7614:7642   */\n      tag_700\n        /* \"#utility.yul\":7636:7641   */\n      dup2\n        /* \"#utility.yul\":7614:7642   */\n      tag_636\n      jump\t// in\n    tag_700:\n        /* \"#utility.yul\":7661:7666   */\n      dup1\n        /* \"#utility.yul\":7651:7666   */\n      swap2\n      pop\n      pop\n        /* \"#utility.yul\":7363:7672   */\n      swap3\n      pop\n      swap3\n      swap1\n      pop\n      jump\t// out\n        /* \"#utility.yul\":7677:7992   */\n    tag_148:\n        /* \"#utility.yul\":7745:7751   */\n      0x00\n        /* \"#utility.yul\":7753:7759   */\n      dup1\n        /* \"#utility.yul\":7806:7808   */\n      0x40\n        /* \"#utility.yul\":7794:7803   */\n      dup4\n        /* \"#utility.yul\":7785:7792   */\n      dup6\n        /* \"#utility.yul\":7781:7804   */\n      sub\n        /* \"#utility.yul\":7777:7809   */\n      slt\n        /* \"#utility.yul\":7774:7826   */\n      iszero\n      tag_702\n      jumpi\n        /* \"#utility.yul\":7822:7823   */\n      0x00\n        /* \"#utility.yul\":7819:7820   */\n      dup1\n        /* \"#utility.yul\":7812:7824   */\n      revert\n        /* \"#utility.yul\":7774:7826   */\n    tag_702:\n        /* \"#utility.yul\":7858:7867   */\n      dup3\n        /* \"#utility.yul\":7845:7868   */\n      calldataload\n        /* \"#utility.yul\":7835:7868   */\n      swap2\n      pop\n        /* \"#utility.yul\":7918:7920   */\n      0x20\n        /* \"#utility.yul\":7907:7916   */\n      dup4\n        /* \"#utility.yul\":7903:7921   */\n      add\n        /* \"#utility.yul\":7890:7922   */\n      calldataload\n        /* \"#utility.yul\":7931:7962   */\n      tag_700\n        /* \"#utility.yul\":7956:7961   */\n      dup2\n        /* \"#utility.yul\":7931:7962   */\n      tag_634\n      jump\t// in\n        /* \"#utility.yul\":8182:8580   */\n    tag_182:\n        /* \"#utility.yul\":8384:8386   */\n      0x20\n        /* \"#utility.yul\":8366:8387   */\n      dup1\n      dup3\n      mstore\n        /* \"#utility.yul\":8423:8425   */\n      0x22\n        /* \"#utility.yul\":8403:8421   */\n      swap1\n      dup3\n      add\n        /* \"#utility.yul\":8396:8426   */\n      mstore\n        /* \"#utility.yul\":8462:8496   */\n      0x4f6e6c792061646d696e2063616e20706572666f726d20746869732061637469\n        /* \"#utility.yul\":8457:8459   */\n      0x40\n        /* \"#utility.yul\":8442:8460   */\n      dup3\n      add\n        /* \"#utility.yul\":8435:8497   */\n      mstore\n      shl(0xf1, 0x37b7)\n        /* \"#utility.yul\":8528:8530   */\n      0x60\n        /* \"#utility.yul\":8513:8531   */\n      dup3\n      add\n        /* \"#utility.yul\":8506:8538   */\n      mstore\n        /* \"#utility.yul\":8570:8573   */\n      0x80\n        /* \"#utility.yul\":8555:8574   */\n      add\n      swap1\n        /* \"#utility.yul\":8182:8580   */\n      jump\t// out\n        /* \"#utility.yul\":9221:9466   */\n    tag_196:\n        /* \"#utility.yul\":9288:9294   */\n      0x00\n        /* \"#utility.yul\":9341:9343   */\n      0x20\n        /* \"#utility.yul\":9329:9338   */\n      dup3\n        /* \"#utility.yul\":9320:9327   */\n      dup5\n        /* \"#utility.yul\":9316:9339   */\n      sub\n        /* \"#utility.yul\":9312:9344   */\n      slt\n        /* \"#utility.yul\":9309:9361   */\n      iszero\n      tag_710\n      jumpi\n        /* \"#utility.yul\":9357:9358   */\n      0x00\n        /* \"#utility.yul\":9354:9355   */\n      dup1\n        /* \"#utility.yul\":9347:9359   */\n      revert\n        /* \"#utility.yul\":9309:9361   */\n    tag_710:\n        /* \"#utility.yul\":9389:9398   */\n      dup2\n        /* \"#utility.yul\":9383:9399   */\n      mload\n        /* \"#utility.yul\":9408:9436   */\n      tag_625\n        /* \"#utility.yul\":9430:9435   */\n      dup2\n        /* \"#utility.yul\":9408:9436   */\n      tag_636\n      jump\t// in\n        /* \"#utility.yul\":9471:9810   */\n    tag_199:\n        /* \"#utility.yul\":9673:9675   */\n      0x20\n        /* \"#utility.yul\":9655:9676   */\n      dup1\n      dup3\n      mstore\n        /* \"#utility.yul\":9712:9714   */\n      0x0f\n        /* \"#utility.yul\":9692:9710   */\n      swap1\n      dup3\n      add\n        /* \"#utility.yul\":9685:9715   */\n      mstore\n      shl(0x8a, 0x151c985b9cd9995c8819985a5b1959)\n        /* \"#utility.yul\":9746:9748   */\n      0x40\n        /* \"#utility.yul\":9731:9749   */\n      dup3\n      add\n        /* \"#utility.yul\":9724:9769   */\n      mstore\n        /* \"#utility.yul\":9801:9803   */\n      0x60\n        /* \"#utility.yul\":9786:9804   */\n      add\n      swap1\n        /* \"#utility.yul\":9471:9810   */\n      jump\t// out\n        /* \"#utility.yul\":9815:9942   */\n    tag_637:\n        /* \"#utility.yul\":9876:9886   */\n      0x4e487b71\n        /* \"#utility.yul\":9871:9874   */\n      0xe0\n        /* \"#utility.yul\":9867:9887   */\n      shl\n        /* \"#utility.yul\":9864:9865   */\n      0x00\n        /* \"#utility.yul\":9857:9888   */\n      mstore\n        /* \"#utility.yul\":9907:9911   */\n      0x11\n        /* \"#utility.yul\":9904:9905   */\n      0x04\n        /* \"#utility.yul\":9897:9912   */\n      mstore\n        /* \"#utility.yul\":9931:9935   */\n      0x24\n        /* \"#utility.yul\":9928:9929   */\n      0x00\n        /* \"#utility.yul\":9921:9936   */\n      revert\n        /* \"#utility.yul\":9947:10075   */\n    tag_201:\n        /* \"#utility.yul\":10014:10023   */\n      dup2\n      dup2\n      sub\n        /* \"#utility.yul\":10035:10046   */\n      dup2\n      dup2\n      gt\n        /* \"#utility.yul\":10032:10069   */\n      iszero\n      tag_531\n      jumpi\n        /* \"#utility.yul\":10049:10067   */\n      tag_531\n      tag_637\n      jump\t// in\n        /* \"#utility.yul\":10495:10622   */\n    tag_217:\n        /* \"#utility.yul\":10556:10566   */\n      0x4e487b71\n        /* \"#utility.yul\":10551:10554   */\n      0xe0\n        /* \"#utility.yul\":10547:10567   */\n      shl\n        /* \"#utility.yul\":10544:10545   */\n      0x00\n        /* \"#utility.yul\":10537:10568   */\n      mstore\n        /* \"#utility.yul\":10587:10591   */\n      0x32\n        /* \"#utility.yul\":10584:10585   */\n      0x04\n        /* \"#utility.yul\":10577:10592   */\n      mstore\n        /* \"#utility.yul\":10611:10615   */\n      0x24\n        /* \"#utility.yul\":10608:10609   */\n      0x00\n        /* \"#utility.yul\":10601:10616   */\n      revert\n        /* \"#utility.yul\":10627:11686   */\n    tag_223:\n        /* \"#utility.yul\":10915:10917   */\n      0x40\n        /* \"#utility.yul\":10927:10948   */\n      dup1\n      dup3\n      mstore\n        /* \"#utility.yul\":10900:10918   */\n      dup2\n      add\n        /* \"#utility.yul\":10983:11005   */\n      dup5\n      swap1\n      mstore\n        /* \"#utility.yul\":10867:10871   */\n      0x00\n        /* \"#utility.yul\":11062:11068   */\n      dup6\n        /* \"#utility.yul\":11036:11038   */\n      0x60\n        /* \"#utility.yul\":11021:11039   */\n      dup4\n      add\n        /* \"#utility.yul\":10867:10871   */\n      dup3\n        /* \"#utility.yul\":11096:11400   */\n    tag_720:\n        /* \"#utility.yul\":11110:11116   */\n      dup8\n        /* \"#utility.yul\":11107:11108   */\n      dup2\n        /* \"#utility.yul\":11104:11117   */\n      lt\n        /* \"#utility.yul\":11096:11400   */\n      iszero\n      tag_722\n      jumpi\n        /* \"#utility.yul\":11185:11191   */\n      dup3\n        /* \"#utility.yul\":11172:11192   */\n      calldataload\n        /* \"#utility.yul\":11205:11236   */\n      tag_723\n        /* \"#utility.yul\":11230:11235   */\n      dup2\n        /* \"#utility.yul\":11205:11236   */\n      tag_634\n      jump\t// in\n    tag_723:\n      sub(shl(0xa0, 0x01), 0x01)\n        /* \"#utility.yul\":11261:11292   */\n      and\n        /* \"#utility.yul\":11249:11293   */\n      dup3\n      mstore\n        /* \"#utility.yul\":11316:11320   */\n      0x20\n        /* \"#utility.yul\":11375:11390   */\n      swap3\n      dup4\n      add\n      swap3\n        /* \"#utility.yul\":11340:11352   */\n      swap1\n      swap2\n      add\n      swap1\n        /* \"#utility.yul\":11289:11290   */\n      0x01\n        /* \"#utility.yul\":11125:11134   */\n      add\n        /* \"#utility.yul\":11096:11400   */\n      jump(tag_720)\n    tag_722:\n      pop\n        /* \"#utility.yul\":11438:11457   */\n      dup4\n      dup2\n      sub\n        /* \"#utility.yul\":11431:11435   */\n      0x20\n        /* \"#utility.yul\":11416:11436   */\n      dup6\n      add\n        /* \"#utility.yul\":11409:11458   */\n      mstore\n        /* \"#utility.yul\":11467:11486   */\n      dup5\n      dup2\n      mstore\n      sub(shl(0xfb, 0x01), 0x01)\n        /* \"#utility.yul\":11498:11529   */\n      dup6\n      gt\n        /* \"#utility.yul\":11495:11546   */\n      iszero\n      tag_724\n      jumpi\n        /* \"#utility.yul\":11542:11543   */\n      0x00\n        /* \"#utility.yul\":11539:11540   */\n      dup1\n        /* \"#utility.yul\":11532:11544   */\n      revert\n        /* \"#utility.yul\":11495:11546   */\n    tag_724:\n        /* \"#utility.yul\":11576:11582   */\n      dup5\n        /* \"#utility.yul\":11573:11574   */\n      0x05\n        /* \"#utility.yul\":11569:11583   */\n      shl\n        /* \"#utility.yul\":11555:11583   */\n      swap2\n      pop\n        /* \"#utility.yul\":11629:11635   */\n      dup2\n        /* \"#utility.yul\":11621:11627   */\n      dup7\n        /* \"#utility.yul\":11614:11618   */\n      0x20\n        /* \"#utility.yul\":11609:11612   */\n      dup4\n        /* \"#utility.yul\":11605:11619   */\n      add\n        /* \"#utility.yul\":11592:11636   */\n      calldatacopy\n        /* \"#utility.yul\":11657:11673   */\n      add\n        /* \"#utility.yul\":11675:11679   */\n      0x20\n        /* \"#utility.yul\":11653:11680   */\n      add\n      swap7\n        /* \"#utility.yul\":10627:11686   */\n      swap6\n      pop\n      pop\n      pop\n      pop\n      pop\n      pop\n      jump\t// out\n        /* \"#utility.yul\":12041:12176   */\n    tag_235:\n        /* \"#utility.yul\":12080:12083   */\n      0x00\n        /* \"#utility.yul\":12101:12118   */\n      0x01\n      dup3\n      add\n        /* \"#utility.yul\":12098:12141   */\n      tag_728\n      jumpi\n        /* \"#utility.yul\":12121:12139   */\n      tag_728\n      tag_637\n      jump\t// in\n    tag_728:\n      pop\n        /* \"#utility.yul\":12168:12169   */\n      0x01\n        /* \"#utility.yul\":12157:12170   */\n      add\n      swap1\n        /* \"#utility.yul\":12041:12176   */\n      jump\t// out\n        /* \"#utility.yul\":12181:12365   */\n    tag_240:\n        /* \"#utility.yul\":12251:12257   */\n      0x00\n        /* \"#utility.yul\":12304:12306   */\n      0x20\n        /* \"#utility.yul\":12292:12301   */\n      dup3\n        /* \"#utility.yul\":12283:12290   */\n      dup5\n        /* \"#utility.yul\":12279:12302   */\n      sub\n        /* \"#utility.yul\":12275:12307   */\n      slt\n        /* \"#utility.yul\":12272:12324   */\n      iszero\n      tag_730\n      jumpi\n        /* \"#utility.yul\":12320:12321   */\n      0x00\n        /* \"#utility.yul\":12317:12318   */\n      dup1\n        /* \"#utility.yul\":12310:12322   */\n      revert\n        /* \"#utility.yul\":12272:12324   */\n    tag_730:\n      pop\n        /* \"#utility.yul\":12343:12359   */\n      mload\n      swap2\n        /* \"#utility.yul\":12181:12365   */\n      swap1\n      pop\n      jump\t// out\n        /* \"#utility.yul\":12584:12752   */\n    tag_301:\n        /* \"#utility.yul\":12657:12666   */\n      dup1\n      dup3\n      mul\n        /* \"#utility.yul\":12688:12697   */\n      dup2\n      iszero\n        /* \"#utility.yul\":12705:12720   */\n      dup3\n      dup3\n      div\n        /* \"#utility.yul\":12699:12721   */\n      dup5\n      eq\n        /* \"#utility.yul\":12685:12722   */\n      or\n        /* \"#utility.yul\":12675:12746   */\n      tag_531\n      jumpi\n        /* \"#utility.yul\":12726:12744   */\n      tag_531\n      tag_637\n      jump\t// in\n        /* \"#utility.yul\":14604:14729   */\n    tag_354:\n        /* \"#utility.yul\":14669:14678   */\n      dup1\n      dup3\n      add\n        /* \"#utility.yul\":14690:14700   */\n      dup1\n      dup3\n      gt\n        /* \"#utility.yul\":14687:14723   */\n      iszero\n      tag_531\n      jumpi\n        /* \"#utility.yul\":14703:14721   */\n      tag_531\n      tag_637\n      jump\t// in\n        /* \"#utility.yul\":15776:16734   */\n    tag_436:\n        /* \"#utility.yul\":16063:16066   */\n      0x00\n        /* \"#utility.yul\":16094:16097   */\n      dup2\n        /* \"#utility.yul\":16141:16147   */\n      dup8\n        /* \"#utility.yul\":16063:16066   */\n      dup3\n        /* \"#utility.yul\":16175:16485   */\n    tag_747:\n        /* \"#utility.yul\":16189:16195   */\n      dup9\n        /* \"#utility.yul\":16186:16187   */\n      dup2\n        /* \"#utility.yul\":16183:16196   */\n      lt\n        /* \"#utility.yul\":16175:16485   */\n      iszero\n      tag_749\n      jumpi\n        /* \"#utility.yul\":16264:16270   */\n      dup2\n        /* \"#utility.yul\":16251:16271   */\n      calldataload\n        /* \"#utility.yul\":16284:16315   */\n      tag_750\n        /* \"#utility.yul\":16309:16314   */\n      dup2\n        /* \"#utility.yul\":16284:16315   */\n      tag_634\n      jump\t// in\n    tag_750:\n      sub(shl(0xa0, 0x01), 0x01)\n        /* \"#utility.yul\":16342:16373   */\n      and\n        /* \"#utility.yul\":16328:16374   */\n      dup4\n      mstore\n        /* \"#utility.yul\":16397:16401   */\n      0x20\n        /* \"#utility.yul\":16423:16437   */\n      swap3\n      dup4\n      add\n      swap3\n        /* \"#utility.yul\":16460:16475   */\n      swap2\n      swap1\n      swap2\n      add\n      swap1\n        /* \"#utility.yul\":16370:16371   */\n      0x01\n        /* \"#utility.yul\":16204:16213   */\n      add\n        /* \"#utility.yul\":16175:16485   */\n      jump(tag_747)\n    tag_749:\n      pop\n      pop\n      sub(shl(0xfb, 0x01), 0x01)\n        /* \"#utility.yul\":16497:16528   */\n      dup6\n      gt\n        /* \"#utility.yul\":16494:16545   */\n      iszero\n      tag_751\n      jumpi\n        /* \"#utility.yul\":16541:16542   */\n      0x00\n        /* \"#utility.yul\":16538:16539   */\n      dup1\n        /* \"#utility.yul\":16531:16543   */\n      revert\n        /* \"#utility.yul\":16494:16545   */\n    tag_751:\n        /* \"#utility.yul\":16575:16581   */\n      dup5\n        /* \"#utility.yul\":16572:16573   */\n      0x05\n        /* \"#utility.yul\":16568:16582   */\n      shl\n        /* \"#utility.yul\":16619:16625   */\n      dup1\n        /* \"#utility.yul\":16611:16617   */\n      dup8\n        /* \"#utility.yul\":16604:16609   */\n      dup4\n        /* \"#utility.yul\":16591:16626   */\n      calldatacopy\n        /* \"#utility.yul\":16648:16666   */\n      add\n        /* \"#utility.yul\":16675:16696   */\n      swap3\n      dup4\n      mstore\n      pop\n      pop\n        /* \"#utility.yul\":16723:16727   */\n      0x20\n        /* \"#utility.yul\":16712:16728   */\n      add\n      swap5\n        /* \"#utility.yul\":15776:16734   */\n      swap4\n      pop\n      pop\n      pop\n      pop\n      jump\t// out\n        /* \"#utility.yul\":18340:18467   */\n    tag_573:\n        /* \"#utility.yul\":18401:18411   */\n      0x4e487b71\n        /* \"#utility.yul\":18396:18399   */\n      0xe0\n        /* \"#utility.yul\":18392:18412   */\n      shl\n        /* \"#utility.yul\":18389:18390   */\n      0x00\n        /* \"#utility.yul\":18382:18413   */\n      mstore\n        /* \"#utility.yul\":18432:18436   */\n      0x21\n        /* \"#utility.yul\":18429:18430   */\n      0x04\n        /* \"#utility.yul\":18422:18437   */\n      mstore\n        /* \"#utility.yul\":18456:18460   */\n      0x24\n        /* \"#utility.yul\":18453:18454   */\n      0x00\n        /* \"#utility.yul\":18446:18461   */\n      revert\n        /* \"#utility.yul\":18472:18773   */\n    tag_606:\n        /* \"#utility.yul\":18601:18604   */\n      0x00\n        /* \"#utility.yul\":18639:18645   */\n      dup3\n        /* \"#utility.yul\":18633:18646   */\n      mload\n        /* \"#utility.yul\":18685:18691   */\n      dup1\n        /* \"#utility.yul\":18678:18682   */\n      0x20\n        /* \"#utility.yul\":18670:18676   */\n      dup6\n        /* \"#utility.yul\":18666:18683   */\n      add\n        /* \"#utility.yul\":18661:18664   */\n      dup5\n        /* \"#utility.yul\":18655:18692   */\n      mcopy\n        /* \"#utility.yul\":18747:18748   */\n      0x00\n        /* \"#utility.yul\":18711:18727   */\n      swap3\n      add\n        /* \"#utility.yul\":18736:18749   */\n      swap2\n      dup3\n      mstore\n      pop\n        /* \"#utility.yul\":18711:18727   */\n      swap2\n        /* \"#utility.yul\":18472:18773   */\n      swap1\n      pop\n      jump\t// out\n    stop\n    data_75b20eef8615de99c108b05f0dbda081c91897128caa336d75dffb97c4132b4d 360894a13ba1a3210667c828492db98dca3e2076cc3735a920a3ca505d382bbc\n    data_c0c65a3718f3702d917c44106b91645b509d2e2d0979b70495c3babce192339f cd5ed15c6e187e77e9aee88184c21f4f2182ab5827cb3b7e07fbedcd63f03300\n\n    auxdata: 0xa2646970667358221220c01f56be0deb1eeb812719acea6b0ad2c3b45f58ac5e0a164bd2ec817d02e3a164736f6c63430008190033\n}\n",
				"bytecode": {
					"linkReferences": {},
					"object": "60a060405230608052348015610013575f80fd5b5061001c610021565b6100d3565b7ff0c57e16840df040f15088dc2f81fe391c3923bec73e23a9662efc9c229c6a00805468010000000000000000900460ff16156100715760405163f92ee8a960e01b815260040160405180910390fd5b80546001600160401b03908116146100d05780546001600160401b0319166001600160401b0390811782556040519081527fc7f505b2f371ae2175ee4913f4499e1f2633a7b5936321eed1cdaeb6115181d29060200160405180910390a15b50565b6080516127036100f95f395f81816118710152818161189a01526119de01526127035ff3fe6080604052600436106101c5575f3560e01c80638da5cb5b116100f2578063c9d27afe11610092578063f2fde38b11610062578063f2fde38b14610559578063f851a44014610578578063fd85b1a714610596578063feb61724146105b5575f80fd5b8063c9d27afe146104cd578063d23254b4146104ec578063e207d04d14610525578063eecbbb721461053a575f80fd5b8063ad3cb1cc116100cd578063ad3cb1cc14610427578063b17d718e14610464578063b62e1efc14610483578063c6b0da1b146104ae575f80fd5b80638da5cb5b146103b75780638f283970146103f3578063a10954fe14610412575f80fd5b80634f1ef2861161016857806368f257341161013857806368f25734146103515780636e631a4d14610370578063715018a61461038f5780638456cb59146103a3575f80fd5b80634f1ef286146102d057806352d1902d146102e357806356f40aa2146102f75780635c975abb14610322575f80fd5b80631794bb3c116101a35780631794bb3c146102285780632251d3f01461024757806327e235e3146102835780633f4ba83a146102bc575f80fd5b80630a8bcdb9146101c95780631145a4ff146101ea57806314068e9414610209575b5f80fd5b3480156101d4575f80fd5b506101e86101e3366004612082565b6105e3565b005b3480156101f5575f80fd5b506101e861020436600461211f565b610761565b348015610214575f80fd5b506101e86102233660046121cf565b61087f565b348015610233575f80fd5b506101e86102423660046121ea565b610a00565b348015610252575f80fd5b50600154610266906001600160a01b031681565b6040516001600160a01b0390911681526020015b60405180910390f35b34801561028e575f80fd5b506102ae61029d3660046121cf565b60026020525f908152604090205481565b60405190815260200161027a565b3480156102c7575f80fd5b506101e8610b5f565b6101e86102de36600461223c565b610b71565b3480156102ee575f80fd5b506102ae610b90565b348015610302575f80fd5b506102ae610311366004612082565b60056020525f908152604090205481565b34801561032d575f80fd5b505f805160206126ae8339815191525460ff165b604051901515815260200161027a565b34801561035c575f80fd5b506101e861036b3660046122fa565b610bab565b34801561037b575f80fd5b506101e861038a366004612349565b610c08565b34801561039a575f80fd5b506101e8610e26565b3480156103ae575f80fd5b506101e8610e37565b3480156103c2575f80fd5b507f9016d09d72d40fdae2fd8ceac6b6234c7706214fd39c1cd1e609a0528c199300546001600160a01b0316610266565b3480156103fe575f80fd5b506101e861040d3660046121cf565b610e47565b34801561041d575f80fd5b506102ae60095481565b348015610432575f80fd5b50610457604051806040016040528060058152602001640352e302e360dc1b81525081565b60405161027a919061237b565b34801561046f575f80fd5b506101e861047e366004612082565b610f05565b34801561048e575f80fd5b506102ae61049d366004612082565b60066020525f908152604090205481565b3480156104b9575f80fd5b506101e86104c83660046123b0565b611027565b3480156104d8575f80fd5b506101e86104e7366004612418565b611142565b3480156104f7575f80fd5b50610341610506366004612446565b600460209081525f928352604080842090915290825290205460ff1681565b348015610530575f80fd5b506102ae60085481565b348015610545575f80fd5b506101e86105543660046122fa565b61127f565b348015610564575f80fd5b506101e86105733660046121cf565b611377565b348015610583575f80fd5b505f54610266906001600160a01b031681565b3480156105a1575f80fd5b506101e86105b0366004612082565b6113b4565b3480156105c0575f80fd5b506103416105cf366004612082565b60036020525f908152604090205460ff1681565b5f546001600160a01b0316336001600160a01b03161461061e5760405162461bcd60e51b815260040161061590612469565b60405180910390fd5b6106266114b9565b8060095410156106785760405162461bcd60e51b815260206004820152601c60248201527f496e73756666696369656e7420726573657276652062616c616e6365000000006044820152606401610615565b6001546001600160a01b031663a9059cbb336040516001600160e01b031960e084901b1681526001600160a01b039091166004820152602481018490526044016020604051808303815f875af11580156106d4573d5f803e3d5ffd5b505050506040513d601f19601f820116820180604052508101906106f891906124ab565b6107145760405162461bcd60e51b8152600401610615906124c6565b8060095f8282546107259190612503565b90915550506040518181527f252f4762677e3c294cdba42d776da4a2c5a1259438ea5224c3bea5b27c8f04dc906020015b60405180910390a150565b6107696114b9565b8584146107cf5760405162461bcd60e51b815260206004820152602e60248201527f5061727469636970616e747320616e64206e657742616c616e636573206c656e60448201526d0cee8d040daeae6e840dac2e8c6d60931b6064820152608401610615565b6107de878787878787876114e9565b5f5b86811015610838576108308888838181106107fd576107fd612516565b905060200201602081019061081291906121cf565b87878481811061082457610824612516565b90506020020135611620565b6001016107e0565b507f1989b1fe93256bb3b4c6348f76f6f506f926f635cfa802ca3af4826159c5874b8787878760405161086e949392919061252a565b60405180910390a150505050505050565b5f546001600160a01b0316336001600160a01b0316146108b15760405162461bcd60e51b815260040161061590612469565b6108b96114b9565b6001600160a01b0381165f908152600260205260409020546109155760405162461bcd60e51b81526020600482015260156024820152744e6f2062616c616e636520746f206469737075746560581b6044820152606401610615565b600880545f9182610925836125a6565b909155506001546040516370a0823160e01b81523060048201529192506001600160a01b0316906370a0823190602401602060405180830381865afa158015610970573d5f803e3d5ffd5b505050506040513d601f19601f8201168201806040525081019061099491906125be565b5f82815260066020908152604080832093909355600781529082902080546001600160a01b0319166001600160a01b03861690811790915591518381527f8610d91e9f8a63773d7a3c13aa8bb8407203532a61bb703c06fce895f9622d0d910160405180910390a25050565b7ff0c57e16840df040f15088dc2f81fe391c3923bec73e23a9662efc9c229c6a008054600160401b810460ff16159067ffffffffffffffff165f81158015610a455750825b90505f8267ffffffffffffffff166001148015610a615750303b155b905081158015610a6f575080155b15610a8d5760405163f92ee8a960e01b815260040160405180910390fd5b845467ffffffffffffffff191660011785558315610ab757845460ff60401b1916600160401b1785555b610abf611789565b610ac7611791565b610ad0886117a1565b610ad8611789565b5f80546001600160a01b03808b166001600160a01b03199283161790925560018054928a169290911691909117815560085560098690558315610b5557845460ff60401b19168555604051600181527fc7f505b2f371ae2175ee4913f4499e1f2633a7b5936321eed1cdaeb6115181d29060200160405180910390a15b5050505050505050565b610b676117b2565b610b6f61180d565b565b610b79611866565b610b828261190a565b610b8c8282611912565b5050565b5f610b996119d3565b505f8051602061268e83398151915290565b610bb36114b9565b610bc1335b85858585611a1c565b610bcc335b85611620565b60405184815233907f7200cd3d0176b58ea53053a648b9a9cfb0d0d13a52488e14a16e0037b2241d21906020015b60405180910390a250505050565b5f546001600160a01b0316336001600160a01b031614610c3a5760405162461bcd60e51b815260040161061590612469565b610c426114b9565b5f81815260066020908152604080832054600590925290912054610c679060026125d5565b1015610cbf5760405162461bcd60e51b815260206004820152602160248201527f4e6f7420656e6f75676820766f74657320746f20636c6f7365206368616e6e656044820152601b60fa1b6064820152608401610615565b5f818152600760205260409020546001600160a01b03848116911614610d325760405162461bcd60e51b815260206004820152602260248201527f566f746520494420646f6573206e6f74206d61746368207061727469636970616044820152611b9d60f21b6064820152608401610615565b610d3c8383611620565b60015460405163a9059cbb60e01b81526001600160a01b038581166004830152602482018590529091169063a9059cbb906044016020604051808303815f875af1158015610d8c573d5f803e3d5ffd5b505050506040513d601f19601f82011682018060405250810190610db091906124ab565b610dcc5760405162461bcd60e51b8152600401610615906124c6565b6001600160a01b0383165f8181526002602090815260408083209290925581518581529081018490527f93af0759c861f9140be6d1c461033b560dba0e077676ce380708438f5ee23f6291015b60405180910390a2505050565b610e2e6117b2565b610b6f5f611b66565b610e3f6117b2565b610b6f611bd6565b610e4f6117b2565b610e576114b9565b6001600160a01b038116610ebe5760405162461bcd60e51b815260206004820152602860248201527f4e65772061646d696e20616464726573732063616e6e6f74206265207a65726f604482015267206164647265737360c01b6064820152608401610615565b5f80546001600160a01b0319166001600160a01b038316908117825560405190917f7ce7ec0b50378fb6c0186ffb5f48325f6593fcb4ca4386f21861af3129188f5c91a250565b5f546001600160a01b0316336001600160a01b031614610f375760405162461bcd60e51b815260040161061590612469565b610f3f6114b9565b6001546001600160a01b03166323b872dd336040516001600160e01b031960e084901b1681526001600160a01b039091166004820152306024820152604481018490526064016020604051808303815f875af1158015610fa1573d5f803e3d5ffd5b505050506040513d601f19601f82011682018060405250810190610fc591906124ab565b610fe15760405162461bcd60e51b8152600401610615906124c6565b8060095f828254610ff291906125ec565b90915550506040518181527f372b1a73ea80de8b8f35b0cf88147a1fbc354f7fb9d1409431199a619acd0c9890602001610756565b5f546001600160a01b0316336001600160a01b0316146110595760405162461bcd60e51b815260040161061590612469565b6110616114b9565b8281146110b05760405162461bcd60e51b815260206004820152601860248201527f4172726179206c656e67746873206d757374206d6174636800000000000000006044820152606401610615565b5f5b838110156110fe576110f68585838181106110cf576110cf612516565b90506020020160208101906110e491906121cf565b84848481811061082457610824612516565b6001016110b2565b507f9071b044465a4e855aabae9828b35d03eff50e0110996249e9bd9add0d117ed784848484604051611134949392919061252a565b60405180910390a150505050565b61114a6114b9565b335f9081526002602052604090205461119a5760405162461bcd60e51b81526020600482015260126024820152714e6f2062616c616e636520746f20766f746560701b6044820152606401610615565b5f82815260046020908152604080832033845290915290205460ff16156111f35760405162461bcd60e51b815260206004820152600d60248201526c105b1c9958591e481d9bdd1959609a1b6044820152606401610615565b5f8281526004602090815260408083203384528252808320805460ff1916600117905560029091529020548115611247575f83815260056020526040812080548392906112419084906125ec565b90915550505b604080518481526020810183905233917f1abe610cf2bf87e57dcc1181fcf5ac0934e843d8344ab9eed6e86c799f62585e9101610e19565b6112876114b9565b61129033610bb8565b61129933610bc6565b6001546001600160a01b031663a9059cbb336040516001600160e01b031960e084901b1681526001600160a01b039091166004820152602481018790526044016020604051808303815f875af11580156112f5573d5f803e3d5ffd5b505050506040513d601f19601f8201168201806040525081019061131991906124ab565b6113355760405162461bcd60e51b8152600401610615906124c6565b335f8181526002602090815260408083209290925590518681527f770342ee36990141b5b1f4b3b41a184d7968647ac7f0dbfd2d86d566c468027d9101610bfa565b61137f6117b2565b6001600160a01b0381166113a857604051631e4fbdf760e01b81525f6004820152602401610615565b6113b181611b66565b50565b6113bc6114b9565b6001546001600160a01b03166323b872dd336040516001600160e01b031960e084901b1681526001600160a01b039091166004820152306024820152604481018490526064016020604051808303815f875af115801561141e573d5f803e3d5ffd5b505050506040513d601f19601f8201168201806040525081019061144291906124ab565b61145e5760405162461bcd60e51b8152600401610615906124c6565b335f908152600260205260408120805483929061147c9084906125ec565b909155505060405181815233907faf952b0a28349f5ffff2d98aa9050ea845adbe423ff73ac5da5f268834ae3ac09060200160405180910390a250565b5f805160206126ae8339815191525460ff1615610b6f5760405163d93c066560e01b815260040160405180910390fd5b5f87878787876040516020016115039594939291906125ff565b60405160208183030381529060405280519060200120905061155c83838080601f0160208091040260200160405190810160405280939291908181526020018383808284375f920191909152508593925050611c1e9050565b5f546001600160a01b039081169116146115ac5760405162461bcd60e51b8152602060048201526011602482015270496e76616c6964207369676e617475726560781b6044820152606401610615565b5f8181526003602052604090205460ff16156115ff5760405162461bcd60e51b8152602060048201526012602482015271139bdb98d948185b1c9958591e481d5cd95960721b6044820152606401610615565b5f908152600360205260409020805460ff1916600117905550505050505050565b6001600160a01b0382165f908152600260205260409020548111156116fe576001600160a01b0382165f908152600260205260408120546116619083612503565b90508060095410156116b55760405162461bcd60e51b815260206004820152601a60248201527f4e6f7420656e6f75676820726573657276652062616c616e63650000000000006044820152606401610615565b8060095f8282546116c69190612503565b90915550506001600160a01b0383165f90815260026020526040812080548392906116f29084906125ec565b90915550610b8c915050565b6001600160a01b0382165f90815260026020526040902054811015610b8c576001600160a01b0382165f90815260026020526040812054611740908390612503565b90508060095f82825461175391906125ec565b90915550506001600160a01b0383165f908152600260205260408120805483929061177f908490612503565b9091555050505050565b610b6f611c48565b611799611c48565b610b6f611c91565b6117a9611c48565b6113b181611cb1565b336117e47f9016d09d72d40fdae2fd8ceac6b6234c7706214fd39c1cd1e609a0528c199300546001600160a01b031690565b6001600160a01b031614610b6f5760405163118cdaa760e01b8152336004820152602401610615565b611815611cb9565b5f805160206126ae833981519152805460ff191681557f5db9ee0a495bf2e6ff9c91a7834c1ba4fdd244a5e8aa4e537bd38aeae4b073aa335b6040516001600160a01b039091168152602001610756565b306001600160a01b037f00000000000000000000000000000000000000000000000000000000000000001614806118ec57507f00000000000000000000000000000000000000000000000000000000000000006001600160a01b03166118e05f8051602061268e833981519152546001600160a01b031690565b6001600160a01b031614155b15610b6f5760405163703e46dd60e11b815260040160405180910390fd5b6113b16117b2565b816001600160a01b03166352d1902d6040518163ffffffff1660e01b8152600401602060405180830381865afa92505050801561196c575060408051601f3d908101601f19168201909252611969918101906125be565b60015b61199457604051634c9c8ce360e01b81526001600160a01b0383166004820152602401610615565b5f8051602061268e83398151915281146119c457604051632a87526960e21b815260048101829052602401610615565b6119ce8383611ce8565b505050565b306001600160a01b037f00000000000000000000000000000000000000000000000000000000000000001614610b6f5760405163703e46dd60e11b815260040160405180910390fd5b6040516bffffffffffffffffffffffff19606087901b16602082015260348101859052605481018490525f90607401604051602081830303815290604052805190602001209050611aa483838080601f0160208091040260200160405190810160405280939291908181526020018383808284375f920191909152508593925050611c1e9050565b5f546001600160a01b03908116911614611af45760405162461bcd60e51b8152602060048201526011602482015270496e76616c6964207369676e617475726560781b6044820152606401610615565b5f8181526003602052604090205460ff1615611b475760405162461bcd60e51b8152602060048201526012602482015271139bdb98d948185b1c9958591e481d5cd95960721b6044820152606401610615565b5f908152600360205260409020805460ff191660011790555050505050565b7f9016d09d72d40fdae2fd8ceac6b6234c7706214fd39c1cd1e609a0528c19930080546001600160a01b031981166001600160a01b03848116918217845560405192169182907f8be0079c531659141344cd1fd0a4f28419497f9722a3daafe3b4186f6b6457e0905f90a3505050565b611bde6114b9565b5f805160206126ae833981519152805460ff191660011781557f62e78cea01bee320cd4e420270b5ea74000d11b0c9f74754ebdbfc544b05a2583361184e565b5f805f80611c2c8686611d3d565b925092509250611c3c8282611d86565b50909150505b92915050565b7ff0c57e16840df040f15088dc2f81fe391c3923bec73e23a9662efc9c229c6a0054600160401b900460ff16610b6f57604051631afcd79f60e31b815260040160405180910390fd5b611c99611c48565b5f805160206126ae833981519152805460ff19169055565b61137f611c48565b5f805160206126ae8339815191525460ff16610b6f57604051638dfc202b60e01b815260040160405180910390fd5b611cf182611e3e565b6040516001600160a01b038316907fbc7cd75a20ee27fd9adebab32041f755214dbc6bffa90cc0225b39da2e5c2d3b905f90a2805115611d35576119ce8282611ea1565b610b8c611f13565b5f805f8351604103611d74576020840151604085015160608601515f1a611d6688828585611f32565b955095509550505050611d7f565b505081515f91506002905b9250925092565b5f826003811115611d9957611d99612663565b03611da2575050565b6001826003811115611db657611db6612663565b03611dd45760405163f645eedf60e01b815260040160405180910390fd5b6002826003811115611de857611de8612663565b03611e095760405163fce698f760e01b815260048101829052602401610615565b6003826003811115611e1d57611e1d612663565b03610b8c576040516335e2f38360e21b815260048101829052602401610615565b806001600160a01b03163b5f03611e7357604051634c9c8ce360e01b81526001600160a01b0382166004820152602401610615565b5f8051602061268e83398151915280546001600160a01b0319166001600160a01b0392909216919091179055565b60605f80846001600160a01b031684604051611ebd9190612677565b5f60405180830381855af49150503d805f8114611ef5576040519150601f19603f3d011682016040523d82523d5f602084013e611efa565b606091505b5091509150611f0a858383611ffa565b95945050505050565b3415610b6f5760405163b398979f60e01b815260040160405180910390fd5b5f80807f7fffffffffffffffffffffffffffffff5d576e7357a4501ddfe92f46681b20a0841115611f6b57505f91506003905082611ff0565b604080515f808252602082018084528a905260ff891692820192909252606081018790526080810186905260019060a0016020604051602081039080840390855afa158015611fbc573d5f803e3d5ffd5b5050604051601f1901519150506001600160a01b038116611fe757505f925060019150829050611ff0565b92505f91508190505b9450945094915050565b60608261200f5761200a82612059565b612052565b815115801561202657506001600160a01b0384163b155b1561204f57604051639996b31560e01b81526001600160a01b0385166004820152602401610615565b50805b9392505050565b8051156120695780518082602001fd5b604051630a12f52160e11b815260040160405180910390fd5b5f60208284031215612092575f80fd5b5035919050565b5f8083601f8401126120a9575f80fd5b50813567ffffffffffffffff8111156120c0575f80fd5b6020830191508360208260051b85010111156120da575f80fd5b9250929050565b5f8083601f8401126120f1575f80fd5b50813567ffffffffffffffff811115612108575f80fd5b6020830191508360208285010111156120da575f80fd5b5f805f805f805f6080888a031215612135575f80fd5b873567ffffffffffffffff8082111561214c575f80fd5b6121588b838c01612099565b909950975060208a0135915080821115612170575f80fd5b61217c8b838c01612099565b909750955060408a0135945060608a013591508082111561219b575f80fd5b506121a88a828b016120e1565b989b979a50959850939692959293505050565b6001600160a01b03811681146113b1575f80fd5b5f602082840312156121df575f80fd5b8135612052816121bb565b5f805f606084860312156121fc575f80fd5b8335612207816121bb565b92506020840135612217816121bb565b929592945050506040919091013590565b634e487b7160e01b5f52604160045260245ffd5b5f806040838503121561224d575f80fd5b8235612258816121bb565b9150602083013567ffffffffffffffff80821115612274575f80fd5b818501915085601f830112612287575f80fd5b81358181111561229957612299612228565b604051601f8201601f19908116603f011681019083821181831017156122c1576122c1612228565b816040528281528860208487010111156122d9575f80fd5b826020860160208301375f6020848301015280955050505050509250929050565b5f805f806060858703121561230d575f80fd5b8435935060208501359250604085013567ffffffffffffffff811115612331575f80fd5b61233d878288016120e1565b95989497509550505050565b5f805f6060848603121561235b575f80fd5b8335612366816121bb565b95602085013595506040909401359392505050565b602081525f82518060208401528060208501604085015e5f604082850101526040601f19601f83011684010191505092915050565b5f805f80604085870312156123c3575f80fd5b843567ffffffffffffffff808211156123da575f80fd5b6123e688838901612099565b909650945060208701359150808211156123fe575f80fd5b5061233d87828801612099565b80151581146113b1575f80fd5b5f8060408385031215612429575f80fd5b82359150602083013561243b8161240b565b809150509250929050565b5f8060408385031215612457575f80fd5b82359150602083013561243b816121bb565b60208082526022908201527f4f6e6c792061646d696e2063616e20706572666f726d2074686973206163746960408201526137b760f11b606082015260800190565b5f602082840312156124bb575f80fd5b81516120528161240b565b6020808252600f908201526e151c985b9cd9995c8819985a5b1959608a1b604082015260600190565b634e487b7160e01b5f52601160045260245ffd5b81810381811115611c4257611c426124ef565b634e487b7160e01b5f52603260045260245ffd5b604080825281018490525f8560608301825b8781101561256c57823561254f816121bb565b6001600160a01b031682526020928301929091019060010161253c565b5083810360208501528481526001600160fb1b0385111561258b575f80fd5b8460051b915081866020830137016020019695505050505050565b5f600182016125b7576125b76124ef565b5060010190565b5f602082840312156125ce575f80fd5b5051919050565b8082028115828204841417611c4257611c426124ef565b80820180821115611c4257611c426124ef565b5f8187825b88811015612635578135612617816121bb565b6001600160a01b031683526020928301929190910190600101612604565b50506001600160fb1b0385111561264a575f80fd5b8460051b80878337019283525050602001949350505050565b634e487b7160e01b5f52602160045260245ffd5b5f82518060208501845e5f92019182525091905056fe360894a13ba1a3210667c828492db98dca3e2076cc3735a920a3ca505d382bbccd5ed15c6e187e77e9aee88184c21f4f2182ab5827cb3b7e07fbedcd63f03300a2646970667358221220c01f56be0deb1eeb812719acea6b0ad2c3b45f58ac5e0a164bd2ec817d02e3a164736f6c63430008190033",
					"opcodes": "PUSH1 0xA0 PUSH1 0x40 MSTORE ADDRESS PUSH1 0x80 MSTORE CALLVALUE DUP1 ISZERO PUSH2 0x13 JUMPI PUSH0 DUP1 REVERT JUMPDEST POP PUSH2 0x1C PUSH2 0x21 JUMP JUMPDEST PUSH2 0xD3 JUMP JUMPDEST PUSH32 0xF0C57E16840DF040F15088DC2F81FE391C3923BEC73E23A9662EFC9C229C6A00 DUP1 SLOAD PUSH9 0x10000000000000000 SWAP1 DIV PUSH1 0xFF AND ISZERO PUSH2 0x71 JUMPI PUSH1 0x40 MLOAD PUSH4 0xF92EE8A9 PUSH1 0xE0 SHL DUP2 MSTORE PUSH1 0x4 ADD PUSH1 0x40 MLOAD DUP1 SWAP2 SUB SWAP1 REVERT JUMPDEST DUP1 SLOAD PUSH1 0x1 PUSH1 0x1 PUSH1 0x40 SHL SUB SWAP1 DUP2 AND EQ PUSH2 0xD0 JUMPI DUP1 SLOAD PUSH1 0x1 PUSH1 0x1 PUSH1 0x40 SHL SUB NOT AND PUSH1 0x1 PUSH1 0x1 PUSH1 0x40 SHL SUB SWAP1 DUP2 OR DUP3 SSTORE PUSH1 0x40 MLOAD SWAP1 DUP2 MSTORE PUSH32 0xC7F505B2F371AE2175EE4913F4499E1F2633A7B5936321EED1CDAEB6115181D2 SWAP1 PUSH1 0x20 ADD PUSH1 0x40 MLOAD DUP1 SWAP2 SUB SWAP1 LOG1 JUMPDEST POP JUMP JUMPDEST PUSH1 0x80 MLOAD PUSH2 0x2703 PUSH2 0xF9 PUSH0 CODECOPY PUSH0 DUP2 DUP2 PUSH2 0x1871 ADD MSTORE DUP2 DUP2 PUSH2 0x189A ADD MSTORE PUSH2 0x19DE ADD MSTORE PUSH2 0x2703 PUSH0 RETURN INVALID PUSH1 0x80 PUSH1 0x40 MSTORE PUSH1 0x4 CALLDATASIZE LT PUSH2 0x1C5 JUMPI PUSH0 CALLDATALOAD PUSH1 0xE0 SHR DUP1 PUSH4 0x8DA5CB5B GT PUSH2 0xF2 JUMPI DUP1 PUSH4 0xC9D27AFE GT PUSH2 0x92 JUMPI DUP1 PUSH4 0xF2FDE38B GT PUSH2 0x62 JUMPI DUP1 PUSH4 0xF2FDE38B EQ PUSH2 0x559 JUMPI DUP1 PUSH4 0xF851A440 EQ PUSH2 0x578 JUMPI DUP1 PUSH4 0xFD85B1A7 EQ PUSH2 0x596 JUMPI DUP1 PUSH4 0xFEB61724 EQ PUSH2 0x5B5 JUMPI PUSH0 DUP1 REVERT JUMPDEST DUP1 PUSH4 0xC9D27AFE EQ PUSH2 0x4CD JUMPI DUP1 PUSH4 0xD23254B4 EQ PUSH2 0x4EC JUMPI DUP1 PUSH4 0xE207D04D EQ PUSH2 0x525 JUMPI DUP1 PUSH4 0xEECBBB72 EQ PUSH2 0x53A JUMPI PUSH0 DUP1 REVERT JUMPDEST DUP1 PUSH4 0xAD3CB1CC GT PUSH2 0xCD JUMPI DUP1 PUSH4 0xAD3CB1CC EQ PUSH2 0x427 JUMPI DUP1 PUSH4 0xB17D718E EQ PUSH2 0x464 JUMPI DUP1 PUSH4 0xB62E1EFC EQ PUSH2 0x483 JUMPI DUP1 PUSH4 0xC6B0DA1B EQ PUSH2 0x4AE JUMPI PUSH0 DUP1 REVERT JUMPDEST DUP1 PUSH4 0x8DA5CB5B EQ PUSH2 0x3B7 JUMPI DUP1 PUSH4 0x8F283970 EQ PUSH2 0x3F3 JUMPI DUP1 PUSH4 0xA10954FE EQ PUSH2 0x412 JUMPI PUSH0 DUP1 REVERT JUMPDEST DUP1 PUSH4 0x4F1EF286 GT PUSH2 0x168 JUMPI DUP1 PUSH4 0x68F25734 GT PUSH2 0x138 JUMPI DUP1 PUSH4 0x68F25734 EQ PUSH2 0x351 JUMPI DUP1 PUSH4 0x6E631A4D EQ PUSH2 0x370 JUMPI DUP1 PUSH4 0x715018A6 EQ PUSH2 0x38F JUMPI DUP1 PUSH4 0x8456CB59 EQ PUSH2 0x3A3 JUMPI PUSH0 DUP1 REVERT JUMPDEST DUP1 PUSH4 0x4F1EF286 EQ PUSH2 0x2D0 JUMPI DUP1 PUSH4 0x52D1902D EQ PUSH2 0x2E3 JUMPI DUP1 PUSH4 0x56F40AA2 EQ PUSH2 0x2F7 JUMPI DUP1 PUSH4 0x5C975ABB EQ PUSH2 0x322 JUMPI PUSH0 DUP1 REVERT JUMPDEST DUP1 PUSH4 0x1794BB3C GT PUSH2 0x1A3 JUMPI DUP1 PUSH4 0x1794BB3C EQ PUSH2 0x228 JUMPI DUP1 PUSH4 0x2251D3F0 EQ PUSH2 0x247 JUMPI DUP1 PUSH4 0x27E235E3 EQ PUSH2 0x283 JUMPI DUP1 PUSH4 0x3F4BA83A EQ PUSH2 0x2BC JUMPI PUSH0 DUP1 REVERT JUMPDEST DUP1 PUSH4 0xA8BCDB9 EQ PUSH2 0x1C9 JUMPI DUP1 PUSH4 0x1145A4FF EQ PUSH2 0x1EA JUMPI DUP1 PUSH4 0x14068E94 EQ PUSH2 0x209 JUMPI JUMPDEST PUSH0 DUP1 REVERT JUMPDEST CALLVALUE DUP1 ISZERO PUSH2 0x1D4 JUMPI PUSH0 DUP1 REVERT JUMPDEST POP PUSH2 0x1E8 PUSH2 0x1E3 CALLDATASIZE PUSH1 0x4 PUSH2 0x2082 JUMP JUMPDEST PUSH2 0x5E3 JUMP JUMPDEST STOP JUMPDEST CALLVALUE DUP1 ISZERO PUSH2 0x1F5 JUMPI PUSH0 DUP1 REVERT JUMPDEST POP PUSH2 0x1E8 PUSH2 0x204 CALLDATASIZE PUSH1 0x4 PUSH2 0x211F JUMP JUMPDEST PUSH2 0x761 JUMP JUMPDEST CALLVALUE DUP1 ISZERO PUSH2 0x214 JUMPI PUSH0 DUP1 REVERT JUMPDEST POP PUSH2 0x1E8 PUSH2 0x223 CALLDATASIZE PUSH1 0x4 PUSH2 0x21CF JUMP JUMPDEST PUSH2 0x87F JUMP JUMPDEST CALLVALUE DUP1 ISZERO PUSH2 0x233 JUMPI PUSH0 DUP1 REVERT JUMPDEST POP PUSH2 0x1E8 PUSH2 0x242 CALLDATASIZE PUSH1 0x4 PUSH2 0x21EA JUMP JUMPDEST PUSH2 0xA00 JUMP JUMPDEST CALLVALUE DUP1 ISZERO PUSH2 0x252 JUMPI PUSH0 DUP1 REVERT JUMPDEST POP PUSH1 0x1 SLOAD PUSH2 0x266 SWAP1 PUSH1 0x1 PUSH1 0x1 PUSH1 0xA0 SHL SUB AND DUP2 JUMP JUMPDEST PUSH1 0x40 MLOAD PUSH1 0x1 PUSH1 0x1 PUSH1 0xA0 SHL SUB SWAP1 SWAP2 AND DUP2 MSTORE PUSH1 0x20 ADD JUMPDEST PUSH1 0x40 MLOAD DUP1 SWAP2 SUB SWAP1 RETURN JUMPDEST CALLVALUE DUP1 ISZERO PUSH2 0x28E JUMPI PUSH0 DUP1 REVERT JUMPDEST POP PUSH2 0x2AE PUSH2 0x29D CALLDATASIZE PUSH1 0x4 PUSH2 0x21CF JUMP JUMPDEST PUSH1 0x2 PUSH1 0x20 MSTORE PUSH0 SWAP1 DUP2 MSTORE PUSH1 0x40 SWAP1 KECCAK256 SLOAD DUP2 JUMP JUMPDEST PUSH1 0x40 MLOAD SWAP1 DUP2 MSTORE PUSH1 0x20 ADD PUSH2 0x27A JUMP JUMPDEST CALLVALUE DUP1 ISZERO PUSH2 0x2C7 JUMPI PUSH0 DUP1 REVERT JUMPDEST POP PUSH2 0x1E8 PUSH2 0xB5F JUMP JUMPDEST PUSH2 0x1E8 PUSH2 0x2DE CALLDATASIZE PUSH1 0x4 PUSH2 0x223C JUMP JUMPDEST PUSH2 0xB71 JUMP JUMPDEST CALLVALUE DUP1 ISZERO PUSH2 0x2EE JUMPI PUSH0 DUP1 REVERT JUMPDEST POP PUSH2 0x2AE PUSH2 0xB90 JUMP JUMPDEST CALLVALUE DUP1 ISZERO PUSH2 0x302 JUMPI PUSH0 DUP1 REVERT JUMPDEST POP PUSH2 0x2AE PUSH2 0x311 CALLDATASIZE PUSH1 0x4 PUSH2 0x2082 JUMP JUMPDEST PUSH1 0x5 PUSH1 0x20 MSTORE PUSH0 SWAP1 DUP2 MSTORE PUSH1 0x40 SWAP1 KECCAK256 SLOAD DUP2 JUMP JUMPDEST CALLVALUE DUP1 ISZERO PUSH2 0x32D JUMPI PUSH0 DUP1 REVERT JUMPDEST POP PUSH0 DUP1 MLOAD PUSH1 0x20 PUSH2 0x26AE DUP4 CODECOPY DUP2 MLOAD SWAP2 MSTORE SLOAD PUSH1 0xFF AND JUMPDEST PUSH1 0x40 MLOAD SWAP1 ISZERO ISZERO DUP2 MSTORE PUSH1 0x20 ADD PUSH2 0x27A JUMP JUMPDEST CALLVALUE DUP1 ISZERO PUSH2 0x35C JUMPI PUSH0 DUP1 REVERT JUMPDEST POP PUSH2 0x1E8 PUSH2 0x36B CALLDATASIZE PUSH1 0x4 PUSH2 0x22FA JUMP JUMPDEST PUSH2 0xBAB JUMP JUMPDEST CALLVALUE DUP1 ISZERO PUSH2 0x37B JUMPI PUSH0 DUP1 REVERT JUMPDEST POP PUSH2 0x1E8 PUSH2 0x38A CALLDATASIZE PUSH1 0x4 PUSH2 0x2349 JUMP JUMPDEST PUSH2 0xC08 JUMP JUMPDEST CALLVALUE DUP1 ISZERO PUSH2 0x39A JUMPI PUSH0 DUP1 REVERT JUMPDEST POP PUSH2 0x1E8 PUSH2 0xE26 JUMP JUMPDEST CALLVALUE DUP1 ISZERO PUSH2 0x3AE JUMPI PUSH0 DUP1 REVERT JUMPDEST POP PUSH2 0x1E8 PUSH2 0xE37 JUMP JUMPDEST CALLVALUE DUP1 ISZERO PUSH2 0x3C2 JUMPI PUSH0 DUP1 REVERT JUMPDEST POP PUSH32 0x9016D09D72D40FDAE2FD8CEAC6B6234C7706214FD39C1CD1E609A0528C199300 SLOAD PUSH1 0x1 PUSH1 0x1 PUSH1 0xA0 SHL SUB AND PUSH2 0x266 JUMP JUMPDEST CALLVALUE DUP1 ISZERO PUSH2 0x3FE JUMPI PUSH0 DUP1 REVERT JUMPDEST POP PUSH2 0x1E8 PUSH2 0x40D CALLDATASIZE PUSH1 0x4 PUSH2 0x21CF JUMP JUMPDEST PUSH2 0xE47 JUMP JUMPDEST CALLVALUE DUP1 ISZERO PUSH2 0x41D JUMPI PUSH0 DUP1 REVERT JUMPDEST POP PUSH2 0x2AE PUSH1 0x9 SLOAD DUP2 JUMP JUMPDEST CALLVALUE DUP1 ISZERO PUSH2 0x432 JUMPI PUSH0 DUP1 REVERT JUMPDEST POP PUSH2 0x457 PUSH1 0x40 MLOAD DUP1 PUSH1 0x40 ADD PUSH1 0x40 MSTORE DUP1 PUSH1 0x5 DUP2 MSTORE PUSH1 0x20 ADD PUSH5 0x352E302E3 PUSH1 0xDC SHL DUP2 MSTORE POP DUP2 JUMP JUMPDEST PUSH1 0x40 MLOAD PUSH2 0x27A SWAP2 SWAP1 PUSH2 0x237B JUMP JUMPDEST CALLVALUE DUP1 ISZERO PUSH2 0x46F JUMPI PUSH0 DUP1 REVERT JUMPDEST POP PUSH2 0x1E8 PUSH2 0x47E CALLDATASIZE PUSH1 0x4 PUSH2 0x2082 JUMP JUMPDEST PUSH2 0xF05 JUMP JUMPDEST CALLVALUE DUP1 ISZERO PUSH2 0x48E JUMPI PUSH0 DUP1 REVERT JUMPDEST POP PUSH2 0x2AE PUSH2 0x49D CALLDATASIZE PUSH1 0x4 PUSH2 0x2082 JUMP JUMPDEST PUSH1 0x6 PUSH1 0x20 MSTORE PUSH0 SWAP1 DUP2 MSTORE PUSH1 0x40 SWAP1 KECCAK256 SLOAD DUP2 JUMP JUMPDEST CALLVALUE DUP1 ISZERO PUSH2 0x4B9 JUMPI PUSH0 DUP1 REVERT JUMPDEST POP PUSH2 0x1E8 PUSH2 0x4C8 CALLDATASIZE PUSH1 0x4 PUSH2 0x23B0 JUMP JUMPDEST PUSH2 0x1027 JUMP JUMPDEST CALLVALUE DUP1 ISZERO PUSH2 0x4D8 JUMPI PUSH0 DUP1 REVERT JUMPDEST POP PUSH2 0x1E8 PUSH2 0x4E7 CALLDATASIZE PUSH1 0x4 PUSH2 0x2418 JUMP JUMPDEST PUSH2 0x1142 JUMP JUMPDEST CALLVALUE DUP1 ISZERO PUSH2 0x4F7 JUMPI PUSH0 DUP1 REVERT JUMPDEST POP PUSH2 0x341 PUSH2 0x506 CALLDATASIZE PUSH1 0x4 PUSH2 0x2446 JUMP JUMPDEST PUSH1 0x4 PUSH1 0x20 SWAP1 DUP2 MSTORE PUSH0 SWAP3 DUP4 MSTORE PUSH1 0x40 DUP1 DUP5 KECCAK256 SWAP1 SWAP2 MSTORE SWAP1 DUP3 MSTORE SWAP1 KECCAK256 SLOAD PUSH1 0xFF AND DUP2 JUMP JUMPDEST CALLVALUE DUP1 ISZERO PUSH2 0x530 JUMPI PUSH0 DUP1 REVERT JUMPDEST POP PUSH2 0x2AE PUSH1 0x8 SLOAD DUP2 JUMP JUMPDEST CALLVALUE DUP1 ISZERO PUSH2 0x545 JUMPI PUSH0 DUP1 REVERT JUMPDEST POP PUSH2 0x1E8 PUSH2 0x554 CALLDATASIZE PUSH1 0x4 PUSH2 0x22FA JUMP JUMPDEST PUSH2 0x127F JUMP JUMPDEST CALLVALUE DUP1 ISZERO PUSH2 0x564 JUMPI PUSH0 DUP1 REVERT JUMPDEST POP PUSH2 0x1E8 PUSH2 0x573 CALLDATASIZE PUSH1 0x4 PUSH2 0x21CF JUMP JUMPDEST PUSH2 0x1377 JUMP JUMPDEST CALLVALUE DUP1 ISZERO PUSH2 0x583 JUMPI PUSH0 DUP1 REVERT JUMPDEST POP PUSH0 SLOAD PUSH2 0x266 SWAP1 PUSH1 0x1 PUSH1 0x1 PUSH1 0xA0 SHL SUB AND DUP2 JUMP JUMPDEST CALLVALUE DUP1 ISZERO PUSH2 0x5A1 JUMPI PUSH0 DUP1 REVERT JUMPDEST POP PUSH2 0x1E8 PUSH2 0x5B0 CALLDATASIZE PUSH1 0x4 PUSH2 0x2082 JUMP JUMPDEST PUSH2 0x13B4 JUMP JUMPDEST CALLVALUE DUP1 ISZERO PUSH2 0x5C0 JUMPI PUSH0 DUP1 REVERT JUMPDEST POP PUSH2 0x341 PUSH2 0x5CF CALLDATASIZE PUSH1 0x4 PUSH2 0x2082 JUMP JUMPDEST PUSH1 0x3 PUSH1 0x20 MSTORE PUSH0 SWAP1 DUP2 MSTORE PUSH1 0x40 SWAP1 KECCAK256 SLOAD PUSH1 0xFF AND DUP2 JUMP JUMPDEST PUSH0 SLOAD PUSH1 0x1 PUSH1 0x1 PUSH1 0xA0 SHL SUB AND CALLER PUSH1 0x1 PUSH1 0x1 PUSH1 0xA0 SHL SUB AND EQ PUSH2 0x61E JUMPI PUSH1 0x40 MLOAD PUSH3 0x461BCD PUSH1 0xE5 SHL DUP2 MSTORE PUSH1 0x4 ADD PUSH2 0x615 SWAP1 PUSH2 0x2469 JUMP JUMPDEST PUSH1 0x40 MLOAD DUP1 SWAP2 SUB SWAP1 REVERT JUMPDEST PUSH2 0x626 PUSH2 0x14B9 JUMP JUMPDEST DUP1 PUSH1 0x9 SLOAD LT ISZERO PUSH2 0x678 JUMPI PUSH1 0x40 MLOAD PUSH3 0x461BCD PUSH1 0xE5 SHL DUP2 MSTORE PUSH1 0x20 PUSH1 0x4 DUP3 ADD MSTORE PUSH1 0x1C PUSH1 0x24 DUP3 ADD MSTORE PUSH32 0x496E73756666696369656E7420726573657276652062616C616E636500000000 PUSH1 0x44 DUP3 ADD MSTORE PUSH1 0x64 ADD PUSH2 0x615 JUMP JUMPDEST PUSH1 0x1 SLOAD PUSH1 0x1 PUSH1 0x1 PUSH1 0xA0 SHL SUB AND PUSH4 0xA9059CBB CALLER PUSH1 0x40 MLOAD PUSH1 0x1 PUSH1 0x1 PUSH1 0xE0 SHL SUB NOT PUSH1 0xE0 DUP5 SWAP1 SHL AND DUP2 MSTORE PUSH1 0x1 PUSH1 0x1 PUSH1 0xA0 SHL SUB SWAP1 SWAP2 AND PUSH1 0x4 DUP3 ADD MSTORE PUSH1 0x24 DUP2 ADD DUP5 SWAP1 MSTORE PUSH1 0x44 ADD PUSH1 0x20 PUSH1 0x40 MLOAD DUP1 DUP4 SUB DUP2 PUSH0 DUP8 GAS CALL ISZERO DUP1 ISZERO PUSH2 0x6D4 JUMPI RETURNDATASIZE PUSH0 DUP1 RETURNDATACOPY RETURNDATASIZE PUSH0 REVERT JUMPDEST POP POP POP POP PUSH1 0x40 MLOAD RETURNDATASIZE PUSH1 0x1F NOT PUSH1 0x1F DUP3 ADD AND DUP3 ADD DUP1 PUSH1 0x40 MSTORE POP DUP2 ADD SWAP1 PUSH2 0x6F8 SWAP2 SWAP1 PUSH2 0x24AB JUMP JUMPDEST PUSH2 0x714 JUMPI PUSH1 0x40 MLOAD PUSH3 0x461BCD PUSH1 0xE5 SHL DUP2 MSTORE PUSH1 0x4 ADD PUSH2 0x615 SWAP1 PUSH2 0x24C6 JUMP JUMPDEST DUP1 PUSH1 0x9 PUSH0 DUP3 DUP3 SLOAD PUSH2 0x725 SWAP2 SWAP1 PUSH2 0x2503 JUMP JUMPDEST SWAP1 SWAP2 SSTORE POP POP PUSH1 0x40 MLOAD DUP2 DUP2 MSTORE PUSH32 0x252F4762677E3C294CDBA42D776DA4A2C5A1259438EA5224C3BEA5B27C8F04DC SWAP1 PUSH1 0x20 ADD JUMPDEST PUSH1 0x40 MLOAD DUP1 SWAP2 SUB SWAP1 LOG1 POP JUMP JUMPDEST PUSH2 0x769 PUSH2 0x14B9 JUMP JUMPDEST DUP6 DUP5 EQ PUSH2 0x7CF JUMPI PUSH1 0x40 MLOAD PUSH3 0x461BCD PUSH1 0xE5 SHL DUP2 MSTORE PUSH1 0x20 PUSH1 0x4 DUP3 ADD MSTORE PUSH1 0x2E PUSH1 0x24 DUP3 ADD MSTORE PUSH32 0x5061727469636970616E747320616E64206E657742616C616E636573206C656E PUSH1 0x44 DUP3 ADD MSTORE PUSH14 0xCEE8D040DAEAE6E840DAC2E8C6D PUSH1 0x93 SHL PUSH1 0x64 DUP3 ADD MSTORE PUSH1 0x84 ADD PUSH2 0x615 JUMP JUMPDEST PUSH2 0x7DE DUP8 DUP8 DUP8 DUP8 DUP8 DUP8 DUP8 PUSH2 0x14E9 JUMP JUMPDEST PUSH0 JUMPDEST DUP7 DUP2 LT ISZERO PUSH2 0x838 JUMPI PUSH2 0x830 DUP9 DUP9 DUP4 DUP2 DUP2 LT PUSH2 0x7FD JUMPI PUSH2 0x7FD PUSH2 0x2516 JUMP JUMPDEST SWAP1 POP PUSH1 0x20 MUL ADD PUSH1 0x20 DUP2 ADD SWAP1 PUSH2 0x812 SWAP2 SWAP1 PUSH2 0x21CF JUMP JUMPDEST DUP8 DUP8 DUP5 DUP2 DUP2 LT PUSH2 0x824 JUMPI PUSH2 0x824 PUSH2 0x2516 JUMP JUMPDEST SWAP1 POP PUSH1 0x20 MUL ADD CALLDATALOAD PUSH2 0x1620 JUMP JUMPDEST PUSH1 0x1 ADD PUSH2 0x7E0 JUMP JUMPDEST POP PUSH32 0x1989B1FE93256BB3B4C6348F76F6F506F926F635CFA802CA3AF4826159C5874B DUP8 DUP8 DUP8 DUP8 PUSH1 0x40 MLOAD PUSH2 0x86E SWAP5 SWAP4 SWAP3 SWAP2 SWAP1 PUSH2 0x252A JUMP JUMPDEST PUSH1 0x40 MLOAD DUP1 SWAP2 SUB SWAP1 LOG1 POP POP POP POP POP POP POP JUMP JUMPDEST PUSH0 SLOAD PUSH1 0x1 PUSH1 0x1 PUSH1 0xA0 SHL SUB AND CALLER PUSH1 0x1 PUSH1 0x1 PUSH1 0xA0 SHL SUB AND EQ PUSH2 0x8B1 JUMPI PUSH1 0x40 MLOAD PUSH3 0x461BCD PUSH1 0xE5 SHL DUP2 MSTORE PUSH1 0x4 ADD PUSH2 0x615 SWAP1 PUSH2 0x2469 JUMP JUMPDEST PUSH2 0x8B9 PUSH2 0x14B9 JUMP JUMPDEST PUSH1 0x1 PUSH1 0x1 PUSH1 0xA0 SHL SUB DUP2 AND PUSH0 SWAP1 DUP2 MSTORE PUSH1 0x2 PUSH1 0x20 MSTORE PUSH1 0x40 SWAP1 KECCAK256 SLOAD PUSH2 0x915 JUMPI PUSH1 0x40 MLOAD PUSH3 0x461BCD PUSH1 0xE5 SHL DUP2 MSTORE PUSH1 0x20 PUSH1 0x4 DUP3 ADD MSTORE PUSH1 0x15 PUSH1 0x24 DUP3 ADD MSTORE PUSH21 0x4E6F2062616C616E636520746F2064697370757465 PUSH1 0x58 SHL PUSH1 0x44 DUP3 ADD MSTORE PUSH1 0x64 ADD PUSH2 0x615 JUMP JUMPDEST PUSH1 0x8 DUP1 SLOAD PUSH0 SWAP2 DUP3 PUSH2 0x925 DUP4 PUSH2 0x25A6 JUMP JUMPDEST SWAP1 SWAP2 SSTORE POP PUSH1 0x1 SLOAD PUSH1 0x40 MLOAD PUSH4 0x70A08231 PUSH1 0xE0 SHL DUP2 MSTORE ADDRESS PUSH1 0x4 DUP3 ADD MSTORE SWAP2 SWAP3 POP PUSH1 0x1 PUSH1 0x1 PUSH1 0xA0 SHL SUB AND SWAP1 PUSH4 0x70A08231 SWAP1 PUSH1 0x24 ADD PUSH1 0x20 PUSH1 0x40 MLOAD DUP1 DUP4 SUB DUP2 DUP7 GAS STATICCALL ISZERO DUP1 ISZERO PUSH2 0x970 JUMPI RETURNDATASIZE PUSH0 DUP1 RETURNDATACOPY RETURNDATASIZE PUSH0 REVERT JUMPDEST POP POP POP POP PUSH1 0x40 MLOAD RETURNDATASIZE PUSH1 0x1F NOT PUSH1 0x1F DUP3 ADD AND DUP3 ADD DUP1 PUSH1 0x40 MSTORE POP DUP2 ADD SWAP1 PUSH2 0x994 SWAP2 SWAP1 PUSH2 0x25BE JUMP JUMPDEST PUSH0 DUP3 DUP2 MSTORE PUSH1 0x6 PUSH1 0x20 SWAP1 DUP2 MSTORE PUSH1 0x40 DUP1 DUP4 KECCAK256 SWAP4 SWAP1 SWAP4 SSTORE PUSH1 0x7 DUP2 MSTORE SWAP1 DUP3 SWAP1 KECCAK256 DUP1 SLOAD PUSH1 0x1 PUSH1 0x1 PUSH1 0xA0 SHL SUB NOT AND PUSH1 0x1 PUSH1 0x1 PUSH1 0xA0 SHL SUB DUP7 AND SWAP1 DUP2 OR SWAP1 SWAP2 SSTORE SWAP2 MLOAD DUP4 DUP2 MSTORE PUSH32 0x8610D91E9F8A63773D7A3C13AA8BB8407203532A61BB703C06FCE895F9622D0D SWAP2 ADD PUSH1 0x40 MLOAD DUP1 SWAP2 SUB SWAP1 LOG2 POP POP JUMP JUMPDEST PUSH32 0xF0C57E16840DF040F15088DC2F81FE391C3923BEC73E23A9662EFC9C229C6A00 DUP1 SLOAD PUSH1 0x1 PUSH1 0x40 SHL DUP2 DIV PUSH1 0xFF AND ISZERO SWAP1 PUSH8 0xFFFFFFFFFFFFFFFF AND PUSH0 DUP2 ISZERO DUP1 ISZERO PUSH2 0xA45 JUMPI POP DUP3 JUMPDEST SWAP1 POP PUSH0 DUP3 PUSH8 0xFFFFFFFFFFFFFFFF AND PUSH1 0x1 EQ DUP1 ISZERO PUSH2 0xA61 JUMPI POP ADDRESS EXTCODESIZE ISZERO JUMPDEST SWAP1 POP DUP2 ISZERO DUP1 ISZERO PUSH2 0xA6F JUMPI POP DUP1 ISZERO JUMPDEST ISZERO PUSH2 0xA8D JUMPI PUSH1 0x40 MLOAD PUSH4 0xF92EE8A9 PUSH1 0xE0 SHL DUP2 MSTORE PUSH1 0x4 ADD PUSH1 0x40 MLOAD DUP1 SWAP2 SUB SWAP1 REVERT JUMPDEST DUP5 SLOAD PUSH8 0xFFFFFFFFFFFFFFFF NOT AND PUSH1 0x1 OR DUP6 SSTORE DUP4 ISZERO PUSH2 0xAB7 JUMPI DUP5 SLOAD PUSH1 0xFF PUSH1 0x40 SHL NOT AND PUSH1 0x1 PUSH1 0x40 SHL OR DUP6 SSTORE JUMPDEST PUSH2 0xABF PUSH2 0x1789 JUMP JUMPDEST PUSH2 0xAC7 PUSH2 0x1791 JUMP JUMPDEST PUSH2 0xAD0 DUP9 PUSH2 0x17A1 JUMP JUMPDEST PUSH2 0xAD8 PUSH2 0x1789 JUMP JUMPDEST PUSH0 DUP1 SLOAD PUSH1 0x1 PUSH1 0x1 PUSH1 0xA0 SHL SUB DUP1 DUP12 AND PUSH1 0x1 PUSH1 0x1 PUSH1 0xA0 SHL SUB NOT SWAP3 DUP4 AND OR SWAP1 SWAP3 SSTORE PUSH1 0x1 DUP1 SLOAD SWAP3 DUP11 AND SWAP3 SWAP1 SWAP2 AND SWAP2 SWAP1 SWAP2 OR DUP2 SSTORE PUSH1 0x8 SSTORE PUSH1 0x9 DUP7 SWAP1 SSTORE DUP4 ISZERO PUSH2 0xB55 JUMPI DUP5 SLOAD PUSH1 0xFF PUSH1 0x40 SHL NOT AND DUP6 SSTORE PUSH1 0x40 MLOAD PUSH1 0x1 DUP2 MSTORE PUSH32 0xC7F505B2F371AE2175EE4913F4499E1F2633A7B5936321EED1CDAEB6115181D2 SWAP1 PUSH1 0x20 ADD PUSH1 0x40 MLOAD DUP1 SWAP2 SUB SWAP1 LOG1 JUMPDEST POP POP POP POP POP POP POP POP JUMP JUMPDEST PUSH2 0xB67 PUSH2 0x17B2 JUMP JUMPDEST PUSH2 0xB6F PUSH2 0x180D JUMP JUMPDEST JUMP JUMPDEST PUSH2 0xB79 PUSH2 0x1866 JUMP JUMPDEST PUSH2 0xB82 DUP3 PUSH2 0x190A JUMP JUMPDEST PUSH2 0xB8C DUP3 DUP3 PUSH2 0x1912 JUMP JUMPDEST POP POP JUMP JUMPDEST PUSH0 PUSH2 0xB99 PUSH2 0x19D3 JUMP JUMPDEST POP PUSH0 DUP1 MLOAD PUSH1 0x20 PUSH2 0x268E DUP4 CODECOPY DUP2 MLOAD SWAP2 MSTORE SWAP1 JUMP JUMPDEST PUSH2 0xBB3 PUSH2 0x14B9 JUMP JUMPDEST PUSH2 0xBC1 CALLER JUMPDEST DUP6 DUP6 DUP6 DUP6 PUSH2 0x1A1C JUMP JUMPDEST PUSH2 0xBCC CALLER JUMPDEST DUP6 PUSH2 0x1620 JUMP JUMPDEST PUSH1 0x40 MLOAD DUP5 DUP2 MSTORE CALLER SWAP1 PUSH32 0x7200CD3D0176B58EA53053A648B9A9CFB0D0D13A52488E14A16E0037B2241D21 SWAP1 PUSH1 0x20 ADD JUMPDEST PUSH1 0x40 MLOAD DUP1 SWAP2 SUB SWAP1 LOG2 POP POP POP POP JUMP JUMPDEST PUSH0 SLOAD PUSH1 0x1 PUSH1 0x1 PUSH1 0xA0 SHL SUB AND CALLER PUSH1 0x1 PUSH1 0x1 PUSH1 0xA0 SHL SUB AND EQ PUSH2 0xC3A JUMPI PUSH1 0x40 MLOAD PUSH3 0x461BCD PUSH1 0xE5 SHL DUP2 MSTORE PUSH1 0x4 ADD PUSH2 0x615 SWAP1 PUSH2 0x2469 JUMP JUMPDEST PUSH2 0xC42 PUSH2 0x14B9 JUMP JUMPDEST PUSH0 DUP2 DUP2 MSTORE PUSH1 0x6 PUSH1 0x20 SWAP1 DUP2 MSTORE PUSH1 0x40 DUP1 DUP4 KECCAK256 SLOAD PUSH1 0x5 SWAP1 SWAP3 MSTORE SWAP1 SWAP2 KECCAK256 SLOAD PUSH2 0xC67 SWAP1 PUSH1 0x2 PUSH2 0x25D5 JUMP JUMPDEST LT ISZERO PUSH2 0xCBF JUMPI PUSH1 0x40 MLOAD PUSH3 0x461BCD PUSH1 0xE5 SHL DUP2 MSTORE PUSH1 0x20 PUSH1 0x4 DUP3 ADD MSTORE PUSH1 0x21 PUSH1 0x24 DUP3 ADD MSTORE PUSH32 0x4E6F7420656E6F75676820766F74657320746F20636C6F7365206368616E6E65 PUSH1 0x44 DUP3 ADD MSTORE PUSH1 0x1B PUSH1 0xFA SHL PUSH1 0x64 DUP3 ADD MSTORE PUSH1 0x84 ADD PUSH2 0x615 JUMP JUMPDEST PUSH0 DUP2 DUP2 MSTORE PUSH1 0x7 PUSH1 0x20 MSTORE PUSH1 0x40 SWAP1 KECCAK256 SLOAD PUSH1 0x1 PUSH1 0x1 PUSH1 0xA0 SHL SUB DUP5 DUP2 AND SWAP2 AND EQ PUSH2 0xD32 JUMPI PUSH1 0x40 MLOAD PUSH3 0x461BCD PUSH1 0xE5 SHL DUP2 MSTORE PUSH1 0x20 PUSH1 0x4 DUP3 ADD MSTORE PUSH1 0x22 PUSH1 0x24 DUP3 ADD MSTORE PUSH32 0x566F746520494420646F6573206E6F74206D6174636820706172746963697061 PUSH1 0x44 DUP3 ADD MSTORE PUSH2 0x1B9D PUSH1 0xF2 SHL PUSH1 0x64 DUP3 ADD MSTORE PUSH1 0x84 ADD PUSH2 0x615 JUMP JUMPDEST PUSH2 0xD3C DUP4 DUP4 PUSH2 0x1620 JUMP JUMPDEST PUSH1 0x1 SLOAD PUSH1 0x40 MLOAD PUSH4 0xA9059CBB PUSH1 0xE0 SHL DUP2 MSTORE PUSH1 0x1 PUSH1 0x1 PUSH1 0xA0 SHL SUB DUP6 DUP2 AND PUSH1 0x4 DUP4 ADD MSTORE PUSH1 0x24 DUP3 ADD DUP6 SWAP1 MSTORE SWAP1 SWAP2 AND SWAP1 PUSH4 0xA9059CBB SWAP1 PUSH1 0x44 ADD PUSH1 0x20 PUSH1 0x40 MLOAD DUP1 DUP4 SUB DUP2 PUSH0 DUP8 GAS CALL ISZERO DUP1 ISZERO PUSH2 0xD8C JUMPI RETURNDATASIZE PUSH0 DUP1 RETURNDATACOPY RETURNDATASIZE PUSH0 REVERT JUMPDEST POP POP POP POP PUSH1 0x40 MLOAD RETURNDATASIZE PUSH1 0x1F NOT PUSH1 0x1F DUP3 ADD AND DUP3 ADD DUP1 PUSH1 0x40 MSTORE POP DUP2 ADD SWAP1 PUSH2 0xDB0 SWAP2 SWAP1 PUSH2 0x24AB JUMP JUMPDEST PUSH2 0xDCC JUMPI PUSH1 0x40 MLOAD PUSH3 0x461BCD PUSH1 0xE5 SHL DUP2 MSTORE PUSH1 0x4 ADD PUSH2 0x615 SWAP1 PUSH2 0x24C6 JUMP JUMPDEST PUSH1 0x1 PUSH1 0x1 PUSH1 0xA0 SHL SUB DUP4 AND PUSH0 DUP2 DUP2 MSTORE PUSH1 0x2 PUSH1 0x20 SWAP1 DUP2 MSTORE PUSH1 0x40 DUP1 DUP4 KECCAK256 SWAP3 SWAP1 SWAP3 SSTORE DUP2 MLOAD DUP6 DUP2 MSTORE SWAP1 DUP2 ADD DUP5 SWAP1 MSTORE PUSH32 0x93AF0759C861F9140BE6D1C461033B560DBA0E077676CE380708438F5EE23F62 SWAP2 ADD JUMPDEST PUSH1 0x40 MLOAD DUP1 SWAP2 SUB SWAP1 LOG2 POP POP POP JUMP JUMPDEST PUSH2 0xE2E PUSH2 0x17B2 JUMP JUMPDEST PUSH2 0xB6F PUSH0 PUSH2 0x1B66 JUMP JUMPDEST PUSH2 0xE3F PUSH2 0x17B2 JUMP JUMPDEST PUSH2 0xB6F PUSH2 0x1BD6 JUMP JUMPDEST PUSH2 0xE4F PUSH2 0x17B2 JUMP JUMPDEST PUSH2 0xE57 PUSH2 0x14B9 JUMP JUMPDEST PUSH1 0x1 PUSH1 0x1 PUSH1 0xA0 SHL SUB DUP2 AND PUSH2 0xEBE JUMPI PUSH1 0x40 MLOAD PUSH3 0x461BCD PUSH1 0xE5 SHL DUP2 MSTORE PUSH1 0x20 PUSH1 0x4 DUP3 ADD MSTORE PUSH1 0x28 PUSH1 0x24 DUP3 ADD MSTORE PUSH32 0x4E65772061646D696E20616464726573732063616E6E6F74206265207A65726F PUSH1 0x44 DUP3 ADD MSTORE PUSH8 0x2061646472657373 PUSH1 0xC0 SHL PUSH1 0x64 DUP3 ADD MSTORE PUSH1 0x84 ADD PUSH2 0x615 JUMP JUMPDEST PUSH0 DUP1 SLOAD PUSH1 0x1 PUSH1 0x1 PUSH1 0xA0 SHL SUB NOT AND PUSH1 0x1 PUSH1 0x1 PUSH1 0xA0 SHL SUB DUP4 AND SWAP1 DUP2 OR DUP3 SSTORE PUSH1 0x40 MLOAD SWAP1 SWAP2 PUSH32 0x7CE7EC0B50378FB6C0186FFB5F48325F6593FCB4CA4386F21861AF3129188F5C SWAP2 LOG2 POP JUMP JUMPDEST PUSH0 SLOAD PUSH1 0x1 PUSH1 0x1 PUSH1 0xA0 SHL SUB AND CALLER PUSH1 0x1 PUSH1 0x1 PUSH1 0xA0 SHL SUB AND EQ PUSH2 0xF37 JUMPI PUSH1 0x40 MLOAD PUSH3 0x461BCD PUSH1 0xE5 SHL DUP2 MSTORE PUSH1 0x4 ADD PUSH2 0x615 SWAP1 PUSH2 0x2469 JUMP JUMPDEST PUSH2 0xF3F PUSH2 0x14B9 JUMP JUMPDEST PUSH1 0x1 SLOAD PUSH1 0x1 PUSH1 0x1 PUSH1 0xA0 SHL SUB AND PUSH4 0x23B872DD CALLER PUSH1 0x40 MLOAD PUSH1 0x1 PUSH1 0x1 PUSH1 0xE0 SHL SUB NOT PUSH1 0xE0 DUP5 SWAP1 SHL AND DUP2 MSTORE PUSH1 0x1 PUSH1 0x1 PUSH1 0xA0 SHL SUB SWAP1 SWAP2 AND PUSH1 0x4 DUP3 ADD MSTORE ADDRESS PUSH1 0x24 DUP3 ADD MSTORE PUSH1 0x44 DUP2 ADD DUP5 SWAP1 MSTORE PUSH1 0x64 ADD PUSH1 0x20 PUSH1 0x40 MLOAD DUP1 DUP4 SUB DUP2 PUSH0 DUP8 GAS CALL ISZERO DUP1 ISZERO PUSH2 0xFA1 JUMPI RETURNDATASIZE PUSH0 DUP1 RETURNDATACOPY RETURNDATASIZE PUSH0 REVERT JUMPDEST POP POP POP POP PUSH1 0x40 MLOAD RETURNDATASIZE PUSH1 0x1F NOT PUSH1 0x1F DUP3 ADD AND DUP3 ADD DUP1 PUSH1 0x40 MSTORE POP DUP2 ADD SWAP1 PUSH2 0xFC5 SWAP2 SWAP1 PUSH2 0x24AB JUMP JUMPDEST PUSH2 0xFE1 JUMPI PUSH1 0x40 MLOAD PUSH3 0x461BCD PUSH1 0xE5 SHL DUP2 MSTORE PUSH1 0x4 ADD PUSH2 0x615 SWAP1 PUSH2 0x24C6 JUMP JUMPDEST DUP1 PUSH1 0x9 PUSH0 DUP3 DUP3 SLOAD PUSH2 0xFF2 SWAP2 SWAP1 PUSH2 0x25EC JUMP JUMPDEST SWAP1 SWAP2 SSTORE POP POP PUSH1 0x40 MLOAD DUP2 DUP2 MSTORE PUSH32 0x372B1A73EA80DE8B8F35B0CF88147A1FBC354F7FB9D1409431199A619ACD0C98 SWAP1 PUSH1 0x20 ADD PUSH2 0x756 JUMP JUMPDEST PUSH0 SLOAD PUSH1 0x1 PUSH1 0x1 PUSH1 0xA0 SHL SUB AND CALLER PUSH1 0x1 PUSH1 0x1 PUSH1 0xA0 SHL SUB AND EQ PUSH2 0x1059 JUMPI PUSH1 0x40 MLOAD PUSH3 0x461BCD PUSH1 0xE5 SHL DUP2 MSTORE PUSH1 0x4 ADD PUSH2 0x615 SWAP1 PUSH2 0x2469 JUMP JUMPDEST PUSH2 0x1061 PUSH2 0x14B9 JUMP JUMPDEST DUP3 DUP2 EQ PUSH2 0x10B0 JUMPI PUSH1 0x40 MLOAD PUSH3 0x461BCD PUSH1 0xE5 SHL DUP2 MSTORE PUSH1 0x20 PUSH1 0x4 DUP3 ADD MSTORE PUSH1 0x18 PUSH1 0x24 DUP3 ADD MSTORE PUSH32 0x4172726179206C656E67746873206D757374206D617463680000000000000000 PUSH1 0x44 DUP3 ADD MSTORE PUSH1 0x64 ADD PUSH2 0x615 JUMP JUMPDEST PUSH0 JUMPDEST DUP4 DUP2 LT ISZERO PUSH2 0x10FE JUMPI PUSH2 0x10F6 DUP6 DUP6 DUP4 DUP2 DUP2 LT PUSH2 0x10CF JUMPI PUSH2 0x10CF PUSH2 0x2516 JUMP JUMPDEST SWAP1 POP PUSH1 0x20 MUL ADD PUSH1 0x20 DUP2 ADD SWAP1 PUSH2 0x10E4 SWAP2 SWAP1 PUSH2 0x21CF JUMP JUMPDEST DUP5 DUP5 DUP5 DUP2 DUP2 LT PUSH2 0x824 JUMPI PUSH2 0x824 PUSH2 0x2516 JUMP JUMPDEST PUSH1 0x1 ADD PUSH2 0x10B2 JUMP JUMPDEST POP PUSH32 0x9071B044465A4E855AABAE9828B35D03EFF50E0110996249E9BD9ADD0D117ED7 DUP5 DUP5 DUP5 DUP5 PUSH1 0x40 MLOAD PUSH2 0x1134 SWAP5 SWAP4 SWAP3 SWAP2 SWAP1 PUSH2 0x252A JUMP JUMPDEST PUSH1 0x40 MLOAD DUP1 SWAP2 SUB SWAP1 LOG1 POP POP POP POP JUMP JUMPDEST PUSH2 0x114A PUSH2 0x14B9 JUMP JUMPDEST CALLER PUSH0 SWAP1 DUP2 MSTORE PUSH1 0x2 PUSH1 0x20 MSTORE PUSH1 0x40 SWAP1 KECCAK256 SLOAD PUSH2 0x119A JUMPI PUSH1 0x40 MLOAD PUSH3 0x461BCD PUSH1 0xE5 SHL DUP2 MSTORE PUSH1 0x20 PUSH1 0x4 DUP3 ADD MSTORE PUSH1 0x12 PUSH1 0x24 DUP3 ADD MSTORE PUSH18 0x4E6F2062616C616E636520746F20766F7465 PUSH1 0x70 SHL PUSH1 0x44 DUP3 ADD MSTORE PUSH1 0x64 ADD PUSH2 0x615 JUMP JUMPDEST PUSH0 DUP3 DUP2 MSTORE PUSH1 0x4 PUSH1 0x20 SWAP1 DUP2 MSTORE PUSH1 0x40 DUP1 DUP4 KECCAK256 CALLER DUP5 MSTORE SWAP1 SWAP2 MSTORE SWAP1 KECCAK256 SLOAD PUSH1 0xFF AND ISZERO PUSH2 0x11F3 JUMPI PUSH1 0x40 MLOAD PUSH3 0x461BCD PUSH1 0xE5 SHL DUP2 MSTORE PUSH1 0x20 PUSH1 0x4 DUP3 ADD MSTORE PUSH1 0xD PUSH1 0x24 DUP3 ADD MSTORE PUSH13 0x105B1C9958591E481D9BDD1959 PUSH1 0x9A SHL PUSH1 0x44 DUP3 ADD MSTORE PUSH1 0x64 ADD PUSH2 0x615 JUMP JUMPDEST PUSH0 DUP3 DUP2 MSTORE PUSH1 0x4 PUSH1 0x20 SWAP1 DUP2 MSTORE PUSH1 0x40 DUP1 DUP4 KECCAK256 CALLER DUP5 MSTORE DUP3 MSTORE DUP1 DUP4 KECCAK256 DUP1 SLOAD PUSH1 0xFF NOT AND PUSH1 0x1 OR SWAP1 SSTORE PUSH1 0x2 SWAP1 SWAP2 MSTORE SWAP1 KECCAK256 SLOAD DUP2 ISZERO PUSH2 0x1247 JUMPI PUSH0 DUP4 DUP2 MSTORE PUSH1 0x5 PUSH1 0x20 MSTORE PUSH1 0x40 DUP2 KECCAK256 DUP1 SLOAD DUP4 SWAP3 SWAP1 PUSH2 0x1241 SWAP1 DUP5 SWAP1 PUSH2 0x25EC JUMP JUMPDEST SWAP1 SWAP2 SSTORE POP POP JUMPDEST PUSH1 0x40 DUP1 MLOAD DUP5 DUP2 MSTORE PUSH1 0x20 DUP2 ADD DUP4 SWAP1 MSTORE CALLER SWAP2 PUSH32 0x1ABE610CF2BF87E57DCC1181FCF5AC0934E843D8344AB9EED6E86C799F62585E SWAP2 ADD PUSH2 0xE19 JUMP JUMPDEST PUSH2 0x1287 PUSH2 0x14B9 JUMP JUMPDEST PUSH2 0x1290 CALLER PUSH2 0xBB8 JUMP JUMPDEST PUSH2 0x1299 CALLER PUSH2 0xBC6 JUMP JUMPDEST PUSH1 0x1 SLOAD PUSH1 0x1 PUSH1 0x1 PUSH1 0xA0 SHL SUB AND PUSH4 0xA9059CBB CALLER PUSH1 0x40 MLOAD PUSH1 0x1 PUSH1 0x1 PUSH1 0xE0 SHL SUB NOT PUSH1 0xE0 DUP5 SWAP1 SHL AND DUP2 MSTORE PUSH1 0x1 PUSH1 0x1 PUSH1 0xA0 SHL SUB SWAP1 SWAP2 AND PUSH1 0x4 DUP3 ADD MSTORE PUSH1 0x24 DUP2 ADD DUP8 SWAP1 MSTORE PUSH1 0x44 ADD PUSH1 0x20 PUSH1 0x40 MLOAD DUP1 DUP4 SUB DUP2 PUSH0 DUP8 GAS CALL ISZERO DUP1 ISZERO PUSH2 0x12F5 JUMPI RETURNDATASIZE PUSH0 DUP1 RETURNDATACOPY RETURNDATASIZE PUSH0 REVERT JUMPDEST POP POP POP POP PUSH1 0x40 MLOAD RETURNDATASIZE PUSH1 0x1F NOT PUSH1 0x1F DUP3 ADD AND DUP3 ADD DUP1 PUSH1 0x40 MSTORE POP DUP2 ADD SWAP1 PUSH2 0x1319 SWAP2 SWAP1 PUSH2 0x24AB JUMP JUMPDEST PUSH2 0x1335 JUMPI PUSH1 0x40 MLOAD PUSH3 0x461BCD PUSH1 0xE5 SHL DUP2 MSTORE PUSH1 0x4 ADD PUSH2 0x615 SWAP1 PUSH2 0x24C6 JUMP JUMPDEST CALLER PUSH0 DUP2 DUP2 MSTORE PUSH1 0x2 PUSH1 0x20 SWAP1 DUP2 MSTORE PUSH1 0x40 DUP1 DUP4 KECCAK256 SWAP3 SWAP1 SWAP3 SSTORE SWAP1 MLOAD DUP7 DUP2 MSTORE PUSH32 0x770342EE36990141B5B1F4B3B41A184D7968647AC7F0DBFD2D86D566C468027D SWAP2 ADD PUSH2 0xBFA JUMP JUMPDEST PUSH2 0x137F PUSH2 0x17B2 JUMP JUMPDEST PUSH1 0x1 PUSH1 0x1 PUSH1 0xA0 SHL SUB DUP2 AND PUSH2 0x13A8 JUMPI PUSH1 0x40 MLOAD PUSH4 0x1E4FBDF7 PUSH1 0xE0 SHL DUP2 MSTORE PUSH0 PUSH1 0x4 DUP3 ADD MSTORE PUSH1 0x24 ADD PUSH2 0x615 JUMP JUMPDEST PUSH2 0x13B1 DUP2 PUSH2 0x1B66 JUMP JUMPDEST POP JUMP JUMPDEST PUSH2 0x13BC PUSH2 0x14B9 JUMP JUMPDEST PUSH1 0x1 SLOAD PUSH1 0x1 PUSH1 0x1 PUSH1 0xA0 SHL SUB AND PUSH4 0x23B872DD CALLER PUSH1 0x40 MLOAD PUSH1 0x1 PUSH1 0x1 PUSH1 0xE0 SHL SUB NOT PUSH1 0xE0 DUP5 SWAP1 SHL AND DUP2 MSTORE PUSH1 0x1 PUSH1 0x1 PUSH1 0xA0 SHL SUB SWAP1 SWAP2 AND PUSH1 0x4 DUP3 ADD MSTORE ADDRESS PUSH1 0x24 DUP3 ADD MSTORE PUSH1 0x44 DUP2 ADD DUP5 SWAP1 MSTORE PUSH1 0x64 ADD PUSH1 0x20 PUSH1 0x40 MLOAD DUP1 DUP4 SUB DUP2 PUSH0 DUP8 GAS CALL ISZERO DUP1 ISZERO PUSH2 0x141E JUMPI RETURNDATASIZE PUSH0 DUP1 RETURNDATACOPY RETURNDATASIZE PUSH0 REVERT JUMPDEST POP POP POP POP PUSH1 0x40 MLOAD RETURNDATASIZE PUSH1 0x1F NOT PUSH1 0x1F DUP3 ADD AND DUP3 ADD DUP1 PUSH1 0x40 MSTORE POP DUP2 ADD SWAP1 PUSH2 0x1442 SWAP2 SWAP1 PUSH2 0x24AB JUMP JUMPDEST PUSH2 0x145E JUMPI PUSH1 0x40 MLOAD PUSH3 0x461BCD PUSH1 0xE5 SHL DUP2 MSTORE PUSH1 0x4 ADD PUSH2 0x615 SWAP1 PUSH2 0x24C6 JUMP JUMPDEST CALLER PUSH0 SWAP1 DUP2 MSTORE PUSH1 0x2 PUSH1 0x20 MSTORE PUSH1 0x40 DUP2 KECCAK256 DUP1 SLOAD DUP4 SWAP3 SWAP1 PUSH2 0x147C SWAP1 DUP5 SWAP1 PUSH2 0x25EC JUMP JUMPDEST SWAP1 SWAP2 SSTORE POP POP PUSH1 0x40 MLOAD DUP2 DUP2 MSTORE CALLER SWAP1 PUSH32 0xAF952B0A28349F5FFFF2D98AA9050EA845ADBE423FF73AC5DA5F268834AE3AC0 SWAP1 PUSH1 0x20 ADD PUSH1 0x40 MLOAD DUP1 SWAP2 SUB SWAP1 LOG2 POP JUMP JUMPDEST PUSH0 DUP1 MLOAD PUSH1 0x20 PUSH2 0x26AE DUP4 CODECOPY DUP2 MLOAD SWAP2 MSTORE SLOAD PUSH1 0xFF AND ISZERO PUSH2 0xB6F JUMPI PUSH1 0x40 MLOAD PUSH4 0xD93C0665 PUSH1 0xE0 SHL DUP2 MSTORE PUSH1 0x4 ADD PUSH1 0x40 MLOAD DUP1 SWAP2 SUB SWAP1 REVERT JUMPDEST PUSH0 DUP8 DUP8 DUP8 DUP8 DUP8 PUSH1 0x40 MLOAD PUSH1 0x20 ADD PUSH2 0x1503 SWAP6 SWAP5 SWAP4 SWAP3 SWAP2 SWAP1 PUSH2 0x25FF JUMP JUMPDEST PUSH1 0x40 MLOAD PUSH1 0x20 DUP2 DUP4 SUB SUB DUP2 MSTORE SWAP1 PUSH1 0x40 MSTORE DUP1 MLOAD SWAP1 PUSH1 0x20 ADD KECCAK256 SWAP1 POP PUSH2 0x155C DUP4 DUP4 DUP1 DUP1 PUSH1 0x1F ADD PUSH1 0x20 DUP1 SWAP2 DIV MUL PUSH1 0x20 ADD PUSH1 0x40 MLOAD SWAP1 DUP2 ADD PUSH1 0x40 MSTORE DUP1 SWAP4 SWAP3 SWAP2 SWAP1 DUP2 DUP2 MSTORE PUSH1 0x20 ADD DUP4 DUP4 DUP1 DUP3 DUP5 CALLDATACOPY PUSH0 SWAP3 ADD SWAP2 SWAP1 SWAP2 MSTORE POP DUP6 SWAP4 SWAP3 POP POP PUSH2 0x1C1E SWAP1 POP JUMP JUMPDEST PUSH0 SLOAD PUSH1 0x1 PUSH1 0x1 PUSH1 0xA0 SHL SUB SWAP1 DUP2 AND SWAP2 AND EQ PUSH2 0x15AC JUMPI PUSH1 0x40 MLOAD PUSH3 0x461BCD PUSH1 0xE5 SHL DUP2 MSTORE PUSH1 0x20 PUSH1 0x4 DUP3 ADD MSTORE PUSH1 0x11 PUSH1 0x24 DUP3 ADD MSTORE PUSH17 0x496E76616C6964207369676E6174757265 PUSH1 0x78 SHL PUSH1 0x44 DUP3 ADD MSTORE PUSH1 0x64 ADD PUSH2 0x615 JUMP JUMPDEST PUSH0 DUP2 DUP2 MSTORE PUSH1 0x3 PUSH1 0x20 MSTORE PUSH1 0x40 SWAP1 KECCAK256 SLOAD PUSH1 0xFF AND ISZERO PUSH2 0x15FF JUMPI PUSH1 0x40 MLOAD PUSH3 0x461BCD PUSH1 0xE5 SHL DUP2 MSTORE PUSH1 0x20 PUSH1 0x4 DUP3 ADD MSTORE PUSH1 0x12 PUSH1 0x24 DUP3 ADD MSTORE PUSH18 0x139BDB98D948185B1C9958591E481D5CD959 PUSH1 0x72 SHL PUSH1 0x44 DUP3 ADD MSTORE PUSH1 0x64 ADD PUSH2 0x615 JUMP JUMPDEST PUSH0 SWAP1 DUP2 MSTORE PUSH1 0x3 PUSH1 0x20 MSTORE PUSH1 0x40 SWAP1 KECCAK256 DUP1 SLOAD PUSH1 0xFF NOT AND PUSH1 0x1 OR SWAP1 SSTORE POP POP POP POP POP POP POP JUMP JUMPDEST PUSH1 0x1 PUSH1 0x1 PUSH1 0xA0 SHL SUB DUP3 AND PUSH0 SWAP1 DUP2 MSTORE PUSH1 0x2 PUSH1 0x20 MSTORE PUSH1 0x40 SWAP1 KECCAK256 SLOAD DUP2 GT ISZERO PUSH2 0x16FE JUMPI PUSH1 0x1 PUSH1 0x1 PUSH1 0xA0 SHL SUB DUP3 AND PUSH0 SWAP1 DUP2 MSTORE PUSH1 0x2 PUSH1 0x20 MSTORE PUSH1 0x40 DUP2 KECCAK256 SLOAD PUSH2 0x1661 SWAP1 DUP4 PUSH2 0x2503 JUMP JUMPDEST SWAP1 POP DUP1 PUSH1 0x9 SLOAD LT ISZERO PUSH2 0x16B5 JUMPI PUSH1 0x40 MLOAD PUSH3 0x461BCD PUSH1 0xE5 SHL DUP2 MSTORE PUSH1 0x20 PUSH1 0x4 DUP3 ADD MSTORE PUSH1 0x1A PUSH1 0x24 DUP3 ADD MSTORE PUSH32 0x4E6F7420656E6F75676820726573657276652062616C616E6365000000000000 PUSH1 0x44 DUP3 ADD MSTORE PUSH1 0x64 ADD PUSH2 0x615 JUMP JUMPDEST DUP1 PUSH1 0x9 PUSH0 DUP3 DUP3 SLOAD PUSH2 0x16C6 SWAP2 SWAP1 PUSH2 0x2503 JUMP JUMPDEST SWAP1 SWAP2 SSTORE POP POP PUSH1 0x1 PUSH1 0x1 PUSH1 0xA0 SHL SUB DUP4 AND PUSH0 SWAP1 DUP2 MSTORE PUSH1 0x2 PUSH1 0x20 MSTORE PUSH1 0x40 DUP2 KECCAK256 DUP1 SLOAD DUP4 SWAP3 SWAP1 PUSH2 0x16F2 SWAP1 DUP5 SWAP1 PUSH2 0x25EC JUMP JUMPDEST SWAP1 SWAP2 SSTORE POP PUSH2 0xB8C SWAP2 POP POP JUMP JUMPDEST PUSH1 0x1 PUSH1 0x1 PUSH1 0xA0 SHL SUB DUP3 AND PUSH0 SWAP1 DUP2 MSTORE PUSH1 0x2 PUSH1 0x20 MSTORE PUSH1 0x40 SWAP1 KECCAK256 SLOAD DUP2 LT ISZERO PUSH2 0xB8C JUMPI PUSH1 0x1 PUSH1 0x1 PUSH1 0xA0 SHL SUB DUP3 AND PUSH0 SWAP1 DUP2 MSTORE PUSH1 0x2 PUSH1 0x20 MSTORE PUSH1 0x40 DUP2 KECCAK256 SLOAD PUSH2 0x1740 SWAP1 DUP4 SWAP1 PUSH2 0x2503 JUMP JUMPDEST SWAP1 POP DUP1 PUSH1 0x9 PUSH0 DUP3 DUP3 SLOAD PUSH2 0x1753 SWAP2 SWAP1 PUSH2 0x25EC JUMP JUMPDEST SWAP1 SWAP2 SSTORE POP POP PUSH1 0x1 PUSH1 0x1 PUSH1 0xA0 SHL SUB DUP4 AND PUSH0 SWAP1 DUP2 MSTORE PUSH1 0x2 PUSH1 0x20 MSTORE PUSH1 0x40 DUP2 KECCAK256 DUP1 SLOAD DUP4 SWAP3 SWAP1 PUSH2 0x177F SWAP1 DUP5 SWAP1 PUSH2 0x2503 JUMP JUMPDEST SWAP1 SWAP2 SSTORE POP POP POP POP POP JUMP JUMPDEST PUSH2 0xB6F PUSH2 0x1C48 JUMP JUMPDEST PUSH2 0x1799 PUSH2 0x1C48 JUMP JUMPDEST PUSH2 0xB6F PUSH2 0x1C91 JUMP JUMPDEST PUSH2 0x17A9 PUSH2 0x1C48 JUMP JUMPDEST PUSH2 0x13B1 DUP2 PUSH2 0x1CB1 JUMP JUMPDEST CALLER PUSH2 0x17E4 PUSH32 0x9016D09D72D40FDAE2FD8CEAC6B6234C7706214FD39C1CD1E609A0528C199300 SLOAD PUSH1 0x1 PUSH1 0x1 PUSH1 0xA0 SHL SUB AND SWAP1 JUMP JUMPDEST PUSH1 0x1 PUSH1 0x1 PUSH1 0xA0 SHL SUB AND EQ PUSH2 0xB6F JUMPI PUSH1 0x40 MLOAD PUSH4 0x118CDAA7 PUSH1 0xE0 SHL DUP2 MSTORE CALLER PUSH1 0x4 DUP3 ADD MSTORE PUSH1 0x24 ADD PUSH2 0x615 JUMP JUMPDEST PUSH2 0x1815 PUSH2 0x1CB9 JUMP JUMPDEST PUSH0 DUP1 MLOAD PUSH1 0x20 PUSH2 0x26AE DUP4 CODECOPY DUP2 MLOAD SWAP2 MSTORE DUP1 SLOAD PUSH1 0xFF NOT AND DUP2 SSTORE PUSH32 0x5DB9EE0A495BF2E6FF9C91A7834C1BA4FDD244A5E8AA4E537BD38AEAE4B073AA CALLER JUMPDEST PUSH1 0x40 MLOAD PUSH1 0x1 PUSH1 0x1 PUSH1 0xA0 SHL SUB SWAP1 SWAP2 AND DUP2 MSTORE PUSH1 0x20 ADD PUSH2 0x756 JUMP JUMPDEST ADDRESS PUSH1 0x1 PUSH1 0x1 PUSH1 0xA0 SHL SUB PUSH32 0x0 AND EQ DUP1 PUSH2 0x18EC JUMPI POP PUSH32 0x0 PUSH1 0x1 PUSH1 0x1 PUSH1 0xA0 SHL SUB AND PUSH2 0x18E0 PUSH0 DUP1 MLOAD PUSH1 0x20 PUSH2 0x268E DUP4 CODECOPY DUP2 MLOAD SWAP2 MSTORE SLOAD PUSH1 0x1 PUSH1 0x1 PUSH1 0xA0 SHL SUB AND SWAP1 JUMP JUMPDEST PUSH1 0x1 PUSH1 0x1 PUSH1 0xA0 SHL SUB AND EQ ISZERO JUMPDEST ISZERO PUSH2 0xB6F JUMPI PUSH1 0x40 MLOAD PUSH4 0x703E46DD PUSH1 0xE1 SHL DUP2 MSTORE PUSH1 0x4 ADD PUSH1 0x40 MLOAD DUP1 SWAP2 SUB SWAP1 REVERT JUMPDEST PUSH2 0x13B1 PUSH2 0x17B2 JUMP JUMPDEST DUP2 PUSH1 0x1 PUSH1 0x1 PUSH1 0xA0 SHL SUB AND PUSH4 0x52D1902D PUSH1 0x40 MLOAD DUP2 PUSH4 0xFFFFFFFF AND PUSH1 0xE0 SHL DUP2 MSTORE PUSH1 0x4 ADD PUSH1 0x20 PUSH1 0x40 MLOAD DUP1 DUP4 SUB DUP2 DUP7 GAS STATICCALL SWAP3 POP POP POP DUP1 ISZERO PUSH2 0x196C JUMPI POP PUSH1 0x40 DUP1 MLOAD PUSH1 0x1F RETURNDATASIZE SWAP1 DUP2 ADD PUSH1 0x1F NOT AND DUP3 ADD SWAP1 SWAP3 MSTORE PUSH2 0x1969 SWAP2 DUP2 ADD SWAP1 PUSH2 0x25BE JUMP JUMPDEST PUSH1 0x1 JUMPDEST PUSH2 0x1994 JUMPI PUSH1 0x40 MLOAD PUSH4 0x4C9C8CE3 PUSH1 0xE0 SHL DUP2 MSTORE PUSH1 0x1 PUSH1 0x1 PUSH1 0xA0 SHL SUB DUP4 AND PUSH1 0x4 DUP3 ADD MSTORE PUSH1 0x24 ADD PUSH2 0x615 JUMP JUMPDEST PUSH0 DUP1 MLOAD PUSH1 0x20 PUSH2 0x268E DUP4 CODECOPY DUP2 MLOAD SWAP2 MSTORE DUP2 EQ PUSH2 0x19C4 JUMPI PUSH1 0x40 MLOAD PUSH4 0x2A875269 PUSH1 0xE2 SHL DUP2 MSTORE PUSH1 0x4 DUP2 ADD DUP3 SWAP1 MSTORE PUSH1 0x24 ADD PUSH2 0x615 JUMP JUMPDEST PUSH2 0x19CE DUP4 DUP4 PUSH2 0x1CE8 JUMP JUMPDEST POP POP POP JUMP JUMPDEST ADDRESS PUSH1 0x1 PUSH1 0x1 PUSH1 0xA0 SHL SUB PUSH32 0x0 AND EQ PUSH2 0xB6F JUMPI PUSH1 0x40 MLOAD PUSH4 0x703E46DD PUSH1 0xE1 SHL DUP2 MSTORE PUSH1 0x4 ADD PUSH1 0x40 MLOAD DUP1 SWAP2 SUB SWAP1 REVERT JUMPDEST PUSH1 0x40 MLOAD PUSH12 0xFFFFFFFFFFFFFFFFFFFFFFFF NOT PUSH1 0x60 DUP8 SWAP1 SHL AND PUSH1 0x20 DUP3 ADD MSTORE PUSH1 0x34 DUP2 ADD DUP6 SWAP1 MSTORE PUSH1 0x54 DUP2 ADD DUP5 SWAP1 MSTORE PUSH0 SWAP1 PUSH1 0x74 ADD PUSH1 0x40 MLOAD PUSH1 0x20 DUP2 DUP4 SUB SUB DUP2 MSTORE SWAP1 PUSH1 0x40 MSTORE DUP1 MLOAD SWAP1 PUSH1 0x20 ADD KECCAK256 SWAP1 POP PUSH2 0x1AA4 DUP4 DUP4 DUP1 DUP1 PUSH1 0x1F ADD PUSH1 0x20 DUP1 SWAP2 DIV MUL PUSH1 0x20 ADD PUSH1 0x40 MLOAD SWAP1 DUP2 ADD PUSH1 0x40 MSTORE DUP1 SWAP4 SWAP3 SWAP2 SWAP1 DUP2 DUP2 MSTORE PUSH1 0x20 ADD DUP4 DUP4 DUP1 DUP3 DUP5 CALLDATACOPY PUSH0 SWAP3 ADD SWAP2 SWAP1 SWAP2 MSTORE POP DUP6 SWAP4 SWAP3 POP POP PUSH2 0x1C1E SWAP1 POP JUMP JUMPDEST PUSH0 SLOAD PUSH1 0x1 PUSH1 0x1 PUSH1 0xA0 SHL SUB SWAP1 DUP2 AND SWAP2 AND EQ PUSH2 0x1AF4 JUMPI PUSH1 0x40 MLOAD PUSH3 0x461BCD PUSH1 0xE5 SHL DUP2 MSTORE PUSH1 0x20 PUSH1 0x4 DUP3 ADD MSTORE PUSH1 0x11 PUSH1 0x24 DUP3 ADD MSTORE PUSH17 0x496E76616C6964207369676E6174757265 PUSH1 0x78 SHL PUSH1 0x44 DUP3 ADD MSTORE PUSH1 0x64 ADD PUSH2 0x615 JUMP JUMPDEST PUSH0 DUP2 DUP2 MSTORE PUSH1 0x3 PUSH1 0x20 MSTORE PUSH1 0x40 SWAP1 KECCAK256 SLOAD PUSH1 0xFF AND ISZERO PUSH2 0x1B47 JUMPI PUSH1 0x40 MLOAD PUSH3 0x461BCD PUSH1 0xE5 SHL DUP2 MSTORE PUSH1 0x20 PUSH1 0x4 DUP3 ADD MSTORE PUSH1 0x12 PUSH1 0x24 DUP3 ADD MSTORE PUSH18 0x139BDB98D948185B1C9958591E481D5CD959 PUSH1 0x72 SHL PUSH1 0x44 DUP3 ADD MSTORE PUSH1 0x64 ADD PUSH2 0x615 JUMP JUMPDEST PUSH0 SWAP1 DUP2 MSTORE PUSH1 0x3 PUSH1 0x20 MSTORE PUSH1 0x40 SWAP1 KECCAK256 DUP1 SLOAD PUSH1 0xFF NOT AND PUSH1 0x1 OR SWAP1 SSTORE POP POP POP POP POP JUMP JUMPDEST PUSH32 0x9016D09D72D40FDAE2FD8CEAC6B6234C7706214FD39C1CD1E609A0528C199300 DUP1 SLOAD PUSH1 0x1 PUSH1 0x1 PUSH1 0xA0 SHL SUB NOT DUP2 AND PUSH1 0x1 PUSH1 0x1 PUSH1 0xA0 SHL SUB DUP5 DUP2 AND SWAP2 DUP3 OR DUP5 SSTORE PUSH1 0x40 MLOAD SWAP3 AND SWAP2 DUP3 SWAP1 PUSH32 0x8BE0079C531659141344CD1FD0A4F28419497F9722A3DAAFE3B4186F6B6457E0 SWAP1 PUSH0 SWAP1 LOG3 POP POP POP JUMP JUMPDEST PUSH2 0x1BDE PUSH2 0x14B9 JUMP JUMPDEST PUSH0 DUP1 MLOAD PUSH1 0x20 PUSH2 0x26AE DUP4 CODECOPY DUP2 MLOAD SWAP2 MSTORE DUP1 SLOAD PUSH1 0xFF NOT AND PUSH1 0x1 OR DUP2 SSTORE PUSH32 0x62E78CEA01BEE320CD4E420270B5EA74000D11B0C9F74754EBDBFC544B05A258 CALLER PUSH2 0x184E JUMP JUMPDEST PUSH0 DUP1 PUSH0 DUP1 PUSH2 0x1C2C DUP7 DUP7 PUSH2 0x1D3D JUMP JUMPDEST SWAP3 POP SWAP3 POP SWAP3 POP PUSH2 0x1C3C DUP3 DUP3 PUSH2 0x1D86 JUMP JUMPDEST POP SWAP1 SWAP2 POP POP JUMPDEST SWAP3 SWAP2 POP POP JUMP JUMPDEST PUSH32 0xF0C57E16840DF040F15088DC2F81FE391C3923BEC73E23A9662EFC9C229C6A00 SLOAD PUSH1 0x1 PUSH1 0x40 SHL SWAP1 DIV PUSH1 0xFF AND PUSH2 0xB6F JUMPI PUSH1 0x40 MLOAD PUSH4 0x1AFCD79F PUSH1 0xE3 SHL DUP2 MSTORE PUSH1 0x4 ADD PUSH1 0x40 MLOAD DUP1 SWAP2 SUB SWAP1 REVERT JUMPDEST PUSH2 0x1C99 PUSH2 0x1C48 JUMP JUMPDEST PUSH0 DUP1 MLOAD PUSH1 0x20 PUSH2 0x26AE DUP4 CODECOPY DUP2 MLOAD SWAP2 MSTORE DUP1 SLOAD PUSH1 0xFF NOT AND SWAP1 SSTORE JUMP JUMPDEST PUSH2 0x137F PUSH2 0x1C48 JUMP JUMPDEST PUSH0 DUP1 MLOAD PUSH1 0x20 PUSH2 0x26AE DUP4 CODECOPY DUP2 MLOAD SWAP2 MSTORE SLOAD PUSH1 0xFF AND PUSH2 0xB6F JUMPI PUSH1 0x40 MLOAD PUSH4 0x8DFC202B PUSH1 0xE0 SHL DUP2 MSTORE PUSH1 0x4 ADD PUSH1 0x40 MLOAD DUP1 SWAP2 SUB SWAP1 REVERT JUMPDEST PUSH2 0x1CF1 DUP3 PUSH2 0x1E3E JUMP JUMPDEST PUSH1 0x40 MLOAD PUSH1 0x1 PUSH1 0x1 PUSH1 0xA0 SHL SUB DUP4 AND SWAP1 PUSH32 0xBC7CD75A20EE27FD9ADEBAB32041F755214DBC6BFFA90CC0225B39DA2E5C2D3B SWAP1 PUSH0 SWAP1 LOG2 DUP1 MLOAD ISZERO PUSH2 0x1D35 JUMPI PUSH2 0x19CE DUP3 DUP3 PUSH2 0x1EA1 JUMP JUMPDEST PUSH2 0xB8C PUSH2 0x1F13 JUMP JUMPDEST PUSH0 DUP1 PUSH0 DUP4 MLOAD PUSH1 0x41 SUB PUSH2 0x1D74 JUMPI PUSH1 0x20 DUP5 ADD MLOAD PUSH1 0x40 DUP6 ADD MLOAD PUSH1 0x60 DUP7 ADD MLOAD PUSH0 BYTE PUSH2 0x1D66 DUP9 DUP3 DUP6 DUP6 PUSH2 0x1F32 JUMP JUMPDEST SWAP6 POP SWAP6 POP SWAP6 POP POP POP POP PUSH2 0x1D7F JUMP JUMPDEST POP POP DUP2 MLOAD PUSH0 SWAP2 POP PUSH1 0x2 SWAP1 JUMPDEST SWAP3 POP SWAP3 POP SWAP3 JUMP JUMPDEST PUSH0 DUP3 PUSH1 0x3 DUP2 GT ISZERO PUSH2 0x1D99 JUMPI PUSH2 0x1D99 PUSH2 0x2663 JUMP JUMPDEST SUB PUSH2 0x1DA2 JUMPI POP POP JUMP JUMPDEST PUSH1 0x1 DUP3 PUSH1 0x3 DUP2 GT ISZERO PUSH2 0x1DB6 JUMPI PUSH2 0x1DB6 PUSH2 0x2663 JUMP JUMPDEST SUB PUSH2 0x1DD4 JUMPI PUSH1 0x40 MLOAD PUSH4 0xF645EEDF PUSH1 0xE0 SHL DUP2 MSTORE PUSH1 0x4 ADD PUSH1 0x40 MLOAD DUP1 SWAP2 SUB SWAP1 REVERT JUMPDEST PUSH1 0x2 DUP3 PUSH1 0x3 DUP2 GT ISZERO PUSH2 0x1DE8 JUMPI PUSH2 0x1DE8 PUSH2 0x2663 JUMP JUMPDEST SUB PUSH2 0x1E09 JUMPI PUSH1 0x40 MLOAD PUSH4 0xFCE698F7 PUSH1 0xE0 SHL DUP2 MSTORE PUSH1 0x4 DUP2 ADD DUP3 SWAP1 MSTORE PUSH1 0x24 ADD PUSH2 0x615 JUMP JUMPDEST PUSH1 0x3 DUP3 PUSH1 0x3 DUP2 GT ISZERO PUSH2 0x1E1D JUMPI PUSH2 0x1E1D PUSH2 0x2663 JUMP JUMPDEST SUB PUSH2 0xB8C JUMPI PUSH1 0x40 MLOAD PUSH4 0x35E2F383 PUSH1 0xE2 SHL DUP2 MSTORE PUSH1 0x4 DUP2 ADD DUP3 SWAP1 MSTORE PUSH1 0x24 ADD PUSH2 0x615 JUMP JUMPDEST DUP1 PUSH1 0x1 PUSH1 0x1 PUSH1 0xA0 SHL SUB AND EXTCODESIZE PUSH0 SUB PUSH2 0x1E73 JUMPI PUSH1 0x40 MLOAD PUSH4 0x4C9C8CE3 PUSH1 0xE0 SHL DUP2 MSTORE PUSH1 0x1 PUSH1 0x1 PUSH1 0xA0 SHL SUB DUP3 AND PUSH1 0x4 DUP3 ADD MSTORE PUSH1 0x24 ADD PUSH2 0x615 JUMP JUMPDEST PUSH0 DUP1 MLOAD PUSH1 0x20 PUSH2 0x268E DUP4 CODECOPY DUP2 MLOAD SWAP2 MSTORE DUP1 SLOAD PUSH1 0x1 PUSH1 0x1 PUSH1 0xA0 SHL SUB NOT AND PUSH1 0x1 PUSH1 0x1 PUSH1 0xA0 SHL SUB SWAP3 SWAP1 SWAP3 AND SWAP2 SWAP1 SWAP2 OR SWAP1 SSTORE JUMP JUMPDEST PUSH1 0x60 PUSH0 DUP1 DUP5 PUSH1 0x1 PUSH1 0x1 PUSH1 0xA0 SHL SUB AND DUP5 PUSH1 0x40 MLOAD PUSH2 0x1EBD SWAP2 SWAP1 PUSH2 0x2677 JUMP JUMPDEST PUSH0 PUSH1 0x40 MLOAD DUP1 DUP4 SUB DUP2 DUP6 GAS DELEGATECALL SWAP2 POP POP RETURNDATASIZE DUP1 PUSH0 DUP2 EQ PUSH2 0x1EF5 JUMPI PUSH1 0x40 MLOAD SWAP2 POP PUSH1 0x1F NOT PUSH1 0x3F RETURNDATASIZE ADD AND DUP3 ADD PUSH1 0x40 MSTORE RETURNDATASIZE DUP3 MSTORE RETURNDATASIZE PUSH0 PUSH1 0x20 DUP5 ADD RETURNDATACOPY PUSH2 0x1EFA JUMP JUMPDEST PUSH1 0x60 SWAP2 POP JUMPDEST POP SWAP2 POP SWAP2 POP PUSH2 0x1F0A DUP6 DUP4 DUP4 PUSH2 0x1FFA JUMP JUMPDEST SWAP6 SWAP5 POP POP POP POP POP JUMP JUMPDEST CALLVALUE ISZERO PUSH2 0xB6F JUMPI PUSH1 0x40 MLOAD PUSH4 0xB398979F PUSH1 0xE0 SHL DUP2 MSTORE PUSH1 0x4 ADD PUSH1 0x40 MLOAD DUP1 SWAP2 SUB SWAP1 REVERT JUMPDEST PUSH0 DUP1 DUP1 PUSH32 0x7FFFFFFFFFFFFFFFFFFFFFFFFFFFFFFF5D576E7357A4501DDFE92F46681B20A0 DUP5 GT ISZERO PUSH2 0x1F6B JUMPI POP PUSH0 SWAP2 POP PUSH1 0x3 SWAP1 POP DUP3 PUSH2 0x1FF0 JUMP JUMPDEST PUSH1 0x40 DUP1 MLOAD PUSH0 DUP1 DUP3 MSTORE PUSH1 0x20 DUP3 ADD DUP1 DUP5 MSTORE DUP11 SWAP1 MSTORE PUSH1 0xFF DUP10 AND SWAP3 DUP3 ADD SWAP3 SWAP1 SWAP3 MSTORE PUSH1 0x60 DUP2 ADD DUP8 SWAP1 MSTORE PUSH1 0x80 DUP2 ADD DUP7 SWAP1 MSTORE PUSH1 0x1 SWAP1 PUSH1 0xA0 ADD PUSH1 0x20 PUSH1 0x40 MLOAD PUSH1 0x20 DUP2 SUB SWAP1 DUP1 DUP5 SUB SWAP1 DUP6 GAS STATICCALL ISZERO DUP1 ISZERO PUSH2 0x1FBC JUMPI RETURNDATASIZE PUSH0 DUP1 RETURNDATACOPY RETURNDATASIZE PUSH0 REVERT JUMPDEST POP POP PUSH1 0x40 MLOAD PUSH1 0x1F NOT ADD MLOAD SWAP2 POP POP PUSH1 0x1 PUSH1 0x1 PUSH1 0xA0 SHL SUB DUP2 AND PUSH2 0x1FE7 JUMPI POP PUSH0 SWAP3 POP PUSH1 0x1 SWAP2 POP DUP3 SWAP1 POP PUSH2 0x1FF0 JUMP JUMPDEST SWAP3 POP PUSH0 SWAP2 POP DUP2 SWAP1 POP JUMPDEST SWAP5 POP SWAP5 POP SWAP5 SWAP2 POP POP JUMP JUMPDEST PUSH1 0x60 DUP3 PUSH2 0x200F JUMPI PUSH2 0x200A DUP3 PUSH2 0x2059 JUMP JUMPDEST PUSH2 0x2052 JUMP JUMPDEST DUP2 MLOAD ISZERO DUP1 ISZERO PUSH2 0x2026 JUMPI POP PUSH1 0x1 PUSH1 0x1 PUSH1 0xA0 SHL SUB DUP5 AND EXTCODESIZE ISZERO JUMPDEST ISZERO PUSH2 0x204F JUMPI PUSH1 0x40 MLOAD PUSH4 0x9996B315 PUSH1 0xE0 SHL DUP2 MSTORE PUSH1 0x1 PUSH1 0x1 PUSH1 0xA0 SHL SUB DUP6 AND PUSH1 0x4 DUP3 ADD MSTORE PUSH1 0x24 ADD PUSH2 0x615 JUMP JUMPDEST POP DUP1 JUMPDEST SWAP4 SWAP3 POP POP POP JUMP JUMPDEST DUP1 MLOAD ISZERO PUSH2 0x2069 JUMPI DUP1 MLOAD DUP1 DUP3 PUSH1 0x20 ADD REVERT JUMPDEST PUSH1 0x40 MLOAD PUSH4 0xA12F521 PUSH1 0xE1 SHL DUP2 MSTORE PUSH1 0x4 ADD PUSH1 0x40 MLOAD DUP1 SWAP2 SUB SWAP1 REVERT JUMPDEST PUSH0 PUSH1 0x20 DUP3 DUP5 SUB SLT ISZERO PUSH2 0x2092 JUMPI PUSH0 DUP1 REVERT JUMPDEST POP CALLDATALOAD SWAP2 SWAP1 POP JUMP JUMPDEST PUSH0 DUP1 DUP4 PUSH1 0x1F DUP5 ADD SLT PUSH2 0x20A9 JUMPI PUSH0 DUP1 REVERT JUMPDEST POP DUP2 CALLDATALOAD PUSH8 0xFFFFFFFFFFFFFFFF DUP2 GT ISZERO PUSH2 0x20C0 JUMPI PUSH0 DUP1 REVERT JUMPDEST PUSH1 0x20 DUP4 ADD SWAP2 POP DUP4 PUSH1 0x20 DUP3 PUSH1 0x5 SHL DUP6 ADD ADD GT ISZERO PUSH2 0x20DA JUMPI PUSH0 DUP1 REVERT JUMPDEST SWAP3 POP SWAP3 SWAP1 POP JUMP JUMPDEST PUSH0 DUP1 DUP4 PUSH1 0x1F DUP5 ADD SLT PUSH2 0x20F1 JUMPI PUSH0 DUP1 REVERT JUMPDEST POP DUP2 CALLDATALOAD PUSH8 0xFFFFFFFFFFFFFFFF DUP2 GT ISZERO PUSH2 0x2108 JUMPI PUSH0 DUP1 REVERT JUMPDEST PUSH1 0x20 DUP4 ADD SWAP2 POP DUP4 PUSH1 0x20 DUP3 DUP6 ADD ADD GT ISZERO PUSH2 0x20DA JUMPI PUSH0 DUP1 REVERT JUMPDEST PUSH0 DUP1 PUSH0 DUP1 PUSH0 DUP1 PUSH0 PUSH1 0x80 DUP9 DUP11 SUB SLT ISZERO PUSH2 0x2135 JUMPI PUSH0 DUP1 REVERT JUMPDEST DUP8 CALLDATALOAD PUSH8 0xFFFFFFFFFFFFFFFF DUP1 DUP3 GT ISZERO PUSH2 0x214C JUMPI PUSH0 DUP1 REVERT JUMPDEST PUSH2 0x2158 DUP12 DUP4 DUP13 ADD PUSH2 0x2099 JUMP JUMPDEST SWAP1 SWAP10 POP SWAP8 POP PUSH1 0x20 DUP11 ADD CALLDATALOAD SWAP2 POP DUP1 DUP3 GT ISZERO PUSH2 0x2170 JUMPI PUSH0 DUP1 REVERT JUMPDEST PUSH2 0x217C DUP12 DUP4 DUP13 ADD PUSH2 0x2099 JUMP JUMPDEST SWAP1 SWAP8 POP SWAP6 POP PUSH1 0x40 DUP11 ADD CALLDATALOAD SWAP5 POP PUSH1 0x60 DUP11 ADD CALLDATALOAD SWAP2 POP DUP1 DUP3 GT ISZERO PUSH2 0x219B JUMPI PUSH0 DUP1 REVERT JUMPDEST POP PUSH2 0x21A8 DUP11 DUP3 DUP12 ADD PUSH2 0x20E1 JUMP JUMPDEST SWAP9 SWAP12 SWAP8 SWAP11 POP SWAP6 SWAP9 POP SWAP4 SWAP7 SWAP3 SWAP6 SWAP3 SWAP4 POP POP POP JUMP JUMPDEST PUSH1 0x1 PUSH1 0x1 PUSH1 0xA0 SHL SUB DUP2 AND DUP2 EQ PUSH2 0x13B1 JUMPI PUSH0 DUP1 REVERT JUMPDEST PUSH0 PUSH1 0x20 DUP3 DUP5 SUB SLT ISZERO PUSH2 0x21DF JUMPI PUSH0 DUP1 REVERT JUMPDEST DUP2 CALLDATALOAD PUSH2 0x2052 DUP2 PUSH2 0x21BB JUMP JUMPDEST PUSH0 DUP1 PUSH0 PUSH1 0x60 DUP5 DUP7 SUB SLT ISZERO PUSH2 0x21FC JUMPI PUSH0 DUP1 REVERT JUMPDEST DUP4 CALLDATALOAD PUSH2 0x2207 DUP2 PUSH2 0x21BB JUMP JUMPDEST SWAP3 POP PUSH1 0x20 DUP5 ADD CALLDATALOAD PUSH2 0x2217 DUP2 PUSH2 0x21BB JUMP JUMPDEST SWAP3 SWAP6 SWAP3 SWAP5 POP POP POP PUSH1 0x40 SWAP2 SWAP1 SWAP2 ADD CALLDATALOAD SWAP1 JUMP JUMPDEST PUSH4 0x4E487B71 PUSH1 0xE0 SHL PUSH0 MSTORE PUSH1 0x41 PUSH1 0x4 MSTORE PUSH1 0x24 PUSH0 REVERT JUMPDEST PUSH0 DUP1 PUSH1 0x40 DUP4 DUP6 SUB SLT ISZERO PUSH2 0x224D JUMPI PUSH0 DUP1 REVERT JUMPDEST DUP3 CALLDATALOAD PUSH2 0x2258 DUP2 PUSH2 0x21BB JUMP JUMPDEST SWAP2 POP PUSH1 0x20 DUP4 ADD CALLDATALOAD PUSH8 0xFFFFFFFFFFFFFFFF DUP1 DUP3 GT ISZERO PUSH2 0x2274 JUMPI PUSH0 DUP1 REVERT JUMPDEST DUP2 DUP6 ADD SWAP2 POP DUP6 PUSH1 0x1F DUP4 ADD SLT PUSH2 0x2287 JUMPI PUSH0 DUP1 REVERT JUMPDEST DUP2 CALLDATALOAD DUP2 DUP2 GT ISZERO PUSH2 0x2299 JUMPI PUSH2 0x2299 PUSH2 0x2228 JUMP JUMPDEST PUSH1 0x40 MLOAD PUSH1 0x1F DUP3 ADD PUSH1 0x1F NOT SWAP1 DUP2 AND PUSH1 0x3F ADD AND DUP2 ADD SWAP1 DUP4 DUP3 GT DUP2 DUP4 LT OR ISZERO PUSH2 0x22C1 JUMPI PUSH2 0x22C1 PUSH2 0x2228 JUMP JUMPDEST DUP2 PUSH1 0x40 MSTORE DUP3 DUP2 MSTORE DUP9 PUSH1 0x20 DUP5 DUP8 ADD ADD GT ISZERO PUSH2 0x22D9 JUMPI PUSH0 DUP1 REVERT JUMPDEST DUP3 PUSH1 0x20 DUP7 ADD PUSH1 0x20 DUP4 ADD CALLDATACOPY PUSH0 PUSH1 0x20 DUP5 DUP4 ADD ADD MSTORE DUP1 SWAP6 POP POP POP POP POP POP SWAP3 POP SWAP3 SWAP1 POP JUMP JUMPDEST PUSH0 DUP1 PUSH0 DUP1 PUSH1 0x60 DUP6 DUP8 SUB SLT ISZERO PUSH2 0x230D JUMPI PUSH0 DUP1 REVERT JUMPDEST DUP5 CALLDATALOAD SWAP4 POP PUSH1 0x20 DUP6 ADD CALLDATALOAD SWAP3 POP PUSH1 0x40 DUP6 ADD CALLDATALOAD PUSH8 0xFFFFFFFFFFFFFFFF DUP2 GT ISZERO PUSH2 0x2331 JUMPI PUSH0 DUP1 REVERT JUMPDEST PUSH2 0x233D DUP8 DUP3 DUP9 ADD PUSH2 0x20E1 JUMP JUMPDEST SWAP6 SWAP9 SWAP5 SWAP8 POP SWAP6 POP POP POP POP JUMP JUMPDEST PUSH0 DUP1 PUSH0 PUSH1 0x60 DUP5 DUP7 SUB SLT ISZERO PUSH2 0x235B JUMPI PUSH0 DUP1 REVERT JUMPDEST DUP4 CALLDATALOAD PUSH2 0x2366 DUP2 PUSH2 0x21BB JUMP JUMPDEST SWAP6 PUSH1 0x20 DUP6 ADD CALLDATALOAD SWAP6 POP PUSH1 0x40 SWAP1 SWAP5 ADD CALLDATALOAD SWAP4 SWAP3 POP POP POP JUMP JUMPDEST PUSH1 0x20 DUP2 MSTORE PUSH0 DUP3 MLOAD DUP1 PUSH1 0x20 DUP5 ADD MSTORE DUP1 PUSH1 0x20 DUP6 ADD PUSH1 0x40 DUP6 ADD MCOPY PUSH0 PUSH1 0x40 DUP3 DUP6 ADD ADD MSTORE PUSH1 0x40 PUSH1 0x1F NOT PUSH1 0x1F DUP4 ADD AND DUP5 ADD ADD SWAP2 POP POP SWAP3 SWAP2 POP POP JUMP JUMPDEST PUSH0 DUP1 PUSH0 DUP1 PUSH1 0x40 DUP6 DUP8 SUB SLT ISZERO PUSH2 0x23C3 JUMPI PUSH0 DUP1 REVERT JUMPDEST DUP5 CALLDATALOAD PUSH8 0xFFFFFFFFFFFFFFFF DUP1 DUP3 GT ISZERO PUSH2 0x23DA JUMPI PUSH0 DUP1 REVERT JUMPDEST PUSH2 0x23E6 DUP9 DUP4 DUP10 ADD PUSH2 0x2099 JUMP JUMPDEST SWAP1 SWAP7 POP SWAP5 POP PUSH1 0x20 DUP8 ADD CALLDATALOAD SWAP2 POP DUP1 DUP3 GT ISZERO PUSH2 0x23FE JUMPI PUSH0 DUP1 REVERT JUMPDEST POP PUSH2 0x233D DUP8 DUP3 DUP9 ADD PUSH2 0x2099 JUMP JUMPDEST DUP1 ISZERO ISZERO DUP2 EQ PUSH2 0x13B1 JUMPI PUSH0 DUP1 REVERT JUMPDEST PUSH0 DUP1 PUSH1 0x40 DUP4 DUP6 SUB SLT ISZERO PUSH2 0x2429 JUMPI PUSH0 DUP1 REVERT JUMPDEST DUP3 CALLDATALOAD SWAP2 POP PUSH1 0x20 DUP4 ADD CALLDATALOAD PUSH2 0x243B DUP2 PUSH2 0x240B JUMP JUMPDEST DUP1 SWAP2 POP POP SWAP3 POP SWAP3 SWAP1 POP JUMP JUMPDEST PUSH0 DUP1 PUSH1 0x40 DUP4 DUP6 SUB SLT ISZERO PUSH2 0x2457 JUMPI PUSH0 DUP1 REVERT JUMPDEST DUP3 CALLDATALOAD SWAP2 POP PUSH1 0x20 DUP4 ADD CALLDATALOAD PUSH2 0x243B DUP2 PUSH2 0x21BB JUMP JUMPDEST PUSH1 0x20 DUP1 DUP3 MSTORE PUSH1 0x22 SWAP1 DUP3 ADD MSTORE PUSH32 0x4F6E6C792061646D696E2063616E20706572666F726D20746869732061637469 PUSH1 0x40 DUP3 ADD MSTORE PUSH2 0x37B7 PUSH1 0xF1 SHL PUSH1 0x60 DUP3 ADD MSTORE PUSH1 0x80 ADD SWAP1 JUMP JUMPDEST PUSH0 PUSH1 0x20 DUP3 DUP5 SUB SLT ISZERO PUSH2 0x24BB JUMPI PUSH0 DUP1 REVERT JUMPDEST DUP2 MLOAD PUSH2 0x2052 DUP2 PUSH2 0x240B JUMP JUMPDEST PUSH1 0x20 DUP1 DUP3 MSTORE PUSH1 0xF SWAP1 DUP3 ADD MSTORE PUSH15 0x151C985B9CD9995C8819985A5B1959 PUSH1 0x8A SHL PUSH1 0x40 DUP3 ADD MSTORE PUSH1 0x60 ADD SWAP1 JUMP JUMPDEST PUSH4 0x4E487B71 PUSH1 0xE0 SHL PUSH0 MSTORE PUSH1 0x11 PUSH1 0x4 MSTORE PUSH1 0x24 PUSH0 REVERT JUMPDEST DUP2 DUP2 SUB DUP2 DUP2 GT ISZERO PUSH2 0x1C42 JUMPI PUSH2 0x1C42 PUSH2 0x24EF JUMP JUMPDEST PUSH4 0x4E487B71 PUSH1 0xE0 SHL PUSH0 MSTORE PUSH1 0x32 PUSH1 0x4 MSTORE PUSH1 0x24 PUSH0 REVERT JUMPDEST PUSH1 0x40 DUP1 DUP3 MSTORE DUP2 ADD DUP5 SWAP1 MSTORE PUSH0 DUP6 PUSH1 0x60 DUP4 ADD DUP3 JUMPDEST DUP8 DUP2 LT ISZERO PUSH2 0x256C JUMPI DUP3 CALLDATALOAD PUSH2 0x254F DUP2 PUSH2 0x21BB JUMP JUMPDEST PUSH1 0x1 PUSH1 0x1 PUSH1 0xA0 SHL SUB AND DUP3 MSTORE PUSH1 0x20 SWAP3 DUP4 ADD SWAP3 SWAP1 SWAP2 ADD SWAP1 PUSH1 0x1 ADD PUSH2 0x253C JUMP JUMPDEST POP DUP4 DUP2 SUB PUSH1 0x20 DUP6 ADD MSTORE DUP5 DUP2 MSTORE PUSH1 0x1 PUSH1 0x1 PUSH1 0xFB SHL SUB DUP6 GT ISZERO PUSH2 0x258B JUMPI PUSH0 DUP1 REVERT JUMPDEST DUP5 PUSH1 0x5 SHL SWAP2 POP DUP2 DUP7 PUSH1 0x20 DUP4 ADD CALLDATACOPY ADD PUSH1 0x20 ADD SWAP7 SWAP6 POP POP POP POP POP POP JUMP JUMPDEST PUSH0 PUSH1 0x1 DUP3 ADD PUSH2 0x25B7 JUMPI PUSH2 0x25B7 PUSH2 0x24EF JUMP JUMPDEST POP PUSH1 0x1 ADD SWAP1 JUMP JUMPDEST PUSH0 PUSH1 0x20 DUP3 DUP5 SUB SLT ISZERO PUSH2 0x25CE JUMPI PUSH0 DUP1 REVERT JUMPDEST POP MLOAD SWAP2 SWAP1 POP JUMP JUMPDEST DUP1 DUP3 MUL DUP2 ISZERO DUP3 DUP3 DIV DUP5 EQ OR PUSH2 0x1C42 JUMPI PUSH2 0x1C42 PUSH2 0x24EF JUMP JUMPDEST DUP1 DUP3 ADD DUP1 DUP3 GT ISZERO PUSH2 0x1C42 JUMPI PUSH2 0x1C42 PUSH2 0x24EF JUMP JUMPDEST PUSH0 DUP2 DUP8 DUP3 JUMPDEST DUP9 DUP2 LT ISZERO PUSH2 0x2635 JUMPI DUP2 CALLDATALOAD PUSH2 0x2617 DUP2 PUSH2 0x21BB JUMP JUMPDEST PUSH1 0x1 PUSH1 0x1 PUSH1 0xA0 SHL SUB AND DUP4 MSTORE PUSH1 0x20 SWAP3 DUP4 ADD SWAP3 SWAP2 SWAP1 SWAP2 ADD SWAP1 PUSH1 0x1 ADD PUSH2 0x2604 JUMP JUMPDEST POP POP PUSH1 0x1 PUSH1 0x1 PUSH1 0xFB SHL SUB DUP6 GT ISZERO PUSH2 0x264A JUMPI PUSH0 DUP1 REVERT JUMPDEST DUP5 PUSH1 0x5 SHL DUP1 DUP8 DUP4 CALLDATACOPY ADD SWAP3 DUP4 MSTORE POP POP PUSH1 0x20 ADD SWAP5 SWAP4 POP POP POP POP JUMP JUMPDEST PUSH4 0x4E487B71 PUSH1 0xE0 SHL PUSH0 MSTORE PUSH1 0x21 PUSH1 0x4 MSTORE PUSH1 0x24 PUSH0 REVERT JUMPDEST PUSH0 DUP3 MLOAD DUP1 PUSH1 0x20 DUP6 ADD DUP5 MCOPY PUSH0 SWAP3 ADD SWAP2 DUP3 MSTORE POP SWAP2 SWAP1 POP JUMP INVALID CALLDATASIZE ADDMOD SWAP5 LOG1 EXTCODESIZE LOG1 LOG3 0x21 MOD PUSH8 0xC828492DB98DCA3E KECCAK256 PUSH23 0xCC3735A920A3CA505D382BBCCD5ED15C6E187E77E9AEE8 DUP2 DUP5 0xC2 0x1F 0x4F 0x21 DUP3 0xAB PC 0x27 0xCB EXTCODESIZE PUSH31 0x7FBEDCD63F03300A2646970667358221220C01F56BE0DEB1EEB812719ACEA PUSH12 0xAD2C3B45F58AC5E0A164BD2 0xEC DUP2 PUSH30 0x2E3A164736F6C6343000819003300000000000000000000000000000000 "
				},
				"gasEstimates": {
					"creation": {
						"codeDepositCost": "1997400",
						"executionCost": "infinite",
						"totalCost": "infinite"
					},
					"external": {
						"UPGRADE_INTERFACE_VERSION()": "infinite",
						"admin()": "2390",
						"balances(address)": "2600",
						"batchUpdateBalances(address[],uint256[],uint256,bytes)": "infinite",
						"batchUpdateChannelbyadmin(address[],uint256[])": "infinite",
						"changeAdmin(address)": "infinite",
						"closeChannel(uint256,uint256,bytes)": "infinite",
						"closeChannelByDAO(address,uint256,uint256)": "infinite",
						"depositToReserve(uint256)": "infinite",
						"initialize(address,address,uint256)": "infinite",
						"nextVoteId()": "2383",
						"openChannel(uint256)": "infinite",
						"owner()": "2365",
						"pause()": "infinite",
						"paused()": "infinite",
						"pointToken()": "2393",
						"proxiableUUID()": "infinite",
						"renounceOwnership()": "infinite",
						"reserveBalance()": "2384",
						"startVoteToCloseChannel(address)": "infinite",
						"totalWeights(uint256)": "2524",
						"transferOwnership(address)": "infinite",
						"unpause()": "infinite",
						"updateChannelState(uint256,uint256,bytes)": "infinite",
						"upgradeToAndCall(address,bytes)": "infinite",
						"usedNonces(bytes32)": "2557",
						"vote(uint256,bool)": "infinite",
						"voteWeights(uint256)": "2525",
						"votes(uint256,address)": "2692",
						"withdrawFromReserve(uint256)": "infinite"
					},
					"internal": {
						"_authorizeUpgrade(address)": "infinite",
						"_updateBalance(address,uint256)": "infinite",
						"_verifyBatchSignature(address[] calldata,uint256[] calldata,uint256,bytes calldata)": "infinite",
						"_verifySignature(address,uint256,uint256,bytes calldata)": "infinite"
					}
				},
				"methodIdentifiers": {
					"UPGRADE_INTERFACE_VERSION()": "ad3cb1cc",
					"admin()": "f851a440",
					"balances(address)": "27e235e3",
					"batchUpdateBalances(address[],uint256[],uint256,bytes)": "1145a4ff",
					"batchUpdateChannelbyadmin(address[],uint256[])": "c6b0da1b",
					"changeAdmin(address)": "8f283970",
					"closeChannel(uint256,uint256,bytes)": "eecbbb72",
					"closeChannelByDAO(address,uint256,uint256)": "6e631a4d",
					"depositToReserve(uint256)": "b17d718e",
					"initialize(address,address,uint256)": "1794bb3c",
					"nextVoteId()": "e207d04d",
					"openChannel(uint256)": "fd85b1a7",
					"owner()": "8da5cb5b",
					"pause()": "8456cb59",
					"paused()": "5c975abb",
					"pointToken()": "2251d3f0",
					"proxiableUUID()": "52d1902d",
					"renounceOwnership()": "715018a6",
					"reserveBalance()": "a10954fe",
					"startVoteToCloseChannel(address)": "14068e94",
					"totalWeights(uint256)": "b62e1efc",
					"transferOwnership(address)": "f2fde38b",
					"unpause()": "3f4ba83a",
					"updateChannelState(uint256,uint256,bytes)": "68f25734",
					"upgradeToAndCall(address,bytes)": "4f1ef286",
					"usedNonces(bytes32)": "feb61724",
					"vote(uint256,bool)": "c9d27afe",
					"voteWeights(uint256)": "56f40aa2",
					"votes(uint256,address)": "d23254b4",
					"withdrawFromReserve(uint256)": "0a8bcdb9"
				}
			},
			"storageLayout": {
				"storage": [
					{
						"astId": 1989,
						"contract": "contracts/sis.sol:PicWe_StateIdentification",
						"label": "admin",
						"offset": 0,
						"slot": "0",
						"type": "t_address"
					},
					{
						"astId": 1992,
						"contract": "contracts/sis.sol:PicWe_StateIdentification",
						"label": "pointToken",
						"offset": 0,
						"slot": "1",
						"type": "t_contract(IERC20)1616"
					},
					{
						"astId": 1996,
						"contract": "contracts/sis.sol:PicWe_StateIdentification",
						"label": "balances",
						"offset": 0,
						"slot": "2",
						"type": "t_mapping(t_address,t_uint256)"
					},
					{
						"astId": 2000,
						"contract": "contracts/sis.sol:PicWe_StateIdentification",
						"label": "usedNonces",
						"offset": 0,
						"slot": "3",
						"type": "t_mapping(t_bytes32,t_bool)"
					},
					{
						"astId": 2006,
						"contract": "contracts/sis.sol:PicWe_StateIdentification",
						"label": "votes",
						"offset": 0,
						"slot": "4",
						"type": "t_mapping(t_uint256,t_mapping(t_address,t_bool))"
					},
					{
						"astId": 2010,
						"contract": "contracts/sis.sol:PicWe_StateIdentification",
						"label": "voteWeights",
						"offset": 0,
						"slot": "5",
						"type": "t_mapping(t_uint256,t_uint256)"
					},
					{
						"astId": 2014,
						"contract": "contracts/sis.sol:PicWe_StateIdentification",
						"label": "totalWeights",
						"offset": 0,
						"slot": "6",
						"type": "t_mapping(t_uint256,t_uint256)"
					},
					{
						"astId": 2018,
						"contract": "contracts/sis.sol:PicWe_StateIdentification",
						"label": "voteToParticipant",
						"offset": 0,
						"slot": "7",
						"type": "t_mapping(t_uint256,t_address)"
					},
					{
						"astId": 2020,
						"contract": "contracts/sis.sol:PicWe_StateIdentification",
						"label": "nextVoteId",
						"offset": 0,
						"slot": "8",
						"type": "t_uint256"
					},
					{
						"astId": 2022,
						"contract": "contracts/sis.sol:PicWe_StateIdentification",
						"label": "reserveBalance",
						"offset": 0,
						"slot": "9",
						"type": "t_uint256"
					}
				],
				"types": {
					"t_address": {
						"encoding": "inplace",
						"label": "address",
						"numberOfBytes": "20"
					},
					"t_bool": {
						"encoding": "inplace",
						"label": "bool",
						"numberOfBytes": "1"
					},
					"t_bytes32": {
						"encoding": "inplace",
						"label": "bytes32",
						"numberOfBytes": "32"
					},
					"t_contract(IERC20)1616": {
						"encoding": "inplace",
						"label": "contract IERC20",
						"numberOfBytes": "20"
					},
					"t_mapping(t_address,t_bool)": {
						"encoding": "mapping",
						"key": "t_address",
						"label": "mapping(address => bool)",
						"numberOfBytes": "32",
						"value": "t_bool"
					},
					"t_mapping(t_address,t_uint256)": {
						"encoding": "mapping",
						"key": "t_address",
						"label": "mapping(address => uint256)",
						"numberOfBytes": "32",
						"value": "t_uint256"
					},
					"t_mapping(t_bytes32,t_bool)": {
						"encoding": "mapping",
						"key": "t_bytes32",
						"label": "mapping(bytes32 => bool)",
						"numberOfBytes": "32",
						"value": "t_bool"
					},
					"t_mapping(t_uint256,t_address)": {
						"encoding": "mapping",
						"key": "t_uint256",
						"label": "mapping(uint256 => address)",
						"numberOfBytes": "32",
						"value": "t_address"
					},
					"t_mapping(t_uint256,t_mapping(t_address,t_bool))": {
						"encoding": "mapping",
						"key": "t_uint256",
						"label": "mapping(uint256 => mapping(address => bool))",
						"numberOfBytes": "32",
						"value": "t_mapping(t_address,t_bool)"
					},
					"t_mapping(t_uint256,t_uint256)": {
						"encoding": "mapping",
						"key": "t_uint256",
						"label": "mapping(uint256 => uint256)",
						"numberOfBytes": "32",
						"value": "t_uint256"
					},
					"t_uint256": {
						"encoding": "inplace",
						"label": "uint256",
						"numberOfBytes": "32"
					}
				}
			},
			"userdoc": {
				"kind": "user",
				"methods": {},
				"version": 1
			}
		}
	}
}